{"abi":[{"inputs":[{"internalType":"address","name":"_l1DomainSideContractAddress","type":"address"}],"stateMutability":"nonpayable","type":"constructor","name":"constructor"},{"anonymous":false,"inputs":[{"indexed":false,"internalType":"bytes32","name":"hash","type":"bytes32"}],"name":"NewHashChainHeadDeclared","type":"event"},{"anonymous":false,"inputs":[{"components":[{"internalType":"bytes32","name":"transferDataHash","type":"bytes32"},{"internalType":"address","name":"tokenAddress","type":"address"},{"internalType":"address","name":"claimer","type":"address"},{"internalType":"uint256","name":"fee","type":"uint256"}],"indexed":false,"internalType":"struct DestinationDomainSideBridge.RewardData","name":"rewardData","type":"tuple"}],"name":"Reward","type":"event"},{"inputs":[{"components":[{"internalType":"address","name":"tokenAddress","type":"address"},{"internalType":"address","name":"destination","type":"address"},{"internalType":"uint256","name":"amount","type":"uint256"},{"internalType":"uint256","name":"fee","type":"uint256"},{"internalType":"uint256","name":"startTime","type":"uint256"},{"internalType":"uint256","name":"feeRampup","type":"uint256"},{"internalType":"uint256","name":"nonce","type":"uint256"}],"internalType":"struct DestinationDomainSideBridge.TransferData","name":"_transferData","type":"tuple"}],"name":"claim","outputs":[],"stateMutability":"payable","type":"function"},{"inputs":[],"name":"claimCount","outputs":[{"internalType":"uint256","name":"","type":"uint256"}],"stateMutability":"view","type":"function"},{"inputs":[],"name":"declareNewHashChainHead","outputs":[],"stateMutability":"nonpayable","type":"function"},{"inputs":[{"internalType":"uint256","name":"","type":"uint256"}],"name":"rewardHashOnionHistoryList","outputs":[{"internalType":"bytes32","name":"","type":"bytes32"}],"stateMutability":"view","type":"function"}],"bytecode":"608060405234801561001057600080fd5b50604051610a52380380610a5283398101604081905261002f91610054565b600580546001600160a01b0319166001600160a01b0392909216919091179055610084565b60006020828403121561006657600080fd5b81516001600160a01b038116811461007d57600080fd5b9392505050565b6109bf806100936000396000f3fe60806040526004361061003f5760003560e01c80635142042d146100445780637afb3a9f146100765780638da4d3c91461008b578063ee627198146100a1575b600080fd5b34801561005057600080fd5b5061006461005f3660046106a8565b6100b6565b60405190815260200160405180910390f35b6100896100843660046106dd565b6100d7565b005b34801561009757600080fd5b5061006460025481565b3480156100ad57600080fd5b506100896104af565b600181815481106100c657600080fd5b600091825260209091200154905081565b600060028260405160200161013e919081516001600160a01b0390811682526020808401519091169082015260408083015190820152606080830151908201526080808301519082015260a0828101519082015260c0918201519181019190915260e00190565b60408051601f1981840301815290829052610158916107a7565b602060405180830381855afa158015610175573d6000803e3d6000fd5b5050506040513d601f19601f8201168201806040525081019061019891906107c3565b60008181526003602052604090205490915060ff16156101ff5760405162461bcd60e51b815260206004820152601b60248201527f5472616e7366657220616c726561647920636c61696d6564212121000000000060448201526064015b60405180910390fd5b6000818152600360205260408120805460ff191660011790556102228342610646565b6040805160808101825260006020808301828152838501838152606085018481528986528a516001600160a01b03169092523390528590529054925193945090926002926102749290918591016107dc565b60408051601f198184030181529082905261028e916107a7565b602060405180830381855afa1580156102ab573d6000803e3d6000fd5b5050506040513d601f19601f820116820180604052508101906102ce91906107c3565b6000556040517f0c75b1d455fabe67006b1491563530b1e3a03f653220fa7a120fed565365719c90610301908390610826565b60405180910390a16002805490600061031983610878565b9190505550600160025461032d9190610891565b600003610369576000805460018054808201825592527fb10e2d527612073b26eecdfd717e6a320cf44b4afac2b0732d9fcbe2b7fa0cf6909101555b83516001600160a01b031661041f5783604001513410156103d85760405162461bcd60e51b8152602060048201526024808201527f4572726f72203a204e6f6e2053756666656369656e742066756e6473212121216044820152632121212160e01b60648201526084016101f6565b83602001516001600160a01b03166108fc85604001519081150290604051600060405180830381858888f19350505050158015610419573d6000803e3d6000fd5b506104a9565b8351602085015160408087015190516323b872dd60e01b81523360048201526001600160a01b0392831660248201526044810191909152908216906323b872dd906064016020604051808303816000875af1158015610482573d6000803e3d6000fd5b505050506040513d601f19601f820116820180604052508101906104a691906108b3565b50505b50505050565b600154600454106105025760405162461bcd60e51b815260206004820152601d60248201527f4e6f206e65772068617368206f6e696f6e7320746f207265706f72742e00000060448201526064016101f6565b7fbf40dd9952af969bd08165e3b3f21ea02061db25943eec44affa815f08b64201600160045481548110610538576105386108d5565b906000526020600020015460405161055291815260200190565b60405180910390a1600554600454600180546007602160991b01938493633dbb202b936001600160a01b0390921692811061058f5761058f6108d5565b90600052602060002001546040516024016105ac91815260200190565b60408051601f198184030181529181526020820180516001600160e01b0316631647998f60e31b1790525160e084901b6001600160e01b03191681526105fb929190620f4240906004016108eb565b600060405180830381600087803b15801561061557600080fd5b505af1158015610629573d6000803e3d6000fd5b50506004805492509050600061063e83610878565b919050555050565b6000826080015182101561065c575060006106a2565b8260a001518360800151610670919061093b565b8210610681575060608201516106a2565b60808301516106909083610953565b836060015161069f919061096a565b90505b92915050565b6000602082840312156106ba57600080fd5b5035919050565b80356001600160a01b03811681146106d857600080fd5b919050565b600060e082840312156106ef57600080fd5b60405160e0810181811067ffffffffffffffff8211171561072057634e487b7160e01b600052604160045260246000fd5b60405261072c836106c1565b815261073a602084016106c1565b602082015260408301356040820152606083013560608201526080830135608082015260a083013560a082015260c083013560c08201528091505092915050565b60005b8381101561079657818101518382015260200161077e565b838111156104a95750506000910152565b600082516107b981846020870161077b565b9190910192915050565b6000602082840312156107d557600080fd5b5051919050565b82815260a0810161081f6020830184805182526020808201516001600160a01b039081169184019190915260408083015190911690830152606090810151910152565b9392505050565b815181526020808301516001600160a01b03908116918301919091526040808401519091169082015260608083015190820152608081016106a2565b634e487b7160e01b600052601160045260246000fd5b60006001820161088a5761088a610862565b5060010190565b6000826108ae57634e487b7160e01b600052601260045260246000fd5b500690565b6000602082840312156108c557600080fd5b8151801515811461081f57600080fd5b634e487b7160e01b600052603260045260246000fd5b60018060a01b0384168152606060208201526000835180606084015261091881608085016020880161077b565b63ffffffff93909316604083015250601f91909101601f19160160800192915050565b6000821982111561094e5761094e610862565b500190565b60008282101561096557610965610862565b500390565b600081600019048311821515161561098457610984610862565b50029056fea26469706673582212208cf33c33b32a404304c228221767cb363baa5df1dd3473deb84f9deb73143b0764736f6c634300080d0033","bytecodeSha1":"8a1cfa07ba60dad9920b559e9a9d8bdfd870c070","compiler":{"evm_version":"istanbul","optimizer":{"enabled":true,"runs":200},"version":"0.8.13+commit.abaa5c0e"},"contractName":"DestinationDomainSideBridge","language":"Solidity","natspec":{"author":"Sherif Abdelmoatty","kind":"dev","methods":{"claim((address,address,uint256,uint256,uint256,uint256,uint256))":{"notice":"withdraw functionwithdraws the required funds plus fees to be sent to the domain side rollup"},"constructor":{"notice":"Constructior functionIntialize variables"},"declareNewHashChainHead()":{"notice":"getLPFee functioncalculates the liquidity provider fee."}},"notice":"This contract is to be deployed in the destination rollup","title":"DestinationDomainSideBridge Contract","version":1},"opcodes":"PUSH1 0x80 PUSH1 0x40 MSTORE PUSH1 0x4 CALLDATASIZE LT PUSH2 0x3F JUMPI PUSH1 0x0 CALLDATALOAD PUSH1 0xE0 SHR DUP1 PUSH4 0x5142042D EQ PUSH2 0x44 JUMPI DUP1 PUSH4 0x7AFB3A9F EQ PUSH2 0x76 JUMPI DUP1 PUSH4 0x8DA4D3C9 EQ PUSH2 0x8B JUMPI DUP1 PUSH4 0xEE627198 EQ PUSH2 0xA1 JUMPI JUMPDEST PUSH1 0x0 DUP1 REVERT JUMPDEST CALLVALUE DUP1 ISZERO PUSH2 0x50 JUMPI PUSH1 0x0 DUP1 REVERT JUMPDEST POP PUSH2 0x64 PUSH2 0x5F CALLDATASIZE PUSH1 0x4 PUSH2 0x6A8 JUMP JUMPDEST PUSH2 0xB6 JUMP JUMPDEST PUSH1 0x40 MLOAD SWAP1 DUP2 MSTORE PUSH1 0x20 ADD PUSH1 0x40 MLOAD DUP1 SWAP2 SUB SWAP1 RETURN JUMPDEST PUSH2 0x89 PUSH2 0x84 CALLDATASIZE PUSH1 0x4 PUSH2 0x6DD JUMP JUMPDEST PUSH2 0xD7 JUMP JUMPDEST STOP JUMPDEST CALLVALUE DUP1 ISZERO PUSH2 0x97 JUMPI PUSH1 0x0 DUP1 REVERT JUMPDEST POP PUSH2 0x64 PUSH1 0x2 SLOAD DUP2 JUMP JUMPDEST CALLVALUE DUP1 ISZERO PUSH2 0xAD JUMPI PUSH1 0x0 DUP1 REVERT JUMPDEST POP PUSH2 0x89 PUSH2 0x4AF JUMP JUMPDEST PUSH1 0x1 DUP2 DUP2 SLOAD DUP2 LT PUSH2 0xC6 JUMPI PUSH1 0x0 DUP1 REVERT JUMPDEST PUSH1 0x0 SWAP2 DUP3 MSTORE PUSH1 0x20 SWAP1 SWAP2 KECCAK256 ADD SLOAD SWAP1 POP DUP2 JUMP JUMPDEST PUSH1 0x0 PUSH1 0x2 DUP3 PUSH1 0x40 MLOAD PUSH1 0x20 ADD PUSH2 0x13E SWAP2 SWAP1 DUP2 MLOAD PUSH1 0x1 PUSH1 0x1 PUSH1 0xA0 SHL SUB SWAP1 DUP2 AND DUP3 MSTORE PUSH1 0x20 DUP1 DUP5 ADD MLOAD SWAP1 SWAP2 AND SWAP1 DUP3 ADD MSTORE PUSH1 0x40 DUP1 DUP4 ADD MLOAD SWAP1 DUP3 ADD MSTORE PUSH1 0x60 DUP1 DUP4 ADD MLOAD SWAP1 DUP3 ADD MSTORE PUSH1 0x80 DUP1 DUP4 ADD MLOAD SWAP1 DUP3 ADD MSTORE PUSH1 0xA0 DUP3 DUP2 ADD MLOAD SWAP1 DUP3 ADD MSTORE PUSH1 0xC0 SWAP2 DUP3 ADD MLOAD SWAP2 DUP2 ADD SWAP2 SWAP1 SWAP2 MSTORE PUSH1 0xE0 ADD SWAP1 JUMP JUMPDEST PUSH1 0x40 DUP1 MLOAD PUSH1 0x1F NOT DUP2 DUP5 SUB ADD DUP2 MSTORE SWAP1 DUP3 SWAP1 MSTORE PUSH2 0x158 SWAP2 PUSH2 0x7A7 JUMP JUMPDEST PUSH1 0x20 PUSH1 0x40 MLOAD DUP1 DUP4 SUB DUP2 DUP6 GAS STATICCALL ISZERO DUP1 ISZERO PUSH2 0x175 JUMPI RETURNDATASIZE PUSH1 0x0 DUP1 RETURNDATACOPY RETURNDATASIZE PUSH1 0x0 REVERT JUMPDEST POP POP POP PUSH1 0x40 MLOAD RETURNDATASIZE PUSH1 0x1F NOT PUSH1 0x1F DUP3 ADD AND DUP3 ADD DUP1 PUSH1 0x40 MSTORE POP DUP2 ADD SWAP1 PUSH2 0x198 SWAP2 SWAP1 PUSH2 0x7C3 JUMP JUMPDEST PUSH1 0x0 DUP2 DUP2 MSTORE PUSH1 0x3 PUSH1 0x20 MSTORE PUSH1 0x40 SWAP1 KECCAK256 SLOAD SWAP1 SWAP2 POP PUSH1 0xFF AND ISZERO PUSH2 0x1FF JUMPI PUSH1 0x40 MLOAD PUSH3 0x461BCD PUSH1 0xE5 SHL DUP2 MSTORE PUSH1 0x20 PUSH1 0x4 DUP3 ADD MSTORE PUSH1 0x1B PUSH1 0x24 DUP3 ADD MSTORE PUSH32 0x5472616E7366657220616C726561647920636C61696D65642121210000000000 PUSH1 0x44 DUP3 ADD MSTORE PUSH1 0x64 ADD JUMPDEST PUSH1 0x40 MLOAD DUP1 SWAP2 SUB SWAP1 REVERT JUMPDEST PUSH1 0x0 DUP2 DUP2 MSTORE PUSH1 0x3 PUSH1 0x20 MSTORE PUSH1 0x40 DUP2 KECCAK256 DUP1 SLOAD PUSH1 0xFF NOT AND PUSH1 0x1 OR SWAP1 SSTORE PUSH2 0x222 DUP4 TIMESTAMP PUSH2 0x646 JUMP JUMPDEST PUSH1 0x40 DUP1 MLOAD PUSH1 0x80 DUP2 ADD DUP3 MSTORE PUSH1 0x0 PUSH1 0x20 DUP1 DUP4 ADD DUP3 DUP2 MSTORE DUP4 DUP6 ADD DUP4 DUP2 MSTORE PUSH1 0x60 DUP6 ADD DUP5 DUP2 MSTORE DUP10 DUP7 MSTORE DUP11 MLOAD PUSH1 0x1 PUSH1 0x1 PUSH1 0xA0 SHL SUB AND SWAP1 SWAP3 MSTORE CALLER SWAP1 MSTORE DUP6 SWAP1 MSTORE SWAP1 SLOAD SWAP3 MLOAD SWAP4 SWAP5 POP SWAP1 SWAP3 PUSH1 0x2 SWAP3 PUSH2 0x274 SWAP3 SWAP1 SWAP2 DUP6 SWAP2 ADD PUSH2 0x7DC JUMP JUMPDEST PUSH1 0x40 DUP1 MLOAD PUSH1 0x1F NOT DUP2 DUP5 SUB ADD DUP2 MSTORE SWAP1 DUP3 SWAP1 MSTORE PUSH2 0x28E SWAP2 PUSH2 0x7A7 JUMP JUMPDEST PUSH1 0x20 PUSH1 0x40 MLOAD DUP1 DUP4 SUB DUP2 DUP6 GAS STATICCALL ISZERO DUP1 ISZERO PUSH2 0x2AB JUMPI RETURNDATASIZE PUSH1 0x0 DUP1 RETURNDATACOPY RETURNDATASIZE PUSH1 0x0 REVERT JUMPDEST POP POP POP PUSH1 0x40 MLOAD RETURNDATASIZE PUSH1 0x1F NOT PUSH1 0x1F DUP3 ADD AND DUP3 ADD DUP1 PUSH1 0x40 MSTORE POP DUP2 ADD SWAP1 PUSH2 0x2CE SWAP2 SWAP1 PUSH2 0x7C3 JUMP JUMPDEST PUSH1 0x0 SSTORE PUSH1 0x40 MLOAD PUSH32 0xC75B1D455FABE67006B1491563530B1E3A03F653220FA7A120FED565365719C SWAP1 PUSH2 0x301 SWAP1 DUP4 SWAP1 PUSH2 0x826 JUMP JUMPDEST PUSH1 0x40 MLOAD DUP1 SWAP2 SUB SWAP1 LOG1 PUSH1 0x2 DUP1 SLOAD SWAP1 PUSH1 0x0 PUSH2 0x319 DUP4 PUSH2 0x878 JUMP JUMPDEST SWAP2 SWAP1 POP SSTORE POP PUSH1 0x1 PUSH1 0x2 SLOAD PUSH2 0x32D SWAP2 SWAP1 PUSH2 0x891 JUMP JUMPDEST PUSH1 0x0 SUB PUSH2 0x369 JUMPI PUSH1 0x0 DUP1 SLOAD PUSH1 0x1 DUP1 SLOAD DUP1 DUP3 ADD DUP3 SSTORE SWAP3 MSTORE PUSH32 0xB10E2D527612073B26EECDFD717E6A320CF44B4AFAC2B0732D9FCBE2B7FA0CF6 SWAP1 SWAP2 ADD SSTORE JUMPDEST DUP4 MLOAD PUSH1 0x1 PUSH1 0x1 PUSH1 0xA0 SHL SUB AND PUSH2 0x41F JUMPI DUP4 PUSH1 0x40 ADD MLOAD CALLVALUE LT ISZERO PUSH2 0x3D8 JUMPI PUSH1 0x40 MLOAD PUSH3 0x461BCD PUSH1 0xE5 SHL DUP2 MSTORE PUSH1 0x20 PUSH1 0x4 DUP3 ADD MSTORE PUSH1 0x24 DUP1 DUP3 ADD MSTORE PUSH32 0x4572726F72203A204E6F6E2053756666656369656E742066756E647321212121 PUSH1 0x44 DUP3 ADD MSTORE PUSH4 0x21212121 PUSH1 0xE0 SHL PUSH1 0x64 DUP3 ADD MSTORE PUSH1 0x84 ADD PUSH2 0x1F6 JUMP JUMPDEST DUP4 PUSH1 0x20 ADD MLOAD PUSH1 0x1 PUSH1 0x1 PUSH1 0xA0 SHL SUB AND PUSH2 0x8FC DUP6 PUSH1 0x40 ADD MLOAD SWAP1 DUP2 ISZERO MUL SWAP1 PUSH1 0x40 MLOAD PUSH1 0x0 PUSH1 0x40 MLOAD DUP1 DUP4 SUB DUP2 DUP6 DUP9 DUP9 CALL SWAP4 POP POP POP POP ISZERO DUP1 ISZERO PUSH2 0x419 JUMPI RETURNDATASIZE PUSH1 0x0 DUP1 RETURNDATACOPY RETURNDATASIZE PUSH1 0x0 REVERT JUMPDEST POP PUSH2 0x4A9 JUMP JUMPDEST DUP4 MLOAD PUSH1 0x20 DUP6 ADD MLOAD PUSH1 0x40 DUP1 DUP8 ADD MLOAD SWAP1 MLOAD PUSH4 0x23B872DD PUSH1 0xE0 SHL DUP2 MSTORE CALLER PUSH1 0x4 DUP3 ADD MSTORE PUSH1 0x1 PUSH1 0x1 PUSH1 0xA0 SHL SUB SWAP3 DUP4 AND PUSH1 0x24 DUP3 ADD MSTORE PUSH1 0x44 DUP2 ADD SWAP2 SWAP1 SWAP2 MSTORE SWAP1 DUP3 AND SWAP1 PUSH4 0x23B872DD SWAP1 PUSH1 0x64 ADD PUSH1 0x20 PUSH1 0x40 MLOAD DUP1 DUP4 SUB DUP2 PUSH1 0x0 DUP8 GAS CALL ISZERO DUP1 ISZERO PUSH2 0x482 JUMPI RETURNDATASIZE PUSH1 0x0 DUP1 RETURNDATACOPY RETURNDATASIZE PUSH1 0x0 REVERT JUMPDEST POP POP POP POP PUSH1 0x40 MLOAD RETURNDATASIZE PUSH1 0x1F NOT PUSH1 0x1F DUP3 ADD AND DUP3 ADD DUP1 PUSH1 0x40 MSTORE POP DUP2 ADD SWAP1 PUSH2 0x4A6 SWAP2 SWAP1 PUSH2 0x8B3 JUMP JUMPDEST POP POP JUMPDEST POP POP POP POP JUMP JUMPDEST PUSH1 0x1 SLOAD PUSH1 0x4 SLOAD LT PUSH2 0x502 JUMPI PUSH1 0x40 MLOAD PUSH3 0x461BCD PUSH1 0xE5 SHL DUP2 MSTORE PUSH1 0x20 PUSH1 0x4 DUP3 ADD MSTORE PUSH1 0x1D PUSH1 0x24 DUP3 ADD MSTORE PUSH32 0x4E6F206E65772068617368206F6E696F6E7320746F207265706F72742E000000 PUSH1 0x44 DUP3 ADD MSTORE PUSH1 0x64 ADD PUSH2 0x1F6 JUMP JUMPDEST PUSH32 0xBF40DD9952AF969BD08165E3B3F21EA02061DB25943EEC44AFFA815F08B64201 PUSH1 0x1 PUSH1 0x4 SLOAD DUP2 SLOAD DUP2 LT PUSH2 0x538 JUMPI PUSH2 0x538 PUSH2 0x8D5 JUMP JUMPDEST SWAP1 PUSH1 0x0 MSTORE PUSH1 0x20 PUSH1 0x0 KECCAK256 ADD SLOAD PUSH1 0x40 MLOAD PUSH2 0x552 SWAP2 DUP2 MSTORE PUSH1 0x20 ADD SWAP1 JUMP JUMPDEST PUSH1 0x40 MLOAD DUP1 SWAP2 SUB SWAP1 LOG1 PUSH1 0x5 SLOAD PUSH1 0x4 SLOAD PUSH1 0x1 DUP1 SLOAD PUSH1 0x7 PUSH1 0x21 PUSH1 0x99 SHL ADD SWAP4 DUP5 SWAP4 PUSH4 0x3DBB202B SWAP4 PUSH1 0x1 PUSH1 0x1 PUSH1 0xA0 SHL SUB SWAP1 SWAP3 AND SWAP3 DUP2 LT PUSH2 0x58F JUMPI PUSH2 0x58F PUSH2 0x8D5 JUMP JUMPDEST SWAP1 PUSH1 0x0 MSTORE PUSH1 0x20 PUSH1 0x0 KECCAK256 ADD SLOAD PUSH1 0x40 MLOAD PUSH1 0x24 ADD PUSH2 0x5AC SWAP2 DUP2 MSTORE PUSH1 0x20 ADD SWAP1 JUMP JUMPDEST PUSH1 0x40 DUP1 MLOAD PUSH1 0x1F NOT DUP2 DUP5 SUB ADD DUP2 MSTORE SWAP2 DUP2 MSTORE PUSH1 0x20 DUP3 ADD DUP1 MLOAD PUSH1 0x1 PUSH1 0x1 PUSH1 0xE0 SHL SUB AND PUSH4 0x1647998F PUSH1 0xE3 SHL OR SWAP1 MSTORE MLOAD PUSH1 0xE0 DUP5 SWAP1 SHL PUSH1 0x1 PUSH1 0x1 PUSH1 0xE0 SHL SUB NOT AND DUP2 MSTORE PUSH2 0x5FB SWAP3 SWAP2 SWAP1 PUSH3 0xF4240 SWAP1 PUSH1 0x4 ADD PUSH2 0x8EB JUMP JUMPDEST PUSH1 0x0 PUSH1 0x40 MLOAD DUP1 DUP4 SUB DUP2 PUSH1 0x0 DUP8 DUP1 EXTCODESIZE ISZERO DUP1 ISZERO PUSH2 0x615 JUMPI PUSH1 0x0 DUP1 REVERT JUMPDEST POP GAS CALL ISZERO DUP1 ISZERO PUSH2 0x629 JUMPI RETURNDATASIZE PUSH1 0x0 DUP1 RETURNDATACOPY RETURNDATASIZE PUSH1 0x0 REVERT JUMPDEST POP POP PUSH1 0x4 DUP1 SLOAD SWAP3 POP SWAP1 POP PUSH1 0x0 PUSH2 0x63E DUP4 PUSH2 0x878 JUMP JUMPDEST SWAP2 SWAP1 POP SSTORE POP POP JUMP JUMPDEST PUSH1 0x0 DUP3 PUSH1 0x80 ADD MLOAD DUP3 LT ISZERO PUSH2 0x65C JUMPI POP PUSH1 0x0 PUSH2 0x6A2 JUMP JUMPDEST DUP3 PUSH1 0xA0 ADD MLOAD DUP4 PUSH1 0x80 ADD MLOAD PUSH2 0x670 SWAP2 SWAP1 PUSH2 0x93B JUMP JUMPDEST DUP3 LT PUSH2 0x681 JUMPI POP PUSH1 0x60 DUP3 ADD MLOAD PUSH2 0x6A2 JUMP JUMPDEST PUSH1 0x80 DUP4 ADD MLOAD PUSH2 0x690 SWAP1 DUP4 PUSH2 0x953 JUMP JUMPDEST DUP4 PUSH1 0x60 ADD MLOAD PUSH2 0x69F SWAP2 SWAP1 PUSH2 0x96A JUMP JUMPDEST SWAP1 POP JUMPDEST SWAP3 SWAP2 POP POP JUMP JUMPDEST PUSH1 0x0 PUSH1 0x20 DUP3 DUP5 SUB SLT ISZERO PUSH2 0x6BA JUMPI PUSH1 0x0 DUP1 REVERT JUMPDEST POP CALLDATALOAD SWAP2 SWAP1 POP JUMP JUMPDEST DUP1 CALLDATALOAD PUSH1 0x1 PUSH1 0x1 PUSH1 0xA0 SHL SUB DUP2 AND DUP2 EQ PUSH2 0x6D8 JUMPI PUSH1 0x0 DUP1 REVERT JUMPDEST SWAP2 SWAP1 POP JUMP JUMPDEST PUSH1 0x0 PUSH1 0xE0 DUP3 DUP5 SUB SLT ISZERO PUSH2 0x6EF JUMPI PUSH1 0x0 DUP1 REVERT JUMPDEST PUSH1 0x40 MLOAD PUSH1 0xE0 DUP2 ADD DUP2 DUP2 LT PUSH8 0xFFFFFFFFFFFFFFFF DUP3 GT OR ISZERO PUSH2 0x720 JUMPI PUSH4 0x4E487B71 PUSH1 0xE0 SHL PUSH1 0x0 MSTORE PUSH1 0x41 PUSH1 0x4 MSTORE PUSH1 0x24 PUSH1 0x0 REVERT JUMPDEST PUSH1 0x40 MSTORE PUSH2 0x72C DUP4 PUSH2 0x6C1 JUMP JUMPDEST DUP2 MSTORE PUSH2 0x73A PUSH1 0x20 DUP5 ADD PUSH2 0x6C1 JUMP JUMPDEST PUSH1 0x20 DUP3 ADD MSTORE PUSH1 0x40 DUP4 ADD CALLDATALOAD PUSH1 0x40 DUP3 ADD MSTORE PUSH1 0x60 DUP4 ADD CALLDATALOAD PUSH1 0x60 DUP3 ADD MSTORE PUSH1 0x80 DUP4 ADD CALLDATALOAD PUSH1 0x80 DUP3 ADD MSTORE PUSH1 0xA0 DUP4 ADD CALLDATALOAD PUSH1 0xA0 DUP3 ADD MSTORE PUSH1 0xC0 DUP4 ADD CALLDATALOAD PUSH1 0xC0 DUP3 ADD MSTORE DUP1 SWAP2 POP POP SWAP3 SWAP2 POP POP JUMP JUMPDEST PUSH1 0x0 JUMPDEST DUP4 DUP2 LT ISZERO PUSH2 0x796 JUMPI DUP2 DUP2 ADD MLOAD DUP4 DUP3 ADD MSTORE PUSH1 0x20 ADD PUSH2 0x77E JUMP JUMPDEST DUP4 DUP2 GT ISZERO PUSH2 0x4A9 JUMPI POP POP PUSH1 0x0 SWAP2 ADD MSTORE JUMP JUMPDEST PUSH1 0x0 DUP3 MLOAD PUSH2 0x7B9 DUP2 DUP5 PUSH1 0x20 DUP8 ADD PUSH2 0x77B JUMP JUMPDEST SWAP2 SWAP1 SWAP2 ADD SWAP3 SWAP2 POP POP JUMP JUMPDEST PUSH1 0x0 PUSH1 0x20 DUP3 DUP5 SUB SLT ISZERO PUSH2 0x7D5 JUMPI PUSH1 0x0 DUP1 REVERT JUMPDEST POP MLOAD SWAP2 SWAP1 POP JUMP JUMPDEST DUP3 DUP2 MSTORE PUSH1 0xA0 DUP2 ADD PUSH2 0x81F PUSH1 0x20 DUP4 ADD DUP5 DUP1 MLOAD DUP3 MSTORE PUSH1 0x20 DUP1 DUP3 ADD MLOAD PUSH1 0x1 PUSH1 0x1 PUSH1 0xA0 SHL SUB SWAP1 DUP2 AND SWAP2 DUP5 ADD SWAP2 SWAP1 SWAP2 MSTORE PUSH1 0x40 DUP1 DUP4 ADD MLOAD SWAP1 SWAP2 AND SWAP1 DUP4 ADD MSTORE PUSH1 0x60 SWAP1 DUP2 ADD MLOAD SWAP2 ADD MSTORE JUMP JUMPDEST SWAP4 SWAP3 POP POP POP JUMP JUMPDEST DUP2 MLOAD DUP2 MSTORE PUSH1 0x20 DUP1 DUP4 ADD MLOAD PUSH1 0x1 PUSH1 0x1 PUSH1 0xA0 SHL SUB SWAP1 DUP2 AND SWAP2 DUP4 ADD SWAP2 SWAP1 SWAP2 MSTORE PUSH1 0x40 DUP1 DUP5 ADD MLOAD SWAP1 SWAP2 AND SWAP1 DUP3 ADD MSTORE PUSH1 0x60 DUP1 DUP4 ADD MLOAD SWAP1 DUP3 ADD MSTORE PUSH1 0x80 DUP2 ADD PUSH2 0x6A2 JUMP JUMPDEST PUSH4 0x4E487B71 PUSH1 0xE0 SHL PUSH1 0x0 MSTORE PUSH1 0x11 PUSH1 0x4 MSTORE PUSH1 0x24 PUSH1 0x0 REVERT JUMPDEST PUSH1 0x0 PUSH1 0x1 DUP3 ADD PUSH2 0x88A JUMPI PUSH2 0x88A PUSH2 0x862 JUMP JUMPDEST POP PUSH1 0x1 ADD SWAP1 JUMP JUMPDEST PUSH1 0x0 DUP3 PUSH2 0x8AE JUMPI PUSH4 0x4E487B71 PUSH1 0xE0 SHL PUSH1 0x0 MSTORE PUSH1 0x12 PUSH1 0x4 MSTORE PUSH1 0x24 PUSH1 0x0 REVERT JUMPDEST POP MOD SWAP1 JUMP JUMPDEST PUSH1 0x0 PUSH1 0x20 DUP3 DUP5 SUB SLT ISZERO PUSH2 0x8C5 JUMPI PUSH1 0x0 DUP1 REVERT JUMPDEST DUP2 MLOAD DUP1 ISZERO ISZERO DUP2 EQ PUSH2 0x81F JUMPI PUSH1 0x0 DUP1 REVERT JUMPDEST PUSH4 0x4E487B71 PUSH1 0xE0 SHL PUSH1 0x0 MSTORE PUSH1 0x32 PUSH1 0x4 MSTORE PUSH1 0x24 PUSH1 0x0 REVERT JUMPDEST PUSH1 0x1 DUP1 PUSH1 0xA0 SHL SUB DUP5 AND DUP2 MSTORE PUSH1 0x60 PUSH1 0x20 DUP3 ADD MSTORE PUSH1 0x0 DUP4 MLOAD DUP1 PUSH1 0x60 DUP5 ADD MSTORE PUSH2 0x918 DUP2 PUSH1 0x80 DUP6 ADD PUSH1 0x20 DUP9 ADD PUSH2 0x77B JUMP JUMPDEST PUSH4 0xFFFFFFFF SWAP4 SWAP1 SWAP4 AND PUSH1 0x40 DUP4 ADD MSTORE POP PUSH1 0x1F SWAP2 SWAP1 SWAP2 ADD PUSH1 0x1F NOT AND ADD PUSH1 0x80 ADD SWAP3 SWAP2 POP POP JUMP JUMPDEST PUSH1 0x0 DUP3 NOT DUP3 GT ISZERO PUSH2 0x94E JUMPI PUSH2 0x94E PUSH2 0x862 JUMP JUMPDEST POP ADD SWAP1 JUMP JUMPDEST PUSH1 0x0 DUP3 DUP3 LT ISZERO PUSH2 0x965 JUMPI PUSH2 0x965 PUSH2 0x862 JUMP JUMPDEST POP SUB SWAP1 JUMP JUMPDEST PUSH1 0x0 DUP2 PUSH1 0x0 NOT DIV DUP4 GT DUP3 ISZERO ISZERO AND ISZERO PUSH2 0x984 JUMPI PUSH2 0x984 PUSH2 0x862 JUMP JUMPDEST POP MUL SWAP1 JUMP INVALID LOG2 PUSH5 0x6970667358 0x22 SLT KECCAK256 DUP13 RETURN EXTCODECOPY CALLER 0xB3 0x2A BLOCKHASH NUMBER DIV 0xC2 0x28 0x22 OR PUSH8 0xCB363BAA5DF1DD34 PUSH20 0xDEB84F9DEB73143B0764736F6C634300080D0033 ","sha1":"3754a24bb0a742c82d812494c4264b56ed7a79ca","source":"//SPDX-License-Identifier: MIT\npragma solidity ^0.8.9;\n\nimport \"./deb/ERC20.sol\";\nimport \"./deb/ICrossDomainMessenger.sol\";\n\n/// @title DestinationDomainSideBridge Contract\n/// @author Sherif Abdelmoatty\n/// @notice This contract is to be deployed in the destination rollup\ncontract DestinationDomainSideBridge {\n    address constant ETHER_ADDRESS = 0x0000000000000000000000000000000000000000;\n    uint constant CONTRACT_FEE_BASIS_POINTS = 5;\n    bytes32 rewardHashOnion;\n    bytes32[] public rewardHashOnionHistoryList;\n    uint256 public claimCount;\n    uint256 constant TRANSFERS_PER_ONION = 1;\n\n\n    struct TransferData {\n        address  tokenAddress; \n        address  destination;\n        uint256  amount;\n        uint256  fee;\n        uint256  startTime;\n        uint256  feeRampup;\n        uint256  nonce;\n    }\n\n    struct RewardData {\n        bytes32  transferDataHash;\n        address  tokenAddress; \n        address  claimer;\n        uint256  fee;\n    }\n\n    mapping(bytes32 => bool) claimedTransferHashes;\n    uint256 indexReportedHashOnion;\n    event Reward(RewardData rewardData);\n    event NewHashChainHeadDeclared(bytes32 hash);\n\n    address constant ovmL2CrossDomainMessenger = 0x4200000000000000000000000000000000000007;  //ovmL2CrossDomainMessenger contract address(Optimism)\n    address l1DomainSideContractAddress;  //L1DomainSideBridge deployed contract address on mainnet\n\n    /// @notice Constructior function\n    /// @notice Intialize variables\n    constructor(address _l1DomainSideContractAddress){\n        l1DomainSideContractAddress = _l1DomainSideContractAddress;\n    }\n\n    /// @notice withdraw function\n    /// @notice withdraws the required funds plus fees to be sent \n    /// @notice to the domain side rollup\n    function claim(TransferData memory _transferData) external payable{\n \n        bytes32 transferDataHash = sha256(abi.encode(_transferData));\n        require(!claimedTransferHashes[transferDataHash], \"Transfer already claimed!!!\");\n        claimedTransferHashes[transferDataHash] = true;\n\n        uint256 fee = getLPFee(_transferData, block.timestamp);\n        RewardData memory rewardData;\n        rewardData.transferDataHash = transferDataHash;\n        rewardData.tokenAddress = _transferData.tokenAddress;\n        rewardData.claimer = msg.sender;\n        rewardData.fee = fee;\n        rewardHashOnion = sha256(abi.encode(rewardHashOnion, rewardData));\n        emit Reward(rewardData);\n        claimCount++;\n        if(claimCount % TRANSFERS_PER_ONION == 0){\n            rewardHashOnionHistoryList.push(rewardHashOnion);\n        }\n\n        if(_transferData.tokenAddress == ETHER_ADDRESS){\n            require(msg.value >= _transferData.amount, \"Error : Non Suffecient funds!!!!!!!!\");\n            payable(_transferData.destination).transfer(_transferData.amount);\n        }else{\n            ERC20 token = ERC20(_transferData.tokenAddress);\n            token.transferFrom(msg.sender, _transferData.destination,\n                 _transferData.amount);\n        }\n    }\n    \n    /// @notice getLPFee function\n    /// @notice calculates the liquidity provider fee.\n    function getLPFee(TransferData memory _transferData, uint256 _currentTime) private pure returns (uint256) {\n        if(_currentTime < _transferData.startTime)\n            return 0;\n        else if(_currentTime >= _transferData.startTime + _transferData.feeRampup)\n            return _transferData.fee;\n        else\n            return _transferData.fee * (_currentTime - _transferData.startTime); // feeRampup\n    }\n    \n    /// @notice getLPFee function\n    /// @notice calculates the liquidity provider fee.\n    function declareNewHashChainHead() public{\n        require(indexReportedHashOnion < rewardHashOnionHistoryList.length, \"No new hash onions to report.\");\n        \n        emit NewHashChainHeadDeclared(rewardHashOnionHistoryList[indexReportedHashOnion]);\n        ICrossDomainMessenger l2cdm = ICrossDomainMessenger(ovmL2CrossDomainMessenger);\n        l2cdm.sendMessage(\n            l1DomainSideContractAddress,\n            abi.encodeWithSignature(\n                \"declareNewHashChainHead(byte32)\",\n                rewardHashOnionHistoryList[indexReportedHashOnion]\n            ),\n            1000000 // use whatever gas limit you want\n        );\n        indexReportedHashOnion++;\n    }\n     /*function declareNewHashChainHead() public{\n        string memory hash = \"test\";\n        \n        //emit NewHashChainHeadDeclared(hash);\n        ICrossDomainMessenger l2cdm = ICrossDomainMessenger(ovmL2CrossDomainMessenger);\n        l2cdm.sendMessage(\n            l1DomainSideContractAddress,\n            abi.encodeWithSignature(\n                \"testMessage(string)\",\n                hash\n            ),\n            1000000 // use whatever gas limit you want\n        );\n        indexReportedHashOnion++;\n    }*/\n}","sourcePath":"contracts/DestinationDomainSideBridge.sol","type":"contract","deployment":{"address":"0x100ad101e1B363Cd275326B0Ccc948293eCAF456","chainid":"69","blockHeight":3083657}}