{"abi":[{"inputs":[{"internalType":"address","name":"_l1DomainSideContractAddress","type":"address"}],"stateMutability":"nonpayable","type":"constructor","name":"constructor"},{"anonymous":false,"inputs":[{"indexed":false,"internalType":"bytes32","name":"hash","type":"bytes32"}],"name":"NewHashOnionCreated","type":"event"},{"anonymous":false,"inputs":[{"indexed":false,"internalType":"bytes32","name":"hash","type":"bytes32"}],"name":"NewHashOnionDeclaredToL1","type":"event"},{"anonymous":false,"inputs":[{"components":[{"internalType":"bytes32","name":"transferDataHash","type":"bytes32"},{"internalType":"address","name":"tokenAddress","type":"address"},{"internalType":"address","name":"claimer","type":"address"},{"internalType":"uint256","name":"amountPlusFee","type":"uint256"}],"indexed":false,"internalType":"struct DestinationDomainSideBridge.RewardData","name":"rewardData","type":"tuple"}],"name":"Reward","type":"event"},{"inputs":[{"components":[{"internalType":"address","name":"tokenAddress","type":"address"},{"internalType":"address","name":"destination","type":"address"},{"internalType":"uint256","name":"amount","type":"uint256"},{"internalType":"uint256","name":"fee","type":"uint256"},{"internalType":"uint256","name":"startTime","type":"uint256"},{"internalType":"uint256","name":"feeRampup","type":"uint256"},{"internalType":"uint256","name":"nonce","type":"uint256"}],"internalType":"struct DestinationDomainSideBridge.TransferData","name":"_transferData","type":"tuple"}],"name":"claim","outputs":[],"stateMutability":"payable","type":"function"},{"inputs":[],"name":"claimCount","outputs":[{"internalType":"uint256","name":"","type":"uint256"}],"stateMutability":"view","type":"function"},{"inputs":[],"name":"declareNewHashOnionHeadToL1","outputs":[],"stateMutability":"nonpayable","type":"function"},{"inputs":[{"internalType":"uint256","name":"","type":"uint256"}],"name":"rewardHashOnionHistoryList","outputs":[{"internalType":"bytes32","name":"","type":"bytes32"}],"stateMutability":"view","type":"function"}],"bytecode":"608060405234801561001057600080fd5b50604051610b0d380380610b0d83398101604081905261002f91610054565b600580546001600160a01b0319166001600160a01b0392909216919091179055610084565b60006020828403121561006657600080fd5b81516001600160a01b038116811461007d57600080fd5b9392505050565b610a7a806100936000396000f3fe60806040526004361061003f5760003560e01c80635142042d146100445780637afb3a9f1461007657806380b92f9a1461008b5780638da4d3c9146100a0575b600080fd5b34801561005057600080fd5b5061006461005f366004610763565b6100b6565b60405190815260200160405180910390f35b610089610084366004610798565b6100d7565b005b34801561009757600080fd5b50610089610517565b3480156100ac57600080fd5b5061006460025481565b600181815481106100c657600080fd5b600091825260209091200154905081565b600060028260405160200161013e919081516001600160a01b0390811682526020808401519091169082015260408083015190820152606080830151908201526080808301519082015260a0828101519082015260c0918201519181019190915260e00190565b60408051601f198184030181529082905261015891610862565b602060405180830381855afa158015610175573d6000803e3d6000fd5b5050506040513d601f19601f82011682018060405250810190610198919061087e565b60008181526003602052604090205490915060ff16156101ff5760405162461bcd60e51b815260206004820152601b60248201527f5472616e7366657220616c726561647920636c61696d6564212121000000000060448201526064015b60405180910390fd5b6000818152600360205260408120805460ff1916600117905561022283426106ae565b905082606001518161023491906108ad565b836040015161024391906108c4565b60408481019182528051608081018252600060208201818152928201818152606083019190915285825286516001600160a01b031690925233909152905161028b90836108c4565b60608201526000546040516002916102a79184906020016108dc565b60408051601f19818403018152908290526102c191610862565b602060405180830381855afa1580156102de573d6000803e3d6000fd5b5050506040513d601f19601f82011682018060405250810190610301919061087e565b6000556040517f0c75b1d455fabe67006b1491563530b1e3a03f653220fa7a120fed565365719c90610334908390610926565b60405180910390a16002805490600061034c83610962565b91905055506014600254610360919061097b565b6000036103d1576000805460018054808201825592527fb10e2d527612073b26eecdfd717e6a320cf44b4afac2b0732d9fcbe2b7fa0cf69091018190556040519081527fc88cea9cd8278eca3c21369ddae1825e3118d7fc925beb6297e5a7672b9d48959060200160405180910390a15b83516001600160a01b03166104875783604001513410156104405760405162461bcd60e51b8152602060048201526024808201527f4572726f72203a204e6f6e2053756666656369656e742066756e6473212121216044820152632121212160e01b60648201526084016101f6565b83602001516001600160a01b03166108fc85604001519081150290604051600060405180830381858888f19350505050158015610481573d6000803e3d6000fd5b50610511565b8351602085015160408087015190516323b872dd60e01b81523360048201526001600160a01b0392831660248201526044810191909152908216906323b872dd906064016020604051808303816000875af11580156104ea573d6000803e3d6000fd5b505050506040513d601f19601f8201168201806040525081019061050e919061099d565b50505b50505050565b6001546004541061056a5760405162461bcd60e51b815260206004820152601d60248201527f4e6f206e65772068617368206f6e696f6e7320746f207265706f72742e00000060448201526064016101f6565b7f9034ac9f41d98d9bb9fe35278080334324d0ecebe02e47481bb00e524fb40aa66001600454815481106105a0576105a06109bf565b90600052602060002001546040516105ba91815260200190565b60405180910390a1600554600454600180546007602160991b01938493633dbb202b936001600160a01b039092169281106105f7576105f76109bf565b906000526020600020015460405160240161061491815260200190565b60408051601f198184030181529181526020820180516001600160e01b031663e5f3511b60e01b1790525160e084901b6001600160e01b0319168152610663929190620f4240906004016109d5565b600060405180830381600087803b15801561067d57600080fd5b505af1158015610691573d6000803e3d6000fd5b5050600480549250905060006106a683610962565b919050555050565b600082608001518210156107175760405162461bcd60e51b815260206004820152602a60248201527f4572726f72203a2063757272656e7454696d65206973206c657373207468616e60448201526920737461727454696d6560b01b60648201526084016101f6565b8260a00151836080015161072b91906108c4565b821061073c5750606082015161075d565b608083015161074b90836108ad565b836060015161075a9190610a25565b90505b92915050565b60006020828403121561077557600080fd5b5035919050565b80356001600160a01b038116811461079357600080fd5b919050565b600060e082840312156107aa57600080fd5b60405160e0810181811067ffffffffffffffff821117156107db57634e487b7160e01b600052604160045260246000fd5b6040526107e78361077c565b81526107f56020840161077c565b602082015260408301356040820152606083013560608201526080830135608082015260a083013560a082015260c083013560c08201528091505092915050565b60005b83811015610851578181015183820152602001610839565b838111156105115750506000910152565b60008251610874818460208701610836565b9190910192915050565b60006020828403121561089057600080fd5b5051919050565b634e487b7160e01b600052601160045260246000fd5b6000828210156108bf576108bf610897565b500390565b600082198211156108d7576108d7610897565b500190565b82815260a0810161091f6020830184805182526020808201516001600160a01b039081169184019190915260408083015190911690830152606090810151910152565b9392505050565b815181526020808301516001600160a01b039081169183019190915260408084015190911690820152606080830151908201526080810161075d565b60006001820161097457610974610897565b5060010190565b60008261099857634e487b7160e01b600052601260045260246000fd5b500690565b6000602082840312156109af57600080fd5b8151801515811461091f57600080fd5b634e487b7160e01b600052603260045260246000fd5b60018060a01b03841681526060602082015260008351806060840152610a02816080850160208801610836565b63ffffffff93909316604083015250601f91909101601f19160160800192915050565b6000816000190483118215151615610a3f57610a3f610897565b50029056fea26469706673582212201b8d99cd038d64c53b7ca7dea8c1fd6c21fddb3ca6c50eb95367555d67e9983364736f6c634300080d0033","bytecodeSha1":"22c949dfafe6ab9f20b2bb04eb5243ff9f73f17a","compiler":{"evm_version":"istanbul","optimizer":{"enabled":true,"runs":200},"version":"0.8.13+commit.abaa5c0e"},"contractName":"DestinationDomainSideBridge","language":"Solidity","natspec":{"author":"Sherif Abdelmoatty","kind":"dev","methods":{"claim((address,address,uint256,uint256,uint256,uint256,uint256))":{"notice":"lequidity providers can provide lequidity to be transfered to the destination address and register a claim to the lequidity fee"},"constructor":{"params":{"_l1DomainSideContractAddress":"is the address of the contract in etherium L1"}},"declareNewHashOnionHeadToL1()":{"notice":"sends new hash onions one by one to the l1 side contract to be sent to the source side contractthis function is rollup dependant - Optimism Kovn"}},"notice":"This contract is to be deployed in the destination rollup","title":"DestinationDomainSideBridge Contract","version":1},"opcodes":"PUSH1 0x80 PUSH1 0x40 MSTORE PUSH1 0x4 CALLDATASIZE LT PUSH2 0x3F JUMPI PUSH1 0x0 CALLDATALOAD PUSH1 0xE0 SHR DUP1 PUSH4 0x5142042D EQ PUSH2 0x44 JUMPI DUP1 PUSH4 0x7AFB3A9F EQ PUSH2 0x76 JUMPI DUP1 PUSH4 0x80B92F9A EQ PUSH2 0x8B JUMPI DUP1 PUSH4 0x8DA4D3C9 EQ PUSH2 0xA0 JUMPI JUMPDEST PUSH1 0x0 DUP1 REVERT JUMPDEST CALLVALUE DUP1 ISZERO PUSH2 0x50 JUMPI PUSH1 0x0 DUP1 REVERT JUMPDEST POP PUSH2 0x64 PUSH2 0x5F CALLDATASIZE PUSH1 0x4 PUSH2 0x763 JUMP JUMPDEST PUSH2 0xB6 JUMP JUMPDEST PUSH1 0x40 MLOAD SWAP1 DUP2 MSTORE PUSH1 0x20 ADD PUSH1 0x40 MLOAD DUP1 SWAP2 SUB SWAP1 RETURN JUMPDEST PUSH2 0x89 PUSH2 0x84 CALLDATASIZE PUSH1 0x4 PUSH2 0x798 JUMP JUMPDEST PUSH2 0xD7 JUMP JUMPDEST STOP JUMPDEST CALLVALUE DUP1 ISZERO PUSH2 0x97 JUMPI PUSH1 0x0 DUP1 REVERT JUMPDEST POP PUSH2 0x89 PUSH2 0x517 JUMP JUMPDEST CALLVALUE DUP1 ISZERO PUSH2 0xAC JUMPI PUSH1 0x0 DUP1 REVERT JUMPDEST POP PUSH2 0x64 PUSH1 0x2 SLOAD DUP2 JUMP JUMPDEST PUSH1 0x1 DUP2 DUP2 SLOAD DUP2 LT PUSH2 0xC6 JUMPI PUSH1 0x0 DUP1 REVERT JUMPDEST PUSH1 0x0 SWAP2 DUP3 MSTORE PUSH1 0x20 SWAP1 SWAP2 KECCAK256 ADD SLOAD SWAP1 POP DUP2 JUMP JUMPDEST PUSH1 0x0 PUSH1 0x2 DUP3 PUSH1 0x40 MLOAD PUSH1 0x20 ADD PUSH2 0x13E SWAP2 SWAP1 DUP2 MLOAD PUSH1 0x1 PUSH1 0x1 PUSH1 0xA0 SHL SUB SWAP1 DUP2 AND DUP3 MSTORE PUSH1 0x20 DUP1 DUP5 ADD MLOAD SWAP1 SWAP2 AND SWAP1 DUP3 ADD MSTORE PUSH1 0x40 DUP1 DUP4 ADD MLOAD SWAP1 DUP3 ADD MSTORE PUSH1 0x60 DUP1 DUP4 ADD MLOAD SWAP1 DUP3 ADD MSTORE PUSH1 0x80 DUP1 DUP4 ADD MLOAD SWAP1 DUP3 ADD MSTORE PUSH1 0xA0 DUP3 DUP2 ADD MLOAD SWAP1 DUP3 ADD MSTORE PUSH1 0xC0 SWAP2 DUP3 ADD MLOAD SWAP2 DUP2 ADD SWAP2 SWAP1 SWAP2 MSTORE PUSH1 0xE0 ADD SWAP1 JUMP JUMPDEST PUSH1 0x40 DUP1 MLOAD PUSH1 0x1F NOT DUP2 DUP5 SUB ADD DUP2 MSTORE SWAP1 DUP3 SWAP1 MSTORE PUSH2 0x158 SWAP2 PUSH2 0x862 JUMP JUMPDEST PUSH1 0x20 PUSH1 0x40 MLOAD DUP1 DUP4 SUB DUP2 DUP6 GAS STATICCALL ISZERO DUP1 ISZERO PUSH2 0x175 JUMPI RETURNDATASIZE PUSH1 0x0 DUP1 RETURNDATACOPY RETURNDATASIZE PUSH1 0x0 REVERT JUMPDEST POP POP POP PUSH1 0x40 MLOAD RETURNDATASIZE PUSH1 0x1F NOT PUSH1 0x1F DUP3 ADD AND DUP3 ADD DUP1 PUSH1 0x40 MSTORE POP DUP2 ADD SWAP1 PUSH2 0x198 SWAP2 SWAP1 PUSH2 0x87E JUMP JUMPDEST PUSH1 0x0 DUP2 DUP2 MSTORE PUSH1 0x3 PUSH1 0x20 MSTORE PUSH1 0x40 SWAP1 KECCAK256 SLOAD SWAP1 SWAP2 POP PUSH1 0xFF AND ISZERO PUSH2 0x1FF JUMPI PUSH1 0x40 MLOAD PUSH3 0x461BCD PUSH1 0xE5 SHL DUP2 MSTORE PUSH1 0x20 PUSH1 0x4 DUP3 ADD MSTORE PUSH1 0x1B PUSH1 0x24 DUP3 ADD MSTORE PUSH32 0x5472616E7366657220616C726561647920636C61696D65642121210000000000 PUSH1 0x44 DUP3 ADD MSTORE PUSH1 0x64 ADD JUMPDEST PUSH1 0x40 MLOAD DUP1 SWAP2 SUB SWAP1 REVERT JUMPDEST PUSH1 0x0 DUP2 DUP2 MSTORE PUSH1 0x3 PUSH1 0x20 MSTORE PUSH1 0x40 DUP2 KECCAK256 DUP1 SLOAD PUSH1 0xFF NOT AND PUSH1 0x1 OR SWAP1 SSTORE PUSH2 0x222 DUP4 TIMESTAMP PUSH2 0x6AE JUMP JUMPDEST SWAP1 POP DUP3 PUSH1 0x60 ADD MLOAD DUP2 PUSH2 0x234 SWAP2 SWAP1 PUSH2 0x8AD JUMP JUMPDEST DUP4 PUSH1 0x40 ADD MLOAD PUSH2 0x243 SWAP2 SWAP1 PUSH2 0x8C4 JUMP JUMPDEST PUSH1 0x40 DUP5 DUP2 ADD SWAP2 DUP3 MSTORE DUP1 MLOAD PUSH1 0x80 DUP2 ADD DUP3 MSTORE PUSH1 0x0 PUSH1 0x20 DUP3 ADD DUP2 DUP2 MSTORE SWAP3 DUP3 ADD DUP2 DUP2 MSTORE PUSH1 0x60 DUP4 ADD SWAP2 SWAP1 SWAP2 MSTORE DUP6 DUP3 MSTORE DUP7 MLOAD PUSH1 0x1 PUSH1 0x1 PUSH1 0xA0 SHL SUB AND SWAP1 SWAP3 MSTORE CALLER SWAP1 SWAP2 MSTORE SWAP1 MLOAD PUSH2 0x28B SWAP1 DUP4 PUSH2 0x8C4 JUMP JUMPDEST PUSH1 0x60 DUP3 ADD MSTORE PUSH1 0x0 SLOAD PUSH1 0x40 MLOAD PUSH1 0x2 SWAP2 PUSH2 0x2A7 SWAP2 DUP5 SWAP1 PUSH1 0x20 ADD PUSH2 0x8DC JUMP JUMPDEST PUSH1 0x40 DUP1 MLOAD PUSH1 0x1F NOT DUP2 DUP5 SUB ADD DUP2 MSTORE SWAP1 DUP3 SWAP1 MSTORE PUSH2 0x2C1 SWAP2 PUSH2 0x862 JUMP JUMPDEST PUSH1 0x20 PUSH1 0x40 MLOAD DUP1 DUP4 SUB DUP2 DUP6 GAS STATICCALL ISZERO DUP1 ISZERO PUSH2 0x2DE JUMPI RETURNDATASIZE PUSH1 0x0 DUP1 RETURNDATACOPY RETURNDATASIZE PUSH1 0x0 REVERT JUMPDEST POP POP POP PUSH1 0x40 MLOAD RETURNDATASIZE PUSH1 0x1F NOT PUSH1 0x1F DUP3 ADD AND DUP3 ADD DUP1 PUSH1 0x40 MSTORE POP DUP2 ADD SWAP1 PUSH2 0x301 SWAP2 SWAP1 PUSH2 0x87E JUMP JUMPDEST PUSH1 0x0 SSTORE PUSH1 0x40 MLOAD PUSH32 0xC75B1D455FABE67006B1491563530B1E3A03F653220FA7A120FED565365719C SWAP1 PUSH2 0x334 SWAP1 DUP4 SWAP1 PUSH2 0x926 JUMP JUMPDEST PUSH1 0x40 MLOAD DUP1 SWAP2 SUB SWAP1 LOG1 PUSH1 0x2 DUP1 SLOAD SWAP1 PUSH1 0x0 PUSH2 0x34C DUP4 PUSH2 0x962 JUMP JUMPDEST SWAP2 SWAP1 POP SSTORE POP PUSH1 0x14 PUSH1 0x2 SLOAD PUSH2 0x360 SWAP2 SWAP1 PUSH2 0x97B JUMP JUMPDEST PUSH1 0x0 SUB PUSH2 0x3D1 JUMPI PUSH1 0x0 DUP1 SLOAD PUSH1 0x1 DUP1 SLOAD DUP1 DUP3 ADD DUP3 SSTORE SWAP3 MSTORE PUSH32 0xB10E2D527612073B26EECDFD717E6A320CF44B4AFAC2B0732D9FCBE2B7FA0CF6 SWAP1 SWAP2 ADD DUP2 SWAP1 SSTORE PUSH1 0x40 MLOAD SWAP1 DUP2 MSTORE PUSH32 0xC88CEA9CD8278ECA3C21369DDAE1825E3118D7FC925BEB6297E5A7672B9D4895 SWAP1 PUSH1 0x20 ADD PUSH1 0x40 MLOAD DUP1 SWAP2 SUB SWAP1 LOG1 JUMPDEST DUP4 MLOAD PUSH1 0x1 PUSH1 0x1 PUSH1 0xA0 SHL SUB AND PUSH2 0x487 JUMPI DUP4 PUSH1 0x40 ADD MLOAD CALLVALUE LT ISZERO PUSH2 0x440 JUMPI PUSH1 0x40 MLOAD PUSH3 0x461BCD PUSH1 0xE5 SHL DUP2 MSTORE PUSH1 0x20 PUSH1 0x4 DUP3 ADD MSTORE PUSH1 0x24 DUP1 DUP3 ADD MSTORE PUSH32 0x4572726F72203A204E6F6E2053756666656369656E742066756E647321212121 PUSH1 0x44 DUP3 ADD MSTORE PUSH4 0x21212121 PUSH1 0xE0 SHL PUSH1 0x64 DUP3 ADD MSTORE PUSH1 0x84 ADD PUSH2 0x1F6 JUMP JUMPDEST DUP4 PUSH1 0x20 ADD MLOAD PUSH1 0x1 PUSH1 0x1 PUSH1 0xA0 SHL SUB AND PUSH2 0x8FC DUP6 PUSH1 0x40 ADD MLOAD SWAP1 DUP2 ISZERO MUL SWAP1 PUSH1 0x40 MLOAD PUSH1 0x0 PUSH1 0x40 MLOAD DUP1 DUP4 SUB DUP2 DUP6 DUP9 DUP9 CALL SWAP4 POP POP POP POP ISZERO DUP1 ISZERO PUSH2 0x481 JUMPI RETURNDATASIZE PUSH1 0x0 DUP1 RETURNDATACOPY RETURNDATASIZE PUSH1 0x0 REVERT JUMPDEST POP PUSH2 0x511 JUMP JUMPDEST DUP4 MLOAD PUSH1 0x20 DUP6 ADD MLOAD PUSH1 0x40 DUP1 DUP8 ADD MLOAD SWAP1 MLOAD PUSH4 0x23B872DD PUSH1 0xE0 SHL DUP2 MSTORE CALLER PUSH1 0x4 DUP3 ADD MSTORE PUSH1 0x1 PUSH1 0x1 PUSH1 0xA0 SHL SUB SWAP3 DUP4 AND PUSH1 0x24 DUP3 ADD MSTORE PUSH1 0x44 DUP2 ADD SWAP2 SWAP1 SWAP2 MSTORE SWAP1 DUP3 AND SWAP1 PUSH4 0x23B872DD SWAP1 PUSH1 0x64 ADD PUSH1 0x20 PUSH1 0x40 MLOAD DUP1 DUP4 SUB DUP2 PUSH1 0x0 DUP8 GAS CALL ISZERO DUP1 ISZERO PUSH2 0x4EA JUMPI RETURNDATASIZE PUSH1 0x0 DUP1 RETURNDATACOPY RETURNDATASIZE PUSH1 0x0 REVERT JUMPDEST POP POP POP POP PUSH1 0x40 MLOAD RETURNDATASIZE PUSH1 0x1F NOT PUSH1 0x1F DUP3 ADD AND DUP3 ADD DUP1 PUSH1 0x40 MSTORE POP DUP2 ADD SWAP1 PUSH2 0x50E SWAP2 SWAP1 PUSH2 0x99D JUMP JUMPDEST POP POP JUMPDEST POP POP POP POP JUMP JUMPDEST PUSH1 0x1 SLOAD PUSH1 0x4 SLOAD LT PUSH2 0x56A JUMPI PUSH1 0x40 MLOAD PUSH3 0x461BCD PUSH1 0xE5 SHL DUP2 MSTORE PUSH1 0x20 PUSH1 0x4 DUP3 ADD MSTORE PUSH1 0x1D PUSH1 0x24 DUP3 ADD MSTORE PUSH32 0x4E6F206E65772068617368206F6E696F6E7320746F207265706F72742E000000 PUSH1 0x44 DUP3 ADD MSTORE PUSH1 0x64 ADD PUSH2 0x1F6 JUMP JUMPDEST PUSH32 0x9034AC9F41D98D9BB9FE35278080334324D0ECEBE02E47481BB00E524FB40AA6 PUSH1 0x1 PUSH1 0x4 SLOAD DUP2 SLOAD DUP2 LT PUSH2 0x5A0 JUMPI PUSH2 0x5A0 PUSH2 0x9BF JUMP JUMPDEST SWAP1 PUSH1 0x0 MSTORE PUSH1 0x20 PUSH1 0x0 KECCAK256 ADD SLOAD PUSH1 0x40 MLOAD PUSH2 0x5BA SWAP2 DUP2 MSTORE PUSH1 0x20 ADD SWAP1 JUMP JUMPDEST PUSH1 0x40 MLOAD DUP1 SWAP2 SUB SWAP1 LOG1 PUSH1 0x5 SLOAD PUSH1 0x4 SLOAD PUSH1 0x1 DUP1 SLOAD PUSH1 0x7 PUSH1 0x21 PUSH1 0x99 SHL ADD SWAP4 DUP5 SWAP4 PUSH4 0x3DBB202B SWAP4 PUSH1 0x1 PUSH1 0x1 PUSH1 0xA0 SHL SUB SWAP1 SWAP3 AND SWAP3 DUP2 LT PUSH2 0x5F7 JUMPI PUSH2 0x5F7 PUSH2 0x9BF JUMP JUMPDEST SWAP1 PUSH1 0x0 MSTORE PUSH1 0x20 PUSH1 0x0 KECCAK256 ADD SLOAD PUSH1 0x40 MLOAD PUSH1 0x24 ADD PUSH2 0x614 SWAP2 DUP2 MSTORE PUSH1 0x20 ADD SWAP1 JUMP JUMPDEST PUSH1 0x40 DUP1 MLOAD PUSH1 0x1F NOT DUP2 DUP5 SUB ADD DUP2 MSTORE SWAP2 DUP2 MSTORE PUSH1 0x20 DUP3 ADD DUP1 MLOAD PUSH1 0x1 PUSH1 0x1 PUSH1 0xE0 SHL SUB AND PUSH4 0xE5F3511B PUSH1 0xE0 SHL OR SWAP1 MSTORE MLOAD PUSH1 0xE0 DUP5 SWAP1 SHL PUSH1 0x1 PUSH1 0x1 PUSH1 0xE0 SHL SUB NOT AND DUP2 MSTORE PUSH2 0x663 SWAP3 SWAP2 SWAP1 PUSH3 0xF4240 SWAP1 PUSH1 0x4 ADD PUSH2 0x9D5 JUMP JUMPDEST PUSH1 0x0 PUSH1 0x40 MLOAD DUP1 DUP4 SUB DUP2 PUSH1 0x0 DUP8 DUP1 EXTCODESIZE ISZERO DUP1 ISZERO PUSH2 0x67D JUMPI PUSH1 0x0 DUP1 REVERT JUMPDEST POP GAS CALL ISZERO DUP1 ISZERO PUSH2 0x691 JUMPI RETURNDATASIZE PUSH1 0x0 DUP1 RETURNDATACOPY RETURNDATASIZE PUSH1 0x0 REVERT JUMPDEST POP POP PUSH1 0x4 DUP1 SLOAD SWAP3 POP SWAP1 POP PUSH1 0x0 PUSH2 0x6A6 DUP4 PUSH2 0x962 JUMP JUMPDEST SWAP2 SWAP1 POP SSTORE POP POP JUMP JUMPDEST PUSH1 0x0 DUP3 PUSH1 0x80 ADD MLOAD DUP3 LT ISZERO PUSH2 0x717 JUMPI PUSH1 0x40 MLOAD PUSH3 0x461BCD PUSH1 0xE5 SHL DUP2 MSTORE PUSH1 0x20 PUSH1 0x4 DUP3 ADD MSTORE PUSH1 0x2A PUSH1 0x24 DUP3 ADD MSTORE PUSH32 0x4572726F72203A2063757272656E7454696D65206973206C657373207468616E PUSH1 0x44 DUP3 ADD MSTORE PUSH10 0x20737461727454696D65 PUSH1 0xB0 SHL PUSH1 0x64 DUP3 ADD MSTORE PUSH1 0x84 ADD PUSH2 0x1F6 JUMP JUMPDEST DUP3 PUSH1 0xA0 ADD MLOAD DUP4 PUSH1 0x80 ADD MLOAD PUSH2 0x72B SWAP2 SWAP1 PUSH2 0x8C4 JUMP JUMPDEST DUP3 LT PUSH2 0x73C JUMPI POP PUSH1 0x60 DUP3 ADD MLOAD PUSH2 0x75D JUMP JUMPDEST PUSH1 0x80 DUP4 ADD MLOAD PUSH2 0x74B SWAP1 DUP4 PUSH2 0x8AD JUMP JUMPDEST DUP4 PUSH1 0x60 ADD MLOAD PUSH2 0x75A SWAP2 SWAP1 PUSH2 0xA25 JUMP JUMPDEST SWAP1 POP JUMPDEST SWAP3 SWAP2 POP POP JUMP JUMPDEST PUSH1 0x0 PUSH1 0x20 DUP3 DUP5 SUB SLT ISZERO PUSH2 0x775 JUMPI PUSH1 0x0 DUP1 REVERT JUMPDEST POP CALLDATALOAD SWAP2 SWAP1 POP JUMP JUMPDEST DUP1 CALLDATALOAD PUSH1 0x1 PUSH1 0x1 PUSH1 0xA0 SHL SUB DUP2 AND DUP2 EQ PUSH2 0x793 JUMPI PUSH1 0x0 DUP1 REVERT JUMPDEST SWAP2 SWAP1 POP JUMP JUMPDEST PUSH1 0x0 PUSH1 0xE0 DUP3 DUP5 SUB SLT ISZERO PUSH2 0x7AA JUMPI PUSH1 0x0 DUP1 REVERT JUMPDEST PUSH1 0x40 MLOAD PUSH1 0xE0 DUP2 ADD DUP2 DUP2 LT PUSH8 0xFFFFFFFFFFFFFFFF DUP3 GT OR ISZERO PUSH2 0x7DB JUMPI PUSH4 0x4E487B71 PUSH1 0xE0 SHL PUSH1 0x0 MSTORE PUSH1 0x41 PUSH1 0x4 MSTORE PUSH1 0x24 PUSH1 0x0 REVERT JUMPDEST PUSH1 0x40 MSTORE PUSH2 0x7E7 DUP4 PUSH2 0x77C JUMP JUMPDEST DUP2 MSTORE PUSH2 0x7F5 PUSH1 0x20 DUP5 ADD PUSH2 0x77C JUMP JUMPDEST PUSH1 0x20 DUP3 ADD MSTORE PUSH1 0x40 DUP4 ADD CALLDATALOAD PUSH1 0x40 DUP3 ADD MSTORE PUSH1 0x60 DUP4 ADD CALLDATALOAD PUSH1 0x60 DUP3 ADD MSTORE PUSH1 0x80 DUP4 ADD CALLDATALOAD PUSH1 0x80 DUP3 ADD MSTORE PUSH1 0xA0 DUP4 ADD CALLDATALOAD PUSH1 0xA0 DUP3 ADD MSTORE PUSH1 0xC0 DUP4 ADD CALLDATALOAD PUSH1 0xC0 DUP3 ADD MSTORE DUP1 SWAP2 POP POP SWAP3 SWAP2 POP POP JUMP JUMPDEST PUSH1 0x0 JUMPDEST DUP4 DUP2 LT ISZERO PUSH2 0x851 JUMPI DUP2 DUP2 ADD MLOAD DUP4 DUP3 ADD MSTORE PUSH1 0x20 ADD PUSH2 0x839 JUMP JUMPDEST DUP4 DUP2 GT ISZERO PUSH2 0x511 JUMPI POP POP PUSH1 0x0 SWAP2 ADD MSTORE JUMP JUMPDEST PUSH1 0x0 DUP3 MLOAD PUSH2 0x874 DUP2 DUP5 PUSH1 0x20 DUP8 ADD PUSH2 0x836 JUMP JUMPDEST SWAP2 SWAP1 SWAP2 ADD SWAP3 SWAP2 POP POP JUMP JUMPDEST PUSH1 0x0 PUSH1 0x20 DUP3 DUP5 SUB SLT ISZERO PUSH2 0x890 JUMPI PUSH1 0x0 DUP1 REVERT JUMPDEST POP MLOAD SWAP2 SWAP1 POP JUMP JUMPDEST PUSH4 0x4E487B71 PUSH1 0xE0 SHL PUSH1 0x0 MSTORE PUSH1 0x11 PUSH1 0x4 MSTORE PUSH1 0x24 PUSH1 0x0 REVERT JUMPDEST PUSH1 0x0 DUP3 DUP3 LT ISZERO PUSH2 0x8BF JUMPI PUSH2 0x8BF PUSH2 0x897 JUMP JUMPDEST POP SUB SWAP1 JUMP JUMPDEST PUSH1 0x0 DUP3 NOT DUP3 GT ISZERO PUSH2 0x8D7 JUMPI PUSH2 0x8D7 PUSH2 0x897 JUMP JUMPDEST POP ADD SWAP1 JUMP JUMPDEST DUP3 DUP2 MSTORE PUSH1 0xA0 DUP2 ADD PUSH2 0x91F PUSH1 0x20 DUP4 ADD DUP5 DUP1 MLOAD DUP3 MSTORE PUSH1 0x20 DUP1 DUP3 ADD MLOAD PUSH1 0x1 PUSH1 0x1 PUSH1 0xA0 SHL SUB SWAP1 DUP2 AND SWAP2 DUP5 ADD SWAP2 SWAP1 SWAP2 MSTORE PUSH1 0x40 DUP1 DUP4 ADD MLOAD SWAP1 SWAP2 AND SWAP1 DUP4 ADD MSTORE PUSH1 0x60 SWAP1 DUP2 ADD MLOAD SWAP2 ADD MSTORE JUMP JUMPDEST SWAP4 SWAP3 POP POP POP JUMP JUMPDEST DUP2 MLOAD DUP2 MSTORE PUSH1 0x20 DUP1 DUP4 ADD MLOAD PUSH1 0x1 PUSH1 0x1 PUSH1 0xA0 SHL SUB SWAP1 DUP2 AND SWAP2 DUP4 ADD SWAP2 SWAP1 SWAP2 MSTORE PUSH1 0x40 DUP1 DUP5 ADD MLOAD SWAP1 SWAP2 AND SWAP1 DUP3 ADD MSTORE PUSH1 0x60 DUP1 DUP4 ADD MLOAD SWAP1 DUP3 ADD MSTORE PUSH1 0x80 DUP2 ADD PUSH2 0x75D JUMP JUMPDEST PUSH1 0x0 PUSH1 0x1 DUP3 ADD PUSH2 0x974 JUMPI PUSH2 0x974 PUSH2 0x897 JUMP JUMPDEST POP PUSH1 0x1 ADD SWAP1 JUMP JUMPDEST PUSH1 0x0 DUP3 PUSH2 0x998 JUMPI PUSH4 0x4E487B71 PUSH1 0xE0 SHL PUSH1 0x0 MSTORE PUSH1 0x12 PUSH1 0x4 MSTORE PUSH1 0x24 PUSH1 0x0 REVERT JUMPDEST POP MOD SWAP1 JUMP JUMPDEST PUSH1 0x0 PUSH1 0x20 DUP3 DUP5 SUB SLT ISZERO PUSH2 0x9AF JUMPI PUSH1 0x0 DUP1 REVERT JUMPDEST DUP2 MLOAD DUP1 ISZERO ISZERO DUP2 EQ PUSH2 0x91F JUMPI PUSH1 0x0 DUP1 REVERT JUMPDEST PUSH4 0x4E487B71 PUSH1 0xE0 SHL PUSH1 0x0 MSTORE PUSH1 0x32 PUSH1 0x4 MSTORE PUSH1 0x24 PUSH1 0x0 REVERT JUMPDEST PUSH1 0x1 DUP1 PUSH1 0xA0 SHL SUB DUP5 AND DUP2 MSTORE PUSH1 0x60 PUSH1 0x20 DUP3 ADD MSTORE PUSH1 0x0 DUP4 MLOAD DUP1 PUSH1 0x60 DUP5 ADD MSTORE PUSH2 0xA02 DUP2 PUSH1 0x80 DUP6 ADD PUSH1 0x20 DUP9 ADD PUSH2 0x836 JUMP JUMPDEST PUSH4 0xFFFFFFFF SWAP4 SWAP1 SWAP4 AND PUSH1 0x40 DUP4 ADD MSTORE POP PUSH1 0x1F SWAP2 SWAP1 SWAP2 ADD PUSH1 0x1F NOT AND ADD PUSH1 0x80 ADD SWAP3 SWAP2 POP POP JUMP JUMPDEST PUSH1 0x0 DUP2 PUSH1 0x0 NOT DIV DUP4 GT DUP3 ISZERO ISZERO AND ISZERO PUSH2 0xA3F JUMPI PUSH2 0xA3F PUSH2 0x897 JUMP JUMPDEST POP MUL SWAP1 JUMP INVALID LOG2 PUSH5 0x6970667358 0x22 SLT KECCAK256 SHL DUP14 SWAP10 0xCD SUB DUP14 PUSH5 0xC53B7CA7DE 0xA8 0xC1 REVERT PUSH13 0x21FDDB3CA6C50EB95367555D67 0xE9 SWAP9 CALLER PUSH5 0x736F6C6343 STOP ADDMOD 0xD STOP CALLER ","sha1":"8009a02a0e0313be0eb1dd93f77df5faed4004a9","source":"//SPDX-License-Identifier: MIT\npragma solidity ^0.8.9;\n\nimport \"./deb/ERC20.sol\";\nimport \"./deb/ICrossDomainMessenger.sol\";\n\n/// @title DestinationDomainSideBridge Contract\n/// @author Sherif Abdelmoatty\n/// @notice This contract is to be deployed in the destination rollup\ncontract DestinationDomainSideBridge {\n    address constant ETHER_ADDRESS = 0x0000000000000000000000000000000000000000;\n    bytes32 rewardHashOnion;\n    bytes32[] public rewardHashOnionHistoryList;\n    uint256 public claimCount;\n    uint256 constant TRANSFERS_PER_ONION = 20;\n\n    struct TransferData {\n        address  tokenAddress; \n        address  destination;\n        uint256  amount;\n        uint256  fee;\n        uint256  startTime;\n        uint256  feeRampup; //to incentivise lp's to transfer this transaction quickly\n        uint256  nonce;\n    }\n\n    struct RewardData {\n        bytes32  transferDataHash;\n        address  tokenAddress; \n        address  claimer;\n        uint256  amountPlusFee;\n    }\n\n    mapping(bytes32 => bool) claimedTransferHashes;\n    uint256 indexReportedHashOnion;\n    event Reward(RewardData rewardData);\n    event NewHashOnionCreated(bytes32 hash);\n    event NewHashOnionDeclaredToL1(bytes32 hash);\n\n    address constant ovmL2CrossDomainMessenger = 0x4200000000000000000000000000000000000007;  //ovmL2CrossDomainMessenger contract address(Optimism)\n    address l1DomainSideContractAddress;  //L1DomainSideBridge deployed contract address on mainnet\n\n    /// @param _l1DomainSideContractAddress is the address of the contract in etherium L1\n    constructor(address _l1DomainSideContractAddress){\n        l1DomainSideContractAddress = _l1DomainSideContractAddress;\n    }\n\n    /// @notice lequidity providers can provide lequidity to be transfered to the \n    /// @notice destination address and register a claim to the lequidity fee\n    function claim(TransferData memory _transferData) external payable{\n        bytes32 transferDataHash = sha256(abi.encode(_transferData));\n        require(!claimedTransferHashes[transferDataHash], \"Transfer already claimed!!!\");\n        claimedTransferHashes[transferDataHash] = true;\n\n        uint256 lPfee = getLPFee(_transferData, block.timestamp);\n        _transferData.amount = _transferData.amount + (lPfee - _transferData.fee);\n\n        RewardData memory rewardData;\n        rewardData.transferDataHash = transferDataHash;\n        rewardData.tokenAddress = _transferData.tokenAddress;\n        rewardData.claimer = msg.sender;\n        rewardData.amountPlusFee = lPfee + _transferData.amount;\n        rewardHashOnion = sha256(abi.encode(rewardHashOnion, rewardData));\n\n        emit Reward(rewardData);\n        claimCount++;\n\n        if(claimCount % TRANSFERS_PER_ONION == 0){\n            rewardHashOnionHistoryList.push(rewardHashOnion);\n            emit NewHashOnionCreated(rewardHashOnion);\n        }\n\n        if(_transferData.tokenAddress == ETHER_ADDRESS){\n            require(msg.value >= _transferData.amount, \"Error : Non Suffecient funds!!!!!!!!\");\n            payable(_transferData.destination).transfer(_transferData.amount);\n        }else{\n            ERC20 token = ERC20(_transferData.tokenAddress);\n            token.transferFrom(msg.sender, _transferData.destination,\n                 _transferData.amount);\n        }\n    }\n    \n    /// @notice sends new hash onions one by one to the l1 side contract to be sent to the source side contract\n    /// @notice this function is rollup dependant - Optimism Kovn\n    function declareNewHashOnionHeadToL1() external{\n        require(indexReportedHashOnion < rewardHashOnionHistoryList.length, \"No new hash onions to report.\");\n        \n        emit NewHashOnionDeclaredToL1(rewardHashOnionHistoryList[indexReportedHashOnion]);\n        ICrossDomainMessenger l2cdm = ICrossDomainMessenger(ovmL2CrossDomainMessenger);\n        l2cdm.sendMessage(\n            l1DomainSideContractAddress,\n            abi.encodeWithSignature(\n                \"declareNewHashOnionHeadToSource(bytes32)\",\n                rewardHashOnionHistoryList[indexReportedHashOnion]\n            ),\n            1000000 \n        );\n        indexReportedHashOnion++;\n    }\n\n    /// @notice calculates the liquidity provider fee based on the feeRampup\n    function getLPFee(TransferData memory _transferData, uint256 _currentTime) private pure returns (uint256) {\n        require(_currentTime >= _transferData.startTime, \"Error : currentTime is less than startTime\");\n\n        if(_currentTime >= _transferData.startTime + _transferData.feeRampup)\n            return _transferData.fee;\n        else\n            return _transferData.fee * (_currentTime - _transferData.startTime); // feeRampup\n    }\n}","sourcePath":"contracts/DestinationDomainSideBridge.sol","type":"contract","deployment":{"address":"0x1c2728dc77cC04d071F7a6522539a75CA04a2467","chainid":"69","blockHeight":3224867}}