{"abi":[{"inputs":[{"internalType":"address","name":"_ovmL2CrossDomainMessenger","type":"address"},{"internalType":"address","name":"_l1DomainSideContract","type":"address"}],"stateMutability":"nonpayable","type":"constructor","name":"constructor"},{"anonymous":false,"inputs":[{"indexed":false,"internalType":"bytes32","name":"ticket","type":"bytes32"},{"indexed":false,"internalType":"address[]","name":"tokens","type":"address[]"},{"indexed":false,"internalType":"uint256[]","name":"amounts","type":"uint256[]"},{"indexed":false,"internalType":"uint256","name":"firstIdForTicket","type":"uint256"},{"indexed":false,"internalType":"uint256","name":"lastIdForTicket","type":"uint256"},{"indexed":false,"internalType":"bytes32","name":"stateRoot","type":"bytes32"}],"name":"Ticket","type":"event"},{"anonymous":false,"inputs":[{"components":[{"internalType":"address","name":"tokenAddress","type":"address"},{"internalType":"address","name":"destination","type":"address"},{"internalType":"uint256","name":"amount","type":"uint256"},{"internalType":"uint256","name":"fee","type":"uint256"},{"internalType":"uint256","name":"startTime","type":"uint256"},{"internalType":"uint256","name":"feeRampup","type":"uint256"}],"indexed":false,"internalType":"struct SourceDomainSideBridge.TransferData","name":"transferData","type":"tuple"},{"indexed":false,"internalType":"contract SourceDomainSideBridge","name":"current","type":"address"},{"indexed":false,"internalType":"uint256","name":"nextTransferId","type":"uint256"}],"name":"Transaction","type":"event"},{"inputs":[{"internalType":"bytes32","name":"_ticket","type":"bytes32"},{"internalType":"address[]","name":"_tokens","type":"address[]"},{"internalType":"uint256[]","name":"_tokensAmounts","type":"uint256[]"},{"internalType":"uint256","name":"_firstIdForTicket","type":"uint256"},{"internalType":"uint256","name":"_lastIdForTicket","type":"uint256"},{"internalType":"bytes32","name":"stateRoot","type":"bytes32"},{"internalType":"address payable","name":"lp","type":"address"}],"name":"confirmTicketPayed","outputs":[],"stateMutability":"nonpayable","type":"function"},{"inputs":[],"name":"createTicket","outputs":[{"internalType":"bytes32","name":"","type":"bytes32"}],"stateMutability":"nonpayable","type":"function"},{"inputs":[],"name":"get_deposit_root","outputs":[{"internalType":"bytes32","name":"","type":"bytes32"}],"stateMutability":"view","type":"function"},{"inputs":[],"name":"lastPaidByTicketId","outputs":[{"internalType":"uint256","name":"","type":"uint256"}],"stateMutability":"view","type":"function"},{"inputs":[],"name":"nextTransferID","outputs":[{"internalType":"uint256","name":"","type":"uint256"}],"stateMutability":"view","type":"function"},{"inputs":[{"internalType":"address","name":"_tokenAddress","type":"address"},{"internalType":"address","name":"_destination","type":"address"},{"internalType":"uint256","name":"_amount","type":"uint256"},{"internalType":"uint256","name":"_fee","type":"uint256"},{"internalType":"uint256","name":"_startTime","type":"uint256"},{"internalType":"uint256","name":"_feeRampup","type":"uint256"}],"name":"withdraw","outputs":[{"internalType":"bytes32","name":"","type":"bytes32"}],"stateMutability":"payable","type":"function"}],"bytecode":"60806040523480156200001157600080fd5b50604051620019e9380380620019e9833981016040819052620000349162000179565b60005b620000456001600a620001c7565b81101562000129576002600e82600a8110620000655762000065620001e1565b0154600e83600a81106200007d576200007d620001e1565b015460408051602081019390935282015260600160408051601f1981840301815290829052620000ad91620001f7565b602060405180830381855afa158015620000cb573d6000803e3d6000fd5b5050506040513d601f19601f82011682018060405250810190620000f0919062000235565b600e620000ff8360016200024f565b600a8110620001125762000112620001e1565b01558062000120816200026a565b91505062000037565b50601880546001600160a01b039384166001600160a01b0319918216179091556019805492909316911617905562000288565b80516001600160a01b03811681146200017457600080fd5b919050565b600080604083850312156200018d57600080fd5b62000198836200015c565b9150620001a8602084016200015c565b90509250929050565b634e487b7160e01b600052601160045260246000fd5b600082821015620001dc57620001dc620001b1565b500390565b634e487b7160e01b600052603260045260246000fd5b6000825160005b818110156200021a5760208186018101518583015201620001fe565b818111156200022a576000828501525b509190910192915050565b6000602082840312156200024857600080fd5b5051919050565b60008219821115620002655762000265620001b1565b500190565b6000600019821415620002815762000281620001b1565b5060010190565b61175180620002986000396000f3fe6080604052600436106100555760003560e01c80631d2717091461005a5780631d329228146100815780637167a5ed146100a357806378401ec8146100b9578063832fc2fe146100cc578063c5f2892f146100e2575b600080fd5b34801561006657600080fd5b5061006f6100f7565b60405190815260200160405180910390f35b34801561008d57600080fd5b506100a161009c3660046112aa565b610552565b005b3480156100af57600080fd5b5061006f60005481565b61006f6100c73660046113a5565b610ad9565b3480156100d857600080fd5b5061006f60035481565b3480156100ee57600080fd5b5061006f610ef9565b6000606081805b6001548110156103055760006001600160a01b031660018281548110610126576101266113fe565b6000918252602090912001546001600160a01b031614156101655747838281518110610154576101546113fe565b602002602001018181525050610221565b60006001828154811061017a5761017a6113fe565b6000918252602090912001546040516370a0823160e01b81523060048201526001600160a01b03909116915081906370a082319060240160206040518083038186803b1580156101c957600080fd5b505afa1580156101dd573d6000803e3d6000fd5b505050506040513d601f19601f820116820180604052508101906102019190611414565b848381518110610213576102136113fe565b602002602001018181525050505b6002826001600081548110610238576102386113fe565b600091825260208220015486516001600160a01b0390911691879161025f5761025f6113fe565b60200260200101516040516020016102979392919092835260609190911b6001600160601b0319166020830152603482015260540190565b60408051601f19818403018152908290526102b19161142d565b602060405180830381855afa1580156102ce573d6000803e3d6000fd5b5050506040513d601f19601f820116820180604052508101906102f19190611414565b9150806102fd8161147e565b9150506100fe565b506000306001600160a01b031663c5f2892f6040518163ffffffff1660e01b815260040160206040518083038186803b15801561034157600080fd5b505afa158015610355573d6000803e3d6000fd5b505050506040513d601f19601f820116820180604052508101906103799190611414565b905060028260035460405160200161039b929190918252602082015260400190565b60408051601f19818403018152908290526103b59161142d565b602060405180830381855afa1580156103d2573d6000803e3d6000fd5b5050506040513d601f19601f820116820180604052508101906103f59190611414565b9150600282600054604051602001610417929190918252602082015260400190565b60408051601f19818403018152908290526104319161142d565b602060405180830381855afa15801561044e573d6000803e3d6000fd5b5050506040513d601f19601f820116820180604052508101906104719190611414565b915060028282604051602001610491929190918252602082015260400190565b60408051601f19818403018152908290526104ab9161142d565b602060405180830381855afa1580156104c8573d6000803e3d6000fd5b5050506040513d601f19601f820116820180604052508101906104eb9190611414565b600081815260026020526040808220805460ff19166001908117909155600354925491519395507f70faf93ca5884fe09c9c92c466b3968fb827e64f078f87c734e05f6a976bff279361054393879389928890611499565b60405180910390a15092915050565b6018546001600160a01b0316331480156105f6575060195460185460408051636e296e4560e01b815290516001600160a01b039384169390921691636e296e4591600480820192602092909190829003018186803b1580156105b357600080fd5b505afa1580156105c7573d6000803e3d6000fd5b505050506040513d601f19601f820116820180604052508101906105eb9190611541565b6001600160a01b0316145b6105ff57600080fd5b6000805b87518110156106e35760028289600081518110610622576106226113fe565b60200260200101518960008151811061063d5761063d6113fe565b60200260200101516040516020016106759392919092835260609190911b6001600160601b0319166020830152603482015260540190565b60408051601f198184030181529082905261068f9161142d565b602060405180830381855afa1580156106ac573d6000803e3d6000fd5b5050506040513d601f19601f820116820180604052508101906106cf9190611414565b9150806106db8161147e565b915050610603565b50600281600354604051602001610704929190918252602082015260400190565b60408051601f198184030181529082905261071e9161142d565b602060405180830381855afa15801561073b573d6000803e3d6000fd5b5050506040513d601f19601f8201168201806040525081019061075e9190611414565b9050600281600054604051602001610780929190918252602082015260400190565b60408051601f198184030181529082905261079a9161142d565b602060405180830381855afa1580156107b7573d6000803e3d6000fd5b5050506040513d601f19601f820116820180604052508101906107da9190611414565b9050600281846040516020016107fa929190918252602082015260400190565b60408051601f19818403018152908290526108149161142d565b602060405180830381855afa158015610831573d6000803e3d6000fd5b5050506040513d601f19601f820116820180604052508101906108549190611414565b905060035485146108a05760405162461bcd60e51b8152602060048201526011602482015270496e76616c6964207469636b657420212160781b60448201526064015b60405180910390fd5b8781146108e15760405162461bcd60e51b815260206004820152600f60248201526e57726f6e67207469636b657420212160881b6044820152606401610897565b60008881526002602052604090205460ff1615156001146109385760405162461bcd60e51b8152602060048201526011602482015270496e76616c6964207469636b657420212160781b6044820152606401610897565b60038490556000888152600260205260408120805460ff191690555b8751811015610ace5760006001600160a01b03166001828154811061097b5761097b6113fe565b6000918252602090912001546001600160a01b031614156109ee57826001600160a01b03166108fc8883815181106109b5576109b56113fe565b60200260200101519081150290604051600060405180830381858888f193505050501580156109e8573d6000803e3d6000fd5b50610abc565b6000888281518110610a0257610a026113fe565b60200260200101519050806001600160a01b031663a9059cbb858a8581518110610a2e57610a2e6113fe565b60200260200101516040518363ffffffff1660e01b8152600401610a679291906001600160a01b03929092168252602082015260400190565b602060405180830381600087803b158015610a8157600080fd5b505af1158015610a95573d6000803e3d6000fd5b505050506040513d601f19601f82011682018060405250810190610ab99190611565565b50505b80610ac68161147e565b915050610954565b505050505050505050565b6040805160c0810182526001600160a01b03888116825287166020820152908101859052606081018490526080810183905260a0810182905260009081610b2360056103e8611587565b8260400151610b32919061159f565b82519091506001600160a01b0316610ba55780341015610ba05760405162461bcd60e51b8152602060048201526024808201527f4572726f72203a204e6f6e2053756666656369656e742066756e6473212121216044820152632121212160e01b6064820152608401610897565b610c30565b81516040516323b872dd60e01b8152336004820152306024820152604481018390526001600160a01b038216906323b872dd90606401602060405180830381600087803b158015610bf557600080fd5b505af1158015610c09573d6000803e3d6000fd5b505050506040513d601f19601f82011682018060405250810190610c2d9190611565565b50505b8151602080840151604080860151606080880151608089015160a08a0151945197831b6001600160601b0319908116978901979097529490911b909416603486015260488501526068840192909252608883015260a882015260009060029060c80160408051601f1981840301815290829052610cac9161142d565b602060405180830381855afa158015610cc9573d6000803e3d6000fd5b5050506040513d601f19601f82011682018060405250810190610cec9190611414565b6040516001600160601b03193060601b16602082015290915060009060029060340160408051601f1981840301815290829052610d289161142d565b602060405180830381855afa158015610d45573d6000803e3d6000fd5b5050506040513d601f19601f82011682018060405250810190610d689190611414565b905060006002600054604051602001610d8391815260200190565b60408051601f1981840301815290829052610d9d9161142d565b602060405180830381855afa158015610dba573d6000803e3d6000fd5b5050506040513d601f19601f82011682018060405250810190610ddd9190611414565b60408051602081018690529081018490526060810182905290915060009060029060800160408051601f1981840301815290829052610e1b9161142d565b602060405180830381855afa158015610e38573d6000803e3d6000fd5b5050506040513d601f19601f82011682018060405250810190610e5b9190611414565b9050610e6681611085565b6000546040805188516001600160a01b0390811682526020808b01519091169082015288820151818301526060808a0151908201526080808a01519082015260a0808a0151908201523060c082015260e0810192909252517f1bcb1c888e30c1d45267036506b6c8aecddf04245b7a3235b6c206e007ed1f2d918190036101000190a19c9b505050505050505050505050565b600080806001610f0b600a60026116a4565b610f1591906116b0565b600054610f2291906116dd565b90506000805b600a81101561107c578260011660011415610fc9576002600482600a8110610f5257610f526113fe565b0154604080516020810192909252810186905260600160408051601f1981840301815290829052610f829161142d565b602060405180830381855afa158015610f9f573d6000803e3d6000fd5b5050506040513d601f19601f82011682018060405250810190610fc29190611414565b9350611050565b600284600e83600a8110610fdf57610fdf6113fe565b015460408051602081019390935282015260600160408051601f198184030181529082905261100d9161142d565b602060405180830381855afa15801561102a573d6000803e3d6000fd5b5050506040513d601f19601f8201168201806040525081019061104d9190611414565b93505b61105b6002846116f1565b9250611068600183611587565b9150806110748161147e565b915050610f28565b50919392505050565b60016000808282546110979190611587565b909155506000905060016110ad600a60026116a4565b6110b791906116b0565b6000546110c491906116dd565b905060005b600a81101561119f5781600116600114156110f95782600482600a81106110f2576110f26113fe565b0155505050565b6002600482600a811061110e5761110e6113fe565b0154604080516020810192909252810185905260600160408051601f198184030181529082905261113e9161142d565b602060405180830381855afa15801561115b573d6000803e3d6000fd5b5050506040513d601f19601f8201168201806040525081019061117e9190611414565b925061118b6002836116f1565b9150806111978161147e565b9150506110c9565b506111a8611705565b5050565b634e487b7160e01b600052604160045260246000fd5b604051601f8201601f1916810167ffffffffffffffff811182821017156111eb576111eb6111ac565b604052919050565b600067ffffffffffffffff82111561120d5761120d6111ac565b5060051b60200190565b6001600160a01b038116811461122c57600080fd5b50565b600082601f83011261124057600080fd5b81356020611255611250836111f3565b6111c2565b82815260059290921b8401810191818101908684111561127457600080fd5b8286015b8481101561128f5780358352918301918301611278565b509695505050505050565b80356112a581611217565b919050565b600080600080600080600060e0888a0312156112c557600080fd5b8735965060208089013567ffffffffffffffff808211156112e557600080fd5b818b0191508b601f8301126112f957600080fd5b8135611307611250826111f3565b81815260059190911b8301840190848101908e83111561132657600080fd5b938501935b8285101561134d57843561133e81611217565b8252938501939085019061132b565b9a50505060408b013592508083111561136557600080fd5b50506113738a828b0161122f565b955050606088013593506080880135925060a0880135915061139760c0890161129a565b905092959891949750929550565b60008060008060008060c087890312156113be57600080fd5b86356113c981611217565b955060208701356113d981611217565b95989597505050506040840135936060810135936080820135935060a0909101359150565b634e487b7160e01b600052603260045260246000fd5b60006020828403121561142657600080fd5b5051919050565b6000825160005b8181101561144e5760208186018101518583015201611434565b8181111561145d576000828501525b509190910192915050565b634e487b7160e01b600052601160045260246000fd5b600060001982141561149257611492611468565b5060010190565b600060c08201888352602060c08185015281895480845260e0860191508a60005282600020935060005b818110156114e85784546001600160a01b0316835260019485019492840192016114c3565b50508481036040860152885180825290820192508189019060005b8181101561151f57825185529383019391830191600101611503565b50505050606083019590955250608081019290925260a0909101529392505050565b60006020828403121561155357600080fd5b815161155e81611217565b9392505050565b60006020828403121561157757600080fd5b8151801515811461155e57600080fd5b6000821982111561159a5761159a611468565b500190565b60008160001904831182151516156115b9576115b9611468565b500290565b600181815b808511156115f95781600019048211156115df576115df611468565b808516156115ec57918102915b93841c93908002906115c3565b509250929050565b6000826116105750600161169e565b8161161d5750600061169e565b8160018114611633576002811461163d57611659565b600191505061169e565b60ff84111561164e5761164e611468565b50506001821b61169e565b5060208310610133831016604e8410600b841016171561167c575081810a61169e565b61168683836115be565b806000190482111561169a5761169a611468565b0290505b92915050565b600061155e8383611601565b6000828210156116c2576116c2611468565b500390565b634e487b7160e01b600052601260045260246000fd5b6000826116ec576116ec6116c7565b500690565b600082611700576117006116c7565b500490565b634e487b7160e01b600052600160045260246000fdfea26469706673582212200badee4fa2333cda788c4b7835cdde73720790d72521df90a009bef3ad8389d364736f6c63430008090033","bytecodeSha1":"fdb056b17ab0a646654801b9e69b03b2237c24cc","compiler":{"evm_version":"istanbul","optimizer":{"enabled":true,"runs":200},"version":"0.8.9+commit.e5eed63a"},"contractName":"SourceDomainSideBridge","language":"Solidity","natspec":{"author":"Sherif Abdelmoatty","kind":"dev","methods":{"confirmTicketPayed(bytes32,address[],uint256[],uint256,uint256,bytes32,address)":{"notice":"confirmTicketPayed functionthis finction is called by the L1 mainnet contract it confirms a valid ticket and transfers the bounty to the bounty winner"},"constructor":{"notice":"Constructior functionIntialize the zero_hashes array"},"createTicket()":{"notice":"createTicket functionto win the bountry you need first to create a ticketon the source rollup, which returns a hash of thecurrent merkle root, first transaction id and lasttransaction id that the bounty coversthe bounty seeker needs to deposit all the requiredtokens in a contract in the L1 mainnet, then the L1contract sends the tokens to the destination side rollupand calls the confirmTicketPayed function in the sourceside rollup, which transfers the bounty to the bounty winner"},"get_deposit_root()":{"notice":"get_deposit_root functioncalculates the current merkle tree root"},"withdraw(address,address,uint256,uint256,uint256,uint256)":{"notice":"withdraw functionwithdraws the required funds plus fees to be sent to the domain side rollup"}},"notice":"This contract is to be deployed in the source rollup","title":"SourceDomainSideBridge Contract","version":1},"opcodes":"PUSH1 0x80 PUSH1 0x40 MSTORE PUSH1 0x4 CALLDATASIZE LT PUSH2 0x55 JUMPI PUSH1 0x0 CALLDATALOAD PUSH1 0xE0 SHR DUP1 PUSH4 0x1D271709 EQ PUSH2 0x5A JUMPI DUP1 PUSH4 0x1D329228 EQ PUSH2 0x81 JUMPI DUP1 PUSH4 0x7167A5ED EQ PUSH2 0xA3 JUMPI DUP1 PUSH4 0x78401EC8 EQ PUSH2 0xB9 JUMPI DUP1 PUSH4 0x832FC2FE EQ PUSH2 0xCC JUMPI DUP1 PUSH4 0xC5F2892F EQ PUSH2 0xE2 JUMPI JUMPDEST PUSH1 0x0 DUP1 REVERT JUMPDEST CALLVALUE DUP1 ISZERO PUSH2 0x66 JUMPI PUSH1 0x0 DUP1 REVERT JUMPDEST POP PUSH2 0x6F PUSH2 0xF7 JUMP JUMPDEST PUSH1 0x40 MLOAD SWAP1 DUP2 MSTORE PUSH1 0x20 ADD PUSH1 0x40 MLOAD DUP1 SWAP2 SUB SWAP1 RETURN JUMPDEST CALLVALUE DUP1 ISZERO PUSH2 0x8D JUMPI PUSH1 0x0 DUP1 REVERT JUMPDEST POP PUSH2 0xA1 PUSH2 0x9C CALLDATASIZE PUSH1 0x4 PUSH2 0x12AA JUMP JUMPDEST PUSH2 0x552 JUMP JUMPDEST STOP JUMPDEST CALLVALUE DUP1 ISZERO PUSH2 0xAF JUMPI PUSH1 0x0 DUP1 REVERT JUMPDEST POP PUSH2 0x6F PUSH1 0x0 SLOAD DUP2 JUMP JUMPDEST PUSH2 0x6F PUSH2 0xC7 CALLDATASIZE PUSH1 0x4 PUSH2 0x13A5 JUMP JUMPDEST PUSH2 0xAD9 JUMP JUMPDEST CALLVALUE DUP1 ISZERO PUSH2 0xD8 JUMPI PUSH1 0x0 DUP1 REVERT JUMPDEST POP PUSH2 0x6F PUSH1 0x3 SLOAD DUP2 JUMP JUMPDEST CALLVALUE DUP1 ISZERO PUSH2 0xEE JUMPI PUSH1 0x0 DUP1 REVERT JUMPDEST POP PUSH2 0x6F PUSH2 0xEF9 JUMP JUMPDEST PUSH1 0x0 PUSH1 0x60 DUP2 DUP1 JUMPDEST PUSH1 0x1 SLOAD DUP2 LT ISZERO PUSH2 0x305 JUMPI PUSH1 0x0 PUSH1 0x1 PUSH1 0x1 PUSH1 0xA0 SHL SUB AND PUSH1 0x1 DUP3 DUP2 SLOAD DUP2 LT PUSH2 0x126 JUMPI PUSH2 0x126 PUSH2 0x13FE JUMP JUMPDEST PUSH1 0x0 SWAP2 DUP3 MSTORE PUSH1 0x20 SWAP1 SWAP2 KECCAK256 ADD SLOAD PUSH1 0x1 PUSH1 0x1 PUSH1 0xA0 SHL SUB AND EQ ISZERO PUSH2 0x165 JUMPI SELFBALANCE DUP4 DUP3 DUP2 MLOAD DUP2 LT PUSH2 0x154 JUMPI PUSH2 0x154 PUSH2 0x13FE JUMP JUMPDEST PUSH1 0x20 MUL PUSH1 0x20 ADD ADD DUP2 DUP2 MSTORE POP POP PUSH2 0x221 JUMP JUMPDEST PUSH1 0x0 PUSH1 0x1 DUP3 DUP2 SLOAD DUP2 LT PUSH2 0x17A JUMPI PUSH2 0x17A PUSH2 0x13FE JUMP JUMPDEST PUSH1 0x0 SWAP2 DUP3 MSTORE PUSH1 0x20 SWAP1 SWAP2 KECCAK256 ADD SLOAD PUSH1 0x40 MLOAD PUSH4 0x70A08231 PUSH1 0xE0 SHL DUP2 MSTORE ADDRESS PUSH1 0x4 DUP3 ADD MSTORE PUSH1 0x1 PUSH1 0x1 PUSH1 0xA0 SHL SUB SWAP1 SWAP2 AND SWAP2 POP DUP2 SWAP1 PUSH4 0x70A08231 SWAP1 PUSH1 0x24 ADD PUSH1 0x20 PUSH1 0x40 MLOAD DUP1 DUP4 SUB DUP2 DUP7 DUP1 EXTCODESIZE ISZERO DUP1 ISZERO PUSH2 0x1C9 JUMPI PUSH1 0x0 DUP1 REVERT JUMPDEST POP GAS STATICCALL ISZERO DUP1 ISZERO PUSH2 0x1DD JUMPI RETURNDATASIZE PUSH1 0x0 DUP1 RETURNDATACOPY RETURNDATASIZE PUSH1 0x0 REVERT JUMPDEST POP POP POP POP PUSH1 0x40 MLOAD RETURNDATASIZE PUSH1 0x1F NOT PUSH1 0x1F DUP3 ADD AND DUP3 ADD DUP1 PUSH1 0x40 MSTORE POP DUP2 ADD SWAP1 PUSH2 0x201 SWAP2 SWAP1 PUSH2 0x1414 JUMP JUMPDEST DUP5 DUP4 DUP2 MLOAD DUP2 LT PUSH2 0x213 JUMPI PUSH2 0x213 PUSH2 0x13FE JUMP JUMPDEST PUSH1 0x20 MUL PUSH1 0x20 ADD ADD DUP2 DUP2 MSTORE POP POP POP JUMPDEST PUSH1 0x2 DUP3 PUSH1 0x1 PUSH1 0x0 DUP2 SLOAD DUP2 LT PUSH2 0x238 JUMPI PUSH2 0x238 PUSH2 0x13FE JUMP JUMPDEST PUSH1 0x0 SWAP2 DUP3 MSTORE PUSH1 0x20 DUP3 KECCAK256 ADD SLOAD DUP7 MLOAD PUSH1 0x1 PUSH1 0x1 PUSH1 0xA0 SHL SUB SWAP1 SWAP2 AND SWAP2 DUP8 SWAP2 PUSH2 0x25F JUMPI PUSH2 0x25F PUSH2 0x13FE JUMP JUMPDEST PUSH1 0x20 MUL PUSH1 0x20 ADD ADD MLOAD PUSH1 0x40 MLOAD PUSH1 0x20 ADD PUSH2 0x297 SWAP4 SWAP3 SWAP2 SWAP1 SWAP3 DUP4 MSTORE PUSH1 0x60 SWAP2 SWAP1 SWAP2 SHL PUSH1 0x1 PUSH1 0x1 PUSH1 0x60 SHL SUB NOT AND PUSH1 0x20 DUP4 ADD MSTORE PUSH1 0x34 DUP3 ADD MSTORE PUSH1 0x54 ADD SWAP1 JUMP JUMPDEST PUSH1 0x40 DUP1 MLOAD PUSH1 0x1F NOT DUP2 DUP5 SUB ADD DUP2 MSTORE SWAP1 DUP3 SWAP1 MSTORE PUSH2 0x2B1 SWAP2 PUSH2 0x142D JUMP JUMPDEST PUSH1 0x20 PUSH1 0x40 MLOAD DUP1 DUP4 SUB DUP2 DUP6 GAS STATICCALL ISZERO DUP1 ISZERO PUSH2 0x2CE JUMPI RETURNDATASIZE PUSH1 0x0 DUP1 RETURNDATACOPY RETURNDATASIZE PUSH1 0x0 REVERT JUMPDEST POP POP POP PUSH1 0x40 MLOAD RETURNDATASIZE PUSH1 0x1F NOT PUSH1 0x1F DUP3 ADD AND DUP3 ADD DUP1 PUSH1 0x40 MSTORE POP DUP2 ADD SWAP1 PUSH2 0x2F1 SWAP2 SWAP1 PUSH2 0x1414 JUMP JUMPDEST SWAP2 POP DUP1 PUSH2 0x2FD DUP2 PUSH2 0x147E JUMP JUMPDEST SWAP2 POP POP PUSH2 0xFE JUMP JUMPDEST POP PUSH1 0x0 ADDRESS PUSH1 0x1 PUSH1 0x1 PUSH1 0xA0 SHL SUB AND PUSH4 0xC5F2892F PUSH1 0x40 MLOAD DUP2 PUSH4 0xFFFFFFFF AND PUSH1 0xE0 SHL DUP2 MSTORE PUSH1 0x4 ADD PUSH1 0x20 PUSH1 0x40 MLOAD DUP1 DUP4 SUB DUP2 DUP7 DUP1 EXTCODESIZE ISZERO DUP1 ISZERO PUSH2 0x341 JUMPI PUSH1 0x0 DUP1 REVERT JUMPDEST POP GAS STATICCALL ISZERO DUP1 ISZERO PUSH2 0x355 JUMPI RETURNDATASIZE PUSH1 0x0 DUP1 RETURNDATACOPY RETURNDATASIZE PUSH1 0x0 REVERT JUMPDEST POP POP POP POP PUSH1 0x40 MLOAD RETURNDATASIZE PUSH1 0x1F NOT PUSH1 0x1F DUP3 ADD AND DUP3 ADD DUP1 PUSH1 0x40 MSTORE POP DUP2 ADD SWAP1 PUSH2 0x379 SWAP2 SWAP1 PUSH2 0x1414 JUMP JUMPDEST SWAP1 POP PUSH1 0x2 DUP3 PUSH1 0x3 SLOAD PUSH1 0x40 MLOAD PUSH1 0x20 ADD PUSH2 0x39B SWAP3 SWAP2 SWAP1 SWAP2 DUP3 MSTORE PUSH1 0x20 DUP3 ADD MSTORE PUSH1 0x40 ADD SWAP1 JUMP JUMPDEST PUSH1 0x40 DUP1 MLOAD PUSH1 0x1F NOT DUP2 DUP5 SUB ADD DUP2 MSTORE SWAP1 DUP3 SWAP1 MSTORE PUSH2 0x3B5 SWAP2 PUSH2 0x142D JUMP JUMPDEST PUSH1 0x20 PUSH1 0x40 MLOAD DUP1 DUP4 SUB DUP2 DUP6 GAS STATICCALL ISZERO DUP1 ISZERO PUSH2 0x3D2 JUMPI RETURNDATASIZE PUSH1 0x0 DUP1 RETURNDATACOPY RETURNDATASIZE PUSH1 0x0 REVERT JUMPDEST POP POP POP PUSH1 0x40 MLOAD RETURNDATASIZE PUSH1 0x1F NOT PUSH1 0x1F DUP3 ADD AND DUP3 ADD DUP1 PUSH1 0x40 MSTORE POP DUP2 ADD SWAP1 PUSH2 0x3F5 SWAP2 SWAP1 PUSH2 0x1414 JUMP JUMPDEST SWAP2 POP PUSH1 0x2 DUP3 PUSH1 0x0 SLOAD PUSH1 0x40 MLOAD PUSH1 0x20 ADD PUSH2 0x417 SWAP3 SWAP2 SWAP1 SWAP2 DUP3 MSTORE PUSH1 0x20 DUP3 ADD MSTORE PUSH1 0x40 ADD SWAP1 JUMP JUMPDEST PUSH1 0x40 DUP1 MLOAD PUSH1 0x1F NOT DUP2 DUP5 SUB ADD DUP2 MSTORE SWAP1 DUP3 SWAP1 MSTORE PUSH2 0x431 SWAP2 PUSH2 0x142D JUMP JUMPDEST PUSH1 0x20 PUSH1 0x40 MLOAD DUP1 DUP4 SUB DUP2 DUP6 GAS STATICCALL ISZERO DUP1 ISZERO PUSH2 0x44E JUMPI RETURNDATASIZE PUSH1 0x0 DUP1 RETURNDATACOPY RETURNDATASIZE PUSH1 0x0 REVERT JUMPDEST POP POP POP PUSH1 0x40 MLOAD RETURNDATASIZE PUSH1 0x1F NOT PUSH1 0x1F DUP3 ADD AND DUP3 ADD DUP1 PUSH1 0x40 MSTORE POP DUP2 ADD SWAP1 PUSH2 0x471 SWAP2 SWAP1 PUSH2 0x1414 JUMP JUMPDEST SWAP2 POP PUSH1 0x2 DUP3 DUP3 PUSH1 0x40 MLOAD PUSH1 0x20 ADD PUSH2 0x491 SWAP3 SWAP2 SWAP1 SWAP2 DUP3 MSTORE PUSH1 0x20 DUP3 ADD MSTORE PUSH1 0x40 ADD SWAP1 JUMP JUMPDEST PUSH1 0x40 DUP1 MLOAD PUSH1 0x1F NOT DUP2 DUP5 SUB ADD DUP2 MSTORE SWAP1 DUP3 SWAP1 MSTORE PUSH2 0x4AB SWAP2 PUSH2 0x142D JUMP JUMPDEST PUSH1 0x20 PUSH1 0x40 MLOAD DUP1 DUP4 SUB DUP2 DUP6 GAS STATICCALL ISZERO DUP1 ISZERO PUSH2 0x4C8 JUMPI RETURNDATASIZE PUSH1 0x0 DUP1 RETURNDATACOPY RETURNDATASIZE PUSH1 0x0 REVERT JUMPDEST POP POP POP PUSH1 0x40 MLOAD RETURNDATASIZE PUSH1 0x1F NOT PUSH1 0x1F DUP3 ADD AND DUP3 ADD DUP1 PUSH1 0x40 MSTORE POP DUP2 ADD SWAP1 PUSH2 0x4EB SWAP2 SWAP1 PUSH2 0x1414 JUMP JUMPDEST PUSH1 0x0 DUP2 DUP2 MSTORE PUSH1 0x2 PUSH1 0x20 MSTORE PUSH1 0x40 DUP1 DUP3 KECCAK256 DUP1 SLOAD PUSH1 0xFF NOT AND PUSH1 0x1 SWAP1 DUP2 OR SWAP1 SWAP2 SSTORE PUSH1 0x3 SLOAD SWAP3 SLOAD SWAP2 MLOAD SWAP4 SWAP6 POP PUSH32 0x70FAF93CA5884FE09C9C92C466B3968FB827E64F078F87C734E05F6A976BFF27 SWAP4 PUSH2 0x543 SWAP4 DUP8 SWAP4 DUP10 SWAP3 DUP9 SWAP1 PUSH2 0x1499 JUMP JUMPDEST PUSH1 0x40 MLOAD DUP1 SWAP2 SUB SWAP1 LOG1 POP SWAP3 SWAP2 POP POP JUMP JUMPDEST PUSH1 0x18 SLOAD PUSH1 0x1 PUSH1 0x1 PUSH1 0xA0 SHL SUB AND CALLER EQ DUP1 ISZERO PUSH2 0x5F6 JUMPI POP PUSH1 0x19 SLOAD PUSH1 0x18 SLOAD PUSH1 0x40 DUP1 MLOAD PUSH4 0x6E296E45 PUSH1 0xE0 SHL DUP2 MSTORE SWAP1 MLOAD PUSH1 0x1 PUSH1 0x1 PUSH1 0xA0 SHL SUB SWAP4 DUP5 AND SWAP4 SWAP1 SWAP3 AND SWAP2 PUSH4 0x6E296E45 SWAP2 PUSH1 0x4 DUP1 DUP3 ADD SWAP3 PUSH1 0x20 SWAP3 SWAP1 SWAP2 SWAP1 DUP3 SWAP1 SUB ADD DUP2 DUP7 DUP1 EXTCODESIZE ISZERO DUP1 ISZERO PUSH2 0x5B3 JUMPI PUSH1 0x0 DUP1 REVERT JUMPDEST POP GAS STATICCALL ISZERO DUP1 ISZERO PUSH2 0x5C7 JUMPI RETURNDATASIZE PUSH1 0x0 DUP1 RETURNDATACOPY RETURNDATASIZE PUSH1 0x0 REVERT JUMPDEST POP POP POP POP PUSH1 0x40 MLOAD RETURNDATASIZE PUSH1 0x1F NOT PUSH1 0x1F DUP3 ADD AND DUP3 ADD DUP1 PUSH1 0x40 MSTORE POP DUP2 ADD SWAP1 PUSH2 0x5EB SWAP2 SWAP1 PUSH2 0x1541 JUMP JUMPDEST PUSH1 0x1 PUSH1 0x1 PUSH1 0xA0 SHL SUB AND EQ JUMPDEST PUSH2 0x5FF JUMPI PUSH1 0x0 DUP1 REVERT JUMPDEST PUSH1 0x0 DUP1 JUMPDEST DUP8 MLOAD DUP2 LT ISZERO PUSH2 0x6E3 JUMPI PUSH1 0x2 DUP3 DUP10 PUSH1 0x0 DUP2 MLOAD DUP2 LT PUSH2 0x622 JUMPI PUSH2 0x622 PUSH2 0x13FE JUMP JUMPDEST PUSH1 0x20 MUL PUSH1 0x20 ADD ADD MLOAD DUP10 PUSH1 0x0 DUP2 MLOAD DUP2 LT PUSH2 0x63D JUMPI PUSH2 0x63D PUSH2 0x13FE JUMP JUMPDEST PUSH1 0x20 MUL PUSH1 0x20 ADD ADD MLOAD PUSH1 0x40 MLOAD PUSH1 0x20 ADD PUSH2 0x675 SWAP4 SWAP3 SWAP2 SWAP1 SWAP3 DUP4 MSTORE PUSH1 0x60 SWAP2 SWAP1 SWAP2 SHL PUSH1 0x1 PUSH1 0x1 PUSH1 0x60 SHL SUB NOT AND PUSH1 0x20 DUP4 ADD MSTORE PUSH1 0x34 DUP3 ADD MSTORE PUSH1 0x54 ADD SWAP1 JUMP JUMPDEST PUSH1 0x40 DUP1 MLOAD PUSH1 0x1F NOT DUP2 DUP5 SUB ADD DUP2 MSTORE SWAP1 DUP3 SWAP1 MSTORE PUSH2 0x68F SWAP2 PUSH2 0x142D JUMP JUMPDEST PUSH1 0x20 PUSH1 0x40 MLOAD DUP1 DUP4 SUB DUP2 DUP6 GAS STATICCALL ISZERO DUP1 ISZERO PUSH2 0x6AC JUMPI RETURNDATASIZE PUSH1 0x0 DUP1 RETURNDATACOPY RETURNDATASIZE PUSH1 0x0 REVERT JUMPDEST POP POP POP PUSH1 0x40 MLOAD RETURNDATASIZE PUSH1 0x1F NOT PUSH1 0x1F DUP3 ADD AND DUP3 ADD DUP1 PUSH1 0x40 MSTORE POP DUP2 ADD SWAP1 PUSH2 0x6CF SWAP2 SWAP1 PUSH2 0x1414 JUMP JUMPDEST SWAP2 POP DUP1 PUSH2 0x6DB DUP2 PUSH2 0x147E JUMP JUMPDEST SWAP2 POP POP PUSH2 0x603 JUMP JUMPDEST POP PUSH1 0x2 DUP2 PUSH1 0x3 SLOAD PUSH1 0x40 MLOAD PUSH1 0x20 ADD PUSH2 0x704 SWAP3 SWAP2 SWAP1 SWAP2 DUP3 MSTORE PUSH1 0x20 DUP3 ADD MSTORE PUSH1 0x40 ADD SWAP1 JUMP JUMPDEST PUSH1 0x40 DUP1 MLOAD PUSH1 0x1F NOT DUP2 DUP5 SUB ADD DUP2 MSTORE SWAP1 DUP3 SWAP1 MSTORE PUSH2 0x71E SWAP2 PUSH2 0x142D JUMP JUMPDEST PUSH1 0x20 PUSH1 0x40 MLOAD DUP1 DUP4 SUB DUP2 DUP6 GAS STATICCALL ISZERO DUP1 ISZERO PUSH2 0x73B JUMPI RETURNDATASIZE PUSH1 0x0 DUP1 RETURNDATACOPY RETURNDATASIZE PUSH1 0x0 REVERT JUMPDEST POP POP POP PUSH1 0x40 MLOAD RETURNDATASIZE PUSH1 0x1F NOT PUSH1 0x1F DUP3 ADD AND DUP3 ADD DUP1 PUSH1 0x40 MSTORE POP DUP2 ADD SWAP1 PUSH2 0x75E SWAP2 SWAP1 PUSH2 0x1414 JUMP JUMPDEST SWAP1 POP PUSH1 0x2 DUP2 PUSH1 0x0 SLOAD PUSH1 0x40 MLOAD PUSH1 0x20 ADD PUSH2 0x780 SWAP3 SWAP2 SWAP1 SWAP2 DUP3 MSTORE PUSH1 0x20 DUP3 ADD MSTORE PUSH1 0x40 ADD SWAP1 JUMP JUMPDEST PUSH1 0x40 DUP1 MLOAD PUSH1 0x1F NOT DUP2 DUP5 SUB ADD DUP2 MSTORE SWAP1 DUP3 SWAP1 MSTORE PUSH2 0x79A SWAP2 PUSH2 0x142D JUMP JUMPDEST PUSH1 0x20 PUSH1 0x40 MLOAD DUP1 DUP4 SUB DUP2 DUP6 GAS STATICCALL ISZERO DUP1 ISZERO PUSH2 0x7B7 JUMPI RETURNDATASIZE PUSH1 0x0 DUP1 RETURNDATACOPY RETURNDATASIZE PUSH1 0x0 REVERT JUMPDEST POP POP POP PUSH1 0x40 MLOAD RETURNDATASIZE PUSH1 0x1F NOT PUSH1 0x1F DUP3 ADD AND DUP3 ADD DUP1 PUSH1 0x40 MSTORE POP DUP2 ADD SWAP1 PUSH2 0x7DA SWAP2 SWAP1 PUSH2 0x1414 JUMP JUMPDEST SWAP1 POP PUSH1 0x2 DUP2 DUP5 PUSH1 0x40 MLOAD PUSH1 0x20 ADD PUSH2 0x7FA SWAP3 SWAP2 SWAP1 SWAP2 DUP3 MSTORE PUSH1 0x20 DUP3 ADD MSTORE PUSH1 0x40 ADD SWAP1 JUMP JUMPDEST PUSH1 0x40 DUP1 MLOAD PUSH1 0x1F NOT DUP2 DUP5 SUB ADD DUP2 MSTORE SWAP1 DUP3 SWAP1 MSTORE PUSH2 0x814 SWAP2 PUSH2 0x142D JUMP JUMPDEST PUSH1 0x20 PUSH1 0x40 MLOAD DUP1 DUP4 SUB DUP2 DUP6 GAS STATICCALL ISZERO DUP1 ISZERO PUSH2 0x831 JUMPI RETURNDATASIZE PUSH1 0x0 DUP1 RETURNDATACOPY RETURNDATASIZE PUSH1 0x0 REVERT JUMPDEST POP POP POP PUSH1 0x40 MLOAD RETURNDATASIZE PUSH1 0x1F NOT PUSH1 0x1F DUP3 ADD AND DUP3 ADD DUP1 PUSH1 0x40 MSTORE POP DUP2 ADD SWAP1 PUSH2 0x854 SWAP2 SWAP1 PUSH2 0x1414 JUMP JUMPDEST SWAP1 POP PUSH1 0x3 SLOAD DUP6 EQ PUSH2 0x8A0 JUMPI PUSH1 0x40 MLOAD PUSH3 0x461BCD PUSH1 0xE5 SHL DUP2 MSTORE PUSH1 0x20 PUSH1 0x4 DUP3 ADD MSTORE PUSH1 0x11 PUSH1 0x24 DUP3 ADD MSTORE PUSH17 0x496E76616C6964207469636B6574202121 PUSH1 0x78 SHL PUSH1 0x44 DUP3 ADD MSTORE PUSH1 0x64 ADD JUMPDEST PUSH1 0x40 MLOAD DUP1 SWAP2 SUB SWAP1 REVERT JUMPDEST DUP8 DUP2 EQ PUSH2 0x8E1 JUMPI PUSH1 0x40 MLOAD PUSH3 0x461BCD PUSH1 0xE5 SHL DUP2 MSTORE PUSH1 0x20 PUSH1 0x4 DUP3 ADD MSTORE PUSH1 0xF PUSH1 0x24 DUP3 ADD MSTORE PUSH15 0x57726F6E67207469636B6574202121 PUSH1 0x88 SHL PUSH1 0x44 DUP3 ADD MSTORE PUSH1 0x64 ADD PUSH2 0x897 JUMP JUMPDEST PUSH1 0x0 DUP9 DUP2 MSTORE PUSH1 0x2 PUSH1 0x20 MSTORE PUSH1 0x40 SWAP1 KECCAK256 SLOAD PUSH1 0xFF AND ISZERO ISZERO PUSH1 0x1 EQ PUSH2 0x938 JUMPI PUSH1 0x40 MLOAD PUSH3 0x461BCD PUSH1 0xE5 SHL DUP2 MSTORE PUSH1 0x20 PUSH1 0x4 DUP3 ADD MSTORE PUSH1 0x11 PUSH1 0x24 DUP3 ADD MSTORE PUSH17 0x496E76616C6964207469636B6574202121 PUSH1 0x78 SHL PUSH1 0x44 DUP3 ADD MSTORE PUSH1 0x64 ADD PUSH2 0x897 JUMP JUMPDEST PUSH1 0x3 DUP5 SWAP1 SSTORE PUSH1 0x0 DUP9 DUP2 MSTORE PUSH1 0x2 PUSH1 0x20 MSTORE PUSH1 0x40 DUP2 KECCAK256 DUP1 SLOAD PUSH1 0xFF NOT AND SWAP1 SSTORE JUMPDEST DUP8 MLOAD DUP2 LT ISZERO PUSH2 0xACE JUMPI PUSH1 0x0 PUSH1 0x1 PUSH1 0x1 PUSH1 0xA0 SHL SUB AND PUSH1 0x1 DUP3 DUP2 SLOAD DUP2 LT PUSH2 0x97B JUMPI PUSH2 0x97B PUSH2 0x13FE JUMP JUMPDEST PUSH1 0x0 SWAP2 DUP3 MSTORE PUSH1 0x20 SWAP1 SWAP2 KECCAK256 ADD SLOAD PUSH1 0x1 PUSH1 0x1 PUSH1 0xA0 SHL SUB AND EQ ISZERO PUSH2 0x9EE JUMPI DUP3 PUSH1 0x1 PUSH1 0x1 PUSH1 0xA0 SHL SUB AND PUSH2 0x8FC DUP9 DUP4 DUP2 MLOAD DUP2 LT PUSH2 0x9B5 JUMPI PUSH2 0x9B5 PUSH2 0x13FE JUMP JUMPDEST PUSH1 0x20 MUL PUSH1 0x20 ADD ADD MLOAD SWAP1 DUP2 ISZERO MUL SWAP1 PUSH1 0x40 MLOAD PUSH1 0x0 PUSH1 0x40 MLOAD DUP1 DUP4 SUB DUP2 DUP6 DUP9 DUP9 CALL SWAP4 POP POP POP POP ISZERO DUP1 ISZERO PUSH2 0x9E8 JUMPI RETURNDATASIZE PUSH1 0x0 DUP1 RETURNDATACOPY RETURNDATASIZE PUSH1 0x0 REVERT JUMPDEST POP PUSH2 0xABC JUMP JUMPDEST PUSH1 0x0 DUP9 DUP3 DUP2 MLOAD DUP2 LT PUSH2 0xA02 JUMPI PUSH2 0xA02 PUSH2 0x13FE JUMP JUMPDEST PUSH1 0x20 MUL PUSH1 0x20 ADD ADD MLOAD SWAP1 POP DUP1 PUSH1 0x1 PUSH1 0x1 PUSH1 0xA0 SHL SUB AND PUSH4 0xA9059CBB DUP6 DUP11 DUP6 DUP2 MLOAD DUP2 LT PUSH2 0xA2E JUMPI PUSH2 0xA2E PUSH2 0x13FE JUMP JUMPDEST PUSH1 0x20 MUL PUSH1 0x20 ADD ADD MLOAD PUSH1 0x40 MLOAD DUP4 PUSH4 0xFFFFFFFF AND PUSH1 0xE0 SHL DUP2 MSTORE PUSH1 0x4 ADD PUSH2 0xA67 SWAP3 SWAP2 SWAP1 PUSH1 0x1 PUSH1 0x1 PUSH1 0xA0 SHL SUB SWAP3 SWAP1 SWAP3 AND DUP3 MSTORE PUSH1 0x20 DUP3 ADD MSTORE PUSH1 0x40 ADD SWAP1 JUMP JUMPDEST PUSH1 0x20 PUSH1 0x40 MLOAD DUP1 DUP4 SUB DUP2 PUSH1 0x0 DUP8 DUP1 EXTCODESIZE ISZERO DUP1 ISZERO PUSH2 0xA81 JUMPI PUSH1 0x0 DUP1 REVERT JUMPDEST POP GAS CALL ISZERO DUP1 ISZERO PUSH2 0xA95 JUMPI RETURNDATASIZE PUSH1 0x0 DUP1 RETURNDATACOPY RETURNDATASIZE PUSH1 0x0 REVERT JUMPDEST POP POP POP POP PUSH1 0x40 MLOAD RETURNDATASIZE PUSH1 0x1F NOT PUSH1 0x1F DUP3 ADD AND DUP3 ADD DUP1 PUSH1 0x40 MSTORE POP DUP2 ADD SWAP1 PUSH2 0xAB9 SWAP2 SWAP1 PUSH2 0x1565 JUMP JUMPDEST POP POP JUMPDEST DUP1 PUSH2 0xAC6 DUP2 PUSH2 0x147E JUMP JUMPDEST SWAP2 POP POP PUSH2 0x954 JUMP JUMPDEST POP POP POP POP POP POP POP POP POP JUMP JUMPDEST PUSH1 0x40 DUP1 MLOAD PUSH1 0xC0 DUP2 ADD DUP3 MSTORE PUSH1 0x1 PUSH1 0x1 PUSH1 0xA0 SHL SUB DUP9 DUP2 AND DUP3 MSTORE DUP8 AND PUSH1 0x20 DUP3 ADD MSTORE SWAP1 DUP2 ADD DUP6 SWAP1 MSTORE PUSH1 0x60 DUP2 ADD DUP5 SWAP1 MSTORE PUSH1 0x80 DUP2 ADD DUP4 SWAP1 MSTORE PUSH1 0xA0 DUP2 ADD DUP3 SWAP1 MSTORE PUSH1 0x0 SWAP1 DUP2 PUSH2 0xB23 PUSH1 0x5 PUSH2 0x3E8 PUSH2 0x1587 JUMP JUMPDEST DUP3 PUSH1 0x40 ADD MLOAD PUSH2 0xB32 SWAP2 SWAP1 PUSH2 0x159F JUMP JUMPDEST DUP3 MLOAD SWAP1 SWAP2 POP PUSH1 0x1 PUSH1 0x1 PUSH1 0xA0 SHL SUB AND PUSH2 0xBA5 JUMPI DUP1 CALLVALUE LT ISZERO PUSH2 0xBA0 JUMPI PUSH1 0x40 MLOAD PUSH3 0x461BCD PUSH1 0xE5 SHL DUP2 MSTORE PUSH1 0x20 PUSH1 0x4 DUP3 ADD MSTORE PUSH1 0x24 DUP1 DUP3 ADD MSTORE PUSH32 0x4572726F72203A204E6F6E2053756666656369656E742066756E647321212121 PUSH1 0x44 DUP3 ADD MSTORE PUSH4 0x21212121 PUSH1 0xE0 SHL PUSH1 0x64 DUP3 ADD MSTORE PUSH1 0x84 ADD PUSH2 0x897 JUMP JUMPDEST PUSH2 0xC30 JUMP JUMPDEST DUP2 MLOAD PUSH1 0x40 MLOAD PUSH4 0x23B872DD PUSH1 0xE0 SHL DUP2 MSTORE CALLER PUSH1 0x4 DUP3 ADD MSTORE ADDRESS PUSH1 0x24 DUP3 ADD MSTORE PUSH1 0x44 DUP2 ADD DUP4 SWAP1 MSTORE PUSH1 0x1 PUSH1 0x1 PUSH1 0xA0 SHL SUB DUP3 AND SWAP1 PUSH4 0x23B872DD SWAP1 PUSH1 0x64 ADD PUSH1 0x20 PUSH1 0x40 MLOAD DUP1 DUP4 SUB DUP2 PUSH1 0x0 DUP8 DUP1 EXTCODESIZE ISZERO DUP1 ISZERO PUSH2 0xBF5 JUMPI PUSH1 0x0 DUP1 REVERT JUMPDEST POP GAS CALL ISZERO DUP1 ISZERO PUSH2 0xC09 JUMPI RETURNDATASIZE PUSH1 0x0 DUP1 RETURNDATACOPY RETURNDATASIZE PUSH1 0x0 REVERT JUMPDEST POP POP POP POP PUSH1 0x40 MLOAD RETURNDATASIZE PUSH1 0x1F NOT PUSH1 0x1F DUP3 ADD AND DUP3 ADD DUP1 PUSH1 0x40 MSTORE POP DUP2 ADD SWAP1 PUSH2 0xC2D SWAP2 SWAP1 PUSH2 0x1565 JUMP JUMPDEST POP POP JUMPDEST DUP2 MLOAD PUSH1 0x20 DUP1 DUP5 ADD MLOAD PUSH1 0x40 DUP1 DUP7 ADD MLOAD PUSH1 0x60 DUP1 DUP9 ADD MLOAD PUSH1 0x80 DUP10 ADD MLOAD PUSH1 0xA0 DUP11 ADD MLOAD SWAP5 MLOAD SWAP8 DUP4 SHL PUSH1 0x1 PUSH1 0x1 PUSH1 0x60 SHL SUB NOT SWAP1 DUP2 AND SWAP8 DUP10 ADD SWAP8 SWAP1 SWAP8 MSTORE SWAP5 SWAP1 SWAP2 SHL SWAP1 SWAP5 AND PUSH1 0x34 DUP7 ADD MSTORE PUSH1 0x48 DUP6 ADD MSTORE PUSH1 0x68 DUP5 ADD SWAP3 SWAP1 SWAP3 MSTORE PUSH1 0x88 DUP4 ADD MSTORE PUSH1 0xA8 DUP3 ADD MSTORE PUSH1 0x0 SWAP1 PUSH1 0x2 SWAP1 PUSH1 0xC8 ADD PUSH1 0x40 DUP1 MLOAD PUSH1 0x1F NOT DUP2 DUP5 SUB ADD DUP2 MSTORE SWAP1 DUP3 SWAP1 MSTORE PUSH2 0xCAC SWAP2 PUSH2 0x142D JUMP JUMPDEST PUSH1 0x20 PUSH1 0x40 MLOAD DUP1 DUP4 SUB DUP2 DUP6 GAS STATICCALL ISZERO DUP1 ISZERO PUSH2 0xCC9 JUMPI RETURNDATASIZE PUSH1 0x0 DUP1 RETURNDATACOPY RETURNDATASIZE PUSH1 0x0 REVERT JUMPDEST POP POP POP PUSH1 0x40 MLOAD RETURNDATASIZE PUSH1 0x1F NOT PUSH1 0x1F DUP3 ADD AND DUP3 ADD DUP1 PUSH1 0x40 MSTORE POP DUP2 ADD SWAP1 PUSH2 0xCEC SWAP2 SWAP1 PUSH2 0x1414 JUMP JUMPDEST PUSH1 0x40 MLOAD PUSH1 0x1 PUSH1 0x1 PUSH1 0x60 SHL SUB NOT ADDRESS PUSH1 0x60 SHL AND PUSH1 0x20 DUP3 ADD MSTORE SWAP1 SWAP2 POP PUSH1 0x0 SWAP1 PUSH1 0x2 SWAP1 PUSH1 0x34 ADD PUSH1 0x40 DUP1 MLOAD PUSH1 0x1F NOT DUP2 DUP5 SUB ADD DUP2 MSTORE SWAP1 DUP3 SWAP1 MSTORE PUSH2 0xD28 SWAP2 PUSH2 0x142D JUMP JUMPDEST PUSH1 0x20 PUSH1 0x40 MLOAD DUP1 DUP4 SUB DUP2 DUP6 GAS STATICCALL ISZERO DUP1 ISZERO PUSH2 0xD45 JUMPI RETURNDATASIZE PUSH1 0x0 DUP1 RETURNDATACOPY RETURNDATASIZE PUSH1 0x0 REVERT JUMPDEST POP POP POP PUSH1 0x40 MLOAD RETURNDATASIZE PUSH1 0x1F NOT PUSH1 0x1F DUP3 ADD AND DUP3 ADD DUP1 PUSH1 0x40 MSTORE POP DUP2 ADD SWAP1 PUSH2 0xD68 SWAP2 SWAP1 PUSH2 0x1414 JUMP JUMPDEST SWAP1 POP PUSH1 0x0 PUSH1 0x2 PUSH1 0x0 SLOAD PUSH1 0x40 MLOAD PUSH1 0x20 ADD PUSH2 0xD83 SWAP2 DUP2 MSTORE PUSH1 0x20 ADD SWAP1 JUMP JUMPDEST PUSH1 0x40 DUP1 MLOAD PUSH1 0x1F NOT DUP2 DUP5 SUB ADD DUP2 MSTORE SWAP1 DUP3 SWAP1 MSTORE PUSH2 0xD9D SWAP2 PUSH2 0x142D JUMP JUMPDEST PUSH1 0x20 PUSH1 0x40 MLOAD DUP1 DUP4 SUB DUP2 DUP6 GAS STATICCALL ISZERO DUP1 ISZERO PUSH2 0xDBA JUMPI RETURNDATASIZE PUSH1 0x0 DUP1 RETURNDATACOPY RETURNDATASIZE PUSH1 0x0 REVERT JUMPDEST POP POP POP PUSH1 0x40 MLOAD RETURNDATASIZE PUSH1 0x1F NOT PUSH1 0x1F DUP3 ADD AND DUP3 ADD DUP1 PUSH1 0x40 MSTORE POP DUP2 ADD SWAP1 PUSH2 0xDDD SWAP2 SWAP1 PUSH2 0x1414 JUMP JUMPDEST PUSH1 0x40 DUP1 MLOAD PUSH1 0x20 DUP2 ADD DUP7 SWAP1 MSTORE SWAP1 DUP2 ADD DUP5 SWAP1 MSTORE PUSH1 0x60 DUP2 ADD DUP3 SWAP1 MSTORE SWAP1 SWAP2 POP PUSH1 0x0 SWAP1 PUSH1 0x2 SWAP1 PUSH1 0x80 ADD PUSH1 0x40 DUP1 MLOAD PUSH1 0x1F NOT DUP2 DUP5 SUB ADD DUP2 MSTORE SWAP1 DUP3 SWAP1 MSTORE PUSH2 0xE1B SWAP2 PUSH2 0x142D JUMP JUMPDEST PUSH1 0x20 PUSH1 0x40 MLOAD DUP1 DUP4 SUB DUP2 DUP6 GAS STATICCALL ISZERO DUP1 ISZERO PUSH2 0xE38 JUMPI RETURNDATASIZE PUSH1 0x0 DUP1 RETURNDATACOPY RETURNDATASIZE PUSH1 0x0 REVERT JUMPDEST POP POP POP PUSH1 0x40 MLOAD RETURNDATASIZE PUSH1 0x1F NOT PUSH1 0x1F DUP3 ADD AND DUP3 ADD DUP1 PUSH1 0x40 MSTORE POP DUP2 ADD SWAP1 PUSH2 0xE5B SWAP2 SWAP1 PUSH2 0x1414 JUMP JUMPDEST SWAP1 POP PUSH2 0xE66 DUP2 PUSH2 0x1085 JUMP JUMPDEST PUSH1 0x0 SLOAD PUSH1 0x40 DUP1 MLOAD DUP9 MLOAD PUSH1 0x1 PUSH1 0x1 PUSH1 0xA0 SHL SUB SWAP1 DUP2 AND DUP3 MSTORE PUSH1 0x20 DUP1 DUP12 ADD MLOAD SWAP1 SWAP2 AND SWAP1 DUP3 ADD MSTORE DUP9 DUP3 ADD MLOAD DUP2 DUP4 ADD MSTORE PUSH1 0x60 DUP1 DUP11 ADD MLOAD SWAP1 DUP3 ADD MSTORE PUSH1 0x80 DUP1 DUP11 ADD MLOAD SWAP1 DUP3 ADD MSTORE PUSH1 0xA0 DUP1 DUP11 ADD MLOAD SWAP1 DUP3 ADD MSTORE ADDRESS PUSH1 0xC0 DUP3 ADD MSTORE PUSH1 0xE0 DUP2 ADD SWAP3 SWAP1 SWAP3 MSTORE MLOAD PUSH32 0x1BCB1C888E30C1D45267036506B6C8AECDDF04245B7A3235B6C206E007ED1F2D SWAP2 DUP2 SWAP1 SUB PUSH2 0x100 ADD SWAP1 LOG1 SWAP13 SWAP12 POP POP POP POP POP POP POP POP POP POP POP POP JUMP JUMPDEST PUSH1 0x0 DUP1 DUP1 PUSH1 0x1 PUSH2 0xF0B PUSH1 0xA PUSH1 0x2 PUSH2 0x16A4 JUMP JUMPDEST PUSH2 0xF15 SWAP2 SWAP1 PUSH2 0x16B0 JUMP JUMPDEST PUSH1 0x0 SLOAD PUSH2 0xF22 SWAP2 SWAP1 PUSH2 0x16DD JUMP JUMPDEST SWAP1 POP PUSH1 0x0 DUP1 JUMPDEST PUSH1 0xA DUP2 LT ISZERO PUSH2 0x107C JUMPI DUP3 PUSH1 0x1 AND PUSH1 0x1 EQ ISZERO PUSH2 0xFC9 JUMPI PUSH1 0x2 PUSH1 0x4 DUP3 PUSH1 0xA DUP2 LT PUSH2 0xF52 JUMPI PUSH2 0xF52 PUSH2 0x13FE JUMP JUMPDEST ADD SLOAD PUSH1 0x40 DUP1 MLOAD PUSH1 0x20 DUP2 ADD SWAP3 SWAP1 SWAP3 MSTORE DUP2 ADD DUP7 SWAP1 MSTORE PUSH1 0x60 ADD PUSH1 0x40 DUP1 MLOAD PUSH1 0x1F NOT DUP2 DUP5 SUB ADD DUP2 MSTORE SWAP1 DUP3 SWAP1 MSTORE PUSH2 0xF82 SWAP2 PUSH2 0x142D JUMP JUMPDEST PUSH1 0x20 PUSH1 0x40 MLOAD DUP1 DUP4 SUB DUP2 DUP6 GAS STATICCALL ISZERO DUP1 ISZERO PUSH2 0xF9F JUMPI RETURNDATASIZE PUSH1 0x0 DUP1 RETURNDATACOPY RETURNDATASIZE PUSH1 0x0 REVERT JUMPDEST POP POP POP PUSH1 0x40 MLOAD RETURNDATASIZE PUSH1 0x1F NOT PUSH1 0x1F DUP3 ADD AND DUP3 ADD DUP1 PUSH1 0x40 MSTORE POP DUP2 ADD SWAP1 PUSH2 0xFC2 SWAP2 SWAP1 PUSH2 0x1414 JUMP JUMPDEST SWAP4 POP PUSH2 0x1050 JUMP JUMPDEST PUSH1 0x2 DUP5 PUSH1 0xE DUP4 PUSH1 0xA DUP2 LT PUSH2 0xFDF JUMPI PUSH2 0xFDF PUSH2 0x13FE JUMP JUMPDEST ADD SLOAD PUSH1 0x40 DUP1 MLOAD PUSH1 0x20 DUP2 ADD SWAP4 SWAP1 SWAP4 MSTORE DUP3 ADD MSTORE PUSH1 0x60 ADD PUSH1 0x40 DUP1 MLOAD PUSH1 0x1F NOT DUP2 DUP5 SUB ADD DUP2 MSTORE SWAP1 DUP3 SWAP1 MSTORE PUSH2 0x100D SWAP2 PUSH2 0x142D JUMP JUMPDEST PUSH1 0x20 PUSH1 0x40 MLOAD DUP1 DUP4 SUB DUP2 DUP6 GAS STATICCALL ISZERO DUP1 ISZERO PUSH2 0x102A JUMPI RETURNDATASIZE PUSH1 0x0 DUP1 RETURNDATACOPY RETURNDATASIZE PUSH1 0x0 REVERT JUMPDEST POP POP POP PUSH1 0x40 MLOAD RETURNDATASIZE PUSH1 0x1F NOT PUSH1 0x1F DUP3 ADD AND DUP3 ADD DUP1 PUSH1 0x40 MSTORE POP DUP2 ADD SWAP1 PUSH2 0x104D SWAP2 SWAP1 PUSH2 0x1414 JUMP JUMPDEST SWAP4 POP JUMPDEST PUSH2 0x105B PUSH1 0x2 DUP5 PUSH2 0x16F1 JUMP JUMPDEST SWAP3 POP PUSH2 0x1068 PUSH1 0x1 DUP4 PUSH2 0x1587 JUMP JUMPDEST SWAP2 POP DUP1 PUSH2 0x1074 DUP2 PUSH2 0x147E JUMP JUMPDEST SWAP2 POP POP PUSH2 0xF28 JUMP JUMPDEST POP SWAP2 SWAP4 SWAP3 POP POP POP JUMP JUMPDEST PUSH1 0x1 PUSH1 0x0 DUP1 DUP3 DUP3 SLOAD PUSH2 0x1097 SWAP2 SWAP1 PUSH2 0x1587 JUMP JUMPDEST SWAP1 SWAP2 SSTORE POP PUSH1 0x0 SWAP1 POP PUSH1 0x1 PUSH2 0x10AD PUSH1 0xA PUSH1 0x2 PUSH2 0x16A4 JUMP JUMPDEST PUSH2 0x10B7 SWAP2 SWAP1 PUSH2 0x16B0 JUMP JUMPDEST PUSH1 0x0 SLOAD PUSH2 0x10C4 SWAP2 SWAP1 PUSH2 0x16DD JUMP JUMPDEST SWAP1 POP PUSH1 0x0 JUMPDEST PUSH1 0xA DUP2 LT ISZERO PUSH2 0x119F JUMPI DUP2 PUSH1 0x1 AND PUSH1 0x1 EQ ISZERO PUSH2 0x10F9 JUMPI DUP3 PUSH1 0x4 DUP3 PUSH1 0xA DUP2 LT PUSH2 0x10F2 JUMPI PUSH2 0x10F2 PUSH2 0x13FE JUMP JUMPDEST ADD SSTORE POP POP POP JUMP JUMPDEST PUSH1 0x2 PUSH1 0x4 DUP3 PUSH1 0xA DUP2 LT PUSH2 0x110E JUMPI PUSH2 0x110E PUSH2 0x13FE JUMP JUMPDEST ADD SLOAD PUSH1 0x40 DUP1 MLOAD PUSH1 0x20 DUP2 ADD SWAP3 SWAP1 SWAP3 MSTORE DUP2 ADD DUP6 SWAP1 MSTORE PUSH1 0x60 ADD PUSH1 0x40 DUP1 MLOAD PUSH1 0x1F NOT DUP2 DUP5 SUB ADD DUP2 MSTORE SWAP1 DUP3 SWAP1 MSTORE PUSH2 0x113E SWAP2 PUSH2 0x142D JUMP JUMPDEST PUSH1 0x20 PUSH1 0x40 MLOAD DUP1 DUP4 SUB DUP2 DUP6 GAS STATICCALL ISZERO DUP1 ISZERO PUSH2 0x115B JUMPI RETURNDATASIZE PUSH1 0x0 DUP1 RETURNDATACOPY RETURNDATASIZE PUSH1 0x0 REVERT JUMPDEST POP POP POP PUSH1 0x40 MLOAD RETURNDATASIZE PUSH1 0x1F NOT PUSH1 0x1F DUP3 ADD AND DUP3 ADD DUP1 PUSH1 0x40 MSTORE POP DUP2 ADD SWAP1 PUSH2 0x117E SWAP2 SWAP1 PUSH2 0x1414 JUMP JUMPDEST SWAP3 POP PUSH2 0x118B PUSH1 0x2 DUP4 PUSH2 0x16F1 JUMP JUMPDEST SWAP2 POP DUP1 PUSH2 0x1197 DUP2 PUSH2 0x147E JUMP JUMPDEST SWAP2 POP POP PUSH2 0x10C9 JUMP JUMPDEST POP PUSH2 0x11A8 PUSH2 0x1705 JUMP JUMPDEST POP POP JUMP JUMPDEST PUSH4 0x4E487B71 PUSH1 0xE0 SHL PUSH1 0x0 MSTORE PUSH1 0x41 PUSH1 0x4 MSTORE PUSH1 0x24 PUSH1 0x0 REVERT JUMPDEST PUSH1 0x40 MLOAD PUSH1 0x1F DUP3 ADD PUSH1 0x1F NOT AND DUP2 ADD PUSH8 0xFFFFFFFFFFFFFFFF DUP2 GT DUP3 DUP3 LT OR ISZERO PUSH2 0x11EB JUMPI PUSH2 0x11EB PUSH2 0x11AC JUMP JUMPDEST PUSH1 0x40 MSTORE SWAP2 SWAP1 POP JUMP JUMPDEST PUSH1 0x0 PUSH8 0xFFFFFFFFFFFFFFFF DUP3 GT ISZERO PUSH2 0x120D JUMPI PUSH2 0x120D PUSH2 0x11AC JUMP JUMPDEST POP PUSH1 0x5 SHL PUSH1 0x20 ADD SWAP1 JUMP JUMPDEST PUSH1 0x1 PUSH1 0x1 PUSH1 0xA0 SHL SUB DUP2 AND DUP2 EQ PUSH2 0x122C JUMPI PUSH1 0x0 DUP1 REVERT JUMPDEST POP JUMP JUMPDEST PUSH1 0x0 DUP3 PUSH1 0x1F DUP4 ADD SLT PUSH2 0x1240 JUMPI PUSH1 0x0 DUP1 REVERT JUMPDEST DUP2 CALLDATALOAD PUSH1 0x20 PUSH2 0x1255 PUSH2 0x1250 DUP4 PUSH2 0x11F3 JUMP JUMPDEST PUSH2 0x11C2 JUMP JUMPDEST DUP3 DUP2 MSTORE PUSH1 0x5 SWAP3 SWAP1 SWAP3 SHL DUP5 ADD DUP2 ADD SWAP2 DUP2 DUP2 ADD SWAP1 DUP7 DUP5 GT ISZERO PUSH2 0x1274 JUMPI PUSH1 0x0 DUP1 REVERT JUMPDEST DUP3 DUP7 ADD JUMPDEST DUP5 DUP2 LT ISZERO PUSH2 0x128F JUMPI DUP1 CALLDATALOAD DUP4 MSTORE SWAP2 DUP4 ADD SWAP2 DUP4 ADD PUSH2 0x1278 JUMP JUMPDEST POP SWAP7 SWAP6 POP POP POP POP POP POP JUMP JUMPDEST DUP1 CALLDATALOAD PUSH2 0x12A5 DUP2 PUSH2 0x1217 JUMP JUMPDEST SWAP2 SWAP1 POP JUMP JUMPDEST PUSH1 0x0 DUP1 PUSH1 0x0 DUP1 PUSH1 0x0 DUP1 PUSH1 0x0 PUSH1 0xE0 DUP9 DUP11 SUB SLT ISZERO PUSH2 0x12C5 JUMPI PUSH1 0x0 DUP1 REVERT JUMPDEST DUP8 CALLDATALOAD SWAP7 POP PUSH1 0x20 DUP1 DUP10 ADD CALLDATALOAD PUSH8 0xFFFFFFFFFFFFFFFF DUP1 DUP3 GT ISZERO PUSH2 0x12E5 JUMPI PUSH1 0x0 DUP1 REVERT JUMPDEST DUP2 DUP12 ADD SWAP2 POP DUP12 PUSH1 0x1F DUP4 ADD SLT PUSH2 0x12F9 JUMPI PUSH1 0x0 DUP1 REVERT JUMPDEST DUP2 CALLDATALOAD PUSH2 0x1307 PUSH2 0x1250 DUP3 PUSH2 0x11F3 JUMP JUMPDEST DUP2 DUP2 MSTORE PUSH1 0x5 SWAP2 SWAP1 SWAP2 SHL DUP4 ADD DUP5 ADD SWAP1 DUP5 DUP2 ADD SWAP1 DUP15 DUP4 GT ISZERO PUSH2 0x1326 JUMPI PUSH1 0x0 DUP1 REVERT JUMPDEST SWAP4 DUP6 ADD SWAP4 JUMPDEST DUP3 DUP6 LT ISZERO PUSH2 0x134D JUMPI DUP5 CALLDATALOAD PUSH2 0x133E DUP2 PUSH2 0x1217 JUMP JUMPDEST DUP3 MSTORE SWAP4 DUP6 ADD SWAP4 SWAP1 DUP6 ADD SWAP1 PUSH2 0x132B JUMP JUMPDEST SWAP11 POP POP POP PUSH1 0x40 DUP12 ADD CALLDATALOAD SWAP3 POP DUP1 DUP4 GT ISZERO PUSH2 0x1365 JUMPI PUSH1 0x0 DUP1 REVERT JUMPDEST POP POP PUSH2 0x1373 DUP11 DUP3 DUP12 ADD PUSH2 0x122F JUMP JUMPDEST SWAP6 POP POP PUSH1 0x60 DUP9 ADD CALLDATALOAD SWAP4 POP PUSH1 0x80 DUP9 ADD CALLDATALOAD SWAP3 POP PUSH1 0xA0 DUP9 ADD CALLDATALOAD SWAP2 POP PUSH2 0x1397 PUSH1 0xC0 DUP10 ADD PUSH2 0x129A JUMP JUMPDEST SWAP1 POP SWAP3 SWAP6 SWAP9 SWAP2 SWAP5 SWAP8 POP SWAP3 SWAP6 POP JUMP JUMPDEST PUSH1 0x0 DUP1 PUSH1 0x0 DUP1 PUSH1 0x0 DUP1 PUSH1 0xC0 DUP8 DUP10 SUB SLT ISZERO PUSH2 0x13BE JUMPI PUSH1 0x0 DUP1 REVERT JUMPDEST DUP7 CALLDATALOAD PUSH2 0x13C9 DUP2 PUSH2 0x1217 JUMP JUMPDEST SWAP6 POP PUSH1 0x20 DUP8 ADD CALLDATALOAD PUSH2 0x13D9 DUP2 PUSH2 0x1217 JUMP JUMPDEST SWAP6 SWAP9 SWAP6 SWAP8 POP POP POP POP PUSH1 0x40 DUP5 ADD CALLDATALOAD SWAP4 PUSH1 0x60 DUP2 ADD CALLDATALOAD SWAP4 PUSH1 0x80 DUP3 ADD CALLDATALOAD SWAP4 POP PUSH1 0xA0 SWAP1 SWAP2 ADD CALLDATALOAD SWAP2 POP JUMP JUMPDEST PUSH4 0x4E487B71 PUSH1 0xE0 SHL PUSH1 0x0 MSTORE PUSH1 0x32 PUSH1 0x4 MSTORE PUSH1 0x24 PUSH1 0x0 REVERT JUMPDEST PUSH1 0x0 PUSH1 0x20 DUP3 DUP5 SUB SLT ISZERO PUSH2 0x1426 JUMPI PUSH1 0x0 DUP1 REVERT JUMPDEST POP MLOAD SWAP2 SWAP1 POP JUMP JUMPDEST PUSH1 0x0 DUP3 MLOAD PUSH1 0x0 JUMPDEST DUP2 DUP2 LT ISZERO PUSH2 0x144E JUMPI PUSH1 0x20 DUP2 DUP7 ADD DUP2 ADD MLOAD DUP6 DUP4 ADD MSTORE ADD PUSH2 0x1434 JUMP JUMPDEST DUP2 DUP2 GT ISZERO PUSH2 0x145D JUMPI PUSH1 0x0 DUP3 DUP6 ADD MSTORE JUMPDEST POP SWAP2 SWAP1 SWAP2 ADD SWAP3 SWAP2 POP POP JUMP JUMPDEST PUSH4 0x4E487B71 PUSH1 0xE0 SHL PUSH1 0x0 MSTORE PUSH1 0x11 PUSH1 0x4 MSTORE PUSH1 0x24 PUSH1 0x0 REVERT JUMPDEST PUSH1 0x0 PUSH1 0x0 NOT DUP3 EQ ISZERO PUSH2 0x1492 JUMPI PUSH2 0x1492 PUSH2 0x1468 JUMP JUMPDEST POP PUSH1 0x1 ADD SWAP1 JUMP JUMPDEST PUSH1 0x0 PUSH1 0xC0 DUP3 ADD DUP9 DUP4 MSTORE PUSH1 0x20 PUSH1 0xC0 DUP2 DUP6 ADD MSTORE DUP2 DUP10 SLOAD DUP1 DUP5 MSTORE PUSH1 0xE0 DUP7 ADD SWAP2 POP DUP11 PUSH1 0x0 MSTORE DUP3 PUSH1 0x0 KECCAK256 SWAP4 POP PUSH1 0x0 JUMPDEST DUP2 DUP2 LT ISZERO PUSH2 0x14E8 JUMPI DUP5 SLOAD PUSH1 0x1 PUSH1 0x1 PUSH1 0xA0 SHL SUB AND DUP4 MSTORE PUSH1 0x1 SWAP5 DUP6 ADD SWAP5 SWAP3 DUP5 ADD SWAP3 ADD PUSH2 0x14C3 JUMP JUMPDEST POP POP DUP5 DUP2 SUB PUSH1 0x40 DUP7 ADD MSTORE DUP9 MLOAD DUP1 DUP3 MSTORE SWAP1 DUP3 ADD SWAP3 POP DUP2 DUP10 ADD SWAP1 PUSH1 0x0 JUMPDEST DUP2 DUP2 LT ISZERO PUSH2 0x151F JUMPI DUP3 MLOAD DUP6 MSTORE SWAP4 DUP4 ADD SWAP4 SWAP2 DUP4 ADD SWAP2 PUSH1 0x1 ADD PUSH2 0x1503 JUMP JUMPDEST POP POP POP POP PUSH1 0x60 DUP4 ADD SWAP6 SWAP1 SWAP6 MSTORE POP PUSH1 0x80 DUP2 ADD SWAP3 SWAP1 SWAP3 MSTORE PUSH1 0xA0 SWAP1 SWAP2 ADD MSTORE SWAP4 SWAP3 POP POP POP JUMP JUMPDEST PUSH1 0x0 PUSH1 0x20 DUP3 DUP5 SUB SLT ISZERO PUSH2 0x1553 JUMPI PUSH1 0x0 DUP1 REVERT JUMPDEST DUP2 MLOAD PUSH2 0x155E DUP2 PUSH2 0x1217 JUMP JUMPDEST SWAP4 SWAP3 POP POP POP JUMP JUMPDEST PUSH1 0x0 PUSH1 0x20 DUP3 DUP5 SUB SLT ISZERO PUSH2 0x1577 JUMPI PUSH1 0x0 DUP1 REVERT JUMPDEST DUP2 MLOAD DUP1 ISZERO ISZERO DUP2 EQ PUSH2 0x155E JUMPI PUSH1 0x0 DUP1 REVERT JUMPDEST PUSH1 0x0 DUP3 NOT DUP3 GT ISZERO PUSH2 0x159A JUMPI PUSH2 0x159A PUSH2 0x1468 JUMP JUMPDEST POP ADD SWAP1 JUMP JUMPDEST PUSH1 0x0 DUP2 PUSH1 0x0 NOT DIV DUP4 GT DUP3 ISZERO ISZERO AND ISZERO PUSH2 0x15B9 JUMPI PUSH2 0x15B9 PUSH2 0x1468 JUMP JUMPDEST POP MUL SWAP1 JUMP JUMPDEST PUSH1 0x1 DUP2 DUP2 JUMPDEST DUP1 DUP6 GT ISZERO PUSH2 0x15F9 JUMPI DUP2 PUSH1 0x0 NOT DIV DUP3 GT ISZERO PUSH2 0x15DF JUMPI PUSH2 0x15DF PUSH2 0x1468 JUMP JUMPDEST DUP1 DUP6 AND ISZERO PUSH2 0x15EC JUMPI SWAP2 DUP2 MUL SWAP2 JUMPDEST SWAP4 DUP5 SHR SWAP4 SWAP1 DUP1 MUL SWAP1 PUSH2 0x15C3 JUMP JUMPDEST POP SWAP3 POP SWAP3 SWAP1 POP JUMP JUMPDEST PUSH1 0x0 DUP3 PUSH2 0x1610 JUMPI POP PUSH1 0x1 PUSH2 0x169E JUMP JUMPDEST DUP2 PUSH2 0x161D JUMPI POP PUSH1 0x0 PUSH2 0x169E JUMP JUMPDEST DUP2 PUSH1 0x1 DUP2 EQ PUSH2 0x1633 JUMPI PUSH1 0x2 DUP2 EQ PUSH2 0x163D JUMPI PUSH2 0x1659 JUMP JUMPDEST PUSH1 0x1 SWAP2 POP POP PUSH2 0x169E JUMP JUMPDEST PUSH1 0xFF DUP5 GT ISZERO PUSH2 0x164E JUMPI PUSH2 0x164E PUSH2 0x1468 JUMP JUMPDEST POP POP PUSH1 0x1 DUP3 SHL PUSH2 0x169E JUMP JUMPDEST POP PUSH1 0x20 DUP4 LT PUSH2 0x133 DUP4 LT AND PUSH1 0x4E DUP5 LT PUSH1 0xB DUP5 LT AND OR ISZERO PUSH2 0x167C JUMPI POP DUP2 DUP2 EXP PUSH2 0x169E JUMP JUMPDEST PUSH2 0x1686 DUP4 DUP4 PUSH2 0x15BE JUMP JUMPDEST DUP1 PUSH1 0x0 NOT DIV DUP3 GT ISZERO PUSH2 0x169A JUMPI PUSH2 0x169A PUSH2 0x1468 JUMP JUMPDEST MUL SWAP1 POP JUMPDEST SWAP3 SWAP2 POP POP JUMP JUMPDEST PUSH1 0x0 PUSH2 0x155E DUP4 DUP4 PUSH2 0x1601 JUMP JUMPDEST PUSH1 0x0 DUP3 DUP3 LT ISZERO PUSH2 0x16C2 JUMPI PUSH2 0x16C2 PUSH2 0x1468 JUMP JUMPDEST POP SUB SWAP1 JUMP JUMPDEST PUSH4 0x4E487B71 PUSH1 0xE0 SHL PUSH1 0x0 MSTORE PUSH1 0x12 PUSH1 0x4 MSTORE PUSH1 0x24 PUSH1 0x0 REVERT JUMPDEST PUSH1 0x0 DUP3 PUSH2 0x16EC JUMPI PUSH2 0x16EC PUSH2 0x16C7 JUMP JUMPDEST POP MOD SWAP1 JUMP JUMPDEST PUSH1 0x0 DUP3 PUSH2 0x1700 JUMPI PUSH2 0x1700 PUSH2 0x16C7 JUMP JUMPDEST POP DIV SWAP1 JUMP JUMPDEST PUSH4 0x4E487B71 PUSH1 0xE0 SHL PUSH1 0x0 MSTORE PUSH1 0x1 PUSH1 0x4 MSTORE PUSH1 0x24 PUSH1 0x0 REVERT INVALID LOG2 PUSH5 0x6970667358 0x22 SLT KECCAK256 SIGNEXTEND 0xAD 0xEE 0x4F LOG2 CALLER EXTCODECOPY 0xDA PUSH25 0x8C4B7835CDDE73720790D72521DF90A009BEF3AD8389D36473 PUSH16 0x6C634300080900330000000000000000 ","sha1":"fc7fe3a06e7cc5d583a13245c9ea1867ad711a6c","source":"//SPDX-License-Identifier: MIT\npragma solidity ^0.8.9;\n\nimport \"@openzeppelin/contracts/token/ERC20/ERC20.sol\";\nimport \"./deb/optimism/contracts/L2/messaging/L2CrossDomainMessenger.sol\";\n\n\n/// @title SourceDomainSideBridge Contract\n/// @author Sherif Abdelmoatty\n/// @notice This contract is to be deployed in the source rollup\ncontract SourceDomainSideBridge {\n    uint constant DEPOSIT_MERKLE_TREE_DEPTH = 10; //this will allow for 1024 deposits\n    uint constant MAX_DEPOSIT_COUNT = 2**DEPOSIT_MERKLE_TREE_DEPTH - 1;\n    uint constant CONTRACT_FEE_BASIS_POINTS = 5;\n    address constant ETHER_ADDRESS = 0x0000000000000000000000000000000000000000;\n\n    struct TransferData {\n        address  tokenAddress; \n        address  destination;\n        uint256  amount;\n        uint256  fee;\n        uint256  startTime;\n        uint256  feeRampup;\n    }\n    uint256 public nextTransferID;\n    address[] tokens;\n\n    mapping(bytes32 => bool) validTicket; //a mapping of valid ticket to prevent reentry\n    uint256 public lastPaidByTicketId;\n        \n    bytes32[DEPOSIT_MERKLE_TREE_DEPTH] private branch; //Merkle Tree Branch\n    bytes32[DEPOSIT_MERKLE_TREE_DEPTH] private zero_hashes;\n\n    address ovmL2CrossDomainMessenger;  //ovmL2CrossDomainMessenger contract address(Optimism)\n    address l1DomainSideContract;  //l1DomainSideContract deployed contract address on mainnet\n\n    event Transaction(TransferData transferData,SourceDomainSideBridge current,uint256 nextTransferId);\n    event Ticket(bytes32 ticket,address[] tokens,uint256[] amounts,\n                uint256 firstIdForTicket, uint256 lastIdForTicket, bytes32 stateRoot);\n\n    /// @notice onlyL1Contract modifier\n    /// @notice only allows a message from l1DomainSideBridge contract through the L2CrossDomainMessenger bridge\n    /// @notice to call the confirmTicketPayed function\n    modifier onlyL1Contract() {\n        require(\n            msg.sender == address(ovmL2CrossDomainMessenger)\n            && L2CrossDomainMessenger(ovmL2CrossDomainMessenger).xDomainMessageSender() == l1DomainSideContract\n        );\n        _;\n    }\n\n    /// @notice Constructior function\n    /// @notice Intialize the zero_hashes array\n    constructor(address _ovmL2CrossDomainMessenger, address _l1DomainSideContract){\n        // Compute hashes in empty sparse Merkle tree\n        \n        for (uint height = 0; height < DEPOSIT_MERKLE_TREE_DEPTH - 1; height++)\n            zero_hashes[height + 1] = sha256(abi.encodePacked(zero_hashes[height], zero_hashes[height]));\n\n        ovmL2CrossDomainMessenger = _ovmL2CrossDomainMessenger;\n        l1DomainSideContract = _l1DomainSideContract;\n    }\n\n    /// @notice get_deposit_root function\n    /// @notice calculates the current merkle tree root\n    function get_deposit_root()  external view returns (bytes32) {\n        bytes32 node;\n        uint size = nextTransferID % MAX_DEPOSIT_COUNT;\n        //console.log(\"size %d\", size);\n        uint count =0;\n        for (uint height = 0; height < DEPOSIT_MERKLE_TREE_DEPTH; height++) {\n            if ((size & 1) == 1)\n                node = sha256(abi.encodePacked(branch[height], node));\n            else\n                node = sha256(abi.encodePacked(node, zero_hashes[height]));\n            size /= 2;\n            count += 1;\n        }\n        return node;\n    }\n\n    /// @notice withdraw function\n    /// @notice withdraws the required funds plus fees to be sent \n    /// @notice to the domain side rollup\n    function withdraw(address _tokenAddress, address _destination, uint256 _amount,\n        uint256 _fee, uint256 _startTime, uint256 _feeRampup) external payable returns(bytes32){\n        TransferData memory _transferData;\n        _transferData.tokenAddress = _tokenAddress;\n        _transferData.destination = _destination;\n        _transferData.amount = _amount;\n        _transferData.fee = _fee;\n        _transferData.startTime = _startTime;\n        _transferData.feeRampup = _feeRampup;\n\n        uint256 amountPlusFee = _transferData.amount * (1000 + CONTRACT_FEE_BASIS_POINTS);\n        \n        if(_transferData.tokenAddress == ETHER_ADDRESS){\n            require(msg.value >= amountPlusFee, \"Error : Non Suffecient funds!!!!!!!!\");\n        }else{\n            ERC20 token = ERC20(_transferData.tokenAddress);\n            token.transferFrom(msg.sender, address(this), amountPlusFee);\n        }\n        \n        bytes32 transferDataHash = sha256(abi.encodePacked(_transferData.tokenAddress,_transferData.destination,\n                                                            _transferData.amount ,_transferData.fee,\n                                                            _transferData.startTime,_transferData.feeRampup));\n        bytes32 contractAddressHash = sha256(abi.encodePacked(address(this)));\n        bytes32 nexTransferIdHash = sha256(abi.encodePacked(nextTransferID));\n        bytes32 node = sha256(abi.encodePacked(transferDataHash, contractAddressHash,nexTransferIdHash));\n        //transactionHashs.push(h);\n\n        updateMerkleBranch(node);\n        \n\n        emit Transaction(_transferData,this,nextTransferID);\n        \n        return node;\n    }\n\n    /// @notice createTicket function\n    /// @notice to win the bountry you need first to create a ticket\n    /// @notice on the source rollup, which returns a hash of the\n    /// @notice current merkle root, first transaction id and last\n    /// @notice transaction id that the bounty covers\n    /// @notice the bounty seeker needs to deposit all the required\n    /// @notice tokens in a contract in the L1 mainnet, then the L1\n    /// @notice contract sends the tokens to the destination side rollup\n    /// @notice and calls the confirmTicketPayed function in the source\n    /// @notice side rollup, which transfers the bounty to the bounty winner\n    function createTicket() external returns(bytes32){\n        uint256[] memory tokensAmounts;\n        bytes32 ticket;\n        for (uint n = 0; n < tokens.length; n++) {\n            if(tokens[n] == ETHER_ADDRESS){\n                tokensAmounts[n] = address(this).balance;\n            }else{\n                ERC20 token = ERC20(tokens[n]);\n                tokensAmounts[n] = token.balanceOf(address(this));      \n            }\n            ticket = sha256(abi.encodePacked(ticket,tokens[0], tokensAmounts[0]));\n        }\n        bytes32 r = this.get_deposit_root();\n        ticket = sha256(abi.encodePacked(ticket,lastPaidByTicketId));\n        ticket = sha256(abi.encodePacked(ticket,nextTransferID));\n        ticket = sha256(abi.encodePacked(ticket,r));\n        validTicket[ticket] = true;\n        emit Ticket(ticket,tokens,tokensAmounts, lastPaidByTicketId, nextTransferID, r);\n        return ticket;\n    }\n\n    /// @notice confirmTicketPayed function\n    /// @notice this finction is called by the L1 mainnet contract \n    /// @notice it confirms a valid ticket and transfers the bounty to the bounty winner\n    function confirmTicketPayed(bytes32 _ticket, address[] memory _tokens,\n                uint256[] memory _tokensAmounts, uint256 _firstIdForTicket, \n                uint256 _lastIdForTicket, bytes32 stateRoot,\n                 address payable lp) external onlyL1Contract{\n\n        bytes32 ticket;\n        for (uint n = 0; n < _tokens.length; n++) {\n            ticket = sha256(abi.encodePacked(ticket,_tokens[0], _tokensAmounts[0]));\n        }\n        ticket = sha256(abi.encodePacked(ticket,lastPaidByTicketId));\n        ticket = sha256(abi.encodePacked(ticket,nextTransferID));\n        ticket = sha256(abi.encodePacked(ticket,stateRoot));\n        require(_firstIdForTicket == lastPaidByTicketId, \"Invalid ticket !!\");\n        require(ticket == _ticket, \"Wrong ticket !!\");\n        require(validTicket[_ticket] == true, \"Invalid ticket !!\");\n        lastPaidByTicketId = _lastIdForTicket;\n        validTicket[_ticket] = false;\n\n        for (uint n = 0; n < _tokens.length; n++) {\n            if(tokens[n] == ETHER_ADDRESS){\n                lp.transfer(_tokensAmounts[n]);\n            }else{\n                ERC20 token = ERC20(_tokens[n]);\n                token.transfer(lp, _tokensAmounts[n]);\n            }\n        }\n    }\n\n    /// @notice getLPFee function\n    /// @notice calculates the liquidity provider fee.\n    function getLPFee(TransferData memory _transferData, uint256 _currentTime) private pure returns (uint256) {\n        if(_currentTime < _transferData.startTime)\n            return 0;\n        else if(_currentTime >= _transferData.startTime + _transferData.feeRampup)\n            return _transferData.fee;\n        else\n            return _transferData.fee * (_currentTime - _transferData.startTime); // feeRampup\n    }\n\n    /// @notice updateMerkleBranch function\n    /// @notice updates the merkle tree branch in the withdraw function\n    /// @notice using similar logic to the PoS deposit Ethereum contract\n    function updateMerkleBranch(bytes32 node) private{\n        // Add deposit data root to Merkle tree (update a single `branch` node)\n        nextTransferID += 1;\n        uint size = nextTransferID % MAX_DEPOSIT_COUNT;\n        for (uint height = 0; height < DEPOSIT_MERKLE_TREE_DEPTH; height++) {\n            if ((size & 1) == 1) {\n                branch[height] = node;\n                return;\n            }\n            node = sha256(abi.encodePacked(branch[height], node));\n            size /= 2;\n        }\n        // As the loop should always end prematurely with the `return` statement,\n        // this code should be unreachable. We assert `false` just to be safe.\n        assert(false);\n    }\n   \n}","sourcePath":"contracts/SourceDomainSideBridge.sol","type":"contract","deployment":{"address":"0x4f7459eFf03cD8C19B5a442d7c9b675A05f66fbf","chainid":"69","blockHeight":1322665}}