{"abi":[{"inputs":[{"internalType":"address","name":"_l1DomainSideContractAddress","type":"address"}],"stateMutability":"nonpayable","type":"constructor","name":"constructor"},{"anonymous":false,"inputs":[{"indexed":false,"internalType":"bytes32","name":"transferDataHash","type":"bytes32"},{"indexed":false,"internalType":"bool","name":"success","type":"bool"}],"name":"ClaimPayed","type":"event"},{"anonymous":false,"inputs":[{"indexed":false,"internalType":"bytes32","name":"newKnownHashOnions","type":"bytes32"}],"name":"NewKnownHashOnionAdded","type":"event"},{"anonymous":false,"inputs":[{"components":[{"internalType":"address","name":"tokenAddress","type":"address"},{"internalType":"address","name":"destination","type":"address"},{"internalType":"uint256","name":"amount","type":"uint256"},{"internalType":"uint256","name":"fee","type":"uint256"},{"internalType":"uint256","name":"startTime","type":"uint256"},{"internalType":"uint256","name":"feeRampup","type":"uint256"},{"internalType":"uint256","name":"nonce","type":"uint256"}],"indexed":false,"internalType":"struct SourceDomainSideBridge.TransferData","name":"transferData","type":"tuple"}],"name":"Transaction","type":"event"},{"inputs":[],"name":"CONTRACT_FEE_BASIS_POINTS","outputs":[{"internalType":"uint256","name":"","type":"uint256"}],"stateMutability":"view","type":"function"},{"inputs":[],"name":"FIXED_FEE","outputs":[{"internalType":"uint256","name":"","type":"uint256"}],"stateMutability":"view","type":"function"},{"inputs":[],"name":"GetGovernanceBalance","outputs":[{"internalType":"uint256","name":"","type":"uint256"}],"stateMutability":"view","type":"function"},{"inputs":[],"name":"MAX_TRADE_LIMIT","outputs":[{"internalType":"uint256","name":"","type":"uint256"}],"stateMutability":"view","type":"function"},{"inputs":[{"internalType":"bytes32","name":"_newKnownHashOnions","type":"bytes32"}],"name":"addNewKnownHashOnion","outputs":[],"stateMutability":"nonpayable","type":"function"},{"inputs":[],"name":"collectGovernanceFixedFees","outputs":[],"stateMutability":"nonpayable","type":"function"},{"inputs":[],"name":"governance","outputs":[{"internalType":"address","name":"","type":"address"}],"stateMutability":"view","type":"function"},{"inputs":[{"internalType":"bytes32","name":"","type":"bytes32"}],"name":"knownHashOnions","outputs":[{"internalType":"bool","name":"","type":"bool"}],"stateMutability":"view","type":"function"},{"inputs":[{"components":[{"internalType":"bytes32","name":"transferDataHash","type":"bytes32"},{"internalType":"address","name":"tokenAddress","type":"address"},{"internalType":"address","name":"claimer","type":"address"},{"internalType":"uint256","name":"amountPlusFee","type":"uint256"}],"internalType":"struct SourceDomainSideBridge.RewardData[]","name":"_rewardData","type":"tuple[]"}],"name":"processClaims","outputs":[],"stateMutability":"payable","type":"function"},{"inputs":[{"internalType":"address","name":"_tokenAddress","type":"address"},{"internalType":"address","name":"_destination","type":"address"},{"internalType":"uint256","name":"_amount","type":"uint256"},{"internalType":"uint256","name":"_feeRampup","type":"uint256"}],"name":"transfer","outputs":[{"internalType":"bytes32","name":"","type":"bytes32"}],"stateMutability":"payable","type":"function"},{"inputs":[{"internalType":"bytes32","name":"","type":"bytes32"}],"name":"validTransferHashes","outputs":[{"internalType":"bool","name":"","type":"bool"}],"stateMutability":"view","type":"function"}],"bytecode":"608060405234801561001057600080fd5b506040516110af3803806110af83398101604081905261002f9161005d565b600380546001600160a01b039092166001600160a01b0319928316179055600580549091163317905561008d565b60006020828403121561006f57600080fd5b81516001600160a01b038116811461008657600080fd5b9392505050565b6110138061009c6000396000f3fe60806040526004361061009c5760003560e01c80635a1294b7116100645780635a1294b71461014d5780635aa6e6751461017d578063a9d72b02146101b5578063bfd683b3146101d5578063e93aea44146101f1578063ef4481d11461020657600080fd5b8063040c05b6146100a15780630411b252146100e657806313457d881461010757806323d1b06c1461011c5780635181353d14610136575b600080fd5b3480156100ad57600080fd5b506100d16100bc366004610c2d565b60006020819052908152604090205460ff1681565b60405190151581526020015b60405180910390f35b6100f96100f4366004610c5e565b610219565b6040519081526020016100dd565b34801561011357600080fd5b506100f9600581565b34801561012857600080fd5b506100f96502baf524c40081565b34801561014257600080fd5b5061014b61062b565b005b34801561015957600080fd5b506100d1610168366004610c2d565b60016020526000908152604090205460ff1681565b34801561018957600080fd5b5060055461019d906001600160a01b031681565b6040516001600160a01b0390911681526020016100dd565b3480156101c157600080fd5b5061014b6101d0366004610c2d565b610699565b3480156101e157600080fd5b506100f967016345785d8a000081565b3480156101fd57600080fd5b506100f9610781565b61014b610214366004610d14565b6107b5565b600080610227600585610e1d565b9050600081610238866103e8610e1d565b6102429190610e3c565b9050610250856103e8610e1d565b61025a8584610e1d565b106102d25760405162461bcd60e51b815260206004820152603b60248201527f66656552616d707570206d6178696d756d20636f73742073686f756c6420626560448201527f206c657373207468616e2074686520746f74616c20616d6f756e74000000000060648201526084015b60405180910390fd5b6001600160a01b0387166103ab5767016345785d8a00006102f5866103e8610e1d565b106103515760405162461bcd60e51b815260206004820152602660248201527f416d6f756e7420686967686572207468616e206d6178696d756d207472616465604482015265081b1a5b5a5d60d21b60648201526084016102c9565b6103616502baf524c40082610e3c565b3410156103a65760405162461bcd60e51b815260206004820152601360248201527227379029bab33332b1b4b2b73a1032ba3432b960691b60448201526064016102c9565b610491565b6040516323b872dd60e01b81523360048201523060248201526044810182905287906001600160a01b038216906323b872dd906064016020604051808303816000875af1158015610400573d6000803e3d6000fd5b505050506040513d601f19601f820116820180604052508101906104249190610e54565b506502baf524c40034101561048f5760405162461bcd60e51b815260206004820152602b60248201527f4e6f2053756666656369656e7420657468657220666f7220746865206669786560448201526a642065746865722066656560a81b60648201526084016102c9565b505b6104e36040518060e0016040528060006001600160a01b0316815260200160006001600160a01b0316815260200160008152602001600081526020016000815260200160008152602001600081525090565b6001600160a01b03808916825287166020820152610503866103e8610e1d565b60408201526060810183905243608082015260a081018590526004805460c0830181905290600061053383610e7d565b9091555061054a905060026502baf524c400610e96565b6006546105579190610e3c565b600655604051600090600290610571908490602001610eb8565b60408051601f198184030181529082905261058b91610f0f565b602060405180830381855afa1580156105a8573d6000803e3d6000fd5b5050506040513d601f19601f820116820180604052508101906105cb9190610f4a565b60008181526020819052604090819020805460ff19166001179055519091507fd8a86d1088d904bb6bf6291af6c7530b6ff4a8f6514c77a44c143331be826f8990610617908490610eb8565b60405180910390a198975050505050505050565b6005546001600160a01b031633146106555760405162461bcd60e51b81526004016102c990610f63565b6005546006546040516001600160a01b039092169181156108fc0291906000818181858888f19350505050158015610691573d6000803e3d6000fd5b506000600655565b6007602160991b013381148015610726575060035460408051636e296e4560e01b815290516001600160a01b0392831692841691636e296e459160048083019260209291908290030181865afa1580156106f7573d6000803e3d6000fd5b505050506040513d601f19601f8201168201806040525081019061071b9190610faa565b6001600160a01b0316145b61072f57600080fd5b600082815260016020818152604092839020805460ff191690921790915590518381527ff92a8a7980eb38c3c210ad55b80880529bccdbc8206e7cdb24d9f52c6a5171e8910160405180910390a15050565b6005546000906001600160a01b031633146107ae5760405162461bcd60e51b81526004016102c990610f63565b5060065490565b60006107c082610b49565b60008181526001602052604090205490915060ff166108215760405162461bcd60e51b815260206004820152601960248201527f496e76616c6964652052657761726444617461206c6973742e0000000000000060448201526064016102c9565b600281905560005b8251811015610b445760008084838151811061084757610847610fc7565b6020908102919091018101515182528101919091526040016000205460ff1615610b32576000806001600160a01b031684838151811061088957610889610fc7565b6020026020010151602001516001600160a01b0316036109545760008483815181106108b7576108b7610fc7565b6020026020010151604001516001600160a01b031660026502baf524c4006108df9190610e96565b8685815181106108f1576108f1610fc7565b6020026020010151606001516109079190610e3c565b604051600081818185875af1925050503d8060008114610943576040519150601f19603f3d011682016040523d82523d6000602084013e610948565b606091505b50909250610acf915050565b600084838151811061096857610968610fc7565b6020026020010151602001519050806001600160a01b03166323b872dd3087868151811061099857610998610fc7565b6020026020010151604001518887815181106109b6576109b6610fc7565b6020908102919091010151606001516040516001600160e01b031960e086901b1681526001600160a01b03938416600482015292909116602483015260448201526064016020604051808303816000875af1158015610a19573d6000803e3d6000fd5b505050506040513d601f19601f82011682018060405250810190610a3d9190610e54565b91506000858481518110610a5357610a53610fc7565b6020026020010151604001516001600160a01b031660026502baf524c400610a7b9190610e96565b604051600081818185875af1925050503d8060008114610ab7576040519150601f19603f3d011682016040523d82523d6000602084013e610abc565b606091505b50509050828015610aca5750805b925050505b7f6949409522b57ddd499e29e527ea6b74df8d2f4f2993b0030bee0fd0ead7ca4a848381518110610b0257610b02610fc7565b60200260200101516000015182604051610b289291909182521515602082015260400190565b60405180910390a1505b80610b3c81610e7d565b915050610829565b505050565b600254600090815b8351811015610c2657600282858381518110610b6f57610b6f610fc7565b6020908102919091018101516040805180840194909452815184820152918101516001600160a01b0390811660608086019190915292820151166080840152015160a082015260c00160408051601f1981840301815290829052610bd291610f0f565b602060405180830381855afa158015610bef573d6000803e3d6000fd5b5050506040513d601f19601f82011682018060405250810190610c129190610f4a565b915080610c1e81610e7d565b915050610b51565b5092915050565b600060208284031215610c3f57600080fd5b5035919050565b6001600160a01b0381168114610c5b57600080fd5b50565b60008060008060808587031215610c7457600080fd5b8435610c7f81610c46565b93506020850135610c8f81610c46565b93969395505050506040820135916060013590565b634e487b7160e01b600052604160045260246000fd5b6040516080810167ffffffffffffffff81118282101715610cdd57610cdd610ca4565b60405290565b604051601f8201601f1916810167ffffffffffffffff81118282101715610d0c57610d0c610ca4565b604052919050565b60006020808385031215610d2757600080fd5b823567ffffffffffffffff80821115610d3f57600080fd5b818501915085601f830112610d5357600080fd5b813581811115610d6557610d65610ca4565b610d73848260051b01610ce3565b818152848101925060079190911b830184019087821115610d9357600080fd5b928401925b81841015610dfc5760808489031215610db15760008081fd5b610db9610cba565b8435815285850135610dca81610c46565b81870152604085810135610ddd81610c46565b9082015260608581013590820152835260809093019291840191610d98565b979650505050505050565b634e487b7160e01b600052601160045260246000fd5b6000816000190483118215151615610e3757610e37610e07565b500290565b60008219821115610e4f57610e4f610e07565b500190565b600060208284031215610e6657600080fd5b81518015158114610e7657600080fd5b9392505050565b600060018201610e8f57610e8f610e07565b5060010190565b600082610eb357634e487b7160e01b600052601260045260246000fd5b500490565b81516001600160a01b0390811682526020808401519091169082015260408083015190820152606080830151908201526080808301519082015260a0828101519082015260c0918201519181019190915260e00190565b6000825160005b81811015610f305760208186018101518583015201610f16565b81811115610f3f576000828501525b509190910192915050565b600060208284031215610f5c57600080fd5b5051919050565b60208082526027908201527f476f7665726e616e63653a20596f7520617265206e6f742074686520476f7665604082015266726e6f7221212160c81b606082015260800190565b600060208284031215610fbc57600080fd5b8151610e7681610c46565b634e487b7160e01b600052603260045260246000fdfea2646970667358221220f9141e7d9548a1681024c023938760e7148118e854524c918f2c33b5f31fd2e864736f6c634300080d0033","bytecodeSha1":"ebdc71f0c303e31e6d6694b81ea1dbef64e0b7d8","compiler":{"evm_version":"istanbul","optimizer":{"enabled":true,"runs":200},"version":"0.8.13+commit.abaa5c0e"},"contractName":"SourceDomainSideBridge","language":"Solidity","natspec":{"author":"Sherif Abdelmoatty","kind":"dev","methods":{"addNewKnownHashOnion(bytes32)":{"notice":"this function is only called from the contract at the etherium L1through the rollup messenger contract to add a new known hash onion"},"constructor":{"params":{"_l1DomainSideContractAddress":"is the address of the contract in etherium L1"}},"processClaims((bytes32,address,address,uint256)[])":{"notice":"process the processClaims structs to be paid to the liquidity providers","params":{"_rewardData":"is an array of RewardData structs to be paid to liquidity providers"}},"transfer(address,address,uint256,uint256)":{"notice":"transfer the required funds plus fees to be sent to the current contract balance"}},"notice":"This contract is to be deployed in the source rollup","title":"SourceDomainSideBridge Contract","version":1},"opcodes":"PUSH1 0x80 PUSH1 0x40 MSTORE PUSH1 0x4 CALLDATASIZE LT PUSH2 0x9C JUMPI PUSH1 0x0 CALLDATALOAD PUSH1 0xE0 SHR DUP1 PUSH4 0x5A1294B7 GT PUSH2 0x64 JUMPI DUP1 PUSH4 0x5A1294B7 EQ PUSH2 0x14D JUMPI DUP1 PUSH4 0x5AA6E675 EQ PUSH2 0x17D JUMPI DUP1 PUSH4 0xA9D72B02 EQ PUSH2 0x1B5 JUMPI DUP1 PUSH4 0xBFD683B3 EQ PUSH2 0x1D5 JUMPI DUP1 PUSH4 0xE93AEA44 EQ PUSH2 0x1F1 JUMPI DUP1 PUSH4 0xEF4481D1 EQ PUSH2 0x206 JUMPI PUSH1 0x0 DUP1 REVERT JUMPDEST DUP1 PUSH4 0x40C05B6 EQ PUSH2 0xA1 JUMPI DUP1 PUSH4 0x411B252 EQ PUSH2 0xE6 JUMPI DUP1 PUSH4 0x13457D88 EQ PUSH2 0x107 JUMPI DUP1 PUSH4 0x23D1B06C EQ PUSH2 0x11C JUMPI DUP1 PUSH4 0x5181353D EQ PUSH2 0x136 JUMPI JUMPDEST PUSH1 0x0 DUP1 REVERT JUMPDEST CALLVALUE DUP1 ISZERO PUSH2 0xAD JUMPI PUSH1 0x0 DUP1 REVERT JUMPDEST POP PUSH2 0xD1 PUSH2 0xBC CALLDATASIZE PUSH1 0x4 PUSH2 0xC2D JUMP JUMPDEST PUSH1 0x0 PUSH1 0x20 DUP2 SWAP1 MSTORE SWAP1 DUP2 MSTORE PUSH1 0x40 SWAP1 KECCAK256 SLOAD PUSH1 0xFF AND DUP2 JUMP JUMPDEST PUSH1 0x40 MLOAD SWAP1 ISZERO ISZERO DUP2 MSTORE PUSH1 0x20 ADD JUMPDEST PUSH1 0x40 MLOAD DUP1 SWAP2 SUB SWAP1 RETURN JUMPDEST PUSH2 0xF9 PUSH2 0xF4 CALLDATASIZE PUSH1 0x4 PUSH2 0xC5E JUMP JUMPDEST PUSH2 0x219 JUMP JUMPDEST PUSH1 0x40 MLOAD SWAP1 DUP2 MSTORE PUSH1 0x20 ADD PUSH2 0xDD JUMP JUMPDEST CALLVALUE DUP1 ISZERO PUSH2 0x113 JUMPI PUSH1 0x0 DUP1 REVERT JUMPDEST POP PUSH2 0xF9 PUSH1 0x5 DUP2 JUMP JUMPDEST CALLVALUE DUP1 ISZERO PUSH2 0x128 JUMPI PUSH1 0x0 DUP1 REVERT JUMPDEST POP PUSH2 0xF9 PUSH6 0x2BAF524C400 DUP2 JUMP JUMPDEST CALLVALUE DUP1 ISZERO PUSH2 0x142 JUMPI PUSH1 0x0 DUP1 REVERT JUMPDEST POP PUSH2 0x14B PUSH2 0x62B JUMP JUMPDEST STOP JUMPDEST CALLVALUE DUP1 ISZERO PUSH2 0x159 JUMPI PUSH1 0x0 DUP1 REVERT JUMPDEST POP PUSH2 0xD1 PUSH2 0x168 CALLDATASIZE PUSH1 0x4 PUSH2 0xC2D JUMP JUMPDEST PUSH1 0x1 PUSH1 0x20 MSTORE PUSH1 0x0 SWAP1 DUP2 MSTORE PUSH1 0x40 SWAP1 KECCAK256 SLOAD PUSH1 0xFF AND DUP2 JUMP JUMPDEST CALLVALUE DUP1 ISZERO PUSH2 0x189 JUMPI PUSH1 0x0 DUP1 REVERT JUMPDEST POP PUSH1 0x5 SLOAD PUSH2 0x19D SWAP1 PUSH1 0x1 PUSH1 0x1 PUSH1 0xA0 SHL SUB AND DUP2 JUMP JUMPDEST PUSH1 0x40 MLOAD PUSH1 0x1 PUSH1 0x1 PUSH1 0xA0 SHL SUB SWAP1 SWAP2 AND DUP2 MSTORE PUSH1 0x20 ADD PUSH2 0xDD JUMP JUMPDEST CALLVALUE DUP1 ISZERO PUSH2 0x1C1 JUMPI PUSH1 0x0 DUP1 REVERT JUMPDEST POP PUSH2 0x14B PUSH2 0x1D0 CALLDATASIZE PUSH1 0x4 PUSH2 0xC2D JUMP JUMPDEST PUSH2 0x699 JUMP JUMPDEST CALLVALUE DUP1 ISZERO PUSH2 0x1E1 JUMPI PUSH1 0x0 DUP1 REVERT JUMPDEST POP PUSH2 0xF9 PUSH8 0x16345785D8A0000 DUP2 JUMP JUMPDEST CALLVALUE DUP1 ISZERO PUSH2 0x1FD JUMPI PUSH1 0x0 DUP1 REVERT JUMPDEST POP PUSH2 0xF9 PUSH2 0x781 JUMP JUMPDEST PUSH2 0x14B PUSH2 0x214 CALLDATASIZE PUSH1 0x4 PUSH2 0xD14 JUMP JUMPDEST PUSH2 0x7B5 JUMP JUMPDEST PUSH1 0x0 DUP1 PUSH2 0x227 PUSH1 0x5 DUP6 PUSH2 0xE1D JUMP JUMPDEST SWAP1 POP PUSH1 0x0 DUP2 PUSH2 0x238 DUP7 PUSH2 0x3E8 PUSH2 0xE1D JUMP JUMPDEST PUSH2 0x242 SWAP2 SWAP1 PUSH2 0xE3C JUMP JUMPDEST SWAP1 POP PUSH2 0x250 DUP6 PUSH2 0x3E8 PUSH2 0xE1D JUMP JUMPDEST PUSH2 0x25A DUP6 DUP5 PUSH2 0xE1D JUMP JUMPDEST LT PUSH2 0x2D2 JUMPI PUSH1 0x40 MLOAD PUSH3 0x461BCD PUSH1 0xE5 SHL DUP2 MSTORE PUSH1 0x20 PUSH1 0x4 DUP3 ADD MSTORE PUSH1 0x3B PUSH1 0x24 DUP3 ADD MSTORE PUSH32 0x66656552616D707570206D6178696D756D20636F73742073686F756C64206265 PUSH1 0x44 DUP3 ADD MSTORE PUSH32 0x206C657373207468616E2074686520746F74616C20616D6F756E740000000000 PUSH1 0x64 DUP3 ADD MSTORE PUSH1 0x84 ADD JUMPDEST PUSH1 0x40 MLOAD DUP1 SWAP2 SUB SWAP1 REVERT JUMPDEST PUSH1 0x1 PUSH1 0x1 PUSH1 0xA0 SHL SUB DUP8 AND PUSH2 0x3AB JUMPI PUSH8 0x16345785D8A0000 PUSH2 0x2F5 DUP7 PUSH2 0x3E8 PUSH2 0xE1D JUMP JUMPDEST LT PUSH2 0x351 JUMPI PUSH1 0x40 MLOAD PUSH3 0x461BCD PUSH1 0xE5 SHL DUP2 MSTORE PUSH1 0x20 PUSH1 0x4 DUP3 ADD MSTORE PUSH1 0x26 PUSH1 0x24 DUP3 ADD MSTORE PUSH32 0x416D6F756E7420686967686572207468616E206D6178696D756D207472616465 PUSH1 0x44 DUP3 ADD MSTORE PUSH6 0x81B1A5B5A5D PUSH1 0xD2 SHL PUSH1 0x64 DUP3 ADD MSTORE PUSH1 0x84 ADD PUSH2 0x2C9 JUMP JUMPDEST PUSH2 0x361 PUSH6 0x2BAF524C400 DUP3 PUSH2 0xE3C JUMP JUMPDEST CALLVALUE LT ISZERO PUSH2 0x3A6 JUMPI PUSH1 0x40 MLOAD PUSH3 0x461BCD PUSH1 0xE5 SHL DUP2 MSTORE PUSH1 0x20 PUSH1 0x4 DUP3 ADD MSTORE PUSH1 0x13 PUSH1 0x24 DUP3 ADD MSTORE PUSH19 0x27379029BAB33332B1B4B2B73A1032BA3432B9 PUSH1 0x69 SHL PUSH1 0x44 DUP3 ADD MSTORE PUSH1 0x64 ADD PUSH2 0x2C9 JUMP JUMPDEST PUSH2 0x491 JUMP JUMPDEST PUSH1 0x40 MLOAD PUSH4 0x23B872DD PUSH1 0xE0 SHL DUP2 MSTORE CALLER PUSH1 0x4 DUP3 ADD MSTORE ADDRESS PUSH1 0x24 DUP3 ADD MSTORE PUSH1 0x44 DUP2 ADD DUP3 SWAP1 MSTORE DUP8 SWAP1 PUSH1 0x1 PUSH1 0x1 PUSH1 0xA0 SHL SUB DUP3 AND SWAP1 PUSH4 0x23B872DD SWAP1 PUSH1 0x64 ADD PUSH1 0x20 PUSH1 0x40 MLOAD DUP1 DUP4 SUB DUP2 PUSH1 0x0 DUP8 GAS CALL ISZERO DUP1 ISZERO PUSH2 0x400 JUMPI RETURNDATASIZE PUSH1 0x0 DUP1 RETURNDATACOPY RETURNDATASIZE PUSH1 0x0 REVERT JUMPDEST POP POP POP POP PUSH1 0x40 MLOAD RETURNDATASIZE PUSH1 0x1F NOT PUSH1 0x1F DUP3 ADD AND DUP3 ADD DUP1 PUSH1 0x40 MSTORE POP DUP2 ADD SWAP1 PUSH2 0x424 SWAP2 SWAP1 PUSH2 0xE54 JUMP JUMPDEST POP PUSH6 0x2BAF524C400 CALLVALUE LT ISZERO PUSH2 0x48F JUMPI PUSH1 0x40 MLOAD PUSH3 0x461BCD PUSH1 0xE5 SHL DUP2 MSTORE PUSH1 0x20 PUSH1 0x4 DUP3 ADD MSTORE PUSH1 0x2B PUSH1 0x24 DUP3 ADD MSTORE PUSH32 0x4E6F2053756666656369656E7420657468657220666F72207468652066697865 PUSH1 0x44 DUP3 ADD MSTORE PUSH11 0x6420657468657220666565 PUSH1 0xA8 SHL PUSH1 0x64 DUP3 ADD MSTORE PUSH1 0x84 ADD PUSH2 0x2C9 JUMP JUMPDEST POP JUMPDEST PUSH2 0x4E3 PUSH1 0x40 MLOAD DUP1 PUSH1 0xE0 ADD PUSH1 0x40 MSTORE DUP1 PUSH1 0x0 PUSH1 0x1 PUSH1 0x1 PUSH1 0xA0 SHL SUB AND DUP2 MSTORE PUSH1 0x20 ADD PUSH1 0x0 PUSH1 0x1 PUSH1 0x1 PUSH1 0xA0 SHL SUB AND DUP2 MSTORE PUSH1 0x20 ADD PUSH1 0x0 DUP2 MSTORE PUSH1 0x20 ADD PUSH1 0x0 DUP2 MSTORE PUSH1 0x20 ADD PUSH1 0x0 DUP2 MSTORE PUSH1 0x20 ADD PUSH1 0x0 DUP2 MSTORE PUSH1 0x20 ADD PUSH1 0x0 DUP2 MSTORE POP SWAP1 JUMP JUMPDEST PUSH1 0x1 PUSH1 0x1 PUSH1 0xA0 SHL SUB DUP1 DUP10 AND DUP3 MSTORE DUP8 AND PUSH1 0x20 DUP3 ADD MSTORE PUSH2 0x503 DUP7 PUSH2 0x3E8 PUSH2 0xE1D JUMP JUMPDEST PUSH1 0x40 DUP3 ADD MSTORE PUSH1 0x60 DUP2 ADD DUP4 SWAP1 MSTORE NUMBER PUSH1 0x80 DUP3 ADD MSTORE PUSH1 0xA0 DUP2 ADD DUP6 SWAP1 MSTORE PUSH1 0x4 DUP1 SLOAD PUSH1 0xC0 DUP4 ADD DUP2 SWAP1 MSTORE SWAP1 PUSH1 0x0 PUSH2 0x533 DUP4 PUSH2 0xE7D JUMP JUMPDEST SWAP1 SWAP2 SSTORE POP PUSH2 0x54A SWAP1 POP PUSH1 0x2 PUSH6 0x2BAF524C400 PUSH2 0xE96 JUMP JUMPDEST PUSH1 0x6 SLOAD PUSH2 0x557 SWAP2 SWAP1 PUSH2 0xE3C JUMP JUMPDEST PUSH1 0x6 SSTORE PUSH1 0x40 MLOAD PUSH1 0x0 SWAP1 PUSH1 0x2 SWAP1 PUSH2 0x571 SWAP1 DUP5 SWAP1 PUSH1 0x20 ADD PUSH2 0xEB8 JUMP JUMPDEST PUSH1 0x40 DUP1 MLOAD PUSH1 0x1F NOT DUP2 DUP5 SUB ADD DUP2 MSTORE SWAP1 DUP3 SWAP1 MSTORE PUSH2 0x58B SWAP2 PUSH2 0xF0F JUMP JUMPDEST PUSH1 0x20 PUSH1 0x40 MLOAD DUP1 DUP4 SUB DUP2 DUP6 GAS STATICCALL ISZERO DUP1 ISZERO PUSH2 0x5A8 JUMPI RETURNDATASIZE PUSH1 0x0 DUP1 RETURNDATACOPY RETURNDATASIZE PUSH1 0x0 REVERT JUMPDEST POP POP POP PUSH1 0x40 MLOAD RETURNDATASIZE PUSH1 0x1F NOT PUSH1 0x1F DUP3 ADD AND DUP3 ADD DUP1 PUSH1 0x40 MSTORE POP DUP2 ADD SWAP1 PUSH2 0x5CB SWAP2 SWAP1 PUSH2 0xF4A JUMP JUMPDEST PUSH1 0x0 DUP2 DUP2 MSTORE PUSH1 0x20 DUP2 SWAP1 MSTORE PUSH1 0x40 SWAP1 DUP2 SWAP1 KECCAK256 DUP1 SLOAD PUSH1 0xFF NOT AND PUSH1 0x1 OR SWAP1 SSTORE MLOAD SWAP1 SWAP2 POP PUSH32 0xD8A86D1088D904BB6BF6291AF6C7530B6FF4A8F6514C77A44C143331BE826F89 SWAP1 PUSH2 0x617 SWAP1 DUP5 SWAP1 PUSH2 0xEB8 JUMP JUMPDEST PUSH1 0x40 MLOAD DUP1 SWAP2 SUB SWAP1 LOG1 SWAP9 SWAP8 POP POP POP POP POP POP POP POP JUMP JUMPDEST PUSH1 0x5 SLOAD PUSH1 0x1 PUSH1 0x1 PUSH1 0xA0 SHL SUB AND CALLER EQ PUSH2 0x655 JUMPI PUSH1 0x40 MLOAD PUSH3 0x461BCD PUSH1 0xE5 SHL DUP2 MSTORE PUSH1 0x4 ADD PUSH2 0x2C9 SWAP1 PUSH2 0xF63 JUMP JUMPDEST PUSH1 0x5 SLOAD PUSH1 0x6 SLOAD PUSH1 0x40 MLOAD PUSH1 0x1 PUSH1 0x1 PUSH1 0xA0 SHL SUB SWAP1 SWAP3 AND SWAP2 DUP2 ISZERO PUSH2 0x8FC MUL SWAP2 SWAP1 PUSH1 0x0 DUP2 DUP2 DUP2 DUP6 DUP9 DUP9 CALL SWAP4 POP POP POP POP ISZERO DUP1 ISZERO PUSH2 0x691 JUMPI RETURNDATASIZE PUSH1 0x0 DUP1 RETURNDATACOPY RETURNDATASIZE PUSH1 0x0 REVERT JUMPDEST POP PUSH1 0x0 PUSH1 0x6 SSTORE JUMP JUMPDEST PUSH1 0x7 PUSH1 0x21 PUSH1 0x99 SHL ADD CALLER DUP2 EQ DUP1 ISZERO PUSH2 0x726 JUMPI POP PUSH1 0x3 SLOAD PUSH1 0x40 DUP1 MLOAD PUSH4 0x6E296E45 PUSH1 0xE0 SHL DUP2 MSTORE SWAP1 MLOAD PUSH1 0x1 PUSH1 0x1 PUSH1 0xA0 SHL SUB SWAP3 DUP4 AND SWAP3 DUP5 AND SWAP2 PUSH4 0x6E296E45 SWAP2 PUSH1 0x4 DUP1 DUP4 ADD SWAP3 PUSH1 0x20 SWAP3 SWAP2 SWAP1 DUP3 SWAP1 SUB ADD DUP2 DUP7 GAS STATICCALL ISZERO DUP1 ISZERO PUSH2 0x6F7 JUMPI RETURNDATASIZE PUSH1 0x0 DUP1 RETURNDATACOPY RETURNDATASIZE PUSH1 0x0 REVERT JUMPDEST POP POP POP POP PUSH1 0x40 MLOAD RETURNDATASIZE PUSH1 0x1F NOT PUSH1 0x1F DUP3 ADD AND DUP3 ADD DUP1 PUSH1 0x40 MSTORE POP DUP2 ADD SWAP1 PUSH2 0x71B SWAP2 SWAP1 PUSH2 0xFAA JUMP JUMPDEST PUSH1 0x1 PUSH1 0x1 PUSH1 0xA0 SHL SUB AND EQ JUMPDEST PUSH2 0x72F JUMPI PUSH1 0x0 DUP1 REVERT JUMPDEST PUSH1 0x0 DUP3 DUP2 MSTORE PUSH1 0x1 PUSH1 0x20 DUP2 DUP2 MSTORE PUSH1 0x40 SWAP3 DUP4 SWAP1 KECCAK256 DUP1 SLOAD PUSH1 0xFF NOT AND SWAP1 SWAP3 OR SWAP1 SWAP2 SSTORE SWAP1 MLOAD DUP4 DUP2 MSTORE PUSH32 0xF92A8A7980EB38C3C210AD55B80880529BCCDBC8206E7CDB24D9F52C6A5171E8 SWAP2 ADD PUSH1 0x40 MLOAD DUP1 SWAP2 SUB SWAP1 LOG1 POP POP JUMP JUMPDEST PUSH1 0x5 SLOAD PUSH1 0x0 SWAP1 PUSH1 0x1 PUSH1 0x1 PUSH1 0xA0 SHL SUB AND CALLER EQ PUSH2 0x7AE JUMPI PUSH1 0x40 MLOAD PUSH3 0x461BCD PUSH1 0xE5 SHL DUP2 MSTORE PUSH1 0x4 ADD PUSH2 0x2C9 SWAP1 PUSH2 0xF63 JUMP JUMPDEST POP PUSH1 0x6 SLOAD SWAP1 JUMP JUMPDEST PUSH1 0x0 PUSH2 0x7C0 DUP3 PUSH2 0xB49 JUMP JUMPDEST PUSH1 0x0 DUP2 DUP2 MSTORE PUSH1 0x1 PUSH1 0x20 MSTORE PUSH1 0x40 SWAP1 KECCAK256 SLOAD SWAP1 SWAP2 POP PUSH1 0xFF AND PUSH2 0x821 JUMPI PUSH1 0x40 MLOAD PUSH3 0x461BCD PUSH1 0xE5 SHL DUP2 MSTORE PUSH1 0x20 PUSH1 0x4 DUP3 ADD MSTORE PUSH1 0x19 PUSH1 0x24 DUP3 ADD MSTORE PUSH32 0x496E76616C6964652052657761726444617461206C6973742E00000000000000 PUSH1 0x44 DUP3 ADD MSTORE PUSH1 0x64 ADD PUSH2 0x2C9 JUMP JUMPDEST PUSH1 0x2 DUP2 SWAP1 SSTORE PUSH1 0x0 JUMPDEST DUP3 MLOAD DUP2 LT ISZERO PUSH2 0xB44 JUMPI PUSH1 0x0 DUP1 DUP5 DUP4 DUP2 MLOAD DUP2 LT PUSH2 0x847 JUMPI PUSH2 0x847 PUSH2 0xFC7 JUMP JUMPDEST PUSH1 0x20 SWAP1 DUP2 MUL SWAP2 SWAP1 SWAP2 ADD DUP2 ADD MLOAD MLOAD DUP3 MSTORE DUP2 ADD SWAP2 SWAP1 SWAP2 MSTORE PUSH1 0x40 ADD PUSH1 0x0 KECCAK256 SLOAD PUSH1 0xFF AND ISZERO PUSH2 0xB32 JUMPI PUSH1 0x0 DUP1 PUSH1 0x1 PUSH1 0x1 PUSH1 0xA0 SHL SUB AND DUP5 DUP4 DUP2 MLOAD DUP2 LT PUSH2 0x889 JUMPI PUSH2 0x889 PUSH2 0xFC7 JUMP JUMPDEST PUSH1 0x20 MUL PUSH1 0x20 ADD ADD MLOAD PUSH1 0x20 ADD MLOAD PUSH1 0x1 PUSH1 0x1 PUSH1 0xA0 SHL SUB AND SUB PUSH2 0x954 JUMPI PUSH1 0x0 DUP5 DUP4 DUP2 MLOAD DUP2 LT PUSH2 0x8B7 JUMPI PUSH2 0x8B7 PUSH2 0xFC7 JUMP JUMPDEST PUSH1 0x20 MUL PUSH1 0x20 ADD ADD MLOAD PUSH1 0x40 ADD MLOAD PUSH1 0x1 PUSH1 0x1 PUSH1 0xA0 SHL SUB AND PUSH1 0x2 PUSH6 0x2BAF524C400 PUSH2 0x8DF SWAP2 SWAP1 PUSH2 0xE96 JUMP JUMPDEST DUP7 DUP6 DUP2 MLOAD DUP2 LT PUSH2 0x8F1 JUMPI PUSH2 0x8F1 PUSH2 0xFC7 JUMP JUMPDEST PUSH1 0x20 MUL PUSH1 0x20 ADD ADD MLOAD PUSH1 0x60 ADD MLOAD PUSH2 0x907 SWAP2 SWAP1 PUSH2 0xE3C JUMP JUMPDEST PUSH1 0x40 MLOAD PUSH1 0x0 DUP2 DUP2 DUP2 DUP6 DUP8 GAS CALL SWAP3 POP POP POP RETURNDATASIZE DUP1 PUSH1 0x0 DUP2 EQ PUSH2 0x943 JUMPI PUSH1 0x40 MLOAD SWAP2 POP PUSH1 0x1F NOT PUSH1 0x3F RETURNDATASIZE ADD AND DUP3 ADD PUSH1 0x40 MSTORE RETURNDATASIZE DUP3 MSTORE RETURNDATASIZE PUSH1 0x0 PUSH1 0x20 DUP5 ADD RETURNDATACOPY PUSH2 0x948 JUMP JUMPDEST PUSH1 0x60 SWAP2 POP JUMPDEST POP SWAP1 SWAP3 POP PUSH2 0xACF SWAP2 POP POP JUMP JUMPDEST PUSH1 0x0 DUP5 DUP4 DUP2 MLOAD DUP2 LT PUSH2 0x968 JUMPI PUSH2 0x968 PUSH2 0xFC7 JUMP JUMPDEST PUSH1 0x20 MUL PUSH1 0x20 ADD ADD MLOAD PUSH1 0x20 ADD MLOAD SWAP1 POP DUP1 PUSH1 0x1 PUSH1 0x1 PUSH1 0xA0 SHL SUB AND PUSH4 0x23B872DD ADDRESS DUP8 DUP7 DUP2 MLOAD DUP2 LT PUSH2 0x998 JUMPI PUSH2 0x998 PUSH2 0xFC7 JUMP JUMPDEST PUSH1 0x20 MUL PUSH1 0x20 ADD ADD MLOAD PUSH1 0x40 ADD MLOAD DUP9 DUP8 DUP2 MLOAD DUP2 LT PUSH2 0x9B6 JUMPI PUSH2 0x9B6 PUSH2 0xFC7 JUMP JUMPDEST PUSH1 0x20 SWAP1 DUP2 MUL SWAP2 SWAP1 SWAP2 ADD ADD MLOAD PUSH1 0x60 ADD MLOAD PUSH1 0x40 MLOAD PUSH1 0x1 PUSH1 0x1 PUSH1 0xE0 SHL SUB NOT PUSH1 0xE0 DUP7 SWAP1 SHL AND DUP2 MSTORE PUSH1 0x1 PUSH1 0x1 PUSH1 0xA0 SHL SUB SWAP4 DUP5 AND PUSH1 0x4 DUP3 ADD MSTORE SWAP3 SWAP1 SWAP2 AND PUSH1 0x24 DUP4 ADD MSTORE PUSH1 0x44 DUP3 ADD MSTORE PUSH1 0x64 ADD PUSH1 0x20 PUSH1 0x40 MLOAD DUP1 DUP4 SUB DUP2 PUSH1 0x0 DUP8 GAS CALL ISZERO DUP1 ISZERO PUSH2 0xA19 JUMPI RETURNDATASIZE PUSH1 0x0 DUP1 RETURNDATACOPY RETURNDATASIZE PUSH1 0x0 REVERT JUMPDEST POP POP POP POP PUSH1 0x40 MLOAD RETURNDATASIZE PUSH1 0x1F NOT PUSH1 0x1F DUP3 ADD AND DUP3 ADD DUP1 PUSH1 0x40 MSTORE POP DUP2 ADD SWAP1 PUSH2 0xA3D SWAP2 SWAP1 PUSH2 0xE54 JUMP JUMPDEST SWAP2 POP PUSH1 0x0 DUP6 DUP5 DUP2 MLOAD DUP2 LT PUSH2 0xA53 JUMPI PUSH2 0xA53 PUSH2 0xFC7 JUMP JUMPDEST PUSH1 0x20 MUL PUSH1 0x20 ADD ADD MLOAD PUSH1 0x40 ADD MLOAD PUSH1 0x1 PUSH1 0x1 PUSH1 0xA0 SHL SUB AND PUSH1 0x2 PUSH6 0x2BAF524C400 PUSH2 0xA7B SWAP2 SWAP1 PUSH2 0xE96 JUMP JUMPDEST PUSH1 0x40 MLOAD PUSH1 0x0 DUP2 DUP2 DUP2 DUP6 DUP8 GAS CALL SWAP3 POP POP POP RETURNDATASIZE DUP1 PUSH1 0x0 DUP2 EQ PUSH2 0xAB7 JUMPI PUSH1 0x40 MLOAD SWAP2 POP PUSH1 0x1F NOT PUSH1 0x3F RETURNDATASIZE ADD AND DUP3 ADD PUSH1 0x40 MSTORE RETURNDATASIZE DUP3 MSTORE RETURNDATASIZE PUSH1 0x0 PUSH1 0x20 DUP5 ADD RETURNDATACOPY PUSH2 0xABC JUMP JUMPDEST PUSH1 0x60 SWAP2 POP JUMPDEST POP POP SWAP1 POP DUP3 DUP1 ISZERO PUSH2 0xACA JUMPI POP DUP1 JUMPDEST SWAP3 POP POP POP JUMPDEST PUSH32 0x6949409522B57DDD499E29E527EA6B74DF8D2F4F2993B0030BEE0FD0EAD7CA4A DUP5 DUP4 DUP2 MLOAD DUP2 LT PUSH2 0xB02 JUMPI PUSH2 0xB02 PUSH2 0xFC7 JUMP JUMPDEST PUSH1 0x20 MUL PUSH1 0x20 ADD ADD MLOAD PUSH1 0x0 ADD MLOAD DUP3 PUSH1 0x40 MLOAD PUSH2 0xB28 SWAP3 SWAP2 SWAP1 SWAP2 DUP3 MSTORE ISZERO ISZERO PUSH1 0x20 DUP3 ADD MSTORE PUSH1 0x40 ADD SWAP1 JUMP JUMPDEST PUSH1 0x40 MLOAD DUP1 SWAP2 SUB SWAP1 LOG1 POP JUMPDEST DUP1 PUSH2 0xB3C DUP2 PUSH2 0xE7D JUMP JUMPDEST SWAP2 POP POP PUSH2 0x829 JUMP JUMPDEST POP POP POP JUMP JUMPDEST PUSH1 0x2 SLOAD PUSH1 0x0 SWAP1 DUP2 JUMPDEST DUP4 MLOAD DUP2 LT ISZERO PUSH2 0xC26 JUMPI PUSH1 0x2 DUP3 DUP6 DUP4 DUP2 MLOAD DUP2 LT PUSH2 0xB6F JUMPI PUSH2 0xB6F PUSH2 0xFC7 JUMP JUMPDEST PUSH1 0x20 SWAP1 DUP2 MUL SWAP2 SWAP1 SWAP2 ADD DUP2 ADD MLOAD PUSH1 0x40 DUP1 MLOAD DUP1 DUP5 ADD SWAP5 SWAP1 SWAP5 MSTORE DUP2 MLOAD DUP5 DUP3 ADD MSTORE SWAP2 DUP2 ADD MLOAD PUSH1 0x1 PUSH1 0x1 PUSH1 0xA0 SHL SUB SWAP1 DUP2 AND PUSH1 0x60 DUP1 DUP7 ADD SWAP2 SWAP1 SWAP2 MSTORE SWAP3 DUP3 ADD MLOAD AND PUSH1 0x80 DUP5 ADD MSTORE ADD MLOAD PUSH1 0xA0 DUP3 ADD MSTORE PUSH1 0xC0 ADD PUSH1 0x40 DUP1 MLOAD PUSH1 0x1F NOT DUP2 DUP5 SUB ADD DUP2 MSTORE SWAP1 DUP3 SWAP1 MSTORE PUSH2 0xBD2 SWAP2 PUSH2 0xF0F JUMP JUMPDEST PUSH1 0x20 PUSH1 0x40 MLOAD DUP1 DUP4 SUB DUP2 DUP6 GAS STATICCALL ISZERO DUP1 ISZERO PUSH2 0xBEF JUMPI RETURNDATASIZE PUSH1 0x0 DUP1 RETURNDATACOPY RETURNDATASIZE PUSH1 0x0 REVERT JUMPDEST POP POP POP PUSH1 0x40 MLOAD RETURNDATASIZE PUSH1 0x1F NOT PUSH1 0x1F DUP3 ADD AND DUP3 ADD DUP1 PUSH1 0x40 MSTORE POP DUP2 ADD SWAP1 PUSH2 0xC12 SWAP2 SWAP1 PUSH2 0xF4A JUMP JUMPDEST SWAP2 POP DUP1 PUSH2 0xC1E DUP2 PUSH2 0xE7D JUMP JUMPDEST SWAP2 POP POP PUSH2 0xB51 JUMP JUMPDEST POP SWAP3 SWAP2 POP POP JUMP JUMPDEST PUSH1 0x0 PUSH1 0x20 DUP3 DUP5 SUB SLT ISZERO PUSH2 0xC3F JUMPI PUSH1 0x0 DUP1 REVERT JUMPDEST POP CALLDATALOAD SWAP2 SWAP1 POP JUMP JUMPDEST PUSH1 0x1 PUSH1 0x1 PUSH1 0xA0 SHL SUB DUP2 AND DUP2 EQ PUSH2 0xC5B JUMPI PUSH1 0x0 DUP1 REVERT JUMPDEST POP JUMP JUMPDEST PUSH1 0x0 DUP1 PUSH1 0x0 DUP1 PUSH1 0x80 DUP6 DUP8 SUB SLT ISZERO PUSH2 0xC74 JUMPI PUSH1 0x0 DUP1 REVERT JUMPDEST DUP5 CALLDATALOAD PUSH2 0xC7F DUP2 PUSH2 0xC46 JUMP JUMPDEST SWAP4 POP PUSH1 0x20 DUP6 ADD CALLDATALOAD PUSH2 0xC8F DUP2 PUSH2 0xC46 JUMP JUMPDEST SWAP4 SWAP7 SWAP4 SWAP6 POP POP POP POP PUSH1 0x40 DUP3 ADD CALLDATALOAD SWAP2 PUSH1 0x60 ADD CALLDATALOAD SWAP1 JUMP JUMPDEST PUSH4 0x4E487B71 PUSH1 0xE0 SHL PUSH1 0x0 MSTORE PUSH1 0x41 PUSH1 0x4 MSTORE PUSH1 0x24 PUSH1 0x0 REVERT JUMPDEST PUSH1 0x40 MLOAD PUSH1 0x80 DUP2 ADD PUSH8 0xFFFFFFFFFFFFFFFF DUP2 GT DUP3 DUP3 LT OR ISZERO PUSH2 0xCDD JUMPI PUSH2 0xCDD PUSH2 0xCA4 JUMP JUMPDEST PUSH1 0x40 MSTORE SWAP1 JUMP JUMPDEST PUSH1 0x40 MLOAD PUSH1 0x1F DUP3 ADD PUSH1 0x1F NOT AND DUP2 ADD PUSH8 0xFFFFFFFFFFFFFFFF DUP2 GT DUP3 DUP3 LT OR ISZERO PUSH2 0xD0C JUMPI PUSH2 0xD0C PUSH2 0xCA4 JUMP JUMPDEST PUSH1 0x40 MSTORE SWAP2 SWAP1 POP JUMP JUMPDEST PUSH1 0x0 PUSH1 0x20 DUP1 DUP4 DUP6 SUB SLT ISZERO PUSH2 0xD27 JUMPI PUSH1 0x0 DUP1 REVERT JUMPDEST DUP3 CALLDATALOAD PUSH8 0xFFFFFFFFFFFFFFFF DUP1 DUP3 GT ISZERO PUSH2 0xD3F JUMPI PUSH1 0x0 DUP1 REVERT JUMPDEST DUP2 DUP6 ADD SWAP2 POP DUP6 PUSH1 0x1F DUP4 ADD SLT PUSH2 0xD53 JUMPI PUSH1 0x0 DUP1 REVERT JUMPDEST DUP2 CALLDATALOAD DUP2 DUP2 GT ISZERO PUSH2 0xD65 JUMPI PUSH2 0xD65 PUSH2 0xCA4 JUMP JUMPDEST PUSH2 0xD73 DUP5 DUP3 PUSH1 0x5 SHL ADD PUSH2 0xCE3 JUMP JUMPDEST DUP2 DUP2 MSTORE DUP5 DUP2 ADD SWAP3 POP PUSH1 0x7 SWAP2 SWAP1 SWAP2 SHL DUP4 ADD DUP5 ADD SWAP1 DUP8 DUP3 GT ISZERO PUSH2 0xD93 JUMPI PUSH1 0x0 DUP1 REVERT JUMPDEST SWAP3 DUP5 ADD SWAP3 JUMPDEST DUP2 DUP5 LT ISZERO PUSH2 0xDFC JUMPI PUSH1 0x80 DUP5 DUP10 SUB SLT ISZERO PUSH2 0xDB1 JUMPI PUSH1 0x0 DUP1 DUP2 REVERT JUMPDEST PUSH2 0xDB9 PUSH2 0xCBA JUMP JUMPDEST DUP5 CALLDATALOAD DUP2 MSTORE DUP6 DUP6 ADD CALLDATALOAD PUSH2 0xDCA DUP2 PUSH2 0xC46 JUMP JUMPDEST DUP2 DUP8 ADD MSTORE PUSH1 0x40 DUP6 DUP2 ADD CALLDATALOAD PUSH2 0xDDD DUP2 PUSH2 0xC46 JUMP JUMPDEST SWAP1 DUP3 ADD MSTORE PUSH1 0x60 DUP6 DUP2 ADD CALLDATALOAD SWAP1 DUP3 ADD MSTORE DUP4 MSTORE PUSH1 0x80 SWAP1 SWAP4 ADD SWAP3 SWAP2 DUP5 ADD SWAP2 PUSH2 0xD98 JUMP JUMPDEST SWAP8 SWAP7 POP POP POP POP POP POP POP JUMP JUMPDEST PUSH4 0x4E487B71 PUSH1 0xE0 SHL PUSH1 0x0 MSTORE PUSH1 0x11 PUSH1 0x4 MSTORE PUSH1 0x24 PUSH1 0x0 REVERT JUMPDEST PUSH1 0x0 DUP2 PUSH1 0x0 NOT DIV DUP4 GT DUP3 ISZERO ISZERO AND ISZERO PUSH2 0xE37 JUMPI PUSH2 0xE37 PUSH2 0xE07 JUMP JUMPDEST POP MUL SWAP1 JUMP JUMPDEST PUSH1 0x0 DUP3 NOT DUP3 GT ISZERO PUSH2 0xE4F JUMPI PUSH2 0xE4F PUSH2 0xE07 JUMP JUMPDEST POP ADD SWAP1 JUMP JUMPDEST PUSH1 0x0 PUSH1 0x20 DUP3 DUP5 SUB SLT ISZERO PUSH2 0xE66 JUMPI PUSH1 0x0 DUP1 REVERT JUMPDEST DUP2 MLOAD DUP1 ISZERO ISZERO DUP2 EQ PUSH2 0xE76 JUMPI PUSH1 0x0 DUP1 REVERT JUMPDEST SWAP4 SWAP3 POP POP POP JUMP JUMPDEST PUSH1 0x0 PUSH1 0x1 DUP3 ADD PUSH2 0xE8F JUMPI PUSH2 0xE8F PUSH2 0xE07 JUMP JUMPDEST POP PUSH1 0x1 ADD SWAP1 JUMP JUMPDEST PUSH1 0x0 DUP3 PUSH2 0xEB3 JUMPI PUSH4 0x4E487B71 PUSH1 0xE0 SHL PUSH1 0x0 MSTORE PUSH1 0x12 PUSH1 0x4 MSTORE PUSH1 0x24 PUSH1 0x0 REVERT JUMPDEST POP DIV SWAP1 JUMP JUMPDEST DUP2 MLOAD PUSH1 0x1 PUSH1 0x1 PUSH1 0xA0 SHL SUB SWAP1 DUP2 AND DUP3 MSTORE PUSH1 0x20 DUP1 DUP5 ADD MLOAD SWAP1 SWAP2 AND SWAP1 DUP3 ADD MSTORE PUSH1 0x40 DUP1 DUP4 ADD MLOAD SWAP1 DUP3 ADD MSTORE PUSH1 0x60 DUP1 DUP4 ADD MLOAD SWAP1 DUP3 ADD MSTORE PUSH1 0x80 DUP1 DUP4 ADD MLOAD SWAP1 DUP3 ADD MSTORE PUSH1 0xA0 DUP3 DUP2 ADD MLOAD SWAP1 DUP3 ADD MSTORE PUSH1 0xC0 SWAP2 DUP3 ADD MLOAD SWAP2 DUP2 ADD SWAP2 SWAP1 SWAP2 MSTORE PUSH1 0xE0 ADD SWAP1 JUMP JUMPDEST PUSH1 0x0 DUP3 MLOAD PUSH1 0x0 JUMPDEST DUP2 DUP2 LT ISZERO PUSH2 0xF30 JUMPI PUSH1 0x20 DUP2 DUP7 ADD DUP2 ADD MLOAD DUP6 DUP4 ADD MSTORE ADD PUSH2 0xF16 JUMP JUMPDEST DUP2 DUP2 GT ISZERO PUSH2 0xF3F JUMPI PUSH1 0x0 DUP3 DUP6 ADD MSTORE JUMPDEST POP SWAP2 SWAP1 SWAP2 ADD SWAP3 SWAP2 POP POP JUMP JUMPDEST PUSH1 0x0 PUSH1 0x20 DUP3 DUP5 SUB SLT ISZERO PUSH2 0xF5C JUMPI PUSH1 0x0 DUP1 REVERT JUMPDEST POP MLOAD SWAP2 SWAP1 POP JUMP JUMPDEST PUSH1 0x20 DUP1 DUP3 MSTORE PUSH1 0x27 SWAP1 DUP3 ADD MSTORE PUSH32 0x476F7665726E616E63653A20596F7520617265206E6F742074686520476F7665 PUSH1 0x40 DUP3 ADD MSTORE PUSH7 0x726E6F72212121 PUSH1 0xC8 SHL PUSH1 0x60 DUP3 ADD MSTORE PUSH1 0x80 ADD SWAP1 JUMP JUMPDEST PUSH1 0x0 PUSH1 0x20 DUP3 DUP5 SUB SLT ISZERO PUSH2 0xFBC JUMPI PUSH1 0x0 DUP1 REVERT JUMPDEST DUP2 MLOAD PUSH2 0xE76 DUP2 PUSH2 0xC46 JUMP JUMPDEST PUSH4 0x4E487B71 PUSH1 0xE0 SHL PUSH1 0x0 MSTORE PUSH1 0x32 PUSH1 0x4 MSTORE PUSH1 0x24 PUSH1 0x0 REVERT INVALID LOG2 PUSH5 0x6970667358 0x22 SLT KECCAK256 0xF9 EQ 0x1E PUSH30 0x9548A1681024C023938760E7148118E854524C918F2C33B5F31FD2E86473 PUSH16 0x6C634300080D00330000000000000000 ","sha1":"1be0820421d09d187ca9d483f9938d19dcc17c6e","source":"//SPDX-License-Identifier: MIT\npragma solidity ^0.8.9;\n\nimport \"./deb/ERC20.sol\";\nimport \"./deb/ICrossDomainMessenger.sol\";\n\n/// @title SourceDomainSideBridge Contract\n/// @author Sherif Abdelmoatty\n/// @notice This contract is to be deployed in the source rollup\ncontract SourceDomainSideBridge {\n\n    address constant ETHER_ADDRESS = 0x0000000000000000000000000000000000000000;\n    address constant ovmL2CrossDomainMessenger = 0x4200000000000000000000000000000000000007;  //ovmL2CrossDomainMessenger contract address(Optimism)\n\n    uint constant public CONTRACT_FEE_BASIS_POINTS = 5; //fee basis points\n    uint constant public FIXED_FEE = 3002 gwei;         //fixed fee - this is added as erc20 tokens value are unknown and to discorage small transactions and acts as a governance fee\n    uint constant public MAX_TRADE_LIMIT = 0.1 ether;   //max allowed ether to be transfered\n\n    struct TransferData {\n        address  tokenAddress; //rollup dependent\n        address  destination;\n        uint256  amount;       //amount to be transfered in kwei\n        uint256  fee;\n        uint256  startTime;\n        uint256  feeRampup;\n        uint256  nonce;\n    }\n\n    struct RewardData {\n        bytes32  transferDataHash;\n        address  tokenAddress; \n        address  claimer;\n        uint256  amountPlusFee;\n    }\n\n    mapping(bytes32 => bool) public validTransferHashes;\n    mapping(bytes32 => bool) public knownHashOnions;\n    bytes32 processedRewardHashOnion;\n    address l1DomainSideContractAddress;  //l1DomainSideContract deployed contract address on mainnet\n    uint256  currentNonce;\n    address public governance;\n    uint256 governanceBalance;\n\n    event Transaction(TransferData transferData);\n    event ClaimPayed(bytes32 transferDataHash, bool success);\n    event NewKnownHashOnionAdded(bytes32 newKnownHashOnions);\n    \n    /// @notice only allows a message from l1DomainSideBridge contract through the L2CrossDomainMessenger bridge\n    modifier onlyL1Contract(){\n        ICrossDomainMessenger l2cdm = ICrossDomainMessenger(ovmL2CrossDomainMessenger);\n        require(\n            msg.sender == address(ovmL2CrossDomainMessenger)\n            && l2cdm.xDomainMessageSender() == l1DomainSideContractAddress\n        );\n        _;\n    }\n\n    /// @notice onlyGovernance modifier \n    /// @notice allow only the Governor to access\n    modifier onlyGovernance {\n        require(msg.sender == governance, \"Governance: You are not the Governor!!!\");\n        _;\n    }\n\n    /// @param _l1DomainSideContractAddress is the address of the contract in etherium L1\n    constructor(address _l1DomainSideContractAddress){\n        l1DomainSideContractAddress = _l1DomainSideContractAddress;\n        governance = msg.sender;\n    }\n\n    /// @notice transfer the required funds plus fees to be sent to the current contract balance\n    function transfer(address _tokenAddress, address _destination, uint256 _amount,\n        uint256  _feeRampup) external payable returns(bytes32){\n        \n        uint256 fee = _amount * CONTRACT_FEE_BASIS_POINTS;\n        uint256 amountPlusFee = _amount * 1000 + fee;\n        \n        require(fee * _feeRampup < _amount * 1000, \"feeRampup maximum cost should be less than the total amount\");\n\n        if(_tokenAddress == ETHER_ADDRESS){\n            require(_amount* 1000 < MAX_TRADE_LIMIT, \"Amount higher than maximum trade limit\");\n            require(msg.value >= amountPlusFee + FIXED_FEE, \"No Suffecient ether\");\n        }else{\n            ERC20 token = ERC20(_tokenAddress);\n            token.transferFrom(msg.sender, address(this), amountPlusFee);\n            require(msg.value >= FIXED_FEE, \"No Suffecient ether for the fixed ether fee\");\n        }\n\n        TransferData memory transferData;\n        transferData.tokenAddress = _tokenAddress;\n        transferData.destination = _destination;\n        transferData.amount = _amount * 1000;\n        transferData.fee = fee;\n        transferData.startTime = block.number;\n        transferData.feeRampup = _feeRampup;\n        transferData.nonce = currentNonce;\n\n        currentNonce++;\n        governanceBalance = governanceBalance + FIXED_FEE/2;\n\n        bytes32 transferDataHash = sha256(abi.encode(transferData));\n        \n        validTransferHashes[transferDataHash] = true;\n\n        emit Transaction(transferData);\n        \n        return transferDataHash;\n    }\n\n    /// @notice process the processClaims structs to be paid to the liquidity providers\n    /// @param _rewardData is an array of RewardData structs to be paid to liquidity providers\n    function processClaims(RewardData[] memory _rewardData) external payable {\n        bytes32 newProcessedRewardHashOnion = calculateNewProcessedRewardHashOnion(_rewardData);\n        require(knownHashOnions[newProcessedRewardHashOnion], \"Invalide RewardData list.\");\n        processedRewardHashOnion = newProcessedRewardHashOnion;\n        for(uint n = 0; n < _rewardData.length; n++) {\n            if(validTransferHashes[_rewardData[n].transferDataHash]){\n                bool success;\n                if(_rewardData[n].tokenAddress == ETHER_ADDRESS){\n                    (bool suc, ) = payable(_rewardData[n].claimer).call{value: _rewardData[n].amountPlusFee + FIXED_FEE/2}(\"\");\n                    success = suc;\n                }else{\n                    ERC20 token = ERC20(_rewardData[n].tokenAddress);\n                    success = token.transferFrom(address(this), _rewardData[n].claimer,\n                        _rewardData[n].amountPlusFee);\n\n                    (bool suc, ) = payable(_rewardData[n].claimer).call{value: FIXED_FEE/2}(\"\");\n\n                    success = success && suc;\n                }\n                emit ClaimPayed(_rewardData[n].transferDataHash, success);\n            }\n        }    \n    }\n\n    /// @notice this function is only called from the contract at the etherium L1\n    /// @notice through the rollup messenger contract to add a new known hash onion\n    function addNewKnownHashOnion(bytes32 _newKnownHashOnions) external onlyL1Contract{\n        knownHashOnions[_newKnownHashOnions] = true;\n        emit NewKnownHashOnionAdded(_newKnownHashOnions);\n    }\n\n    function GetGovernanceBalance() external view onlyGovernance returns(uint256){\n        return governanceBalance;\n    }\n\n    function collectGovernanceFixedFees() external onlyGovernance{\n        payable(governance).transfer(governanceBalance);\n        governanceBalance = 0;\n    }\n\n    /// @notice calculates the new hash onion\n    function calculateNewProcessedRewardHashOnion(RewardData[] memory _rewardData) private view returns (bytes32){\n        bytes32 newProcessedRewardHashOnion = processedRewardHashOnion;\n        for(uint n = 0; n < _rewardData.length; n++) {\n            newProcessedRewardHashOnion = \n                sha256(abi.encode(newProcessedRewardHashOnion,_rewardData[n]));\n        }\n        return newProcessedRewardHashOnion;\n    }\n}","sourcePath":"contracts/SourceDomainSideBridge.sol","type":"contract","deployment":{"address":"0x6Fa32eE1871631717b7898A8C41Bc851Bf07b3e5","chainid":"69","blockHeight":3898942}}