{"abi":[{"inputs":[{"internalType":"address","name":"_l1DomainSideContractAddress","type":"address"}],"stateMutability":"nonpayable","type":"constructor","name":"constructor"},{"anonymous":false,"inputs":[{"indexed":false,"internalType":"bytes32","name":"transferDataHash","type":"bytes32"},{"indexed":false,"internalType":"bool","name":"success","type":"bool"}],"name":"ClaimPayed","type":"event"},{"anonymous":false,"inputs":[{"indexed":false,"internalType":"bytes32","name":"newKnownHashOnions","type":"bytes32"}],"name":"NewKnownHashOnionAdded","type":"event"},{"anonymous":false,"inputs":[{"components":[{"internalType":"address","name":"tokenAddress","type":"address"},{"internalType":"address","name":"destination","type":"address"},{"internalType":"uint256","name":"amount","type":"uint256"},{"internalType":"uint256","name":"fee","type":"uint256"},{"internalType":"uint256","name":"startTime","type":"uint256"},{"internalType":"uint256","name":"feeRampup","type":"uint256"},{"internalType":"uint256","name":"nonce","type":"uint256"}],"indexed":false,"internalType":"struct StructLib.TransferData","name":"transferData","type":"tuple"}],"name":"Transaction","type":"event"},{"inputs":[],"name":"CONTRACT_FEE_BASIS_POINTS","outputs":[{"internalType":"uint256","name":"","type":"uint256"}],"stateMutability":"view","type":"function"},{"inputs":[],"name":"FIXED_FEE","outputs":[{"internalType":"uint256","name":"","type":"uint256"}],"stateMutability":"view","type":"function"},{"inputs":[],"name":"GetGovernanceBalance","outputs":[{"internalType":"uint256","name":"","type":"uint256"}],"stateMutability":"view","type":"function"},{"inputs":[],"name":"MAX_TRADE_LIMIT","outputs":[{"internalType":"uint256","name":"","type":"uint256"}],"stateMutability":"view","type":"function"},{"inputs":[{"internalType":"bytes32","name":"_newKnownHashOnions","type":"bytes32"}],"name":"addNewKnownHashOnion","outputs":[],"stateMutability":"nonpayable","type":"function"},{"inputs":[],"name":"collectGovernanceFixedFees","outputs":[],"stateMutability":"nonpayable","type":"function"},{"inputs":[],"name":"governance","outputs":[{"internalType":"address","name":"","type":"address"}],"stateMutability":"view","type":"function"},{"inputs":[{"internalType":"bytes32","name":"","type":"bytes32"}],"name":"knownHashOnions","outputs":[{"internalType":"bool","name":"","type":"bool"}],"stateMutability":"view","type":"function"},{"inputs":[{"components":[{"internalType":"bytes32","name":"transferDataHash","type":"bytes32"},{"internalType":"address","name":"tokenAddress","type":"address"},{"internalType":"address","name":"claimer","type":"address"},{"internalType":"uint256","name":"amountPlusFee","type":"uint256"}],"internalType":"struct StructLib.RewardData[]","name":"_rewardData","type":"tuple[]"}],"name":"processClaims","outputs":[],"stateMutability":"payable","type":"function"},{"inputs":[{"internalType":"address","name":"_tokenAddress","type":"address"},{"internalType":"address","name":"_destination","type":"address"},{"internalType":"uint256","name":"_amount","type":"uint256"},{"internalType":"uint256","name":"_startTime","type":"uint256"},{"internalType":"uint256","name":"_feeRampup","type":"uint256"}],"name":"transfer","outputs":[{"internalType":"bytes32","name":"","type":"bytes32"}],"stateMutability":"payable","type":"function"},{"inputs":[{"internalType":"bytes32","name":"","type":"bytes32"}],"name":"validTransferHashes","outputs":[{"internalType":"bool","name":"","type":"bool"}],"stateMutability":"view","type":"function"}],"bytecode":"608060405234801561001057600080fd5b506040516110cc3803806110cc83398101604081905261002f9161005d565b600380546001600160a01b039092166001600160a01b0319928316179055600580549091163317905561008d565b60006020828403121561006f57600080fd5b81516001600160a01b038116811461008657600080fd5b9392505050565b6110308061009c6000396000f3fe60806040526004361061009c5760003560e01c80635a1294b7116100645780635a1294b71461014d5780635aa6e6751461017d578063a9d72b02146101b5578063bfd683b3146101d5578063e93aea44146101f1578063ef4481d11461020657600080fd5b8063040c05b6146100a157806313457d88146100e657806323d1b06c146101095780635181353d14610123578063597645a81461013a575b600080fd5b3480156100ad57600080fd5b506100d16100bc366004610c3f565b60006020819052908152604090205460ff1681565b60405190151581526020015b60405180910390f35b3480156100f257600080fd5b506100fb600581565b6040519081526020016100dd565b34801561011557600080fd5b506100fb6502baf524c40081565b34801561012f57600080fd5b50610138610219565b005b6100fb610148366004610c70565b610290565b34801561015957600080fd5b506100d1610168366004610c3f565b60016020526000908152604090205460ff1681565b34801561018957600080fd5b5060055461019d906001600160a01b031681565b6040516001600160a01b0390911681526020016100dd565b3480156101c157600080fd5b506101386101d0366004610c3f565b6106b3565b3480156101e157600080fd5b506100fb67016345785d8a000081565b3480156101fd57600080fd5b506100fb61079b565b610138610214366004610d31565b6107cf565b6005546001600160a01b0316331461024c5760405162461bcd60e51b815260040161024390610e24565b60405180910390fd5b6005546006546040516001600160a01b039092169181156108fc0291906000818181858888f19350505050158015610288573d6000803e3d6000fd5b506000600655565b60008061029e600586610e81565b90506000816102af876103e8610e81565b6102b99190610ea0565b90506102c7866103e8610e81565b6102d18584610e81565b106103445760405162461bcd60e51b815260206004820152603b60248201527f66656552616d707570206d6178696d756d20636f73742073686f756c6420626560448201527f206c657373207468616e2074686520746f74616c20616d6f756e7400000000006064820152608401610243565b6001600160a01b03881661041d5767016345785d8a0000610367876103e8610e81565b106103c35760405162461bcd60e51b815260206004820152602660248201527f416d6f756e7420686967686572207468616e206d6178696d756d207472616465604482015265081b1a5b5a5d60d21b6064820152608401610243565b6103d36502baf524c40082610ea0565b3410156104185760405162461bcd60e51b815260206004820152601360248201527227379029bab33332b1b4b2b73a1032ba3432b960691b6044820152606401610243565b610503565b6040516323b872dd60e01b81523360048201523060248201526044810182905288906001600160a01b038216906323b872dd906064016020604051808303816000875af1158015610472573d6000803e3d6000fd5b505050506040513d601f19601f820116820180604052508101906104969190610eb8565b506502baf524c4003410156105015760405162461bcd60e51b815260206004820152602b60248201527f4e6f2053756666656369656e7420657468657220666f7220746865206669786560448201526a642065746865722066656560a81b6064820152608401610243565b505b6105556040518060e0016040528060006001600160a01b0316815260200160006001600160a01b0316815260200160008152602001600081526020016000815260200160008152602001600081525090565b6001600160a01b03808a16825288166020820152610575876103e8610e81565b604082015260608101839052438610156105945743608082015261059c565b608081018690525b60a081018590526004805460c083018190529060006105ba83610ee1565b909155506105d1905060026502baf524c400610efa565b6006546105de9190610ea0565b6006556040516000906002906105f8908490602001610f1c565b60408051601f198184030181529082905261061291610f73565b602060405180830381855afa15801561062f573d6000803e3d6000fd5b5050506040513d601f19601f820116820180604052508101906106529190610fae565b60008181526020819052604090819020805460ff19166001179055519091507fd8a86d1088d904bb6bf6291af6c7530b6ff4a8f6514c77a44c143331be826f899061069e908490610f1c565b60405180910390a19998505050505050505050565b6007602160991b013381148015610740575060035460408051636e296e4560e01b815290516001600160a01b0392831692841691636e296e459160048083019260209291908290030181865afa158015610711573d6000803e3d6000fd5b505050506040513d601f19601f820116820180604052508101906107359190610fc7565b6001600160a01b0316145b61074957600080fd5b600082815260016020818152604092839020805460ff191690921790915590518381527ff92a8a7980eb38c3c210ad55b80880529bccdbc8206e7cdb24d9f52c6a5171e8910160405180910390a15050565b6005546000906001600160a01b031633146107c85760405162461bcd60e51b815260040161024390610e24565b5060065490565b60006107da82610b5b565b60008181526001602052604090205490915060ff1661083b5760405162461bcd60e51b815260206004820152601960248201527f496e76616c6964652052657761726444617461206c6973742e000000000000006044820152606401610243565b600281905560005b8251811015610b565760008084838151811061086157610861610fe4565b6020908102919091018101515182528101919091526040016000205460ff1615610b44576000806001600160a01b03168483815181106108a3576108a3610fe4565b6020026020010151602001516001600160a01b03160361096e5760008483815181106108d1576108d1610fe4565b6020026020010151604001516001600160a01b031660026502baf524c4006108f99190610efa565b86858151811061090b5761090b610fe4565b6020026020010151606001516109219190610ea0565b604051600081818185875af1925050503d806000811461095d576040519150601f19603f3d011682016040523d82523d6000602084013e610962565b606091505b50909250610ae1915050565b600084838151811061098257610982610fe4565b6020026020010151602001519050806001600160a01b031663a9059cbb8685815181106109b1576109b1610fe4565b6020026020010151604001518786815181106109cf576109cf610fe4565b6020026020010151606001516040518363ffffffff1660e01b8152600401610a0c9291906001600160a01b03929092168252602082015260400190565b6020604051808303816000875af1158015610a2b573d6000803e3d6000fd5b505050506040513d601f19601f82011682018060405250810190610a4f9190610eb8565b91506000858481518110610a6557610a65610fe4565b6020026020010151604001516001600160a01b031660026502baf524c400610a8d9190610efa565b604051600081818185875af1925050503d8060008114610ac9576040519150601f19603f3d011682016040523d82523d6000602084013e610ace565b606091505b50509050828015610adc5750805b925050505b7f6949409522b57ddd499e29e527ea6b74df8d2f4f2993b0030bee0fd0ead7ca4a848381518110610b1457610b14610fe4565b60200260200101516000015182604051610b3a9291909182521515602082015260400190565b60405180910390a1505b80610b4e81610ee1565b915050610843565b505050565b600254600090815b8351811015610c3857600282858381518110610b8157610b81610fe4565b6020908102919091018101516040805180840194909452815184820152918101516001600160a01b0390811660608086019190915292820151166080840152015160a082015260c00160408051601f1981840301815290829052610be491610f73565b602060405180830381855afa158015610c01573d6000803e3d6000fd5b5050506040513d601f19601f82011682018060405250810190610c249190610fae565b915080610c3081610ee1565b915050610b63565b5092915050565b600060208284031215610c5157600080fd5b5035919050565b6001600160a01b0381168114610c6d57600080fd5b50565b600080600080600060a08688031215610c8857600080fd5b8535610c9381610c58565b94506020860135610ca381610c58565b94979496505050506040830135926060810135926080909101359150565b634e487b7160e01b600052604160045260246000fd5b6040516080810167ffffffffffffffff81118282101715610cfa57610cfa610cc1565b60405290565b604051601f8201601f1916810167ffffffffffffffff81118282101715610d2957610d29610cc1565b604052919050565b60006020808385031215610d4457600080fd5b823567ffffffffffffffff80821115610d5c57600080fd5b818501915085601f830112610d7057600080fd5b813581811115610d8257610d82610cc1565b610d90848260051b01610d00565b818152848101925060079190911b830184019087821115610db057600080fd5b928401925b81841015610e195760808489031215610dce5760008081fd5b610dd6610cd7565b8435815285850135610de781610c58565b81870152604085810135610dfa81610c58565b9082015260608581013590820152835260809093019291840191610db5565b979650505050505050565b60208082526027908201527f476f7665726e616e63653a20596f7520617265206e6f742074686520476f7665604082015266726e6f7221212160c81b606082015260800190565b634e487b7160e01b600052601160045260246000fd5b6000816000190483118215151615610e9b57610e9b610e6b565b500290565b60008219821115610eb357610eb3610e6b565b500190565b600060208284031215610eca57600080fd5b81518015158114610eda57600080fd5b9392505050565b600060018201610ef357610ef3610e6b565b5060010190565b600082610f1757634e487b7160e01b600052601260045260246000fd5b500490565b81516001600160a01b0390811682526020808401519091169082015260408083015190820152606080830151908201526080808301519082015260a0828101519082015260c0918201519181019190915260e00190565b6000825160005b81811015610f945760208186018101518583015201610f7a565b81811115610fa3576000828501525b509190910192915050565b600060208284031215610fc057600080fd5b5051919050565b600060208284031215610fd957600080fd5b8151610eda81610c58565b634e487b7160e01b600052603260045260246000fdfea2646970667358221220fd5c249a7efb9e235f8f5256ca2ae9e3bcfb90d13c352d630b211234b16c854064736f6c634300080d0033","bytecodeSha1":"2877a793ee1f3c6cc26ba666e3021af9af15d552","compiler":{"evm_version":"istanbul","optimizer":{"enabled":true,"runs":200},"version":"0.8.13+commit.abaa5c0e"},"contractName":"SourceDomainSideBridge","language":"Solidity","natspec":{"author":"Sherif Abdelmoatty","kind":"dev","methods":{"GetGovernanceBalance()":{"notice":"get governance balance","returns":{"_0":"governance balance"}},"addNewKnownHashOnion(bytes32)":{"notice":"this function is only called from the contract at the etherium L1through the rollup messenger contract to add a new known hash onion"},"collectGovernanceFixedFees()":{"notice":"collect governance fees"},"constructor":{"params":{"_l1DomainSideContractAddress":"is the address of the contract in etherium/kovan L1"}},"processClaims((bytes32,address,address,uint256)[])":{"notice":"process the processClaims structs to be paid to the liquidity providers","params":{"_rewardData":"is an array of RewardData structs to be paid to liquidity providers(emitted by the destination contract)"}},"transfer(address,address,uint256,uint256,uint256)":{"notice":"transfer the required funds plus fees to be sent to the current contract balance","params":{"_amount":"is amount to be transfered in kwei","_destination":"is reciever address at the destination rollup","_feeRampup":"will be multiplied by the fee ramp up if the LP claimed and sent the transfer by the startTime block, and will decrease by one for each block after that","_startTime":"is a blocknumber in the future that this transaction can only be executed after","_tokenAddress":"at destination rollup"},"returns":{"_0":"the hash of the valid transfer"}}},"notice":"This contract is to be deployed in the source rollup","title":"SourceDomainSideBridge Contract","version":1},"opcodes":"PUSH1 0x80 PUSH1 0x40 MSTORE PUSH1 0x4 CALLDATASIZE LT PUSH2 0x9C JUMPI PUSH1 0x0 CALLDATALOAD PUSH1 0xE0 SHR DUP1 PUSH4 0x5A1294B7 GT PUSH2 0x64 JUMPI DUP1 PUSH4 0x5A1294B7 EQ PUSH2 0x14D JUMPI DUP1 PUSH4 0x5AA6E675 EQ PUSH2 0x17D JUMPI DUP1 PUSH4 0xA9D72B02 EQ PUSH2 0x1B5 JUMPI DUP1 PUSH4 0xBFD683B3 EQ PUSH2 0x1D5 JUMPI DUP1 PUSH4 0xE93AEA44 EQ PUSH2 0x1F1 JUMPI DUP1 PUSH4 0xEF4481D1 EQ PUSH2 0x206 JUMPI PUSH1 0x0 DUP1 REVERT JUMPDEST DUP1 PUSH4 0x40C05B6 EQ PUSH2 0xA1 JUMPI DUP1 PUSH4 0x13457D88 EQ PUSH2 0xE6 JUMPI DUP1 PUSH4 0x23D1B06C EQ PUSH2 0x109 JUMPI DUP1 PUSH4 0x5181353D EQ PUSH2 0x123 JUMPI DUP1 PUSH4 0x597645A8 EQ PUSH2 0x13A JUMPI JUMPDEST PUSH1 0x0 DUP1 REVERT JUMPDEST CALLVALUE DUP1 ISZERO PUSH2 0xAD JUMPI PUSH1 0x0 DUP1 REVERT JUMPDEST POP PUSH2 0xD1 PUSH2 0xBC CALLDATASIZE PUSH1 0x4 PUSH2 0xC3F JUMP JUMPDEST PUSH1 0x0 PUSH1 0x20 DUP2 SWAP1 MSTORE SWAP1 DUP2 MSTORE PUSH1 0x40 SWAP1 KECCAK256 SLOAD PUSH1 0xFF AND DUP2 JUMP JUMPDEST PUSH1 0x40 MLOAD SWAP1 ISZERO ISZERO DUP2 MSTORE PUSH1 0x20 ADD JUMPDEST PUSH1 0x40 MLOAD DUP1 SWAP2 SUB SWAP1 RETURN JUMPDEST CALLVALUE DUP1 ISZERO PUSH2 0xF2 JUMPI PUSH1 0x0 DUP1 REVERT JUMPDEST POP PUSH2 0xFB PUSH1 0x5 DUP2 JUMP JUMPDEST PUSH1 0x40 MLOAD SWAP1 DUP2 MSTORE PUSH1 0x20 ADD PUSH2 0xDD JUMP JUMPDEST CALLVALUE DUP1 ISZERO PUSH2 0x115 JUMPI PUSH1 0x0 DUP1 REVERT JUMPDEST POP PUSH2 0xFB PUSH6 0x2BAF524C400 DUP2 JUMP JUMPDEST CALLVALUE DUP1 ISZERO PUSH2 0x12F JUMPI PUSH1 0x0 DUP1 REVERT JUMPDEST POP PUSH2 0x138 PUSH2 0x219 JUMP JUMPDEST STOP JUMPDEST PUSH2 0xFB PUSH2 0x148 CALLDATASIZE PUSH1 0x4 PUSH2 0xC70 JUMP JUMPDEST PUSH2 0x290 JUMP JUMPDEST CALLVALUE DUP1 ISZERO PUSH2 0x159 JUMPI PUSH1 0x0 DUP1 REVERT JUMPDEST POP PUSH2 0xD1 PUSH2 0x168 CALLDATASIZE PUSH1 0x4 PUSH2 0xC3F JUMP JUMPDEST PUSH1 0x1 PUSH1 0x20 MSTORE PUSH1 0x0 SWAP1 DUP2 MSTORE PUSH1 0x40 SWAP1 KECCAK256 SLOAD PUSH1 0xFF AND DUP2 JUMP JUMPDEST CALLVALUE DUP1 ISZERO PUSH2 0x189 JUMPI PUSH1 0x0 DUP1 REVERT JUMPDEST POP PUSH1 0x5 SLOAD PUSH2 0x19D SWAP1 PUSH1 0x1 PUSH1 0x1 PUSH1 0xA0 SHL SUB AND DUP2 JUMP JUMPDEST PUSH1 0x40 MLOAD PUSH1 0x1 PUSH1 0x1 PUSH1 0xA0 SHL SUB SWAP1 SWAP2 AND DUP2 MSTORE PUSH1 0x20 ADD PUSH2 0xDD JUMP JUMPDEST CALLVALUE DUP1 ISZERO PUSH2 0x1C1 JUMPI PUSH1 0x0 DUP1 REVERT JUMPDEST POP PUSH2 0x138 PUSH2 0x1D0 CALLDATASIZE PUSH1 0x4 PUSH2 0xC3F JUMP JUMPDEST PUSH2 0x6B3 JUMP JUMPDEST CALLVALUE DUP1 ISZERO PUSH2 0x1E1 JUMPI PUSH1 0x0 DUP1 REVERT JUMPDEST POP PUSH2 0xFB PUSH8 0x16345785D8A0000 DUP2 JUMP JUMPDEST CALLVALUE DUP1 ISZERO PUSH2 0x1FD JUMPI PUSH1 0x0 DUP1 REVERT JUMPDEST POP PUSH2 0xFB PUSH2 0x79B JUMP JUMPDEST PUSH2 0x138 PUSH2 0x214 CALLDATASIZE PUSH1 0x4 PUSH2 0xD31 JUMP JUMPDEST PUSH2 0x7CF JUMP JUMPDEST PUSH1 0x5 SLOAD PUSH1 0x1 PUSH1 0x1 PUSH1 0xA0 SHL SUB AND CALLER EQ PUSH2 0x24C JUMPI PUSH1 0x40 MLOAD PUSH3 0x461BCD PUSH1 0xE5 SHL DUP2 MSTORE PUSH1 0x4 ADD PUSH2 0x243 SWAP1 PUSH2 0xE24 JUMP JUMPDEST PUSH1 0x40 MLOAD DUP1 SWAP2 SUB SWAP1 REVERT JUMPDEST PUSH1 0x5 SLOAD PUSH1 0x6 SLOAD PUSH1 0x40 MLOAD PUSH1 0x1 PUSH1 0x1 PUSH1 0xA0 SHL SUB SWAP1 SWAP3 AND SWAP2 DUP2 ISZERO PUSH2 0x8FC MUL SWAP2 SWAP1 PUSH1 0x0 DUP2 DUP2 DUP2 DUP6 DUP9 DUP9 CALL SWAP4 POP POP POP POP ISZERO DUP1 ISZERO PUSH2 0x288 JUMPI RETURNDATASIZE PUSH1 0x0 DUP1 RETURNDATACOPY RETURNDATASIZE PUSH1 0x0 REVERT JUMPDEST POP PUSH1 0x0 PUSH1 0x6 SSTORE JUMP JUMPDEST PUSH1 0x0 DUP1 PUSH2 0x29E PUSH1 0x5 DUP7 PUSH2 0xE81 JUMP JUMPDEST SWAP1 POP PUSH1 0x0 DUP2 PUSH2 0x2AF DUP8 PUSH2 0x3E8 PUSH2 0xE81 JUMP JUMPDEST PUSH2 0x2B9 SWAP2 SWAP1 PUSH2 0xEA0 JUMP JUMPDEST SWAP1 POP PUSH2 0x2C7 DUP7 PUSH2 0x3E8 PUSH2 0xE81 JUMP JUMPDEST PUSH2 0x2D1 DUP6 DUP5 PUSH2 0xE81 JUMP JUMPDEST LT PUSH2 0x344 JUMPI PUSH1 0x40 MLOAD PUSH3 0x461BCD PUSH1 0xE5 SHL DUP2 MSTORE PUSH1 0x20 PUSH1 0x4 DUP3 ADD MSTORE PUSH1 0x3B PUSH1 0x24 DUP3 ADD MSTORE PUSH32 0x66656552616D707570206D6178696D756D20636F73742073686F756C64206265 PUSH1 0x44 DUP3 ADD MSTORE PUSH32 0x206C657373207468616E2074686520746F74616C20616D6F756E740000000000 PUSH1 0x64 DUP3 ADD MSTORE PUSH1 0x84 ADD PUSH2 0x243 JUMP JUMPDEST PUSH1 0x1 PUSH1 0x1 PUSH1 0xA0 SHL SUB DUP9 AND PUSH2 0x41D JUMPI PUSH8 0x16345785D8A0000 PUSH2 0x367 DUP8 PUSH2 0x3E8 PUSH2 0xE81 JUMP JUMPDEST LT PUSH2 0x3C3 JUMPI PUSH1 0x40 MLOAD PUSH3 0x461BCD PUSH1 0xE5 SHL DUP2 MSTORE PUSH1 0x20 PUSH1 0x4 DUP3 ADD MSTORE PUSH1 0x26 PUSH1 0x24 DUP3 ADD MSTORE PUSH32 0x416D6F756E7420686967686572207468616E206D6178696D756D207472616465 PUSH1 0x44 DUP3 ADD MSTORE PUSH6 0x81B1A5B5A5D PUSH1 0xD2 SHL PUSH1 0x64 DUP3 ADD MSTORE PUSH1 0x84 ADD PUSH2 0x243 JUMP JUMPDEST PUSH2 0x3D3 PUSH6 0x2BAF524C400 DUP3 PUSH2 0xEA0 JUMP JUMPDEST CALLVALUE LT ISZERO PUSH2 0x418 JUMPI PUSH1 0x40 MLOAD PUSH3 0x461BCD PUSH1 0xE5 SHL DUP2 MSTORE PUSH1 0x20 PUSH1 0x4 DUP3 ADD MSTORE PUSH1 0x13 PUSH1 0x24 DUP3 ADD MSTORE PUSH19 0x27379029BAB33332B1B4B2B73A1032BA3432B9 PUSH1 0x69 SHL PUSH1 0x44 DUP3 ADD MSTORE PUSH1 0x64 ADD PUSH2 0x243 JUMP JUMPDEST PUSH2 0x503 JUMP JUMPDEST PUSH1 0x40 MLOAD PUSH4 0x23B872DD PUSH1 0xE0 SHL DUP2 MSTORE CALLER PUSH1 0x4 DUP3 ADD MSTORE ADDRESS PUSH1 0x24 DUP3 ADD MSTORE PUSH1 0x44 DUP2 ADD DUP3 SWAP1 MSTORE DUP9 SWAP1 PUSH1 0x1 PUSH1 0x1 PUSH1 0xA0 SHL SUB DUP3 AND SWAP1 PUSH4 0x23B872DD SWAP1 PUSH1 0x64 ADD PUSH1 0x20 PUSH1 0x40 MLOAD DUP1 DUP4 SUB DUP2 PUSH1 0x0 DUP8 GAS CALL ISZERO DUP1 ISZERO PUSH2 0x472 JUMPI RETURNDATASIZE PUSH1 0x0 DUP1 RETURNDATACOPY RETURNDATASIZE PUSH1 0x0 REVERT JUMPDEST POP POP POP POP PUSH1 0x40 MLOAD RETURNDATASIZE PUSH1 0x1F NOT PUSH1 0x1F DUP3 ADD AND DUP3 ADD DUP1 PUSH1 0x40 MSTORE POP DUP2 ADD SWAP1 PUSH2 0x496 SWAP2 SWAP1 PUSH2 0xEB8 JUMP JUMPDEST POP PUSH6 0x2BAF524C400 CALLVALUE LT ISZERO PUSH2 0x501 JUMPI PUSH1 0x40 MLOAD PUSH3 0x461BCD PUSH1 0xE5 SHL DUP2 MSTORE PUSH1 0x20 PUSH1 0x4 DUP3 ADD MSTORE PUSH1 0x2B PUSH1 0x24 DUP3 ADD MSTORE PUSH32 0x4E6F2053756666656369656E7420657468657220666F72207468652066697865 PUSH1 0x44 DUP3 ADD MSTORE PUSH11 0x6420657468657220666565 PUSH1 0xA8 SHL PUSH1 0x64 DUP3 ADD MSTORE PUSH1 0x84 ADD PUSH2 0x243 JUMP JUMPDEST POP JUMPDEST PUSH2 0x555 PUSH1 0x40 MLOAD DUP1 PUSH1 0xE0 ADD PUSH1 0x40 MSTORE DUP1 PUSH1 0x0 PUSH1 0x1 PUSH1 0x1 PUSH1 0xA0 SHL SUB AND DUP2 MSTORE PUSH1 0x20 ADD PUSH1 0x0 PUSH1 0x1 PUSH1 0x1 PUSH1 0xA0 SHL SUB AND DUP2 MSTORE PUSH1 0x20 ADD PUSH1 0x0 DUP2 MSTORE PUSH1 0x20 ADD PUSH1 0x0 DUP2 MSTORE PUSH1 0x20 ADD PUSH1 0x0 DUP2 MSTORE PUSH1 0x20 ADD PUSH1 0x0 DUP2 MSTORE PUSH1 0x20 ADD PUSH1 0x0 DUP2 MSTORE POP SWAP1 JUMP JUMPDEST PUSH1 0x1 PUSH1 0x1 PUSH1 0xA0 SHL SUB DUP1 DUP11 AND DUP3 MSTORE DUP9 AND PUSH1 0x20 DUP3 ADD MSTORE PUSH2 0x575 DUP8 PUSH2 0x3E8 PUSH2 0xE81 JUMP JUMPDEST PUSH1 0x40 DUP3 ADD MSTORE PUSH1 0x60 DUP2 ADD DUP4 SWAP1 MSTORE NUMBER DUP7 LT ISZERO PUSH2 0x594 JUMPI NUMBER PUSH1 0x80 DUP3 ADD MSTORE PUSH2 0x59C JUMP JUMPDEST PUSH1 0x80 DUP2 ADD DUP7 SWAP1 MSTORE JUMPDEST PUSH1 0xA0 DUP2 ADD DUP6 SWAP1 MSTORE PUSH1 0x4 DUP1 SLOAD PUSH1 0xC0 DUP4 ADD DUP2 SWAP1 MSTORE SWAP1 PUSH1 0x0 PUSH2 0x5BA DUP4 PUSH2 0xEE1 JUMP JUMPDEST SWAP1 SWAP2 SSTORE POP PUSH2 0x5D1 SWAP1 POP PUSH1 0x2 PUSH6 0x2BAF524C400 PUSH2 0xEFA JUMP JUMPDEST PUSH1 0x6 SLOAD PUSH2 0x5DE SWAP2 SWAP1 PUSH2 0xEA0 JUMP JUMPDEST PUSH1 0x6 SSTORE PUSH1 0x40 MLOAD PUSH1 0x0 SWAP1 PUSH1 0x2 SWAP1 PUSH2 0x5F8 SWAP1 DUP5 SWAP1 PUSH1 0x20 ADD PUSH2 0xF1C JUMP JUMPDEST PUSH1 0x40 DUP1 MLOAD PUSH1 0x1F NOT DUP2 DUP5 SUB ADD DUP2 MSTORE SWAP1 DUP3 SWAP1 MSTORE PUSH2 0x612 SWAP2 PUSH2 0xF73 JUMP JUMPDEST PUSH1 0x20 PUSH1 0x40 MLOAD DUP1 DUP4 SUB DUP2 DUP6 GAS STATICCALL ISZERO DUP1 ISZERO PUSH2 0x62F JUMPI RETURNDATASIZE PUSH1 0x0 DUP1 RETURNDATACOPY RETURNDATASIZE PUSH1 0x0 REVERT JUMPDEST POP POP POP PUSH1 0x40 MLOAD RETURNDATASIZE PUSH1 0x1F NOT PUSH1 0x1F DUP3 ADD AND DUP3 ADD DUP1 PUSH1 0x40 MSTORE POP DUP2 ADD SWAP1 PUSH2 0x652 SWAP2 SWAP1 PUSH2 0xFAE JUMP JUMPDEST PUSH1 0x0 DUP2 DUP2 MSTORE PUSH1 0x20 DUP2 SWAP1 MSTORE PUSH1 0x40 SWAP1 DUP2 SWAP1 KECCAK256 DUP1 SLOAD PUSH1 0xFF NOT AND PUSH1 0x1 OR SWAP1 SSTORE MLOAD SWAP1 SWAP2 POP PUSH32 0xD8A86D1088D904BB6BF6291AF6C7530B6FF4A8F6514C77A44C143331BE826F89 SWAP1 PUSH2 0x69E SWAP1 DUP5 SWAP1 PUSH2 0xF1C JUMP JUMPDEST PUSH1 0x40 MLOAD DUP1 SWAP2 SUB SWAP1 LOG1 SWAP10 SWAP9 POP POP POP POP POP POP POP POP POP JUMP JUMPDEST PUSH1 0x7 PUSH1 0x21 PUSH1 0x99 SHL ADD CALLER DUP2 EQ DUP1 ISZERO PUSH2 0x740 JUMPI POP PUSH1 0x3 SLOAD PUSH1 0x40 DUP1 MLOAD PUSH4 0x6E296E45 PUSH1 0xE0 SHL DUP2 MSTORE SWAP1 MLOAD PUSH1 0x1 PUSH1 0x1 PUSH1 0xA0 SHL SUB SWAP3 DUP4 AND SWAP3 DUP5 AND SWAP2 PUSH4 0x6E296E45 SWAP2 PUSH1 0x4 DUP1 DUP4 ADD SWAP3 PUSH1 0x20 SWAP3 SWAP2 SWAP1 DUP3 SWAP1 SUB ADD DUP2 DUP7 GAS STATICCALL ISZERO DUP1 ISZERO PUSH2 0x711 JUMPI RETURNDATASIZE PUSH1 0x0 DUP1 RETURNDATACOPY RETURNDATASIZE PUSH1 0x0 REVERT JUMPDEST POP POP POP POP PUSH1 0x40 MLOAD RETURNDATASIZE PUSH1 0x1F NOT PUSH1 0x1F DUP3 ADD AND DUP3 ADD DUP1 PUSH1 0x40 MSTORE POP DUP2 ADD SWAP1 PUSH2 0x735 SWAP2 SWAP1 PUSH2 0xFC7 JUMP JUMPDEST PUSH1 0x1 PUSH1 0x1 PUSH1 0xA0 SHL SUB AND EQ JUMPDEST PUSH2 0x749 JUMPI PUSH1 0x0 DUP1 REVERT JUMPDEST PUSH1 0x0 DUP3 DUP2 MSTORE PUSH1 0x1 PUSH1 0x20 DUP2 DUP2 MSTORE PUSH1 0x40 SWAP3 DUP4 SWAP1 KECCAK256 DUP1 SLOAD PUSH1 0xFF NOT AND SWAP1 SWAP3 OR SWAP1 SWAP2 SSTORE SWAP1 MLOAD DUP4 DUP2 MSTORE PUSH32 0xF92A8A7980EB38C3C210AD55B80880529BCCDBC8206E7CDB24D9F52C6A5171E8 SWAP2 ADD PUSH1 0x40 MLOAD DUP1 SWAP2 SUB SWAP1 LOG1 POP POP JUMP JUMPDEST PUSH1 0x5 SLOAD PUSH1 0x0 SWAP1 PUSH1 0x1 PUSH1 0x1 PUSH1 0xA0 SHL SUB AND CALLER EQ PUSH2 0x7C8 JUMPI PUSH1 0x40 MLOAD PUSH3 0x461BCD PUSH1 0xE5 SHL DUP2 MSTORE PUSH1 0x4 ADD PUSH2 0x243 SWAP1 PUSH2 0xE24 JUMP JUMPDEST POP PUSH1 0x6 SLOAD SWAP1 JUMP JUMPDEST PUSH1 0x0 PUSH2 0x7DA DUP3 PUSH2 0xB5B JUMP JUMPDEST PUSH1 0x0 DUP2 DUP2 MSTORE PUSH1 0x1 PUSH1 0x20 MSTORE PUSH1 0x40 SWAP1 KECCAK256 SLOAD SWAP1 SWAP2 POP PUSH1 0xFF AND PUSH2 0x83B JUMPI PUSH1 0x40 MLOAD PUSH3 0x461BCD PUSH1 0xE5 SHL DUP2 MSTORE PUSH1 0x20 PUSH1 0x4 DUP3 ADD MSTORE PUSH1 0x19 PUSH1 0x24 DUP3 ADD MSTORE PUSH32 0x496E76616C6964652052657761726444617461206C6973742E00000000000000 PUSH1 0x44 DUP3 ADD MSTORE PUSH1 0x64 ADD PUSH2 0x243 JUMP JUMPDEST PUSH1 0x2 DUP2 SWAP1 SSTORE PUSH1 0x0 JUMPDEST DUP3 MLOAD DUP2 LT ISZERO PUSH2 0xB56 JUMPI PUSH1 0x0 DUP1 DUP5 DUP4 DUP2 MLOAD DUP2 LT PUSH2 0x861 JUMPI PUSH2 0x861 PUSH2 0xFE4 JUMP JUMPDEST PUSH1 0x20 SWAP1 DUP2 MUL SWAP2 SWAP1 SWAP2 ADD DUP2 ADD MLOAD MLOAD DUP3 MSTORE DUP2 ADD SWAP2 SWAP1 SWAP2 MSTORE PUSH1 0x40 ADD PUSH1 0x0 KECCAK256 SLOAD PUSH1 0xFF AND ISZERO PUSH2 0xB44 JUMPI PUSH1 0x0 DUP1 PUSH1 0x1 PUSH1 0x1 PUSH1 0xA0 SHL SUB AND DUP5 DUP4 DUP2 MLOAD DUP2 LT PUSH2 0x8A3 JUMPI PUSH2 0x8A3 PUSH2 0xFE4 JUMP JUMPDEST PUSH1 0x20 MUL PUSH1 0x20 ADD ADD MLOAD PUSH1 0x20 ADD MLOAD PUSH1 0x1 PUSH1 0x1 PUSH1 0xA0 SHL SUB AND SUB PUSH2 0x96E JUMPI PUSH1 0x0 DUP5 DUP4 DUP2 MLOAD DUP2 LT PUSH2 0x8D1 JUMPI PUSH2 0x8D1 PUSH2 0xFE4 JUMP JUMPDEST PUSH1 0x20 MUL PUSH1 0x20 ADD ADD MLOAD PUSH1 0x40 ADD MLOAD PUSH1 0x1 PUSH1 0x1 PUSH1 0xA0 SHL SUB AND PUSH1 0x2 PUSH6 0x2BAF524C400 PUSH2 0x8F9 SWAP2 SWAP1 PUSH2 0xEFA JUMP JUMPDEST DUP7 DUP6 DUP2 MLOAD DUP2 LT PUSH2 0x90B JUMPI PUSH2 0x90B PUSH2 0xFE4 JUMP JUMPDEST PUSH1 0x20 MUL PUSH1 0x20 ADD ADD MLOAD PUSH1 0x60 ADD MLOAD PUSH2 0x921 SWAP2 SWAP1 PUSH2 0xEA0 JUMP JUMPDEST PUSH1 0x40 MLOAD PUSH1 0x0 DUP2 DUP2 DUP2 DUP6 DUP8 GAS CALL SWAP3 POP POP POP RETURNDATASIZE DUP1 PUSH1 0x0 DUP2 EQ PUSH2 0x95D JUMPI PUSH1 0x40 MLOAD SWAP2 POP PUSH1 0x1F NOT PUSH1 0x3F RETURNDATASIZE ADD AND DUP3 ADD PUSH1 0x40 MSTORE RETURNDATASIZE DUP3 MSTORE RETURNDATASIZE PUSH1 0x0 PUSH1 0x20 DUP5 ADD RETURNDATACOPY PUSH2 0x962 JUMP JUMPDEST PUSH1 0x60 SWAP2 POP JUMPDEST POP SWAP1 SWAP3 POP PUSH2 0xAE1 SWAP2 POP POP JUMP JUMPDEST PUSH1 0x0 DUP5 DUP4 DUP2 MLOAD DUP2 LT PUSH2 0x982 JUMPI PUSH2 0x982 PUSH2 0xFE4 JUMP JUMPDEST PUSH1 0x20 MUL PUSH1 0x20 ADD ADD MLOAD PUSH1 0x20 ADD MLOAD SWAP1 POP DUP1 PUSH1 0x1 PUSH1 0x1 PUSH1 0xA0 SHL SUB AND PUSH4 0xA9059CBB DUP7 DUP6 DUP2 MLOAD DUP2 LT PUSH2 0x9B1 JUMPI PUSH2 0x9B1 PUSH2 0xFE4 JUMP JUMPDEST PUSH1 0x20 MUL PUSH1 0x20 ADD ADD MLOAD PUSH1 0x40 ADD MLOAD DUP8 DUP7 DUP2 MLOAD DUP2 LT PUSH2 0x9CF JUMPI PUSH2 0x9CF PUSH2 0xFE4 JUMP JUMPDEST PUSH1 0x20 MUL PUSH1 0x20 ADD ADD MLOAD PUSH1 0x60 ADD MLOAD PUSH1 0x40 MLOAD DUP4 PUSH4 0xFFFFFFFF AND PUSH1 0xE0 SHL DUP2 MSTORE PUSH1 0x4 ADD PUSH2 0xA0C SWAP3 SWAP2 SWAP1 PUSH1 0x1 PUSH1 0x1 PUSH1 0xA0 SHL SUB SWAP3 SWAP1 SWAP3 AND DUP3 MSTORE PUSH1 0x20 DUP3 ADD MSTORE PUSH1 0x40 ADD SWAP1 JUMP JUMPDEST PUSH1 0x20 PUSH1 0x40 MLOAD DUP1 DUP4 SUB DUP2 PUSH1 0x0 DUP8 GAS CALL ISZERO DUP1 ISZERO PUSH2 0xA2B JUMPI RETURNDATASIZE PUSH1 0x0 DUP1 RETURNDATACOPY RETURNDATASIZE PUSH1 0x0 REVERT JUMPDEST POP POP POP POP PUSH1 0x40 MLOAD RETURNDATASIZE PUSH1 0x1F NOT PUSH1 0x1F DUP3 ADD AND DUP3 ADD DUP1 PUSH1 0x40 MSTORE POP DUP2 ADD SWAP1 PUSH2 0xA4F SWAP2 SWAP1 PUSH2 0xEB8 JUMP JUMPDEST SWAP2 POP PUSH1 0x0 DUP6 DUP5 DUP2 MLOAD DUP2 LT PUSH2 0xA65 JUMPI PUSH2 0xA65 PUSH2 0xFE4 JUMP JUMPDEST PUSH1 0x20 MUL PUSH1 0x20 ADD ADD MLOAD PUSH1 0x40 ADD MLOAD PUSH1 0x1 PUSH1 0x1 PUSH1 0xA0 SHL SUB AND PUSH1 0x2 PUSH6 0x2BAF524C400 PUSH2 0xA8D SWAP2 SWAP1 PUSH2 0xEFA JUMP JUMPDEST PUSH1 0x40 MLOAD PUSH1 0x0 DUP2 DUP2 DUP2 DUP6 DUP8 GAS CALL SWAP3 POP POP POP RETURNDATASIZE DUP1 PUSH1 0x0 DUP2 EQ PUSH2 0xAC9 JUMPI PUSH1 0x40 MLOAD SWAP2 POP PUSH1 0x1F NOT PUSH1 0x3F RETURNDATASIZE ADD AND DUP3 ADD PUSH1 0x40 MSTORE RETURNDATASIZE DUP3 MSTORE RETURNDATASIZE PUSH1 0x0 PUSH1 0x20 DUP5 ADD RETURNDATACOPY PUSH2 0xACE JUMP JUMPDEST PUSH1 0x60 SWAP2 POP JUMPDEST POP POP SWAP1 POP DUP3 DUP1 ISZERO PUSH2 0xADC JUMPI POP DUP1 JUMPDEST SWAP3 POP POP POP JUMPDEST PUSH32 0x6949409522B57DDD499E29E527EA6B74DF8D2F4F2993B0030BEE0FD0EAD7CA4A DUP5 DUP4 DUP2 MLOAD DUP2 LT PUSH2 0xB14 JUMPI PUSH2 0xB14 PUSH2 0xFE4 JUMP JUMPDEST PUSH1 0x20 MUL PUSH1 0x20 ADD ADD MLOAD PUSH1 0x0 ADD MLOAD DUP3 PUSH1 0x40 MLOAD PUSH2 0xB3A SWAP3 SWAP2 SWAP1 SWAP2 DUP3 MSTORE ISZERO ISZERO PUSH1 0x20 DUP3 ADD MSTORE PUSH1 0x40 ADD SWAP1 JUMP JUMPDEST PUSH1 0x40 MLOAD DUP1 SWAP2 SUB SWAP1 LOG1 POP JUMPDEST DUP1 PUSH2 0xB4E DUP2 PUSH2 0xEE1 JUMP JUMPDEST SWAP2 POP POP PUSH2 0x843 JUMP JUMPDEST POP POP POP JUMP JUMPDEST PUSH1 0x2 SLOAD PUSH1 0x0 SWAP1 DUP2 JUMPDEST DUP4 MLOAD DUP2 LT ISZERO PUSH2 0xC38 JUMPI PUSH1 0x2 DUP3 DUP6 DUP4 DUP2 MLOAD DUP2 LT PUSH2 0xB81 JUMPI PUSH2 0xB81 PUSH2 0xFE4 JUMP JUMPDEST PUSH1 0x20 SWAP1 DUP2 MUL SWAP2 SWAP1 SWAP2 ADD DUP2 ADD MLOAD PUSH1 0x40 DUP1 MLOAD DUP1 DUP5 ADD SWAP5 SWAP1 SWAP5 MSTORE DUP2 MLOAD DUP5 DUP3 ADD MSTORE SWAP2 DUP2 ADD MLOAD PUSH1 0x1 PUSH1 0x1 PUSH1 0xA0 SHL SUB SWAP1 DUP2 AND PUSH1 0x60 DUP1 DUP7 ADD SWAP2 SWAP1 SWAP2 MSTORE SWAP3 DUP3 ADD MLOAD AND PUSH1 0x80 DUP5 ADD MSTORE ADD MLOAD PUSH1 0xA0 DUP3 ADD MSTORE PUSH1 0xC0 ADD PUSH1 0x40 DUP1 MLOAD PUSH1 0x1F NOT DUP2 DUP5 SUB ADD DUP2 MSTORE SWAP1 DUP3 SWAP1 MSTORE PUSH2 0xBE4 SWAP2 PUSH2 0xF73 JUMP JUMPDEST PUSH1 0x20 PUSH1 0x40 MLOAD DUP1 DUP4 SUB DUP2 DUP6 GAS STATICCALL ISZERO DUP1 ISZERO PUSH2 0xC01 JUMPI RETURNDATASIZE PUSH1 0x0 DUP1 RETURNDATACOPY RETURNDATASIZE PUSH1 0x0 REVERT JUMPDEST POP POP POP PUSH1 0x40 MLOAD RETURNDATASIZE PUSH1 0x1F NOT PUSH1 0x1F DUP3 ADD AND DUP3 ADD DUP1 PUSH1 0x40 MSTORE POP DUP2 ADD SWAP1 PUSH2 0xC24 SWAP2 SWAP1 PUSH2 0xFAE JUMP JUMPDEST SWAP2 POP DUP1 PUSH2 0xC30 DUP2 PUSH2 0xEE1 JUMP JUMPDEST SWAP2 POP POP PUSH2 0xB63 JUMP JUMPDEST POP SWAP3 SWAP2 POP POP JUMP JUMPDEST PUSH1 0x0 PUSH1 0x20 DUP3 DUP5 SUB SLT ISZERO PUSH2 0xC51 JUMPI PUSH1 0x0 DUP1 REVERT JUMPDEST POP CALLDATALOAD SWAP2 SWAP1 POP JUMP JUMPDEST PUSH1 0x1 PUSH1 0x1 PUSH1 0xA0 SHL SUB DUP2 AND DUP2 EQ PUSH2 0xC6D JUMPI PUSH1 0x0 DUP1 REVERT JUMPDEST POP JUMP JUMPDEST PUSH1 0x0 DUP1 PUSH1 0x0 DUP1 PUSH1 0x0 PUSH1 0xA0 DUP7 DUP9 SUB SLT ISZERO PUSH2 0xC88 JUMPI PUSH1 0x0 DUP1 REVERT JUMPDEST DUP6 CALLDATALOAD PUSH2 0xC93 DUP2 PUSH2 0xC58 JUMP JUMPDEST SWAP5 POP PUSH1 0x20 DUP7 ADD CALLDATALOAD PUSH2 0xCA3 DUP2 PUSH2 0xC58 JUMP JUMPDEST SWAP5 SWAP8 SWAP5 SWAP7 POP POP POP POP PUSH1 0x40 DUP4 ADD CALLDATALOAD SWAP3 PUSH1 0x60 DUP2 ADD CALLDATALOAD SWAP3 PUSH1 0x80 SWAP1 SWAP2 ADD CALLDATALOAD SWAP2 POP JUMP JUMPDEST PUSH4 0x4E487B71 PUSH1 0xE0 SHL PUSH1 0x0 MSTORE PUSH1 0x41 PUSH1 0x4 MSTORE PUSH1 0x24 PUSH1 0x0 REVERT JUMPDEST PUSH1 0x40 MLOAD PUSH1 0x80 DUP2 ADD PUSH8 0xFFFFFFFFFFFFFFFF DUP2 GT DUP3 DUP3 LT OR ISZERO PUSH2 0xCFA JUMPI PUSH2 0xCFA PUSH2 0xCC1 JUMP JUMPDEST PUSH1 0x40 MSTORE SWAP1 JUMP JUMPDEST PUSH1 0x40 MLOAD PUSH1 0x1F DUP3 ADD PUSH1 0x1F NOT AND DUP2 ADD PUSH8 0xFFFFFFFFFFFFFFFF DUP2 GT DUP3 DUP3 LT OR ISZERO PUSH2 0xD29 JUMPI PUSH2 0xD29 PUSH2 0xCC1 JUMP JUMPDEST PUSH1 0x40 MSTORE SWAP2 SWAP1 POP JUMP JUMPDEST PUSH1 0x0 PUSH1 0x20 DUP1 DUP4 DUP6 SUB SLT ISZERO PUSH2 0xD44 JUMPI PUSH1 0x0 DUP1 REVERT JUMPDEST DUP3 CALLDATALOAD PUSH8 0xFFFFFFFFFFFFFFFF DUP1 DUP3 GT ISZERO PUSH2 0xD5C JUMPI PUSH1 0x0 DUP1 REVERT JUMPDEST DUP2 DUP6 ADD SWAP2 POP DUP6 PUSH1 0x1F DUP4 ADD SLT PUSH2 0xD70 JUMPI PUSH1 0x0 DUP1 REVERT JUMPDEST DUP2 CALLDATALOAD DUP2 DUP2 GT ISZERO PUSH2 0xD82 JUMPI PUSH2 0xD82 PUSH2 0xCC1 JUMP JUMPDEST PUSH2 0xD90 DUP5 DUP3 PUSH1 0x5 SHL ADD PUSH2 0xD00 JUMP JUMPDEST DUP2 DUP2 MSTORE DUP5 DUP2 ADD SWAP3 POP PUSH1 0x7 SWAP2 SWAP1 SWAP2 SHL DUP4 ADD DUP5 ADD SWAP1 DUP8 DUP3 GT ISZERO PUSH2 0xDB0 JUMPI PUSH1 0x0 DUP1 REVERT JUMPDEST SWAP3 DUP5 ADD SWAP3 JUMPDEST DUP2 DUP5 LT ISZERO PUSH2 0xE19 JUMPI PUSH1 0x80 DUP5 DUP10 SUB SLT ISZERO PUSH2 0xDCE JUMPI PUSH1 0x0 DUP1 DUP2 REVERT JUMPDEST PUSH2 0xDD6 PUSH2 0xCD7 JUMP JUMPDEST DUP5 CALLDATALOAD DUP2 MSTORE DUP6 DUP6 ADD CALLDATALOAD PUSH2 0xDE7 DUP2 PUSH2 0xC58 JUMP JUMPDEST DUP2 DUP8 ADD MSTORE PUSH1 0x40 DUP6 DUP2 ADD CALLDATALOAD PUSH2 0xDFA DUP2 PUSH2 0xC58 JUMP JUMPDEST SWAP1 DUP3 ADD MSTORE PUSH1 0x60 DUP6 DUP2 ADD CALLDATALOAD SWAP1 DUP3 ADD MSTORE DUP4 MSTORE PUSH1 0x80 SWAP1 SWAP4 ADD SWAP3 SWAP2 DUP5 ADD SWAP2 PUSH2 0xDB5 JUMP JUMPDEST SWAP8 SWAP7 POP POP POP POP POP POP POP JUMP JUMPDEST PUSH1 0x20 DUP1 DUP3 MSTORE PUSH1 0x27 SWAP1 DUP3 ADD MSTORE PUSH32 0x476F7665726E616E63653A20596F7520617265206E6F742074686520476F7665 PUSH1 0x40 DUP3 ADD MSTORE PUSH7 0x726E6F72212121 PUSH1 0xC8 SHL PUSH1 0x60 DUP3 ADD MSTORE PUSH1 0x80 ADD SWAP1 JUMP JUMPDEST PUSH4 0x4E487B71 PUSH1 0xE0 SHL PUSH1 0x0 MSTORE PUSH1 0x11 PUSH1 0x4 MSTORE PUSH1 0x24 PUSH1 0x0 REVERT JUMPDEST PUSH1 0x0 DUP2 PUSH1 0x0 NOT DIV DUP4 GT DUP3 ISZERO ISZERO AND ISZERO PUSH2 0xE9B JUMPI PUSH2 0xE9B PUSH2 0xE6B JUMP JUMPDEST POP MUL SWAP1 JUMP JUMPDEST PUSH1 0x0 DUP3 NOT DUP3 GT ISZERO PUSH2 0xEB3 JUMPI PUSH2 0xEB3 PUSH2 0xE6B JUMP JUMPDEST POP ADD SWAP1 JUMP JUMPDEST PUSH1 0x0 PUSH1 0x20 DUP3 DUP5 SUB SLT ISZERO PUSH2 0xECA JUMPI PUSH1 0x0 DUP1 REVERT JUMPDEST DUP2 MLOAD DUP1 ISZERO ISZERO DUP2 EQ PUSH2 0xEDA JUMPI PUSH1 0x0 DUP1 REVERT JUMPDEST SWAP4 SWAP3 POP POP POP JUMP JUMPDEST PUSH1 0x0 PUSH1 0x1 DUP3 ADD PUSH2 0xEF3 JUMPI PUSH2 0xEF3 PUSH2 0xE6B JUMP JUMPDEST POP PUSH1 0x1 ADD SWAP1 JUMP JUMPDEST PUSH1 0x0 DUP3 PUSH2 0xF17 JUMPI PUSH4 0x4E487B71 PUSH1 0xE0 SHL PUSH1 0x0 MSTORE PUSH1 0x12 PUSH1 0x4 MSTORE PUSH1 0x24 PUSH1 0x0 REVERT JUMPDEST POP DIV SWAP1 JUMP JUMPDEST DUP2 MLOAD PUSH1 0x1 PUSH1 0x1 PUSH1 0xA0 SHL SUB SWAP1 DUP2 AND DUP3 MSTORE PUSH1 0x20 DUP1 DUP5 ADD MLOAD SWAP1 SWAP2 AND SWAP1 DUP3 ADD MSTORE PUSH1 0x40 DUP1 DUP4 ADD MLOAD SWAP1 DUP3 ADD MSTORE PUSH1 0x60 DUP1 DUP4 ADD MLOAD SWAP1 DUP3 ADD MSTORE PUSH1 0x80 DUP1 DUP4 ADD MLOAD SWAP1 DUP3 ADD MSTORE PUSH1 0xA0 DUP3 DUP2 ADD MLOAD SWAP1 DUP3 ADD MSTORE PUSH1 0xC0 SWAP2 DUP3 ADD MLOAD SWAP2 DUP2 ADD SWAP2 SWAP1 SWAP2 MSTORE PUSH1 0xE0 ADD SWAP1 JUMP JUMPDEST PUSH1 0x0 DUP3 MLOAD PUSH1 0x0 JUMPDEST DUP2 DUP2 LT ISZERO PUSH2 0xF94 JUMPI PUSH1 0x20 DUP2 DUP7 ADD DUP2 ADD MLOAD DUP6 DUP4 ADD MSTORE ADD PUSH2 0xF7A JUMP JUMPDEST DUP2 DUP2 GT ISZERO PUSH2 0xFA3 JUMPI PUSH1 0x0 DUP3 DUP6 ADD MSTORE JUMPDEST POP SWAP2 SWAP1 SWAP2 ADD SWAP3 SWAP2 POP POP JUMP JUMPDEST PUSH1 0x0 PUSH1 0x20 DUP3 DUP5 SUB SLT ISZERO PUSH2 0xFC0 JUMPI PUSH1 0x0 DUP1 REVERT JUMPDEST POP MLOAD SWAP2 SWAP1 POP JUMP JUMPDEST PUSH1 0x0 PUSH1 0x20 DUP3 DUP5 SUB SLT ISZERO PUSH2 0xFD9 JUMPI PUSH1 0x0 DUP1 REVERT JUMPDEST DUP2 MLOAD PUSH2 0xEDA DUP2 PUSH2 0xC58 JUMP JUMPDEST PUSH4 0x4E487B71 PUSH1 0xE0 SHL PUSH1 0x0 MSTORE PUSH1 0x32 PUSH1 0x4 MSTORE PUSH1 0x24 PUSH1 0x0 REVERT INVALID LOG2 PUSH5 0x6970667358 0x22 SLT KECCAK256 REVERT 0x5C 0x24 SWAP11 PUSH31 0xFB9E235F8F5256CA2AE9E3BCFB90D13C352D630B211234B16C854064736F6C PUSH4 0x4300080D STOP CALLER ","sha1":"87b48bb1411dbdf46f10ce50d005f6a69fb904af","source":"//SPDX-License-Identifier: MIT\npragma solidity ^0.8.13;\n\nimport \"./deb/ERC20.sol\";\nimport \"./deb/ICrossDomainMessenger.sol\";\nimport \"./deb/StructLib.sol\";\n\n/// @title SourceDomainSideBridge Contract\n/// @author Sherif Abdelmoatty\n/// @notice This contract is to be deployed in the source rollup\ncontract SourceDomainSideBridge {\n\n    address constant ETHER_ADDRESS = 0x0000000000000000000000000000000000000000;\n    address constant ovmL2CrossDomainMessenger = 0x4200000000000000000000000000000000000007;  //ovmL2CrossDomainMessenger contract address(Optimism Kovan)\n\n    uint constant public CONTRACT_FEE_BASIS_POINTS = 5; //fee basis points\n    uint constant public FIXED_FEE = 3002 gwei;         //fixed fee - to discourage small transactions, and acts as a governance fee\n    uint constant public MAX_TRADE_LIMIT = 0.1 ether;   //max allowed tokens to be transfered\n\n    mapping(bytes32 => bool) public validTransferHashes; //mapping of valid transfer hashes\n    mapping(bytes32 => bool) public knownHashOnions;    //mapping of known hash onions\n    bytes32 processedRewardHashOnion;     //the last known hash onion\n    address l1DomainSideContractAddress;  //l1DomainSideContract deployed contract address on mainnet\n    uint256  currentNonce;                //the number of transfer created\n    address public governance;            //governance address - only to collect governance fees\n    uint256 governanceBalance;            //governance balance\n\n    event Transaction(StructLib.TransferData transferData);\n    event ClaimPayed(bytes32 transferDataHash, bool success);\n    event NewKnownHashOnionAdded(bytes32 newKnownHashOnions);\n    \n    /// @notice only allows a message from l1DomainSideBridge contract through the L2CrossDomainMessenger bridge\n    modifier onlyL1Contract(){\n        ICrossDomainMessenger l2cdm = ICrossDomainMessenger(ovmL2CrossDomainMessenger);\n        require(\n            msg.sender == address(ovmL2CrossDomainMessenger)\n            && l2cdm.xDomainMessageSender() == l1DomainSideContractAddress\n        );\n        _;\n    }\n\n    /// @notice onlyGovernance modifier \n    /// @notice allow only the Governor to access\n    modifier onlyGovernance {\n        require(msg.sender == governance, \"Governance: You are not the Governor!!!\");\n        _;\n    }\n\n    /// @param _l1DomainSideContractAddress is the address of the contract in etherium/kovan L1\n    constructor(address _l1DomainSideContractAddress){\n        l1DomainSideContractAddress = _l1DomainSideContractAddress;\n        governance = msg.sender;\n    }\n\n    /// @notice transfer the required funds plus fees to be sent to the current contract balance\n    /// @param _tokenAddress at destination rollup\n    /// @param _destination is reciever address at the destination rollup\n    /// @param _amount is amount to be transfered in kwei\n    /// @param _startTime is a blocknumber in the future that this transaction can only be executed after\n    /// @param _feeRampup will be multiplied by the fee ramp up if the LP claimed and sent the transfer by the startTime block, and will decrease by one for each block after that\n    /// @return the hash of the valid transfer\n    function transfer(address _tokenAddress, address _destination, uint256 _amount,\n        uint256  _startTime, uint256  _feeRampup) external payable returns(bytes32){\n        \n        uint256 fee = _amount * CONTRACT_FEE_BASIS_POINTS;\n        uint256 amountPlusFee = _amount * 1000 + fee;\n        \n        require(fee * _feeRampup < _amount * 1000, \"feeRampup maximum cost should be less than the total amount\");\n\n        if(_tokenAddress == ETHER_ADDRESS){\n            require(_amount* 1000 < MAX_TRADE_LIMIT, \"Amount higher than maximum trade limit\");\n            require(msg.value >= amountPlusFee + FIXED_FEE, \"No Suffecient ether\");\n        }else{\n            ERC20 token = ERC20(_tokenAddress);\n            token.transferFrom(msg.sender, address(this), amountPlusFee);\n            require(msg.value >= FIXED_FEE, \"No Suffecient ether for the fixed ether fee\");\n        }\n\n        StructLib.TransferData memory transferData;\n        transferData.tokenAddress = _tokenAddress;\n        transferData.destination = _destination;\n        transferData.amount = _amount * 1000;\n        transferData.fee = fee;\n        if(_startTime < block.number){\n            transferData.startTime = block.number;\n        }else{\n            transferData.startTime = _startTime;\n        }\n        transferData.feeRampup = _feeRampup;\n        transferData.nonce = currentNonce;\n\n        currentNonce++;\n        governanceBalance = governanceBalance + FIXED_FEE/2;\n\n        bytes32 transferDataHash = sha256(abi.encode(transferData));\n        \n        validTransferHashes[transferDataHash] = true;\n\n        emit Transaction(transferData);\n        \n        return transferDataHash;\n    }\n\n    /// @notice process the processClaims structs to be paid to the liquidity providers\n    /// @param _rewardData is an array of RewardData structs to be paid to liquidity providers(emitted by the destination contract)\n    function processClaims(StructLib.RewardData[] memory _rewardData) external payable {\n        bytes32 newProcessedRewardHashOnion = calculateNewProcessedRewardHashOnion(_rewardData);\n        require(knownHashOnions[newProcessedRewardHashOnion], \"Invalide RewardData list.\");\n        processedRewardHashOnion = newProcessedRewardHashOnion;\n        for(uint n = 0; n < _rewardData.length; n++) {\n            if(validTransferHashes[_rewardData[n].transferDataHash]){\n                bool success;\n                if(_rewardData[n].tokenAddress == ETHER_ADDRESS){\n                    (bool suc, ) = payable(_rewardData[n].claimer).call{value: _rewardData[n].amountPlusFee + FIXED_FEE/2}(\"\");\n                    success = suc;\n                }else{\n                    ERC20 token = ERC20(_rewardData[n].tokenAddress);\n                    success = token.transfer(_rewardData[n].claimer, _rewardData[n].amountPlusFee);\n\n                    (bool suc, ) = payable(_rewardData[n].claimer).call{value: FIXED_FEE/2}(\"\");\n\n                    success = success && suc;\n                }\n                emit ClaimPayed(_rewardData[n].transferDataHash, success);\n            }\n        }    \n    }\n\n    /// @notice this function is only called from the contract at the etherium L1\n    /// @notice through the rollup messenger contract to add a new known hash onion\n    function addNewKnownHashOnion(bytes32 _newKnownHashOnions) external onlyL1Contract{\n        knownHashOnions[_newKnownHashOnions] = true;\n        emit NewKnownHashOnionAdded(_newKnownHashOnions);\n    }\n\n    /// @notice get governance balance\n    /// @return governance balance\n    function GetGovernanceBalance() external view onlyGovernance returns(uint256){\n        return governanceBalance;\n    }\n\n    /// @notice collect governance fees\n    function collectGovernanceFixedFees() external onlyGovernance{\n        payable(governance).transfer(governanceBalance);\n        governanceBalance = 0;\n    }\n\n    /// @notice calculates the new hash onion\n    /// @param _rewardData is an array of RewardData structs to be paid to liquidity providers(emitted by the destination contract)\n    /// @return hash onion\n    function calculateNewProcessedRewardHashOnion(StructLib.RewardData[] memory _rewardData) private view returns (bytes32){\n        bytes32 newProcessedRewardHashOnion = processedRewardHashOnion;\n        for(uint n = 0; n < _rewardData.length; n++) {\n            newProcessedRewardHashOnion = \n                sha256(abi.encode(newProcessedRewardHashOnion,_rewardData[n]));\n        }\n        return newProcessedRewardHashOnion;\n    }\n}","sourcePath":"contracts/SourceDomainSideBridge.sol","type":"contract","deployment":{"address":"0xBb7D1032371486eef0A5e17Ff0279be14078F3E4","chainid":"69","blockHeight":3939210}}