{"abi":[{"inputs":[{"internalType":"address","name":"_l1DomainSideContractAddress","type":"address"}],"stateMutability":"nonpayable","type":"constructor","name":"constructor"},{"anonymous":false,"inputs":[{"components":[{"internalType":"address","name":"tokenAddress","type":"address"},{"internalType":"address","name":"destination","type":"address"},{"internalType":"uint256","name":"amount","type":"uint256"},{"internalType":"uint256","name":"fee","type":"uint256"},{"internalType":"uint256","name":"startTime","type":"uint256"},{"internalType":"uint256","name":"feeRampup","type":"uint256"},{"internalType":"uint256","name":"nonce","type":"uint256"}],"indexed":false,"internalType":"struct SourceDomainSideBridge.TransferData","name":"transferData","type":"tuple"}],"name":"Transaction","type":"event"},{"inputs":[{"internalType":"bytes32","name":"_newKnownHashOnions","type":"bytes32"}],"name":"addNewKnownHashOnion","outputs":[],"stateMutability":"nonpayable","type":"function"},{"inputs":[{"components":[{"internalType":"bytes32","name":"transferDataHash","type":"bytes32"},{"internalType":"address","name":"tokenAddress","type":"address"},{"internalType":"address","name":"claimer","type":"address"},{"internalType":"uint256","name":"fee","type":"uint256"}],"internalType":"struct SourceDomainSideBridge.RewardData[]","name":"_rewardData","type":"tuple[]"},{"components":[{"internalType":"address","name":"tokenAddress","type":"address"},{"internalType":"address","name":"destination","type":"address"},{"internalType":"uint256","name":"amount","type":"uint256"},{"internalType":"uint256","name":"fee","type":"uint256"},{"internalType":"uint256","name":"startTime","type":"uint256"},{"internalType":"uint256","name":"feeRampup","type":"uint256"},{"internalType":"uint256","name":"nonce","type":"uint256"}],"internalType":"struct SourceDomainSideBridge.TransferData[]","name":"_transferData","type":"tuple[]"}],"name":"processClaims","outputs":[],"stateMutability":"payable","type":"function"},{"inputs":[{"components":[{"internalType":"address","name":"tokenAddress","type":"address"},{"internalType":"address","name":"destination","type":"address"},{"internalType":"uint256","name":"amount","type":"uint256"},{"internalType":"uint256","name":"fee","type":"uint256"},{"internalType":"uint256","name":"startTime","type":"uint256"},{"internalType":"uint256","name":"feeRampup","type":"uint256"},{"internalType":"uint256","name":"nonce","type":"uint256"}],"internalType":"struct SourceDomainSideBridge.TransferData","name":"_transferData","type":"tuple"}],"name":"transfer","outputs":[{"internalType":"bytes32","name":"","type":"bytes32"}],"stateMutability":"payable","type":"function"}],"bytecode":"608060405234801561001057600080fd5b50604051610c90380380610c9083398101604081905261002f91610076565b600380547342000000000000000000000000000000000000076001600160a01b031991821617909155600480549091166001600160a01b03929092169190911790556100a6565b60006020828403121561008857600080fd5b81516001600160a01b038116811461009f57600080fd5b9392505050565b610bdb806100b56000396000f3fe6080604052600436106100345760003560e01c80634bf655fc14610039578063a9d72b021461005e578063edf5a2dc14610080575b600080fd5b61004c6100473660046108bd565b610093565b60405190815260200160405180910390f35b34801561006a57600080fd5b5061007e6100793660046108e0565b610323565b005b61007e61008e366004610992565b6103ed565b6000806100a360056103e8610aac565b83604001516100b29190610ac4565b83519091506001600160a01b031661012a57803410156101255760405162461bcd60e51b8152602060048201526024808201527f4572726f72203a204e6f6e2053756666656369656e742066756e6473212121216044820152632121212160e01b60648201526084015b60405180910390fd5b6101a6565b82516040516323b872dd60e01b8152336004820152306024820152604481018390526001600160a01b038216906323b872dd906064016020604051808303816000875af115801561017f573d6000803e3d6000fd5b505050506040513d601f19601f820116820180604052508101906101a39190610ae3565b50505b60006002846000015185602001518660400151876060015188608001518960a001518a60c001516040516020016102279796959493929190606097881b6bffffffffffffffffffffffff1990811682529690971b9095166014870152602886019390935260488501919091526068840152608883015260a882015260c80190565b60408051601f198184030181529082905261024191610b05565b602060405180830381855afa15801561025e573d6000803e3d6000fd5b5050506040513d601f19601f820116820180604052508101906102819190610b40565b60008181526020818152604091829020805460ff19166001179055815187516001600160a01b0390811682528883015116918101919091528682015191810191909152606080870151908201526080808701519082015260a0808701519082015260c080870151908201529091507fd8a86d1088d904bb6bf6291af6c7530b6ff4a8f6514c77a44c143331be826f899060e00160405180910390a19392505050565b6003546001600160a01b031633811480156103c55750600460009054906101000a90046001600160a01b03166001600160a01b0316816001600160a01b0316636e296e456040518163ffffffff1660e01b8152600401602060405180830381865afa158015610396573d6000803e3d6000fd5b505050506040513d601f19601f820116820180604052508101906103ba9190610b59565b6001600160a01b0316145b6103ce57600080fd5b506000908152600160208190526040909120805460ff19169091179055565b60006103f883610656565b60008181526001602052604090205490915060ff166104595760405162461bcd60e51b815260206004820152601960248201527f496e76616c6964652052657761726444617461206c6973742e00000000000000604482015260640161011c565b60005b835181101561064e5760008085838151811061047a5761047a610b76565b6020908102919091018101515182528101919091526040016000205460ff161561063c5760006001600160a01b03168482815181106104bb576104bb610b76565b6020026020010151602001516001600160a01b03160361055057836000815181106104e8576104e8610b76565b6020026020010151604001516001600160a01b03166108fc8560008151811061051357610513610b76565b6020026020010151606001519081150290604051600060405180830381858888f1935050505015801561054a573d6000803e3d6000fd5b5061063c565b600084828151811061056457610564610b76565b6020026020010151602001519050806001600160a01b03166323b872dd3087858151811061059457610594610b76565b6020026020010151604001518886815181106105b2576105b2610b76565b6020908102919091010151606001516040516001600160e01b031960e086901b1681526001600160a01b03938416600482015292909116602483015260448201526064016020604051808303816000875af1158015610615573d6000803e3d6000fd5b505050506040513d601f19601f820116820180604052508101906106399190610ae3565b50505b8061064681610b8c565b91505061045c565b506002555050565b600254600090815b83518110156107985760028285838151811061067c5761067c610b76565b60200260200101516000015186848151811061069a5761069a610b76565b6020026020010151602001518785815181106106b8576106b8610b76565b6020026020010151604001518886815181106106d6576106d6610b76565b60200260200101516060015160405160200161072a9594939291909485526020850193909352606091821b6bffffffffffffffffffffffff199081166040860152911b166054830152606882015260880190565b60408051601f198184030181529082905261074491610b05565b602060405180830381855afa158015610761573d6000803e3d6000fd5b5050506040513d601f19601f820116820180604052508101906107849190610b40565b91508061079081610b8c565b91505061065e565b5092915050565b634e487b7160e01b600052604160045260246000fd5b6040516080810167ffffffffffffffff811182821017156107d8576107d861079f565b60405290565b604051601f8201601f1916810167ffffffffffffffff811182821017156108075761080761079f565b604052919050565b6001600160a01b038116811461082457600080fd5b50565b600060e0828403121561083957600080fd5b60405160e0810181811067ffffffffffffffff8211171561085c5761085c61079f565b604052905080823561086d8161080f565b8152602083013561087d8161080f565b8060208301525060408301356040820152606083013560608201526080830135608082015260a083013560a082015260c083013560c08201525092915050565b600060e082840312156108cf57600080fd5b6108d98383610827565b9392505050565b6000602082840312156108f257600080fd5b5035919050565b600067ffffffffffffffff8211156109135761091361079f565b5060051b60200190565b600082601f83011261092e57600080fd5b8135602061094361093e836108f9565b6107de565b82815260e0928302850182019282820191908785111561096257600080fd5b8387015b85811015610985576109788982610827565b8452928401928101610966565b5090979650505050505050565b60008060408084860312156109a657600080fd5b833567ffffffffffffffff808211156109be57600080fd5b818601915086601f8301126109d257600080fd5b813560206109e261093e836108f9565b82815260079290921b8401810191818101908a841115610a0157600080fd5b948201945b83861015610a68576080868c031215610a1f5760008081fd5b610a276107b5565b8635815283870135610a388161080f565b8185015286880135610a498161080f565b8189015260608781013590820152825260809095019490820190610a06565b97505087013593505080831115610a7e57600080fd5b5050610a8c8582860161091d565b9150509250929050565b634e487b7160e01b600052601160045260246000fd5b60008219821115610abf57610abf610a96565b500190565b6000816000190483118215151615610ade57610ade610a96565b500290565b600060208284031215610af557600080fd5b815180151581146108d957600080fd5b6000825160005b81811015610b265760208186018101518583015201610b0c565b81811115610b35576000828501525b509190910192915050565b600060208284031215610b5257600080fd5b5051919050565b600060208284031215610b6b57600080fd5b81516108d98161080f565b634e487b7160e01b600052603260045260246000fd5b600060018201610b9e57610b9e610a96565b506001019056fea2646970667358221220cda992ea4a877863bb6ed7bf5f8fd4b166d4b304e5a2595b2d6de31c902c17f964736f6c634300080d0033","bytecodeSha1":"4014f8990ca8bb2bffe8bc187111caa1cadc7f19","compiler":{"evm_version":"istanbul","optimizer":{"enabled":true,"runs":200},"version":"0.8.13+commit.abaa5c0e"},"contractName":"SourceDomainSideBridge","language":"Solidity","natspec":{"author":"Sherif Abdelmoatty","kind":"dev","methods":{"addNewKnownHashOnion(bytes32)":{"notice":"processClaims functioncalculates the liquidity provider fee."},"constructor":{"notice":"Constructior functionIntialize variables"},"processClaims((bytes32,address,address,uint256)[],(address,address,uint256,uint256,uint256,uint256,uint256)[])":{"notice":"processClaims functioncalculates the liquidity provider fee."},"transfer((address,address,uint256,uint256,uint256,uint256,uint256))":{"notice":"withdraw functionwithdraws the required funds plus fees to be sent to the domain side rollup"}},"notice":"This contract is to be deployed in the source rollup","title":"SourceDomainSideBridge Contract","version":1},"opcodes":"PUSH1 0x80 PUSH1 0x40 MSTORE PUSH1 0x4 CALLDATASIZE LT PUSH2 0x34 JUMPI PUSH1 0x0 CALLDATALOAD PUSH1 0xE0 SHR DUP1 PUSH4 0x4BF655FC EQ PUSH2 0x39 JUMPI DUP1 PUSH4 0xA9D72B02 EQ PUSH2 0x5E JUMPI DUP1 PUSH4 0xEDF5A2DC EQ PUSH2 0x80 JUMPI JUMPDEST PUSH1 0x0 DUP1 REVERT JUMPDEST PUSH2 0x4C PUSH2 0x47 CALLDATASIZE PUSH1 0x4 PUSH2 0x8BD JUMP JUMPDEST PUSH2 0x93 JUMP JUMPDEST PUSH1 0x40 MLOAD SWAP1 DUP2 MSTORE PUSH1 0x20 ADD PUSH1 0x40 MLOAD DUP1 SWAP2 SUB SWAP1 RETURN JUMPDEST CALLVALUE DUP1 ISZERO PUSH2 0x6A JUMPI PUSH1 0x0 DUP1 REVERT JUMPDEST POP PUSH2 0x7E PUSH2 0x79 CALLDATASIZE PUSH1 0x4 PUSH2 0x8E0 JUMP JUMPDEST PUSH2 0x323 JUMP JUMPDEST STOP JUMPDEST PUSH2 0x7E PUSH2 0x8E CALLDATASIZE PUSH1 0x4 PUSH2 0x992 JUMP JUMPDEST PUSH2 0x3ED JUMP JUMPDEST PUSH1 0x0 DUP1 PUSH2 0xA3 PUSH1 0x5 PUSH2 0x3E8 PUSH2 0xAAC JUMP JUMPDEST DUP4 PUSH1 0x40 ADD MLOAD PUSH2 0xB2 SWAP2 SWAP1 PUSH2 0xAC4 JUMP JUMPDEST DUP4 MLOAD SWAP1 SWAP2 POP PUSH1 0x1 PUSH1 0x1 PUSH1 0xA0 SHL SUB AND PUSH2 0x12A JUMPI DUP1 CALLVALUE LT ISZERO PUSH2 0x125 JUMPI PUSH1 0x40 MLOAD PUSH3 0x461BCD PUSH1 0xE5 SHL DUP2 MSTORE PUSH1 0x20 PUSH1 0x4 DUP3 ADD MSTORE PUSH1 0x24 DUP1 DUP3 ADD MSTORE PUSH32 0x4572726F72203A204E6F6E2053756666656369656E742066756E647321212121 PUSH1 0x44 DUP3 ADD MSTORE PUSH4 0x21212121 PUSH1 0xE0 SHL PUSH1 0x64 DUP3 ADD MSTORE PUSH1 0x84 ADD JUMPDEST PUSH1 0x40 MLOAD DUP1 SWAP2 SUB SWAP1 REVERT JUMPDEST PUSH2 0x1A6 JUMP JUMPDEST DUP3 MLOAD PUSH1 0x40 MLOAD PUSH4 0x23B872DD PUSH1 0xE0 SHL DUP2 MSTORE CALLER PUSH1 0x4 DUP3 ADD MSTORE ADDRESS PUSH1 0x24 DUP3 ADD MSTORE PUSH1 0x44 DUP2 ADD DUP4 SWAP1 MSTORE PUSH1 0x1 PUSH1 0x1 PUSH1 0xA0 SHL SUB DUP3 AND SWAP1 PUSH4 0x23B872DD SWAP1 PUSH1 0x64 ADD PUSH1 0x20 PUSH1 0x40 MLOAD DUP1 DUP4 SUB DUP2 PUSH1 0x0 DUP8 GAS CALL ISZERO DUP1 ISZERO PUSH2 0x17F JUMPI RETURNDATASIZE PUSH1 0x0 DUP1 RETURNDATACOPY RETURNDATASIZE PUSH1 0x0 REVERT JUMPDEST POP POP POP POP PUSH1 0x40 MLOAD RETURNDATASIZE PUSH1 0x1F NOT PUSH1 0x1F DUP3 ADD AND DUP3 ADD DUP1 PUSH1 0x40 MSTORE POP DUP2 ADD SWAP1 PUSH2 0x1A3 SWAP2 SWAP1 PUSH2 0xAE3 JUMP JUMPDEST POP POP JUMPDEST PUSH1 0x0 PUSH1 0x2 DUP5 PUSH1 0x0 ADD MLOAD DUP6 PUSH1 0x20 ADD MLOAD DUP7 PUSH1 0x40 ADD MLOAD DUP8 PUSH1 0x60 ADD MLOAD DUP9 PUSH1 0x80 ADD MLOAD DUP10 PUSH1 0xA0 ADD MLOAD DUP11 PUSH1 0xC0 ADD MLOAD PUSH1 0x40 MLOAD PUSH1 0x20 ADD PUSH2 0x227 SWAP8 SWAP7 SWAP6 SWAP5 SWAP4 SWAP3 SWAP2 SWAP1 PUSH1 0x60 SWAP8 DUP9 SHL PUSH12 0xFFFFFFFFFFFFFFFFFFFFFFFF NOT SWAP1 DUP2 AND DUP3 MSTORE SWAP7 SWAP1 SWAP8 SHL SWAP1 SWAP6 AND PUSH1 0x14 DUP8 ADD MSTORE PUSH1 0x28 DUP7 ADD SWAP4 SWAP1 SWAP4 MSTORE PUSH1 0x48 DUP6 ADD SWAP2 SWAP1 SWAP2 MSTORE PUSH1 0x68 DUP5 ADD MSTORE PUSH1 0x88 DUP4 ADD MSTORE PUSH1 0xA8 DUP3 ADD MSTORE PUSH1 0xC8 ADD SWAP1 JUMP JUMPDEST PUSH1 0x40 DUP1 MLOAD PUSH1 0x1F NOT DUP2 DUP5 SUB ADD DUP2 MSTORE SWAP1 DUP3 SWAP1 MSTORE PUSH2 0x241 SWAP2 PUSH2 0xB05 JUMP JUMPDEST PUSH1 0x20 PUSH1 0x40 MLOAD DUP1 DUP4 SUB DUP2 DUP6 GAS STATICCALL ISZERO DUP1 ISZERO PUSH2 0x25E JUMPI RETURNDATASIZE PUSH1 0x0 DUP1 RETURNDATACOPY RETURNDATASIZE PUSH1 0x0 REVERT JUMPDEST POP POP POP PUSH1 0x40 MLOAD RETURNDATASIZE PUSH1 0x1F NOT PUSH1 0x1F DUP3 ADD AND DUP3 ADD DUP1 PUSH1 0x40 MSTORE POP DUP2 ADD SWAP1 PUSH2 0x281 SWAP2 SWAP1 PUSH2 0xB40 JUMP JUMPDEST PUSH1 0x0 DUP2 DUP2 MSTORE PUSH1 0x20 DUP2 DUP2 MSTORE PUSH1 0x40 SWAP2 DUP3 SWAP1 KECCAK256 DUP1 SLOAD PUSH1 0xFF NOT AND PUSH1 0x1 OR SWAP1 SSTORE DUP2 MLOAD DUP8 MLOAD PUSH1 0x1 PUSH1 0x1 PUSH1 0xA0 SHL SUB SWAP1 DUP2 AND DUP3 MSTORE DUP9 DUP4 ADD MLOAD AND SWAP2 DUP2 ADD SWAP2 SWAP1 SWAP2 MSTORE DUP7 DUP3 ADD MLOAD SWAP2 DUP2 ADD SWAP2 SWAP1 SWAP2 MSTORE PUSH1 0x60 DUP1 DUP8 ADD MLOAD SWAP1 DUP3 ADD MSTORE PUSH1 0x80 DUP1 DUP8 ADD MLOAD SWAP1 DUP3 ADD MSTORE PUSH1 0xA0 DUP1 DUP8 ADD MLOAD SWAP1 DUP3 ADD MSTORE PUSH1 0xC0 DUP1 DUP8 ADD MLOAD SWAP1 DUP3 ADD MSTORE SWAP1 SWAP2 POP PUSH32 0xD8A86D1088D904BB6BF6291AF6C7530B6FF4A8F6514C77A44C143331BE826F89 SWAP1 PUSH1 0xE0 ADD PUSH1 0x40 MLOAD DUP1 SWAP2 SUB SWAP1 LOG1 SWAP4 SWAP3 POP POP POP JUMP JUMPDEST PUSH1 0x3 SLOAD PUSH1 0x1 PUSH1 0x1 PUSH1 0xA0 SHL SUB AND CALLER DUP2 EQ DUP1 ISZERO PUSH2 0x3C5 JUMPI POP PUSH1 0x4 PUSH1 0x0 SWAP1 SLOAD SWAP1 PUSH2 0x100 EXP SWAP1 DIV PUSH1 0x1 PUSH1 0x1 PUSH1 0xA0 SHL SUB AND PUSH1 0x1 PUSH1 0x1 PUSH1 0xA0 SHL SUB AND DUP2 PUSH1 0x1 PUSH1 0x1 PUSH1 0xA0 SHL SUB AND PUSH4 0x6E296E45 PUSH1 0x40 MLOAD DUP2 PUSH4 0xFFFFFFFF AND PUSH1 0xE0 SHL DUP2 MSTORE PUSH1 0x4 ADD PUSH1 0x20 PUSH1 0x40 MLOAD DUP1 DUP4 SUB DUP2 DUP7 GAS STATICCALL ISZERO DUP1 ISZERO PUSH2 0x396 JUMPI RETURNDATASIZE PUSH1 0x0 DUP1 RETURNDATACOPY RETURNDATASIZE PUSH1 0x0 REVERT JUMPDEST POP POP POP POP PUSH1 0x40 MLOAD RETURNDATASIZE PUSH1 0x1F NOT PUSH1 0x1F DUP3 ADD AND DUP3 ADD DUP1 PUSH1 0x40 MSTORE POP DUP2 ADD SWAP1 PUSH2 0x3BA SWAP2 SWAP1 PUSH2 0xB59 JUMP JUMPDEST PUSH1 0x1 PUSH1 0x1 PUSH1 0xA0 SHL SUB AND EQ JUMPDEST PUSH2 0x3CE JUMPI PUSH1 0x0 DUP1 REVERT JUMPDEST POP PUSH1 0x0 SWAP1 DUP2 MSTORE PUSH1 0x1 PUSH1 0x20 DUP2 SWAP1 MSTORE PUSH1 0x40 SWAP1 SWAP2 KECCAK256 DUP1 SLOAD PUSH1 0xFF NOT AND SWAP1 SWAP2 OR SWAP1 SSTORE JUMP JUMPDEST PUSH1 0x0 PUSH2 0x3F8 DUP4 PUSH2 0x656 JUMP JUMPDEST PUSH1 0x0 DUP2 DUP2 MSTORE PUSH1 0x1 PUSH1 0x20 MSTORE PUSH1 0x40 SWAP1 KECCAK256 SLOAD SWAP1 SWAP2 POP PUSH1 0xFF AND PUSH2 0x459 JUMPI PUSH1 0x40 MLOAD PUSH3 0x461BCD PUSH1 0xE5 SHL DUP2 MSTORE PUSH1 0x20 PUSH1 0x4 DUP3 ADD MSTORE PUSH1 0x19 PUSH1 0x24 DUP3 ADD MSTORE PUSH32 0x496E76616C6964652052657761726444617461206C6973742E00000000000000 PUSH1 0x44 DUP3 ADD MSTORE PUSH1 0x64 ADD PUSH2 0x11C JUMP JUMPDEST PUSH1 0x0 JUMPDEST DUP4 MLOAD DUP2 LT ISZERO PUSH2 0x64E JUMPI PUSH1 0x0 DUP1 DUP6 DUP4 DUP2 MLOAD DUP2 LT PUSH2 0x47A JUMPI PUSH2 0x47A PUSH2 0xB76 JUMP JUMPDEST PUSH1 0x20 SWAP1 DUP2 MUL SWAP2 SWAP1 SWAP2 ADD DUP2 ADD MLOAD MLOAD DUP3 MSTORE DUP2 ADD SWAP2 SWAP1 SWAP2 MSTORE PUSH1 0x40 ADD PUSH1 0x0 KECCAK256 SLOAD PUSH1 0xFF AND ISZERO PUSH2 0x63C JUMPI PUSH1 0x0 PUSH1 0x1 PUSH1 0x1 PUSH1 0xA0 SHL SUB AND DUP5 DUP3 DUP2 MLOAD DUP2 LT PUSH2 0x4BB JUMPI PUSH2 0x4BB PUSH2 0xB76 JUMP JUMPDEST PUSH1 0x20 MUL PUSH1 0x20 ADD ADD MLOAD PUSH1 0x20 ADD MLOAD PUSH1 0x1 PUSH1 0x1 PUSH1 0xA0 SHL SUB AND SUB PUSH2 0x550 JUMPI DUP4 PUSH1 0x0 DUP2 MLOAD DUP2 LT PUSH2 0x4E8 JUMPI PUSH2 0x4E8 PUSH2 0xB76 JUMP JUMPDEST PUSH1 0x20 MUL PUSH1 0x20 ADD ADD MLOAD PUSH1 0x40 ADD MLOAD PUSH1 0x1 PUSH1 0x1 PUSH1 0xA0 SHL SUB AND PUSH2 0x8FC DUP6 PUSH1 0x0 DUP2 MLOAD DUP2 LT PUSH2 0x513 JUMPI PUSH2 0x513 PUSH2 0xB76 JUMP JUMPDEST PUSH1 0x20 MUL PUSH1 0x20 ADD ADD MLOAD PUSH1 0x60 ADD MLOAD SWAP1 DUP2 ISZERO MUL SWAP1 PUSH1 0x40 MLOAD PUSH1 0x0 PUSH1 0x40 MLOAD DUP1 DUP4 SUB DUP2 DUP6 DUP9 DUP9 CALL SWAP4 POP POP POP POP ISZERO DUP1 ISZERO PUSH2 0x54A JUMPI RETURNDATASIZE PUSH1 0x0 DUP1 RETURNDATACOPY RETURNDATASIZE PUSH1 0x0 REVERT JUMPDEST POP PUSH2 0x63C JUMP JUMPDEST PUSH1 0x0 DUP5 DUP3 DUP2 MLOAD DUP2 LT PUSH2 0x564 JUMPI PUSH2 0x564 PUSH2 0xB76 JUMP JUMPDEST PUSH1 0x20 MUL PUSH1 0x20 ADD ADD MLOAD PUSH1 0x20 ADD MLOAD SWAP1 POP DUP1 PUSH1 0x1 PUSH1 0x1 PUSH1 0xA0 SHL SUB AND PUSH4 0x23B872DD ADDRESS DUP8 DUP6 DUP2 MLOAD DUP2 LT PUSH2 0x594 JUMPI PUSH2 0x594 PUSH2 0xB76 JUMP JUMPDEST PUSH1 0x20 MUL PUSH1 0x20 ADD ADD MLOAD PUSH1 0x40 ADD MLOAD DUP9 DUP7 DUP2 MLOAD DUP2 LT PUSH2 0x5B2 JUMPI PUSH2 0x5B2 PUSH2 0xB76 JUMP JUMPDEST PUSH1 0x20 SWAP1 DUP2 MUL SWAP2 SWAP1 SWAP2 ADD ADD MLOAD PUSH1 0x60 ADD MLOAD PUSH1 0x40 MLOAD PUSH1 0x1 PUSH1 0x1 PUSH1 0xE0 SHL SUB NOT PUSH1 0xE0 DUP7 SWAP1 SHL AND DUP2 MSTORE PUSH1 0x1 PUSH1 0x1 PUSH1 0xA0 SHL SUB SWAP4 DUP5 AND PUSH1 0x4 DUP3 ADD MSTORE SWAP3 SWAP1 SWAP2 AND PUSH1 0x24 DUP4 ADD MSTORE PUSH1 0x44 DUP3 ADD MSTORE PUSH1 0x64 ADD PUSH1 0x20 PUSH1 0x40 MLOAD DUP1 DUP4 SUB DUP2 PUSH1 0x0 DUP8 GAS CALL ISZERO DUP1 ISZERO PUSH2 0x615 JUMPI RETURNDATASIZE PUSH1 0x0 DUP1 RETURNDATACOPY RETURNDATASIZE PUSH1 0x0 REVERT JUMPDEST POP POP POP POP PUSH1 0x40 MLOAD RETURNDATASIZE PUSH1 0x1F NOT PUSH1 0x1F DUP3 ADD AND DUP3 ADD DUP1 PUSH1 0x40 MSTORE POP DUP2 ADD SWAP1 PUSH2 0x639 SWAP2 SWAP1 PUSH2 0xAE3 JUMP JUMPDEST POP POP JUMPDEST DUP1 PUSH2 0x646 DUP2 PUSH2 0xB8C JUMP JUMPDEST SWAP2 POP POP PUSH2 0x45C JUMP JUMPDEST POP PUSH1 0x2 SSTORE POP POP JUMP JUMPDEST PUSH1 0x2 SLOAD PUSH1 0x0 SWAP1 DUP2 JUMPDEST DUP4 MLOAD DUP2 LT ISZERO PUSH2 0x798 JUMPI PUSH1 0x2 DUP3 DUP6 DUP4 DUP2 MLOAD DUP2 LT PUSH2 0x67C JUMPI PUSH2 0x67C PUSH2 0xB76 JUMP JUMPDEST PUSH1 0x20 MUL PUSH1 0x20 ADD ADD MLOAD PUSH1 0x0 ADD MLOAD DUP7 DUP5 DUP2 MLOAD DUP2 LT PUSH2 0x69A JUMPI PUSH2 0x69A PUSH2 0xB76 JUMP JUMPDEST PUSH1 0x20 MUL PUSH1 0x20 ADD ADD MLOAD PUSH1 0x20 ADD MLOAD DUP8 DUP6 DUP2 MLOAD DUP2 LT PUSH2 0x6B8 JUMPI PUSH2 0x6B8 PUSH2 0xB76 JUMP JUMPDEST PUSH1 0x20 MUL PUSH1 0x20 ADD ADD MLOAD PUSH1 0x40 ADD MLOAD DUP9 DUP7 DUP2 MLOAD DUP2 LT PUSH2 0x6D6 JUMPI PUSH2 0x6D6 PUSH2 0xB76 JUMP JUMPDEST PUSH1 0x20 MUL PUSH1 0x20 ADD ADD MLOAD PUSH1 0x60 ADD MLOAD PUSH1 0x40 MLOAD PUSH1 0x20 ADD PUSH2 0x72A SWAP6 SWAP5 SWAP4 SWAP3 SWAP2 SWAP1 SWAP5 DUP6 MSTORE PUSH1 0x20 DUP6 ADD SWAP4 SWAP1 SWAP4 MSTORE PUSH1 0x60 SWAP2 DUP3 SHL PUSH12 0xFFFFFFFFFFFFFFFFFFFFFFFF NOT SWAP1 DUP2 AND PUSH1 0x40 DUP7 ADD MSTORE SWAP2 SHL AND PUSH1 0x54 DUP4 ADD MSTORE PUSH1 0x68 DUP3 ADD MSTORE PUSH1 0x88 ADD SWAP1 JUMP JUMPDEST PUSH1 0x40 DUP1 MLOAD PUSH1 0x1F NOT DUP2 DUP5 SUB ADD DUP2 MSTORE SWAP1 DUP3 SWAP1 MSTORE PUSH2 0x744 SWAP2 PUSH2 0xB05 JUMP JUMPDEST PUSH1 0x20 PUSH1 0x40 MLOAD DUP1 DUP4 SUB DUP2 DUP6 GAS STATICCALL ISZERO DUP1 ISZERO PUSH2 0x761 JUMPI RETURNDATASIZE PUSH1 0x0 DUP1 RETURNDATACOPY RETURNDATASIZE PUSH1 0x0 REVERT JUMPDEST POP POP POP PUSH1 0x40 MLOAD RETURNDATASIZE PUSH1 0x1F NOT PUSH1 0x1F DUP3 ADD AND DUP3 ADD DUP1 PUSH1 0x40 MSTORE POP DUP2 ADD SWAP1 PUSH2 0x784 SWAP2 SWAP1 PUSH2 0xB40 JUMP JUMPDEST SWAP2 POP DUP1 PUSH2 0x790 DUP2 PUSH2 0xB8C JUMP JUMPDEST SWAP2 POP POP PUSH2 0x65E JUMP JUMPDEST POP SWAP3 SWAP2 POP POP JUMP JUMPDEST PUSH4 0x4E487B71 PUSH1 0xE0 SHL PUSH1 0x0 MSTORE PUSH1 0x41 PUSH1 0x4 MSTORE PUSH1 0x24 PUSH1 0x0 REVERT JUMPDEST PUSH1 0x40 MLOAD PUSH1 0x80 DUP2 ADD PUSH8 0xFFFFFFFFFFFFFFFF DUP2 GT DUP3 DUP3 LT OR ISZERO PUSH2 0x7D8 JUMPI PUSH2 0x7D8 PUSH2 0x79F JUMP JUMPDEST PUSH1 0x40 MSTORE SWAP1 JUMP JUMPDEST PUSH1 0x40 MLOAD PUSH1 0x1F DUP3 ADD PUSH1 0x1F NOT AND DUP2 ADD PUSH8 0xFFFFFFFFFFFFFFFF DUP2 GT DUP3 DUP3 LT OR ISZERO PUSH2 0x807 JUMPI PUSH2 0x807 PUSH2 0x79F JUMP JUMPDEST PUSH1 0x40 MSTORE SWAP2 SWAP1 POP JUMP JUMPDEST PUSH1 0x1 PUSH1 0x1 PUSH1 0xA0 SHL SUB DUP2 AND DUP2 EQ PUSH2 0x824 JUMPI PUSH1 0x0 DUP1 REVERT JUMPDEST POP JUMP JUMPDEST PUSH1 0x0 PUSH1 0xE0 DUP3 DUP5 SUB SLT ISZERO PUSH2 0x839 JUMPI PUSH1 0x0 DUP1 REVERT JUMPDEST PUSH1 0x40 MLOAD PUSH1 0xE0 DUP2 ADD DUP2 DUP2 LT PUSH8 0xFFFFFFFFFFFFFFFF DUP3 GT OR ISZERO PUSH2 0x85C JUMPI PUSH2 0x85C PUSH2 0x79F JUMP JUMPDEST PUSH1 0x40 MSTORE SWAP1 POP DUP1 DUP3 CALLDATALOAD PUSH2 0x86D DUP2 PUSH2 0x80F JUMP JUMPDEST DUP2 MSTORE PUSH1 0x20 DUP4 ADD CALLDATALOAD PUSH2 0x87D DUP2 PUSH2 0x80F JUMP JUMPDEST DUP1 PUSH1 0x20 DUP4 ADD MSTORE POP PUSH1 0x40 DUP4 ADD CALLDATALOAD PUSH1 0x40 DUP3 ADD MSTORE PUSH1 0x60 DUP4 ADD CALLDATALOAD PUSH1 0x60 DUP3 ADD MSTORE PUSH1 0x80 DUP4 ADD CALLDATALOAD PUSH1 0x80 DUP3 ADD MSTORE PUSH1 0xA0 DUP4 ADD CALLDATALOAD PUSH1 0xA0 DUP3 ADD MSTORE PUSH1 0xC0 DUP4 ADD CALLDATALOAD PUSH1 0xC0 DUP3 ADD MSTORE POP SWAP3 SWAP2 POP POP JUMP JUMPDEST PUSH1 0x0 PUSH1 0xE0 DUP3 DUP5 SUB SLT ISZERO PUSH2 0x8CF JUMPI PUSH1 0x0 DUP1 REVERT JUMPDEST PUSH2 0x8D9 DUP4 DUP4 PUSH2 0x827 JUMP JUMPDEST SWAP4 SWAP3 POP POP POP JUMP JUMPDEST PUSH1 0x0 PUSH1 0x20 DUP3 DUP5 SUB SLT ISZERO PUSH2 0x8F2 JUMPI PUSH1 0x0 DUP1 REVERT JUMPDEST POP CALLDATALOAD SWAP2 SWAP1 POP JUMP JUMPDEST PUSH1 0x0 PUSH8 0xFFFFFFFFFFFFFFFF DUP3 GT ISZERO PUSH2 0x913 JUMPI PUSH2 0x913 PUSH2 0x79F JUMP JUMPDEST POP PUSH1 0x5 SHL PUSH1 0x20 ADD SWAP1 JUMP JUMPDEST PUSH1 0x0 DUP3 PUSH1 0x1F DUP4 ADD SLT PUSH2 0x92E JUMPI PUSH1 0x0 DUP1 REVERT JUMPDEST DUP2 CALLDATALOAD PUSH1 0x20 PUSH2 0x943 PUSH2 0x93E DUP4 PUSH2 0x8F9 JUMP JUMPDEST PUSH2 0x7DE JUMP JUMPDEST DUP3 DUP2 MSTORE PUSH1 0xE0 SWAP3 DUP4 MUL DUP6 ADD DUP3 ADD SWAP3 DUP3 DUP3 ADD SWAP2 SWAP1 DUP8 DUP6 GT ISZERO PUSH2 0x962 JUMPI PUSH1 0x0 DUP1 REVERT JUMPDEST DUP4 DUP8 ADD JUMPDEST DUP6 DUP2 LT ISZERO PUSH2 0x985 JUMPI PUSH2 0x978 DUP10 DUP3 PUSH2 0x827 JUMP JUMPDEST DUP5 MSTORE SWAP3 DUP5 ADD SWAP3 DUP2 ADD PUSH2 0x966 JUMP JUMPDEST POP SWAP1 SWAP8 SWAP7 POP POP POP POP POP POP POP JUMP JUMPDEST PUSH1 0x0 DUP1 PUSH1 0x40 DUP1 DUP5 DUP7 SUB SLT ISZERO PUSH2 0x9A6 JUMPI PUSH1 0x0 DUP1 REVERT JUMPDEST DUP4 CALLDATALOAD PUSH8 0xFFFFFFFFFFFFFFFF DUP1 DUP3 GT ISZERO PUSH2 0x9BE JUMPI PUSH1 0x0 DUP1 REVERT JUMPDEST DUP2 DUP7 ADD SWAP2 POP DUP7 PUSH1 0x1F DUP4 ADD SLT PUSH2 0x9D2 JUMPI PUSH1 0x0 DUP1 REVERT JUMPDEST DUP2 CALLDATALOAD PUSH1 0x20 PUSH2 0x9E2 PUSH2 0x93E DUP4 PUSH2 0x8F9 JUMP JUMPDEST DUP3 DUP2 MSTORE PUSH1 0x7 SWAP3 SWAP1 SWAP3 SHL DUP5 ADD DUP2 ADD SWAP2 DUP2 DUP2 ADD SWAP1 DUP11 DUP5 GT ISZERO PUSH2 0xA01 JUMPI PUSH1 0x0 DUP1 REVERT JUMPDEST SWAP5 DUP3 ADD SWAP5 JUMPDEST DUP4 DUP7 LT ISZERO PUSH2 0xA68 JUMPI PUSH1 0x80 DUP7 DUP13 SUB SLT ISZERO PUSH2 0xA1F JUMPI PUSH1 0x0 DUP1 DUP2 REVERT JUMPDEST PUSH2 0xA27 PUSH2 0x7B5 JUMP JUMPDEST DUP7 CALLDATALOAD DUP2 MSTORE DUP4 DUP8 ADD CALLDATALOAD PUSH2 0xA38 DUP2 PUSH2 0x80F JUMP JUMPDEST DUP2 DUP6 ADD MSTORE DUP7 DUP9 ADD CALLDATALOAD PUSH2 0xA49 DUP2 PUSH2 0x80F JUMP JUMPDEST DUP2 DUP10 ADD MSTORE PUSH1 0x60 DUP8 DUP2 ADD CALLDATALOAD SWAP1 DUP3 ADD MSTORE DUP3 MSTORE PUSH1 0x80 SWAP1 SWAP6 ADD SWAP5 SWAP1 DUP3 ADD SWAP1 PUSH2 0xA06 JUMP JUMPDEST SWAP8 POP POP DUP8 ADD CALLDATALOAD SWAP4 POP POP DUP1 DUP4 GT ISZERO PUSH2 0xA7E JUMPI PUSH1 0x0 DUP1 REVERT JUMPDEST POP POP PUSH2 0xA8C DUP6 DUP3 DUP7 ADD PUSH2 0x91D JUMP JUMPDEST SWAP2 POP POP SWAP3 POP SWAP3 SWAP1 POP JUMP JUMPDEST PUSH4 0x4E487B71 PUSH1 0xE0 SHL PUSH1 0x0 MSTORE PUSH1 0x11 PUSH1 0x4 MSTORE PUSH1 0x24 PUSH1 0x0 REVERT JUMPDEST PUSH1 0x0 DUP3 NOT DUP3 GT ISZERO PUSH2 0xABF JUMPI PUSH2 0xABF PUSH2 0xA96 JUMP JUMPDEST POP ADD SWAP1 JUMP JUMPDEST PUSH1 0x0 DUP2 PUSH1 0x0 NOT DIV DUP4 GT DUP3 ISZERO ISZERO AND ISZERO PUSH2 0xADE JUMPI PUSH2 0xADE PUSH2 0xA96 JUMP JUMPDEST POP MUL SWAP1 JUMP JUMPDEST PUSH1 0x0 PUSH1 0x20 DUP3 DUP5 SUB SLT ISZERO PUSH2 0xAF5 JUMPI PUSH1 0x0 DUP1 REVERT JUMPDEST DUP2 MLOAD DUP1 ISZERO ISZERO DUP2 EQ PUSH2 0x8D9 JUMPI PUSH1 0x0 DUP1 REVERT JUMPDEST PUSH1 0x0 DUP3 MLOAD PUSH1 0x0 JUMPDEST DUP2 DUP2 LT ISZERO PUSH2 0xB26 JUMPI PUSH1 0x20 DUP2 DUP7 ADD DUP2 ADD MLOAD DUP6 DUP4 ADD MSTORE ADD PUSH2 0xB0C JUMP JUMPDEST DUP2 DUP2 GT ISZERO PUSH2 0xB35 JUMPI PUSH1 0x0 DUP3 DUP6 ADD MSTORE JUMPDEST POP SWAP2 SWAP1 SWAP2 ADD SWAP3 SWAP2 POP POP JUMP JUMPDEST PUSH1 0x0 PUSH1 0x20 DUP3 DUP5 SUB SLT ISZERO PUSH2 0xB52 JUMPI PUSH1 0x0 DUP1 REVERT JUMPDEST POP MLOAD SWAP2 SWAP1 POP JUMP JUMPDEST PUSH1 0x0 PUSH1 0x20 DUP3 DUP5 SUB SLT ISZERO PUSH2 0xB6B JUMPI PUSH1 0x0 DUP1 REVERT JUMPDEST DUP2 MLOAD PUSH2 0x8D9 DUP2 PUSH2 0x80F JUMP JUMPDEST PUSH4 0x4E487B71 PUSH1 0xE0 SHL PUSH1 0x0 MSTORE PUSH1 0x32 PUSH1 0x4 MSTORE PUSH1 0x24 PUSH1 0x0 REVERT JUMPDEST PUSH1 0x0 PUSH1 0x1 DUP3 ADD PUSH2 0xB9E JUMPI PUSH2 0xB9E PUSH2 0xA96 JUMP JUMPDEST POP PUSH1 0x1 ADD SWAP1 JUMP INVALID LOG2 PUSH5 0x6970667358 0x22 SLT KECCAK256 0xCD 0xA9 SWAP3 0xEA 0x4A DUP8 PUSH25 0x63BB6ED7BF5F8FD4B166D4B304E5A2595B2D6DE31C902C17F9 PUSH5 0x736F6C6343 STOP ADDMOD 0xD STOP CALLER ","sha1":"d6bf763c3f8bd46f917b3cb97aca62cbd10505ca","source":"//SPDX-License-Identifier: MIT\npragma solidity ^0.8.9;\n\nimport \"@openzeppelin/contracts/token/ERC20/ERC20.sol\";\nimport \"./deb/optimism/contracts/libraries/bridge/ICrossDomainMessenger.sol\";\n\n/// @title SourceDomainSideBridge Contract\n/// @author Sherif Abdelmoatty\n/// @notice This contract is to be deployed in the source rollup\ncontract SourceDomainSideBridge {\n    \n    uint constant CONTRACT_FEE_BASIS_POINTS = 5;\n    address constant ETHER_ADDRESS = 0x0000000000000000000000000000000000000000;\n\n    struct TransferData {\n        address  tokenAddress; \n        address  destination;\n        uint256  amount;\n        uint256  fee;\n        uint256  startTime;\n        uint256  feeRampup;\n        uint256  nonce;\n    }\n    struct RewardData {\n        bytes32  transferDataHash;\n        address  tokenAddress; \n        address  claimer;\n        uint256  fee;\n    }\n    mapping(bytes32 => bool) validTransferHashes;\n    mapping(bytes32 => bool) knownHashOnions;\n    bytes32 processedRewardHashOnion;\n    \n    address ovmL2CrossDomainMessenger;  //ovmL2CrossDomainMessenger contract address(Optimism)\n    address l1DomainSideContractAddress;  //l1DomainSideContract deployed contract address on mainnet\n\n    event Transaction(TransferData transferData);\n    \n    /// @notice onlyL1Contract modifier\n    /// @notice only allows a message from l1DomainSideBridge contract through the L2CrossDomainMessenger bridge\n    /// @notice to call the approveStateRoot function\n    modifier onlyL1Contract() {\n        ICrossDomainMessenger l2cdm = ICrossDomainMessenger(ovmL2CrossDomainMessenger);\n        require(\n            msg.sender == address(ovmL2CrossDomainMessenger)\n            && l2cdm.xDomainMessageSender() == l1DomainSideContractAddress\n        );\n        _;\n    }\n\n    /// @notice Constructior function\n    /// @notice Intialize variables\n    constructor(address _l1DomainSideContractAddress){\n        ovmL2CrossDomainMessenger = 0x4200000000000000000000000000000000000007;\n        l1DomainSideContractAddress = _l1DomainSideContractAddress;\n    }\n\n    /// @notice withdraw function\n    /// @notice withdraws the required funds plus fees to be sent \n    /// @notice to the domain side rollup\n    function transfer(TransferData memory _transferData) external payable returns(bytes32){\n\n        uint256 amountPlusFee = _transferData.amount * (1000 + CONTRACT_FEE_BASIS_POINTS);\n        \n        if(_transferData.tokenAddress == ETHER_ADDRESS){\n            require(msg.value >= amountPlusFee, \"Error : Non Suffecient funds!!!!!!!!\");\n        }else{\n            ERC20 token = ERC20(_transferData.tokenAddress);\n            token.transferFrom(msg.sender, address(this), amountPlusFee);\n        }\n        \n        bytes32 transferDataHash = sha256(abi.encodePacked(\n            _transferData.tokenAddress,\n            _transferData.destination,\n            _transferData.amount,\n            _transferData.fee,\n            _transferData.startTime,\n            _transferData.feeRampup,\n            _transferData.nonce));\n        validTransferHashes[transferDataHash] = true;\n\n        emit Transaction(_transferData);\n        \n        return transferDataHash;\n    }\n\n    /// @notice processClaims function\n    /// @notice calculates the liquidity provider fee.\n    function processClaims(RewardData[] memory _rewardData, TransferData[] memory _transferData) external payable {\n        bytes32 newProcessedRewardHashOnion = calculateNewProcessedRewardHashOnion(_rewardData);\n        require(knownHashOnions[newProcessedRewardHashOnion], \"Invalide RewardData list.\");\n        for(uint n = 0; n < _rewardData.length; n++) {\n            if(validTransferHashes[_rewardData[n].transferDataHash]){\n                if(_rewardData[n].tokenAddress == ETHER_ADDRESS){\n                    payable(_rewardData[0].claimer).transfer(_rewardData[0].fee);\n                }else{\n                    ERC20 token = ERC20(_rewardData[n].tokenAddress);\n                    token.transferFrom(address(this), _rewardData[n].claimer,\n                        _rewardData[n].fee);\n                }\n            }\n        }\n        processedRewardHashOnion = newProcessedRewardHashOnion;\n    }\n\n    /// @notice processClaims function\n    /// @notice calculates the liquidity provider fee.\n    function calculateNewProcessedRewardHashOnion(RewardData[] memory _rewardData) private returns (bytes32){\n        bytes32 newProcessedRewardHashOnion = processedRewardHashOnion;\n        for(uint n = 0; n < _rewardData.length; n++) {\n            newProcessedRewardHashOnion = sha256(abi.encodePacked(newProcessedRewardHashOnion,\n                 _rewardData[n].transferDataHash,\n                 _rewardData[n].tokenAddress,\n                 _rewardData[n].claimer,\n                 _rewardData[n].fee\n                 ));\n        }\n        return newProcessedRewardHashOnion;\n    }\n\n    /// @notice processClaims function\n    /// @notice calculates the liquidity provider fee.\n    function addNewKnownHashOnion(bytes32 _newKnownHashOnions) external onlyL1Contract{\n        knownHashOnions[_newKnownHashOnions] = true;\n    }\n   \n}","sourcePath":"contracts/SourceDomainSideBridge.sol","type":"contract","deployment":{"address":"0xE10401f00f89bD55f2Ff508E52b04D776Fc204db","chainid":"69","blockHeight":2431853}}