{"bytecode":"608060405234801561001057600080fd5b50604051610d29380380610d2983398101604081905261002f91610076565b600380547342000000000000000000000000000000000000076001600160a01b031991821617909155600480549091166001600160a01b03929092169190911790556100a6565b60006020828403121561008857600080fd5b81516001600160a01b038116811461009f57600080fd5b9392505050565b610c74806100b56000396000f3fe6080604052600436106100705760003560e01c80635a1294b71161004e5780635a1294b7146100f0578063a9d72b0214610120578063eb66091f14610142578063ef4481d11461015e57600080fd5b8063040c05b6146100755780630411b252146100ba57806313457d88146100db575b600080fd5b34801561008157600080fd5b506100a56100903660046108f7565b60006020819052908152604090205460ff1681565b60405190151581526020015b60405180910390f35b6100cd6100c8366004610928565b610171565b6040519081526020016100b1565b3480156100e757600080fd5b506100cd600581565b3480156100fc57600080fd5b506100a561010b3660046108f7565b60016020526000908152604090205460ff1681565b34801561012c57600080fd5b5061014061013b3660046108f7565b61045c565b005b34801561014e57600080fd5b506100cd67016345785d8a000081565b61014061016c3660046109de565b610526565b600067016345785d8a0000610188846103e8610ae7565b11156101db5760405162461bcd60e51b815260206004820152601e60248201527f416d6f756e7420686967686572207468616e207472616465206c696d6974000060448201526064015b60405180910390fd5b60006101e8600585610ae7565b90506000816101f9866103e8610ae7565b6102039190610b06565b90506001600160a01b038716610274578034101561026f5760405162461bcd60e51b8152602060048201526024808201527f4572726f72203a204e6f6e2053756666656369656e742066756e6473212121216044820152632121212160e01b60648201526084016101d2565b6102f0565b6040516323b872dd60e01b81523360048201523060248201526044810182905287906001600160a01b038216906323b872dd906064016020604051808303816000875af11580156102c9573d6000803e3d6000fd5b505050506040513d601f19601f820116820180604052508101906102ed9190610b1e565b50505b6103426040518060e0016040528060006001600160a01b0316815260200160006001600160a01b0316815260200160008152602001600081526020016000815260200160008152602001600081525090565b6001600160a01b03808916825287166020820152604081018690526060810183905243608082015260a081018590526005805460c0830181905290600061038883610b47565b919050555060006002826040516020016103a29190610b60565b60408051601f19818403018152908290526103bc91610bb7565b602060405180830381855afa1580156103d9573d6000803e3d6000fd5b5050506040513d601f19601f820116820180604052508101906103fc9190610bf2565b60008181526020819052604090819020805460ff19166001179055519091507fd8a86d1088d904bb6bf6291af6c7530b6ff4a8f6514c77a44c143331be826f8990610448908490610b60565b60405180910390a198975050505050505050565b6003546001600160a01b031633811480156104fe5750600460009054906101000a90046001600160a01b03166001600160a01b0316816001600160a01b0316636e296e456040518163ffffffff1660e01b8152600401602060405180830381865afa1580156104cf573d6000803e3d6000fd5b505050506040513d601f19601f820116820180604052508101906104f39190610c0b565b6001600160a01b0316145b61050757600080fd5b506000908152600160208190526040909120805460ff19169091179055565b600061053182610813565b60008181526001602052604090205490915060ff166105925760405162461bcd60e51b815260206004820152601960248201527f496e76616c6964652052657761726444617461206c6973742e0000000000000060448201526064016101d2565b600281905560005b825181101561080e576000808483815181106105b8576105b8610c28565b6020908102919091018101515182528101919091526040016000205460ff16156107fc576000806001600160a01b03168483815181106105fa576105fa610c28565b6020026020010151602001516001600160a01b0316036106ac57600084838151811061062857610628610c28565b6020026020010151604001516001600160a01b031685848151811061064f5761064f610c28565b60200260200101516060015160405160006040518083038185875af1925050503d806000811461069b576040519150601f19603f3d011682016040523d82523d6000602084013e6106a0565b606091505b50909250610799915050565b60008483815181106106c0576106c0610c28565b6020026020010151602001519050806001600160a01b03166323b872dd308786815181106106f0576106f0610c28565b60200260200101516040015188878151811061070e5761070e610c28565b6020908102919091010151606001516040516001600160e01b031960e086901b1681526001600160a01b03938416600482015292909116602483015260448201526064016020604051808303816000875af1158015610771573d6000803e3d6000fd5b505050506040513d601f19601f820116820180604052508101906107959190610b1e565b9150505b7f6949409522b57ddd499e29e527ea6b74df8d2f4f2993b0030bee0fd0ead7ca4a8483815181106107cc576107cc610c28565b602002602001015160000151826040516107f29291909182521515602082015260400190565b60405180910390a1505b8061080681610b47565b91505061059a565b505050565b600254600090815b83518110156108f05760028285838151811061083957610839610c28565b6020908102919091018101516040805180840194909452815184820152918101516001600160a01b0390811660608086019190915292820151166080840152015160a082015260c00160408051601f198184030181529082905261089c91610bb7565b602060405180830381855afa1580156108b9573d6000803e3d6000fd5b5050506040513d601f19601f820116820180604052508101906108dc9190610bf2565b9150806108e881610b47565b91505061081b565b5092915050565b60006020828403121561090957600080fd5b5035919050565b6001600160a01b038116811461092557600080fd5b50565b6000806000806080858703121561093e57600080fd5b843561094981610910565b9350602085013561095981610910565b93969395505050506040820135916060013590565b634e487b7160e01b600052604160045260246000fd5b6040516080810167ffffffffffffffff811182821017156109a7576109a761096e565b60405290565b604051601f8201601f1916810167ffffffffffffffff811182821017156109d6576109d661096e565b604052919050565b600060208083850312156109f157600080fd5b823567ffffffffffffffff80821115610a0957600080fd5b818501915085601f830112610a1d57600080fd5b813581811115610a2f57610a2f61096e565b610a3d848260051b016109ad565b818152848101925060079190911b830184019087821115610a5d57600080fd5b928401925b81841015610ac65760808489031215610a7b5760008081fd5b610a83610984565b8435815285850135610a9481610910565b81870152604085810135610aa781610910565b9082015260608581013590820152835260809093019291840191610a62565b979650505050505050565b634e487b7160e01b600052601160045260246000fd5b6000816000190483118215151615610b0157610b01610ad1565b500290565b60008219821115610b1957610b19610ad1565b500190565b600060208284031215610b3057600080fd5b81518015158114610b4057600080fd5b9392505050565b600060018201610b5957610b59610ad1565b5060010190565b81516001600160a01b0390811682526020808401519091169082015260408083015190820152606080830151908201526080808301519082015260a0828101519082015260c0918201519181019190915260e00190565b6000825160005b81811015610bd85760208186018101518583015201610bbe565b81811115610be7576000828501525b509190910192915050565b600060208284031215610c0457600080fd5b5051919050565b600060208284031215610c1d57600080fd5b8151610b4081610910565b634e487b7160e01b600052603260045260246000fdfea2646970667358221220be774ffbd522b7d8be3e9e291e61887468a4f0bfe854e12abaf0226d98fe074364736f6c634300080d0033","bytecodeSha1":"1dd96ece4487594239275f4f4af74aa1f513b859","type":"contract","abi":[{"inputs":[{"internalType":"address","name":"_l1DomainSideContractAddress","type":"address"}],"stateMutability":"nonpayable","type":"constructor","name":"constructor"},{"anonymous":false,"inputs":[{"indexed":false,"internalType":"bytes32","name":"transferDataHash","type":"bytes32"},{"indexed":false,"internalType":"bool","name":"success","type":"bool"}],"name":"ClaimPayed","type":"event"},{"anonymous":false,"inputs":[{"components":[{"internalType":"address","name":"tokenAddress","type":"address"},{"internalType":"address","name":"destination","type":"address"},{"internalType":"uint256","name":"amount","type":"uint256"},{"internalType":"uint256","name":"fee","type":"uint256"},{"internalType":"uint256","name":"startTime","type":"uint256"},{"internalType":"uint256","name":"feeRampup","type":"uint256"},{"internalType":"uint256","name":"nonce","type":"uint256"}],"indexed":false,"internalType":"struct SourceDomainSideBridge.TransferData","name":"transferData","type":"tuple"}],"name":"Transaction","type":"event"},{"inputs":[],"name":"CONTRACT_FEE_BASIS_POINTS","outputs":[{"internalType":"uint256","name":"","type":"uint256"}],"stateMutability":"view","type":"function"},{"inputs":[],"name":"TRADE_LIMIT","outputs":[{"internalType":"uint256","name":"","type":"uint256"}],"stateMutability":"view","type":"function"},{"inputs":[{"internalType":"bytes32","name":"_newKnownHashOnions","type":"bytes32"}],"name":"addNewKnownHashOnion","outputs":[],"stateMutability":"nonpayable","type":"function"},{"inputs":[{"internalType":"bytes32","name":"","type":"bytes32"}],"name":"knownHashOnions","outputs":[{"internalType":"bool","name":"","type":"bool"}],"stateMutability":"view","type":"function"},{"inputs":[{"components":[{"internalType":"bytes32","name":"transferDataHash","type":"bytes32"},{"internalType":"address","name":"tokenAddress","type":"address"},{"internalType":"address","name":"claimer","type":"address"},{"internalType":"uint256","name":"fee","type":"uint256"}],"internalType":"struct SourceDomainSideBridge.RewardData[]","name":"_rewardData","type":"tuple[]"}],"name":"processClaims","outputs":[],"stateMutability":"payable","type":"function"},{"inputs":[{"internalType":"address","name":"_tokenAddress","type":"address"},{"internalType":"address","name":"_destination","type":"address"},{"internalType":"uint256","name":"_amount","type":"uint256"},{"internalType":"uint256","name":"_feeRampup","type":"uint256"}],"name":"transfer","outputs":[{"internalType":"bytes32","name":"","type":"bytes32"}],"stateMutability":"payable","type":"function"},{"inputs":[{"internalType":"bytes32","name":"","type":"bytes32"}],"name":"validTransferHashes","outputs":[{"internalType":"bool","name":"","type":"bool"}],"stateMutability":"view","type":"function"}],"compiler":{"version":"0.8.13+commit.abaa5c0e","evm_version":"istanbul","optimizer":{"enabled":true,"runs":200}},"contractName":"SourceDomainSideBridge","language":"Solidity","natspec":{"methods":{"constructor":{"notice":"Constructior functionIntialize variables"},"addNewKnownHashOnion(bytes32)":{"notice":"processClaims functioncalculates the liquidity provider fee."},"processClaims((bytes32,address,address,uint256)[])":{"notice":"processClaims functioncalculates the liquidity provider fee."},"transfer(address,address,uint256,uint256)":{"notice":"withdraw functionwithdraws the required funds plus fees to be sent to the domain side rollup function transfer(TransferData memory _transferData) external payable returns(bytes32){"}},"kind":"dev","notice":"This contract is to be deployed in the source rollup","version":1,"author":"Sherif Abdelmoatty","title":"SourceDomainSideBridge Contract"},"opcodes":"PUSH1 0x80 PUSH1 0x40 MSTORE PUSH1 0x4 CALLDATASIZE LT PUSH2 0x70 JUMPI PUSH1 0x0 CALLDATALOAD PUSH1 0xE0 SHR DUP1 PUSH4 0x5A1294B7 GT PUSH2 0x4E JUMPI DUP1 PUSH4 0x5A1294B7 EQ PUSH2 0xF0 JUMPI DUP1 PUSH4 0xA9D72B02 EQ PUSH2 0x120 JUMPI DUP1 PUSH4 0xEB66091F EQ PUSH2 0x142 JUMPI DUP1 PUSH4 0xEF4481D1 EQ PUSH2 0x15E JUMPI PUSH1 0x0 DUP1 REVERT JUMPDEST DUP1 PUSH4 0x40C05B6 EQ PUSH2 0x75 JUMPI DUP1 PUSH4 0x411B252 EQ PUSH2 0xBA JUMPI DUP1 PUSH4 0x13457D88 EQ PUSH2 0xDB JUMPI JUMPDEST PUSH1 0x0 DUP1 REVERT JUMPDEST CALLVALUE DUP1 ISZERO PUSH2 0x81 JUMPI PUSH1 0x0 DUP1 REVERT JUMPDEST POP PUSH2 0xA5 PUSH2 0x90 CALLDATASIZE PUSH1 0x4 PUSH2 0x8F7 JUMP JUMPDEST PUSH1 0x0 PUSH1 0x20 DUP2 SWAP1 MSTORE SWAP1 DUP2 MSTORE PUSH1 0x40 SWAP1 KECCAK256 SLOAD PUSH1 0xFF AND DUP2 JUMP JUMPDEST PUSH1 0x40 MLOAD SWAP1 ISZERO ISZERO DUP2 MSTORE PUSH1 0x20 ADD JUMPDEST PUSH1 0x40 MLOAD DUP1 SWAP2 SUB SWAP1 RETURN JUMPDEST PUSH2 0xCD PUSH2 0xC8 CALLDATASIZE PUSH1 0x4 PUSH2 0x928 JUMP JUMPDEST PUSH2 0x171 JUMP JUMPDEST PUSH1 0x40 MLOAD SWAP1 DUP2 MSTORE PUSH1 0x20 ADD PUSH2 0xB1 JUMP JUMPDEST CALLVALUE DUP1 ISZERO PUSH2 0xE7 JUMPI PUSH1 0x0 DUP1 REVERT JUMPDEST POP PUSH2 0xCD PUSH1 0x5 DUP2 JUMP JUMPDEST CALLVALUE DUP1 ISZERO PUSH2 0xFC JUMPI PUSH1 0x0 DUP1 REVERT JUMPDEST POP PUSH2 0xA5 PUSH2 0x10B CALLDATASIZE PUSH1 0x4 PUSH2 0x8F7 JUMP JUMPDEST PUSH1 0x1 PUSH1 0x20 MSTORE PUSH1 0x0 SWAP1 DUP2 MSTORE PUSH1 0x40 SWAP1 KECCAK256 SLOAD PUSH1 0xFF AND DUP2 JUMP JUMPDEST CALLVALUE DUP1 ISZERO PUSH2 0x12C JUMPI PUSH1 0x0 DUP1 REVERT JUMPDEST POP PUSH2 0x140 PUSH2 0x13B CALLDATASIZE PUSH1 0x4 PUSH2 0x8F7 JUMP JUMPDEST PUSH2 0x45C JUMP JUMPDEST STOP JUMPDEST CALLVALUE DUP1 ISZERO PUSH2 0x14E JUMPI PUSH1 0x0 DUP1 REVERT JUMPDEST POP PUSH2 0xCD PUSH8 0x16345785D8A0000 DUP2 JUMP JUMPDEST PUSH2 0x140 PUSH2 0x16C CALLDATASIZE PUSH1 0x4 PUSH2 0x9DE JUMP JUMPDEST PUSH2 0x526 JUMP JUMPDEST PUSH1 0x0 PUSH8 0x16345785D8A0000 PUSH2 0x188 DUP5 PUSH2 0x3E8 PUSH2 0xAE7 JUMP JUMPDEST GT ISZERO PUSH2 0x1DB JUMPI PUSH1 0x40 MLOAD PUSH3 0x461BCD PUSH1 0xE5 SHL DUP2 MSTORE PUSH1 0x20 PUSH1 0x4 DUP3 ADD MSTORE PUSH1 0x1E PUSH1 0x24 DUP3 ADD MSTORE PUSH32 0x416D6F756E7420686967686572207468616E207472616465206C696D69740000 PUSH1 0x44 DUP3 ADD MSTORE PUSH1 0x64 ADD JUMPDEST PUSH1 0x40 MLOAD DUP1 SWAP2 SUB SWAP1 REVERT JUMPDEST PUSH1 0x0 PUSH2 0x1E8 PUSH1 0x5 DUP6 PUSH2 0xAE7 JUMP JUMPDEST SWAP1 POP PUSH1 0x0 DUP2 PUSH2 0x1F9 DUP7 PUSH2 0x3E8 PUSH2 0xAE7 JUMP JUMPDEST PUSH2 0x203 SWAP2 SWAP1 PUSH2 0xB06 JUMP JUMPDEST SWAP1 POP PUSH1 0x1 PUSH1 0x1 PUSH1 0xA0 SHL SUB DUP8 AND PUSH2 0x274 JUMPI DUP1 CALLVALUE LT ISZERO PUSH2 0x26F JUMPI PUSH1 0x40 MLOAD PUSH3 0x461BCD PUSH1 0xE5 SHL DUP2 MSTORE PUSH1 0x20 PUSH1 0x4 DUP3 ADD MSTORE PUSH1 0x24 DUP1 DUP3 ADD MSTORE PUSH32 0x4572726F72203A204E6F6E2053756666656369656E742066756E647321212121 PUSH1 0x44 DUP3 ADD MSTORE PUSH4 0x21212121 PUSH1 0xE0 SHL PUSH1 0x64 DUP3 ADD MSTORE PUSH1 0x84 ADD PUSH2 0x1D2 JUMP JUMPDEST PUSH2 0x2F0 JUMP JUMPDEST PUSH1 0x40 MLOAD PUSH4 0x23B872DD PUSH1 0xE0 SHL DUP2 MSTORE CALLER PUSH1 0x4 DUP3 ADD MSTORE ADDRESS PUSH1 0x24 DUP3 ADD MSTORE PUSH1 0x44 DUP2 ADD DUP3 SWAP1 MSTORE DUP8 SWAP1 PUSH1 0x1 PUSH1 0x1 PUSH1 0xA0 SHL SUB DUP3 AND SWAP1 PUSH4 0x23B872DD SWAP1 PUSH1 0x64 ADD PUSH1 0x20 PUSH1 0x40 MLOAD DUP1 DUP4 SUB DUP2 PUSH1 0x0 DUP8 GAS CALL ISZERO DUP1 ISZERO PUSH2 0x2C9 JUMPI RETURNDATASIZE PUSH1 0x0 DUP1 RETURNDATACOPY RETURNDATASIZE PUSH1 0x0 REVERT JUMPDEST POP POP POP POP PUSH1 0x40 MLOAD RETURNDATASIZE PUSH1 0x1F NOT PUSH1 0x1F DUP3 ADD AND DUP3 ADD DUP1 PUSH1 0x40 MSTORE POP DUP2 ADD SWAP1 PUSH2 0x2ED SWAP2 SWAP1 PUSH2 0xB1E JUMP JUMPDEST POP POP JUMPDEST PUSH2 0x342 PUSH1 0x40 MLOAD DUP1 PUSH1 0xE0 ADD PUSH1 0x40 MSTORE DUP1 PUSH1 0x0 PUSH1 0x1 PUSH1 0x1 PUSH1 0xA0 SHL SUB AND DUP2 MSTORE PUSH1 0x20 ADD PUSH1 0x0 PUSH1 0x1 PUSH1 0x1 PUSH1 0xA0 SHL SUB AND DUP2 MSTORE PUSH1 0x20 ADD PUSH1 0x0 DUP2 MSTORE PUSH1 0x20 ADD PUSH1 0x0 DUP2 MSTORE PUSH1 0x20 ADD PUSH1 0x0 DUP2 MSTORE PUSH1 0x20 ADD PUSH1 0x0 DUP2 MSTORE PUSH1 0x20 ADD PUSH1 0x0 DUP2 MSTORE POP SWAP1 JUMP JUMPDEST PUSH1 0x1 PUSH1 0x1 PUSH1 0xA0 SHL SUB DUP1 DUP10 AND DUP3 MSTORE DUP8 AND PUSH1 0x20 DUP3 ADD MSTORE PUSH1 0x40 DUP2 ADD DUP7 SWAP1 MSTORE PUSH1 0x60 DUP2 ADD DUP4 SWAP1 MSTORE NUMBER PUSH1 0x80 DUP3 ADD MSTORE PUSH1 0xA0 DUP2 ADD DUP6 SWAP1 MSTORE PUSH1 0x5 DUP1 SLOAD PUSH1 0xC0 DUP4 ADD DUP2 SWAP1 MSTORE SWAP1 PUSH1 0x0 PUSH2 0x388 DUP4 PUSH2 0xB47 JUMP JUMPDEST SWAP2 SWAP1 POP SSTORE POP PUSH1 0x0 PUSH1 0x2 DUP3 PUSH1 0x40 MLOAD PUSH1 0x20 ADD PUSH2 0x3A2 SWAP2 SWAP1 PUSH2 0xB60 JUMP JUMPDEST PUSH1 0x40 DUP1 MLOAD PUSH1 0x1F NOT DUP2 DUP5 SUB ADD DUP2 MSTORE SWAP1 DUP3 SWAP1 MSTORE PUSH2 0x3BC SWAP2 PUSH2 0xBB7 JUMP JUMPDEST PUSH1 0x20 PUSH1 0x40 MLOAD DUP1 DUP4 SUB DUP2 DUP6 GAS STATICCALL ISZERO DUP1 ISZERO PUSH2 0x3D9 JUMPI RETURNDATASIZE PUSH1 0x0 DUP1 RETURNDATACOPY RETURNDATASIZE PUSH1 0x0 REVERT JUMPDEST POP POP POP PUSH1 0x40 MLOAD RETURNDATASIZE PUSH1 0x1F NOT PUSH1 0x1F DUP3 ADD AND DUP3 ADD DUP1 PUSH1 0x40 MSTORE POP DUP2 ADD SWAP1 PUSH2 0x3FC SWAP2 SWAP1 PUSH2 0xBF2 JUMP JUMPDEST PUSH1 0x0 DUP2 DUP2 MSTORE PUSH1 0x20 DUP2 SWAP1 MSTORE PUSH1 0x40 SWAP1 DUP2 SWAP1 KECCAK256 DUP1 SLOAD PUSH1 0xFF NOT AND PUSH1 0x1 OR SWAP1 SSTORE MLOAD SWAP1 SWAP2 POP PUSH32 0xD8A86D1088D904BB6BF6291AF6C7530B6FF4A8F6514C77A44C143331BE826F89 SWAP1 PUSH2 0x448 SWAP1 DUP5 SWAP1 PUSH2 0xB60 JUMP JUMPDEST PUSH1 0x40 MLOAD DUP1 SWAP2 SUB SWAP1 LOG1 SWAP9 SWAP8 POP POP POP POP POP POP POP POP JUMP JUMPDEST PUSH1 0x3 SLOAD PUSH1 0x1 PUSH1 0x1 PUSH1 0xA0 SHL SUB AND CALLER DUP2 EQ DUP1 ISZERO PUSH2 0x4FE JUMPI POP PUSH1 0x4 PUSH1 0x0 SWAP1 SLOAD SWAP1 PUSH2 0x100 EXP SWAP1 DIV PUSH1 0x1 PUSH1 0x1 PUSH1 0xA0 SHL SUB AND PUSH1 0x1 PUSH1 0x1 PUSH1 0xA0 SHL SUB AND DUP2 PUSH1 0x1 PUSH1 0x1 PUSH1 0xA0 SHL SUB AND PUSH4 0x6E296E45 PUSH1 0x40 MLOAD DUP2 PUSH4 0xFFFFFFFF AND PUSH1 0xE0 SHL DUP2 MSTORE PUSH1 0x4 ADD PUSH1 0x20 PUSH1 0x40 MLOAD DUP1 DUP4 SUB DUP2 DUP7 GAS STATICCALL ISZERO DUP1 ISZERO PUSH2 0x4CF JUMPI RETURNDATASIZE PUSH1 0x0 DUP1 RETURNDATACOPY RETURNDATASIZE PUSH1 0x0 REVERT JUMPDEST POP POP POP POP PUSH1 0x40 MLOAD RETURNDATASIZE PUSH1 0x1F NOT PUSH1 0x1F DUP3 ADD AND DUP3 ADD DUP1 PUSH1 0x40 MSTORE POP DUP2 ADD SWAP1 PUSH2 0x4F3 SWAP2 SWAP1 PUSH2 0xC0B JUMP JUMPDEST PUSH1 0x1 PUSH1 0x1 PUSH1 0xA0 SHL SUB AND EQ JUMPDEST PUSH2 0x507 JUMPI PUSH1 0x0 DUP1 REVERT JUMPDEST POP PUSH1 0x0 SWAP1 DUP2 MSTORE PUSH1 0x1 PUSH1 0x20 DUP2 SWAP1 MSTORE PUSH1 0x40 SWAP1 SWAP2 KECCAK256 DUP1 SLOAD PUSH1 0xFF NOT AND SWAP1 SWAP2 OR SWAP1 SSTORE JUMP JUMPDEST PUSH1 0x0 PUSH2 0x531 DUP3 PUSH2 0x813 JUMP JUMPDEST PUSH1 0x0 DUP2 DUP2 MSTORE PUSH1 0x1 PUSH1 0x20 MSTORE PUSH1 0x40 SWAP1 KECCAK256 SLOAD SWAP1 SWAP2 POP PUSH1 0xFF AND PUSH2 0x592 JUMPI PUSH1 0x40 MLOAD PUSH3 0x461BCD PUSH1 0xE5 SHL DUP2 MSTORE PUSH1 0x20 PUSH1 0x4 DUP3 ADD MSTORE PUSH1 0x19 PUSH1 0x24 DUP3 ADD MSTORE PUSH32 0x496E76616C6964652052657761726444617461206C6973742E00000000000000 PUSH1 0x44 DUP3 ADD MSTORE PUSH1 0x64 ADD PUSH2 0x1D2 JUMP JUMPDEST PUSH1 0x2 DUP2 SWAP1 SSTORE PUSH1 0x0 JUMPDEST DUP3 MLOAD DUP2 LT ISZERO PUSH2 0x80E JUMPI PUSH1 0x0 DUP1 DUP5 DUP4 DUP2 MLOAD DUP2 LT PUSH2 0x5B8 JUMPI PUSH2 0x5B8 PUSH2 0xC28 JUMP JUMPDEST PUSH1 0x20 SWAP1 DUP2 MUL SWAP2 SWAP1 SWAP2 ADD DUP2 ADD MLOAD MLOAD DUP3 MSTORE DUP2 ADD SWAP2 SWAP1 SWAP2 MSTORE PUSH1 0x40 ADD PUSH1 0x0 KECCAK256 SLOAD PUSH1 0xFF AND ISZERO PUSH2 0x7FC JUMPI PUSH1 0x0 DUP1 PUSH1 0x1 PUSH1 0x1 PUSH1 0xA0 SHL SUB AND DUP5 DUP4 DUP2 MLOAD DUP2 LT PUSH2 0x5FA JUMPI PUSH2 0x5FA PUSH2 0xC28 JUMP JUMPDEST PUSH1 0x20 MUL PUSH1 0x20 ADD ADD MLOAD PUSH1 0x20 ADD MLOAD PUSH1 0x1 PUSH1 0x1 PUSH1 0xA0 SHL SUB AND SUB PUSH2 0x6AC JUMPI PUSH1 0x0 DUP5 DUP4 DUP2 MLOAD DUP2 LT PUSH2 0x628 JUMPI PUSH2 0x628 PUSH2 0xC28 JUMP JUMPDEST PUSH1 0x20 MUL PUSH1 0x20 ADD ADD MLOAD PUSH1 0x40 ADD MLOAD PUSH1 0x1 PUSH1 0x1 PUSH1 0xA0 SHL SUB AND DUP6 DUP5 DUP2 MLOAD DUP2 LT PUSH2 0x64F JUMPI PUSH2 0x64F PUSH2 0xC28 JUMP JUMPDEST PUSH1 0x20 MUL PUSH1 0x20 ADD ADD MLOAD PUSH1 0x60 ADD MLOAD PUSH1 0x40 MLOAD PUSH1 0x0 PUSH1 0x40 MLOAD DUP1 DUP4 SUB DUP2 DUP6 DUP8 GAS CALL SWAP3 POP POP POP RETURNDATASIZE DUP1 PUSH1 0x0 DUP2 EQ PUSH2 0x69B JUMPI PUSH1 0x40 MLOAD SWAP2 POP PUSH1 0x1F NOT PUSH1 0x3F RETURNDATASIZE ADD AND DUP3 ADD PUSH1 0x40 MSTORE RETURNDATASIZE DUP3 MSTORE RETURNDATASIZE PUSH1 0x0 PUSH1 0x20 DUP5 ADD RETURNDATACOPY PUSH2 0x6A0 JUMP JUMPDEST PUSH1 0x60 SWAP2 POP JUMPDEST POP SWAP1 SWAP3 POP PUSH2 0x799 SWAP2 POP POP JUMP JUMPDEST PUSH1 0x0 DUP5 DUP4 DUP2 MLOAD DUP2 LT PUSH2 0x6C0 JUMPI PUSH2 0x6C0 PUSH2 0xC28 JUMP JUMPDEST PUSH1 0x20 MUL PUSH1 0x20 ADD ADD MLOAD PUSH1 0x20 ADD MLOAD SWAP1 POP DUP1 PUSH1 0x1 PUSH1 0x1 PUSH1 0xA0 SHL SUB AND PUSH4 0x23B872DD ADDRESS DUP8 DUP7 DUP2 MLOAD DUP2 LT PUSH2 0x6F0 JUMPI PUSH2 0x6F0 PUSH2 0xC28 JUMP JUMPDEST PUSH1 0x20 MUL PUSH1 0x20 ADD ADD MLOAD PUSH1 0x40 ADD MLOAD DUP9 DUP8 DUP2 MLOAD DUP2 LT PUSH2 0x70E JUMPI PUSH2 0x70E PUSH2 0xC28 JUMP JUMPDEST PUSH1 0x20 SWAP1 DUP2 MUL SWAP2 SWAP1 SWAP2 ADD ADD MLOAD PUSH1 0x60 ADD MLOAD PUSH1 0x40 MLOAD PUSH1 0x1 PUSH1 0x1 PUSH1 0xE0 SHL SUB NOT PUSH1 0xE0 DUP7 SWAP1 SHL AND DUP2 MSTORE PUSH1 0x1 PUSH1 0x1 PUSH1 0xA0 SHL SUB SWAP4 DUP5 AND PUSH1 0x4 DUP3 ADD MSTORE SWAP3 SWAP1 SWAP2 AND PUSH1 0x24 DUP4 ADD MSTORE PUSH1 0x44 DUP3 ADD MSTORE PUSH1 0x64 ADD PUSH1 0x20 PUSH1 0x40 MLOAD DUP1 DUP4 SUB DUP2 PUSH1 0x0 DUP8 GAS CALL ISZERO DUP1 ISZERO PUSH2 0x771 JUMPI RETURNDATASIZE PUSH1 0x0 DUP1 RETURNDATACOPY RETURNDATASIZE PUSH1 0x0 REVERT JUMPDEST POP POP POP POP PUSH1 0x40 MLOAD RETURNDATASIZE PUSH1 0x1F NOT PUSH1 0x1F DUP3 ADD AND DUP3 ADD DUP1 PUSH1 0x40 MSTORE POP DUP2 ADD SWAP1 PUSH2 0x795 SWAP2 SWAP1 PUSH2 0xB1E JUMP JUMPDEST SWAP2 POP POP JUMPDEST PUSH32 0x6949409522B57DDD499E29E527EA6B74DF8D2F4F2993B0030BEE0FD0EAD7CA4A DUP5 DUP4 DUP2 MLOAD DUP2 LT PUSH2 0x7CC JUMPI PUSH2 0x7CC PUSH2 0xC28 JUMP JUMPDEST PUSH1 0x20 MUL PUSH1 0x20 ADD ADD MLOAD PUSH1 0x0 ADD MLOAD DUP3 PUSH1 0x40 MLOAD PUSH2 0x7F2 SWAP3 SWAP2 SWAP1 SWAP2 DUP3 MSTORE ISZERO ISZERO PUSH1 0x20 DUP3 ADD MSTORE PUSH1 0x40 ADD SWAP1 JUMP JUMPDEST PUSH1 0x40 MLOAD DUP1 SWAP2 SUB SWAP1 LOG1 POP JUMPDEST DUP1 PUSH2 0x806 DUP2 PUSH2 0xB47 JUMP JUMPDEST SWAP2 POP POP PUSH2 0x59A JUMP JUMPDEST POP POP POP JUMP JUMPDEST PUSH1 0x2 SLOAD PUSH1 0x0 SWAP1 DUP2 JUMPDEST DUP4 MLOAD DUP2 LT ISZERO PUSH2 0x8F0 JUMPI PUSH1 0x2 DUP3 DUP6 DUP4 DUP2 MLOAD DUP2 LT PUSH2 0x839 JUMPI PUSH2 0x839 PUSH2 0xC28 JUMP JUMPDEST PUSH1 0x20 SWAP1 DUP2 MUL SWAP2 SWAP1 SWAP2 ADD DUP2 ADD MLOAD PUSH1 0x40 DUP1 MLOAD DUP1 DUP5 ADD SWAP5 SWAP1 SWAP5 MSTORE DUP2 MLOAD DUP5 DUP3 ADD MSTORE SWAP2 DUP2 ADD MLOAD PUSH1 0x1 PUSH1 0x1 PUSH1 0xA0 SHL SUB SWAP1 DUP2 AND PUSH1 0x60 DUP1 DUP7 ADD SWAP2 SWAP1 SWAP2 MSTORE SWAP3 DUP3 ADD MLOAD AND PUSH1 0x80 DUP5 ADD MSTORE ADD MLOAD PUSH1 0xA0 DUP3 ADD MSTORE PUSH1 0xC0 ADD PUSH1 0x40 DUP1 MLOAD PUSH1 0x1F NOT DUP2 DUP5 SUB ADD DUP2 MSTORE SWAP1 DUP3 SWAP1 MSTORE PUSH2 0x89C SWAP2 PUSH2 0xBB7 JUMP JUMPDEST PUSH1 0x20 PUSH1 0x40 MLOAD DUP1 DUP4 SUB DUP2 DUP6 GAS STATICCALL ISZERO DUP1 ISZERO PUSH2 0x8B9 JUMPI RETURNDATASIZE PUSH1 0x0 DUP1 RETURNDATACOPY RETURNDATASIZE PUSH1 0x0 REVERT JUMPDEST POP POP POP PUSH1 0x40 MLOAD RETURNDATASIZE PUSH1 0x1F NOT PUSH1 0x1F DUP3 ADD AND DUP3 ADD DUP1 PUSH1 0x40 MSTORE POP DUP2 ADD SWAP1 PUSH2 0x8DC SWAP2 SWAP1 PUSH2 0xBF2 JUMP JUMPDEST SWAP2 POP DUP1 PUSH2 0x8E8 DUP2 PUSH2 0xB47 JUMP JUMPDEST SWAP2 POP POP PUSH2 0x81B JUMP JUMPDEST POP SWAP3 SWAP2 POP POP JUMP JUMPDEST PUSH1 0x0 PUSH1 0x20 DUP3 DUP5 SUB SLT ISZERO PUSH2 0x909 JUMPI PUSH1 0x0 DUP1 REVERT JUMPDEST POP CALLDATALOAD SWAP2 SWAP1 POP JUMP JUMPDEST PUSH1 0x1 PUSH1 0x1 PUSH1 0xA0 SHL SUB DUP2 AND DUP2 EQ PUSH2 0x925 JUMPI PUSH1 0x0 DUP1 REVERT JUMPDEST POP JUMP JUMPDEST PUSH1 0x0 DUP1 PUSH1 0x0 DUP1 PUSH1 0x80 DUP6 DUP8 SUB SLT ISZERO PUSH2 0x93E JUMPI PUSH1 0x0 DUP1 REVERT JUMPDEST DUP5 CALLDATALOAD PUSH2 0x949 DUP2 PUSH2 0x910 JUMP JUMPDEST SWAP4 POP PUSH1 0x20 DUP6 ADD CALLDATALOAD PUSH2 0x959 DUP2 PUSH2 0x910 JUMP JUMPDEST SWAP4 SWAP7 SWAP4 SWAP6 POP POP POP POP PUSH1 0x40 DUP3 ADD CALLDATALOAD SWAP2 PUSH1 0x60 ADD CALLDATALOAD SWAP1 JUMP JUMPDEST PUSH4 0x4E487B71 PUSH1 0xE0 SHL PUSH1 0x0 MSTORE PUSH1 0x41 PUSH1 0x4 MSTORE PUSH1 0x24 PUSH1 0x0 REVERT JUMPDEST PUSH1 0x40 MLOAD PUSH1 0x80 DUP2 ADD PUSH8 0xFFFFFFFFFFFFFFFF DUP2 GT DUP3 DUP3 LT OR ISZERO PUSH2 0x9A7 JUMPI PUSH2 0x9A7 PUSH2 0x96E JUMP JUMPDEST PUSH1 0x40 MSTORE SWAP1 JUMP JUMPDEST PUSH1 0x40 MLOAD PUSH1 0x1F DUP3 ADD PUSH1 0x1F NOT AND DUP2 ADD PUSH8 0xFFFFFFFFFFFFFFFF DUP2 GT DUP3 DUP3 LT OR ISZERO PUSH2 0x9D6 JUMPI PUSH2 0x9D6 PUSH2 0x96E JUMP JUMPDEST PUSH1 0x40 MSTORE SWAP2 SWAP1 POP JUMP JUMPDEST PUSH1 0x0 PUSH1 0x20 DUP1 DUP4 DUP6 SUB SLT ISZERO PUSH2 0x9F1 JUMPI PUSH1 0x0 DUP1 REVERT JUMPDEST DUP3 CALLDATALOAD PUSH8 0xFFFFFFFFFFFFFFFF DUP1 DUP3 GT ISZERO PUSH2 0xA09 JUMPI PUSH1 0x0 DUP1 REVERT JUMPDEST DUP2 DUP6 ADD SWAP2 POP DUP6 PUSH1 0x1F DUP4 ADD SLT PUSH2 0xA1D JUMPI PUSH1 0x0 DUP1 REVERT JUMPDEST DUP2 CALLDATALOAD DUP2 DUP2 GT ISZERO PUSH2 0xA2F JUMPI PUSH2 0xA2F PUSH2 0x96E JUMP JUMPDEST PUSH2 0xA3D DUP5 DUP3 PUSH1 0x5 SHL ADD PUSH2 0x9AD JUMP JUMPDEST DUP2 DUP2 MSTORE DUP5 DUP2 ADD SWAP3 POP PUSH1 0x7 SWAP2 SWAP1 SWAP2 SHL DUP4 ADD DUP5 ADD SWAP1 DUP8 DUP3 GT ISZERO PUSH2 0xA5D JUMPI PUSH1 0x0 DUP1 REVERT JUMPDEST SWAP3 DUP5 ADD SWAP3 JUMPDEST DUP2 DUP5 LT ISZERO PUSH2 0xAC6 JUMPI PUSH1 0x80 DUP5 DUP10 SUB SLT ISZERO PUSH2 0xA7B JUMPI PUSH1 0x0 DUP1 DUP2 REVERT JUMPDEST PUSH2 0xA83 PUSH2 0x984 JUMP JUMPDEST DUP5 CALLDATALOAD DUP2 MSTORE DUP6 DUP6 ADD CALLDATALOAD PUSH2 0xA94 DUP2 PUSH2 0x910 JUMP JUMPDEST DUP2 DUP8 ADD MSTORE PUSH1 0x40 DUP6 DUP2 ADD CALLDATALOAD PUSH2 0xAA7 DUP2 PUSH2 0x910 JUMP JUMPDEST SWAP1 DUP3 ADD MSTORE PUSH1 0x60 DUP6 DUP2 ADD CALLDATALOAD SWAP1 DUP3 ADD MSTORE DUP4 MSTORE PUSH1 0x80 SWAP1 SWAP4 ADD SWAP3 SWAP2 DUP5 ADD SWAP2 PUSH2 0xA62 JUMP JUMPDEST SWAP8 SWAP7 POP POP POP POP POP POP POP JUMP JUMPDEST PUSH4 0x4E487B71 PUSH1 0xE0 SHL PUSH1 0x0 MSTORE PUSH1 0x11 PUSH1 0x4 MSTORE PUSH1 0x24 PUSH1 0x0 REVERT JUMPDEST PUSH1 0x0 DUP2 PUSH1 0x0 NOT DIV DUP4 GT DUP3 ISZERO ISZERO AND ISZERO PUSH2 0xB01 JUMPI PUSH2 0xB01 PUSH2 0xAD1 JUMP JUMPDEST POP MUL SWAP1 JUMP JUMPDEST PUSH1 0x0 DUP3 NOT DUP3 GT ISZERO PUSH2 0xB19 JUMPI PUSH2 0xB19 PUSH2 0xAD1 JUMP JUMPDEST POP ADD SWAP1 JUMP JUMPDEST PUSH1 0x0 PUSH1 0x20 DUP3 DUP5 SUB SLT ISZERO PUSH2 0xB30 JUMPI PUSH1 0x0 DUP1 REVERT JUMPDEST DUP2 MLOAD DUP1 ISZERO ISZERO DUP2 EQ PUSH2 0xB40 JUMPI PUSH1 0x0 DUP1 REVERT JUMPDEST SWAP4 SWAP3 POP POP POP JUMP JUMPDEST PUSH1 0x0 PUSH1 0x1 DUP3 ADD PUSH2 0xB59 JUMPI PUSH2 0xB59 PUSH2 0xAD1 JUMP JUMPDEST POP PUSH1 0x1 ADD SWAP1 JUMP JUMPDEST DUP2 MLOAD PUSH1 0x1 PUSH1 0x1 PUSH1 0xA0 SHL SUB SWAP1 DUP2 AND DUP3 MSTORE PUSH1 0x20 DUP1 DUP5 ADD MLOAD SWAP1 SWAP2 AND SWAP1 DUP3 ADD MSTORE PUSH1 0x40 DUP1 DUP4 ADD MLOAD SWAP1 DUP3 ADD MSTORE PUSH1 0x60 DUP1 DUP4 ADD MLOAD SWAP1 DUP3 ADD MSTORE PUSH1 0x80 DUP1 DUP4 ADD MLOAD SWAP1 DUP3 ADD MSTORE PUSH1 0xA0 DUP3 DUP2 ADD MLOAD SWAP1 DUP3 ADD MSTORE PUSH1 0xC0 SWAP2 DUP3 ADD MLOAD SWAP2 DUP2 ADD SWAP2 SWAP1 SWAP2 MSTORE PUSH1 0xE0 ADD SWAP1 JUMP JUMPDEST PUSH1 0x0 DUP3 MLOAD PUSH1 0x0 JUMPDEST DUP2 DUP2 LT ISZERO PUSH2 0xBD8 JUMPI PUSH1 0x20 DUP2 DUP7 ADD DUP2 ADD MLOAD DUP6 DUP4 ADD MSTORE ADD PUSH2 0xBBE JUMP JUMPDEST DUP2 DUP2 GT ISZERO PUSH2 0xBE7 JUMPI PUSH1 0x0 DUP3 DUP6 ADD MSTORE JUMPDEST POP SWAP2 SWAP1 SWAP2 ADD SWAP3 SWAP2 POP POP JUMP JUMPDEST PUSH1 0x0 PUSH1 0x20 DUP3 DUP5 SUB SLT ISZERO PUSH2 0xC04 JUMPI PUSH1 0x0 DUP1 REVERT JUMPDEST POP MLOAD SWAP2 SWAP1 POP JUMP JUMPDEST PUSH1 0x0 PUSH1 0x20 DUP3 DUP5 SUB SLT ISZERO PUSH2 0xC1D JUMPI PUSH1 0x0 DUP1 REVERT JUMPDEST DUP2 MLOAD PUSH2 0xB40 DUP2 PUSH2 0x910 JUMP JUMPDEST PUSH4 0x4E487B71 PUSH1 0xE0 SHL PUSH1 0x0 MSTORE PUSH1 0x32 PUSH1 0x4 MSTORE PUSH1 0x24 PUSH1 0x0 REVERT INVALID LOG2 PUSH5 0x6970667358 0x22 SLT KECCAK256 0xBE PUSH24 0x4FFBD522B7D8BE3E9E291E61887468A4F0BFE854E12ABAF0 0x22 PUSH14 0x98FE074364736F6C634300080D00 CALLER ","sha1":"b8f741ec307d0c3f0b40442aabd014a9cd0aba86","source":"//SPDX-License-Identifier: MIT\npragma solidity ^0.8.9;\n\nimport \"./deb/ERC20.sol\";\nimport \"./deb/ICrossDomainMessenger.sol\";\n\n/// @title SourceDomainSideBridge Contract\n/// @author Sherif Abdelmoatty\n/// @notice This contract is to be deployed in the source rollup\ncontract SourceDomainSideBridge {\n    \n    uint constant public CONTRACT_FEE_BASIS_POINTS = 5;\n    uint constant public TRADE_LIMIT = 0.1 ether;\n    address constant ETHER_ADDRESS = 0x0000000000000000000000000000000000000000;\n\n    struct TransferData {\n        address  tokenAddress; \n        address  destination;\n        uint256  amount;\n        uint256  fee;\n        uint256  startTime;\n        uint256  feeRampup;\n        uint256  nonce;\n    }\n    struct RewardData {\n        bytes32  transferDataHash;\n        address  tokenAddress; \n        address  claimer;\n        uint256  fee;\n    }\n    mapping(bytes32 => bool) public validTransferHashes;\n    mapping(bytes32 => bool) public knownHashOnions;\n    bytes32 processedRewardHashOnion;\n    \n    address ovmL2CrossDomainMessenger;  //ovmL2CrossDomainMessenger contract address(Optimism)\n    address l1DomainSideContractAddress;  //l1DomainSideContract deployed contract address on mainnet\n\n    uint256  currentNonce;\n\n    event Transaction(TransferData transferData);\n    event ClaimPayed(bytes32 transferDataHash, bool success);\n    \n    /// @notice onlyL1Contract modifier\n    /// @notice only allows a message from l1DomainSideBridge contract through the L2CrossDomainMessenger bridge\n    /// @notice to call the approveStateRoot function\n    modifier onlyL1Contract() {\n        ICrossDomainMessenger l2cdm = ICrossDomainMessenger(ovmL2CrossDomainMessenger);\n        require(\n            msg.sender == address(ovmL2CrossDomainMessenger)\n            && l2cdm.xDomainMessageSender() == l1DomainSideContractAddress\n        );\n        _;\n    }\n\n    /// @notice Constructior function\n    /// @notice Intialize variables\n    constructor(address _l1DomainSideContractAddress){\n        ovmL2CrossDomainMessenger = 0x4200000000000000000000000000000000000007;\n        l1DomainSideContractAddress = _l1DomainSideContractAddress;\n    }\n\n    /// @notice withdraw function\n    /// @notice withdraws the required funds plus fees to be sent \n    /// @notice to the domain side rollup\n    ///function transfer(TransferData memory _transferData) external payable returns(bytes32){\n    function transfer(address _tokenAddress, address _destination, uint256 _amount,\n         uint256  _feeRampup) external payable returns(bytes32){\n        \n        require(_amount* 1000 <= TRADE_LIMIT, 'Amount higher than trade limit');\n        uint256 fee = _amount * CONTRACT_FEE_BASIS_POINTS;\n        uint256 amountPlusFee = _amount * 1000 + fee;\n        \n        if(_tokenAddress == ETHER_ADDRESS){\n            require(msg.value >= amountPlusFee, \"Error : Non Suffecient funds!!!!!!!!\");\n        }else{\n            ERC20 token = ERC20(_tokenAddress);\n            token.transferFrom(msg.sender, address(this), amountPlusFee);\n        }\n\n        TransferData memory transferData;\n        transferData.tokenAddress = _tokenAddress;\n        transferData.destination = _destination;\n        transferData.amount = _amount;\n        transferData.fee = fee;\n        transferData.startTime = block.number;\n        transferData.feeRampup = _feeRampup;\n        transferData.nonce = currentNonce;\n\n        currentNonce++;\n\n        bytes32 transferDataHash = sha256(abi.encode(transferData));\n        \n        validTransferHashes[transferDataHash] = true;\n\n        emit Transaction(transferData);\n        \n        return transferDataHash;\n    }\n\n    /// @notice processClaims function\n    /// @notice calculates the liquidity provider fee.\n    function processClaims(RewardData[] memory _rewardData) external payable {\n        bytes32 newProcessedRewardHashOnion = calculateNewProcessedRewardHashOnion(_rewardData);\n        require(knownHashOnions[newProcessedRewardHashOnion], \"Invalide RewardData list.\");\n        processedRewardHashOnion = newProcessedRewardHashOnion;\n        for(uint n = 0; n < _rewardData.length; n++) {\n            if(validTransferHashes[_rewardData[n].transferDataHash]){\n                bool success;\n                if(_rewardData[n].tokenAddress == ETHER_ADDRESS){\n                    (bool suc, ) = payable(_rewardData[n].claimer).call{value: _rewardData[n].fee}(\"\");\n                    success = suc;\n                }else{\n                    ERC20 token = ERC20(_rewardData[n].tokenAddress);\n                    \n                    success = token.transferFrom(address(this), _rewardData[n].claimer,\n                        _rewardData[n].fee);\n                }\n                emit ClaimPayed(_rewardData[n].transferDataHash, success);\n            }\n        }\n        \n    }\n\n    /// @notice processClaims function\n    /// @notice calculates the liquidity provider fee.\n    function calculateNewProcessedRewardHashOnion(RewardData[] memory _rewardData) private view returns (bytes32){\n        bytes32 newProcessedRewardHashOnion = processedRewardHashOnion;\n        for(uint n = 0; n < _rewardData.length; n++) {\n            newProcessedRewardHashOnion = \n                sha256(abi.encode(newProcessedRewardHashOnion,_rewardData[n]));\n        }\n        return newProcessedRewardHashOnion;\n    }\n\n    /// @notice processClaims function\n    /// @notice calculates the liquidity provider fee.\n    function addNewKnownHashOnion(bytes32 _newKnownHashOnions) external onlyL1Contract{\n        knownHashOnions[_newKnownHashOnions] = true;\n    }\n   \n}","sourcePath":"contracts/SourceDomainSideBridge.sol","deployment":{"address":"0xf041Af006954469C37b9605fA3A5D8422F53194e","chainid":"69","blockHeight":2582609}}