{"abi":[{"inputs":[{"internalType":"address","name":"_ovmL2CrossDomainMessenger","type":"address"},{"internalType":"address","name":"_l1DomainSideContract","type":"address"},{"internalType":"address","name":"_sourceSideAddress","type":"address"}],"stateMutability":"nonpayable","type":"constructor","name":"constructor"},{"inputs":[{"internalType":"bytes32","name":"stateRoot","type":"bytes32"}],"name":"approveStateRoot","outputs":[],"stateMutability":"nonpayable","type":"function"},{"inputs":[{"components":[{"internalType":"address","name":"tokenAddress","type":"address"},{"internalType":"address","name":"destination","type":"address"},{"internalType":"uint256","name":"amount","type":"uint256"},{"internalType":"uint256","name":"fee","type":"uint256"},{"internalType":"uint256","name":"startTime","type":"uint256"},{"internalType":"uint256","name":"feeRampup","type":"uint256"}],"internalType":"struct DestinationDomainSideBridge.TransferData","name":"transferData","type":"tuple"},{"internalType":"uint256","name":"transferID","type":"uint256"}],"name":"buy","outputs":[],"stateMutability":"payable","type":"function"},{"inputs":[{"components":[{"internalType":"address","name":"tokenAddress","type":"address"},{"internalType":"address","name":"destination","type":"address"},{"internalType":"uint256","name":"amount","type":"uint256"},{"internalType":"uint256","name":"fee","type":"uint256"},{"internalType":"uint256","name":"startTime","type":"uint256"},{"internalType":"uint256","name":"feeRampup","type":"uint256"}],"internalType":"struct DestinationDomainSideBridge.TransferData","name":"transferData","type":"tuple"},{"internalType":"uint256","name":"transferID","type":"uint256"},{"internalType":"address payable","name":"newOwner","type":"address"}],"name":"changeOwner","outputs":[],"stateMutability":"nonpayable","type":"function"},{"inputs":[{"components":[{"internalType":"address","name":"tokenAddress","type":"address"},{"internalType":"address","name":"destination","type":"address"},{"internalType":"uint256","name":"amount","type":"uint256"},{"internalType":"uint256","name":"fee","type":"uint256"},{"internalType":"uint256","name":"startTime","type":"uint256"},{"internalType":"uint256","name":"feeRampup","type":"uint256"}],"internalType":"struct DestinationDomainSideBridge.TransferData","name":"transferData","type":"tuple"},{"internalType":"uint256","name":"transferID","type":"uint256"},{"internalType":"bytes32[]","name":"stateRootProof","type":"bytes32[]"},{"internalType":"bytes32","name":"stateRoot","type":"bytes32"}],"name":"withdraw","outputs":[],"stateMutability":"nonpayable","type":"function"}],"bytecode":"608060405234801561001057600080fd5b50604051610ff9380380610ff983398101604081905261002f9161008d565b600680546001600160a01b039485166001600160a01b0319918216179091556007805493851693821693909317909255600880549190931691161790556100d0565b80516001600160a01b038116811461008857600080fd5b919050565b6000806000606084860312156100a257600080fd5b6100ab84610071565b92506100b960208501610071565b91506100c760408501610071565b90509250925092565b610f1a806100df6000396000f3fe60806040526004361061003f5760003560e01c806325222c9f146100445780633430e41a14610066578063a91fb68814610086578063bba64a7f146100a6575b600080fd5b34801561005057600080fd5b5061006461005f3660046109a5565b6100b9565b005b34801561007257600080fd5b50610064610081366004610aa9565b610181565b34801561009257600080fd5b506100646100a1366004610aeb565b610227565b6100646100b4366004610bb7565b6104a3565b6006546001600160a01b03163314801561015d575060075460065460408051636e296e4560e01b815290516001600160a01b039384169390921691636e296e4591600480820192602092909190829003018186803b15801561011a57600080fd5b505afa15801561012e573d6000803e3d6000fd5b505050506040513d601f19601f820116820180604052508101906101529190610be2565b6001600160a01b0316145b61016657600080fd5b6000908152600560205260409020805460ff19166001179055565b6000828152602081905260409020546001600160a01b03161580156101b2575060208301516001600160a01b031633145b806101d357506000828152602081905260409020546001600160a01b031633145b6101f85760405162461bcd60e51b81526004016101ef90610c06565b60405180910390fd5b60009182526020829052604090912080546001600160a01b0319166001600160a01b0390921691909117905550565b6000838152602081905260409020546001600160a01b0316158015610258575060208401516001600160a01b031633145b8061027957506000838152602081905260409020546001600160a01b031633145b6102955760405162461bcd60e51b81526004016101ef90610c06565b6102a184848484610579565b6102ed5760405162461bcd60e51b815260206004820152601a60248201527f57726f6e6720737461746520726f6f74206f722070726f6f662e00000000000060448201526064016101ef565b6000838152602081815260408083205460019092528083205490516001600160a01b039092169281156108fc029290818181858888f19350505050158015610339573d6000803e3d6000fd5b5083516001600160a01b031661037257478460400151111561036d5760405162461bcd60e51b81526004016101ef90610c64565b61049d565b83516040516370a0823160e01b81523060048201526001600160a01b038216906370a082319060240160206040518083038186803b1580156103b357600080fd5b505afa1580156103c7573d6000803e3d6000fd5b505050506040513d601f19601f820116820180604052508101906103eb9190610cab565b8560400151111561040e5760405162461bcd60e51b81526004016101ef90610c64565b60408581015190516323b872dd60e01b815230600482015233602482015260448101919091526001600160a01b038216906323b872dd90606401602060405180830381600087803b15801561046257600080fd5b505af1158015610476573d6000803e3d6000fd5b505050506040513d601f19601f8201168201806040525081019061049a9190610cc4565b50505b50505050565b6000818152602081905260409020546001600160a01b0316156104fc5760405162461bcd60e51b81526020600482015260116024820152704f776e6572206973206e6f6e207a65726f60781b60448201526064016101ef565b60006105088342610943565b9050803410156105665760405162461bcd60e51b8152602060048201526024808201527f4572726f72203a204e6f6e2053756666656369656e742066756e6473212121216044820152632121212160e01b60648201526084016101ef565b6000918252600160205260409091205550565b600080600286600001518760200151886040015189606001518a608001518b60a001516040516020016105ed96959493929190606096871b6bffffffffffffffffffffffff1990811682529590961b9094166014860152602885019290925260488401526068830152608882015260a80190565b60408051601f198184030181529082905261060791610ce6565b602060405180830381855afa158015610624573d6000803e3d6000fd5b5050506040513d601f19601f820116820180604052508101906106479190610cab565b60085460405160609190911b6bffffffffffffffffffffffff1916602082015290915060009060029060340160408051601f198184030181529082905261068d91610ce6565b602060405180830381855afa1580156106aa573d6000803e3d6000fd5b5050506040513d601f19601f820116820180604052508101906106cd9190610cab565b905060006002876040516020016106e691815260200190565b60408051601f198184030181529082905261070091610ce6565b602060405180830381855afa15801561071d573d6000803e3d6000fd5b5050506040513d601f19601f820116820180604052508101906107409190610cab565b60408051602081018690529081018490526060810182905290915060009060029060800160408051601f198184030181529082905261077e91610ce6565b602060405180830381855afa15801561079b573d6000803e3d6000fd5b5050506040513d601f19601f820116820180604052508101906107be9190610cab565b90508060005b88518110156109335760026107d98282610e1b565b6107e39083610e3d565b6107ed9190610e51565b6001141561088d57600289828151811061080957610809610e65565b60200260200101518360405160200161082c929190918252602082015260400190565b60408051601f198184030181529082905261084691610ce6565b602060405180830381855afa158015610863573d6000803e3d6000fd5b5050506040513d601f19601f820116820180604052508101906108869190610cab565b9150610921565b6002828a83815181106108a2576108a2610e65565b60200260200101516040516020016108c4929190918252602082015260400190565b60408051601f19818403018152908290526108de91610ce6565b602060405180830381855afa1580156108fb573d6000803e3d6000fd5b5050506040513d601f19601f8201168201806040525081019061091e9190610cab565b91505b8061092b81610e7b565b9150506107c4565b5090951498975050505050505050565b600082608001518210156109595750600061099f565b8260a00151836080015161096d9190610e96565b821061097e5750606082015161099f565b608083015161098d9083610eae565b836060015161099c9190610ec5565b90505b92915050565b6000602082840312156109b757600080fd5b5035919050565b634e487b7160e01b600052604160045260246000fd5b604051601f8201601f1916810167ffffffffffffffff811182821017156109fd576109fd6109be565b604052919050565b6001600160a01b0381168114610a1a57600080fd5b50565b600060c08284031215610a2f57600080fd5b60405160c0810181811067ffffffffffffffff82111715610a5257610a526109be565b6040529050808235610a6381610a05565b81526020830135610a7381610a05565b8060208301525060408301356040820152606083013560608201526080830135608082015260a083013560a08201525092915050565b60008060006101008486031215610abf57600080fd5b610ac98585610a1d565b925060c0840135915060e0840135610ae081610a05565b809150509250925092565b6000806000806101208587031215610b0257600080fd5b610b0c8686610a1d565b935060c0850135925060e085013567ffffffffffffffff80821115610b3057600080fd5b818701915087601f830112610b4457600080fd5b8135602082821115610b5857610b586109be565b8160051b9250610b698184016109d4565b828152928401810192818101908b851115610b8357600080fd5b948201945b84861015610ba157853582529482019490820190610b88565b989b979a50979861010001359750505050505050565b60008060e08385031215610bca57600080fd5b610bd48484610a1d565b9460c0939093013593505050565b600060208284031215610bf457600080fd5b8151610bff81610a05565b9392505050565b602080825260409082018190527f43616e206f6e6c792062652063616c6c6564206279206f776e6572206f722064908201527f657374696e6174696f6e206966207468657265206973206e6f206f776e65722e606082015260800190565b60208082526027908201527f436f6e747261637420646f65736e2774206861766520656e6f7567682066756e6040820152663239903cb2ba1760c91b606082015260800190565b600060208284031215610cbd57600080fd5b5051919050565b600060208284031215610cd657600080fd5b81518015158114610bff57600080fd5b6000825160005b81811015610d075760208186018101518583015201610ced565b81811115610d16576000828501525b509190910192915050565b634e487b7160e01b600052601160045260246000fd5b600181815b80851115610d72578160001904821115610d5857610d58610d21565b80851615610d6557918102915b93841c9390800290610d3c565b509250929050565b600082610d895750600161099f565b81610d965750600061099f565b8160018114610dac5760028114610db657610dd2565b600191505061099f565b60ff841115610dc757610dc7610d21565b50506001821b61099f565b5060208310610133831016604e8410600b8410161715610df5575081810a61099f565b610dff8383610d37565b8060001904821115610e1357610e13610d21565b029392505050565b6000610bff8383610d7a565b634e487b7160e01b600052601260045260246000fd5b600082610e4c57610e4c610e27565b500490565b600082610e6057610e60610e27565b500690565b634e487b7160e01b600052603260045260246000fd5b6000600019821415610e8f57610e8f610d21565b5060010190565b60008219821115610ea957610ea9610d21565b500190565b600082821015610ec057610ec0610d21565b500390565b6000816000190483118215151615610edf57610edf610d21565b50029056fea26469706673582212208ed5a32eeb31d3c7036eb174e0cc8463be31de4b4c539a49f84bf8a224d125bf64736f6c63430008090033","bytecodeSha1":"e6f4ec7a05c681f0ea628513d6093d8517c0ed1c","compiler":{"evm_version":"istanbul","optimizer":{"enabled":true,"runs":200},"version":"0.8.9+commit.e5eed63a"},"contractName":"DestinationDomainSideBridge","language":"Solidity","natspec":{"author":"Sherif Abdelmoatty","kind":"dev","methods":{"approveStateRoot(bytes32)":{"notice":"approveStateRoot functionreceives the approved state root message from l1DomainSideBridge contract through the L2CrossDomainMessenger bridge"},"buy((address,address,uint256,uint256,uint256,uint256),uint256)":{"notice":"buy functionif the owner is zero, anyone can call this function paying the required tokensand claiming ownership"},"changeOwner((address,address,uint256,uint256,uint256,uint256),uint256,address)":{"notice":"changeOwner functionif the owner is zero, the destination address can transfer ownership to the newOwnerAlso the woner can transfer ownership to the newOwner"},"constructor":{"notice":"Constructior functionIntialize variables"},"withdraw((address,address,uint256,uint256,uint256,uint256),uint256,bytes32[],bytes32)":{"notice":"withdraw functionif the contract has enough balance, the owner(or the destination if the owner is zero)can call this function, the function will confirm the transfer with the state rootand if the transfer is confirmed, the transfer value will be transfered to the destination address","params":{"stateRootProof":"should be calculated offline"}}},"notice":"This contract is to be deployed in the destination rollup","title":"DestinationDomainSideBridge Contract","version":1},"opcodes":"PUSH1 0x80 PUSH1 0x40 MSTORE PUSH1 0x4 CALLDATASIZE LT PUSH2 0x3F JUMPI PUSH1 0x0 CALLDATALOAD PUSH1 0xE0 SHR DUP1 PUSH4 0x25222C9F EQ PUSH2 0x44 JUMPI DUP1 PUSH4 0x3430E41A EQ PUSH2 0x66 JUMPI DUP1 PUSH4 0xA91FB688 EQ PUSH2 0x86 JUMPI DUP1 PUSH4 0xBBA64A7F EQ PUSH2 0xA6 JUMPI JUMPDEST PUSH1 0x0 DUP1 REVERT JUMPDEST CALLVALUE DUP1 ISZERO PUSH2 0x50 JUMPI PUSH1 0x0 DUP1 REVERT JUMPDEST POP PUSH2 0x64 PUSH2 0x5F CALLDATASIZE PUSH1 0x4 PUSH2 0x9A5 JUMP JUMPDEST PUSH2 0xB9 JUMP JUMPDEST STOP JUMPDEST CALLVALUE DUP1 ISZERO PUSH2 0x72 JUMPI PUSH1 0x0 DUP1 REVERT JUMPDEST POP PUSH2 0x64 PUSH2 0x81 CALLDATASIZE PUSH1 0x4 PUSH2 0xAA9 JUMP JUMPDEST PUSH2 0x181 JUMP JUMPDEST CALLVALUE DUP1 ISZERO PUSH2 0x92 JUMPI PUSH1 0x0 DUP1 REVERT JUMPDEST POP PUSH2 0x64 PUSH2 0xA1 CALLDATASIZE PUSH1 0x4 PUSH2 0xAEB JUMP JUMPDEST PUSH2 0x227 JUMP JUMPDEST PUSH2 0x64 PUSH2 0xB4 CALLDATASIZE PUSH1 0x4 PUSH2 0xBB7 JUMP JUMPDEST PUSH2 0x4A3 JUMP JUMPDEST PUSH1 0x6 SLOAD PUSH1 0x1 PUSH1 0x1 PUSH1 0xA0 SHL SUB AND CALLER EQ DUP1 ISZERO PUSH2 0x15D JUMPI POP PUSH1 0x7 SLOAD PUSH1 0x6 SLOAD PUSH1 0x40 DUP1 MLOAD PUSH4 0x6E296E45 PUSH1 0xE0 SHL DUP2 MSTORE SWAP1 MLOAD PUSH1 0x1 PUSH1 0x1 PUSH1 0xA0 SHL SUB SWAP4 DUP5 AND SWAP4 SWAP1 SWAP3 AND SWAP2 PUSH4 0x6E296E45 SWAP2 PUSH1 0x4 DUP1 DUP3 ADD SWAP3 PUSH1 0x20 SWAP3 SWAP1 SWAP2 SWAP1 DUP3 SWAP1 SUB ADD DUP2 DUP7 DUP1 EXTCODESIZE ISZERO DUP1 ISZERO PUSH2 0x11A JUMPI PUSH1 0x0 DUP1 REVERT JUMPDEST POP GAS STATICCALL ISZERO DUP1 ISZERO PUSH2 0x12E JUMPI RETURNDATASIZE PUSH1 0x0 DUP1 RETURNDATACOPY RETURNDATASIZE PUSH1 0x0 REVERT JUMPDEST POP POP POP POP PUSH1 0x40 MLOAD RETURNDATASIZE PUSH1 0x1F NOT PUSH1 0x1F DUP3 ADD AND DUP3 ADD DUP1 PUSH1 0x40 MSTORE POP DUP2 ADD SWAP1 PUSH2 0x152 SWAP2 SWAP1 PUSH2 0xBE2 JUMP JUMPDEST PUSH1 0x1 PUSH1 0x1 PUSH1 0xA0 SHL SUB AND EQ JUMPDEST PUSH2 0x166 JUMPI PUSH1 0x0 DUP1 REVERT JUMPDEST PUSH1 0x0 SWAP1 DUP2 MSTORE PUSH1 0x5 PUSH1 0x20 MSTORE PUSH1 0x40 SWAP1 KECCAK256 DUP1 SLOAD PUSH1 0xFF NOT AND PUSH1 0x1 OR SWAP1 SSTORE JUMP JUMPDEST PUSH1 0x0 DUP3 DUP2 MSTORE PUSH1 0x20 DUP2 SWAP1 MSTORE PUSH1 0x40 SWAP1 KECCAK256 SLOAD PUSH1 0x1 PUSH1 0x1 PUSH1 0xA0 SHL SUB AND ISZERO DUP1 ISZERO PUSH2 0x1B2 JUMPI POP PUSH1 0x20 DUP4 ADD MLOAD PUSH1 0x1 PUSH1 0x1 PUSH1 0xA0 SHL SUB AND CALLER EQ JUMPDEST DUP1 PUSH2 0x1D3 JUMPI POP PUSH1 0x0 DUP3 DUP2 MSTORE PUSH1 0x20 DUP2 SWAP1 MSTORE PUSH1 0x40 SWAP1 KECCAK256 SLOAD PUSH1 0x1 PUSH1 0x1 PUSH1 0xA0 SHL SUB AND CALLER EQ JUMPDEST PUSH2 0x1F8 JUMPI PUSH1 0x40 MLOAD PUSH3 0x461BCD PUSH1 0xE5 SHL DUP2 MSTORE PUSH1 0x4 ADD PUSH2 0x1EF SWAP1 PUSH2 0xC06 JUMP JUMPDEST PUSH1 0x40 MLOAD DUP1 SWAP2 SUB SWAP1 REVERT JUMPDEST PUSH1 0x0 SWAP2 DUP3 MSTORE PUSH1 0x20 DUP3 SWAP1 MSTORE PUSH1 0x40 SWAP1 SWAP2 KECCAK256 DUP1 SLOAD PUSH1 0x1 PUSH1 0x1 PUSH1 0xA0 SHL SUB NOT AND PUSH1 0x1 PUSH1 0x1 PUSH1 0xA0 SHL SUB SWAP1 SWAP3 AND SWAP2 SWAP1 SWAP2 OR SWAP1 SSTORE POP JUMP JUMPDEST PUSH1 0x0 DUP4 DUP2 MSTORE PUSH1 0x20 DUP2 SWAP1 MSTORE PUSH1 0x40 SWAP1 KECCAK256 SLOAD PUSH1 0x1 PUSH1 0x1 PUSH1 0xA0 SHL SUB AND ISZERO DUP1 ISZERO PUSH2 0x258 JUMPI POP PUSH1 0x20 DUP5 ADD MLOAD PUSH1 0x1 PUSH1 0x1 PUSH1 0xA0 SHL SUB AND CALLER EQ JUMPDEST DUP1 PUSH2 0x279 JUMPI POP PUSH1 0x0 DUP4 DUP2 MSTORE PUSH1 0x20 DUP2 SWAP1 MSTORE PUSH1 0x40 SWAP1 KECCAK256 SLOAD PUSH1 0x1 PUSH1 0x1 PUSH1 0xA0 SHL SUB AND CALLER EQ JUMPDEST PUSH2 0x295 JUMPI PUSH1 0x40 MLOAD PUSH3 0x461BCD PUSH1 0xE5 SHL DUP2 MSTORE PUSH1 0x4 ADD PUSH2 0x1EF SWAP1 PUSH2 0xC06 JUMP JUMPDEST PUSH2 0x2A1 DUP5 DUP5 DUP5 DUP5 PUSH2 0x579 JUMP JUMPDEST PUSH2 0x2ED JUMPI PUSH1 0x40 MLOAD PUSH3 0x461BCD PUSH1 0xE5 SHL DUP2 MSTORE PUSH1 0x20 PUSH1 0x4 DUP3 ADD MSTORE PUSH1 0x1A PUSH1 0x24 DUP3 ADD MSTORE PUSH32 0x57726F6E6720737461746520726F6F74206F722070726F6F662E000000000000 PUSH1 0x44 DUP3 ADD MSTORE PUSH1 0x64 ADD PUSH2 0x1EF JUMP JUMPDEST PUSH1 0x0 DUP4 DUP2 MSTORE PUSH1 0x20 DUP2 DUP2 MSTORE PUSH1 0x40 DUP1 DUP4 KECCAK256 SLOAD PUSH1 0x1 SWAP1 SWAP3 MSTORE DUP1 DUP4 KECCAK256 SLOAD SWAP1 MLOAD PUSH1 0x1 PUSH1 0x1 PUSH1 0xA0 SHL SUB SWAP1 SWAP3 AND SWAP3 DUP2 ISZERO PUSH2 0x8FC MUL SWAP3 SWAP1 DUP2 DUP2 DUP2 DUP6 DUP9 DUP9 CALL SWAP4 POP POP POP POP ISZERO DUP1 ISZERO PUSH2 0x339 JUMPI RETURNDATASIZE PUSH1 0x0 DUP1 RETURNDATACOPY RETURNDATASIZE PUSH1 0x0 REVERT JUMPDEST POP DUP4 MLOAD PUSH1 0x1 PUSH1 0x1 PUSH1 0xA0 SHL SUB AND PUSH2 0x372 JUMPI SELFBALANCE DUP5 PUSH1 0x40 ADD MLOAD GT ISZERO PUSH2 0x36D JUMPI PUSH1 0x40 MLOAD PUSH3 0x461BCD PUSH1 0xE5 SHL DUP2 MSTORE PUSH1 0x4 ADD PUSH2 0x1EF SWAP1 PUSH2 0xC64 JUMP JUMPDEST PUSH2 0x49D JUMP JUMPDEST DUP4 MLOAD PUSH1 0x40 MLOAD PUSH4 0x70A08231 PUSH1 0xE0 SHL DUP2 MSTORE ADDRESS PUSH1 0x4 DUP3 ADD MSTORE PUSH1 0x1 PUSH1 0x1 PUSH1 0xA0 SHL SUB DUP3 AND SWAP1 PUSH4 0x70A08231 SWAP1 PUSH1 0x24 ADD PUSH1 0x20 PUSH1 0x40 MLOAD DUP1 DUP4 SUB DUP2 DUP7 DUP1 EXTCODESIZE ISZERO DUP1 ISZERO PUSH2 0x3B3 JUMPI PUSH1 0x0 DUP1 REVERT JUMPDEST POP GAS STATICCALL ISZERO DUP1 ISZERO PUSH2 0x3C7 JUMPI RETURNDATASIZE PUSH1 0x0 DUP1 RETURNDATACOPY RETURNDATASIZE PUSH1 0x0 REVERT JUMPDEST POP POP POP POP PUSH1 0x40 MLOAD RETURNDATASIZE PUSH1 0x1F NOT PUSH1 0x1F DUP3 ADD AND DUP3 ADD DUP1 PUSH1 0x40 MSTORE POP DUP2 ADD SWAP1 PUSH2 0x3EB SWAP2 SWAP1 PUSH2 0xCAB JUMP JUMPDEST DUP6 PUSH1 0x40 ADD MLOAD GT ISZERO PUSH2 0x40E JUMPI PUSH1 0x40 MLOAD PUSH3 0x461BCD PUSH1 0xE5 SHL DUP2 MSTORE PUSH1 0x4 ADD PUSH2 0x1EF SWAP1 PUSH2 0xC64 JUMP JUMPDEST PUSH1 0x40 DUP6 DUP2 ADD MLOAD SWAP1 MLOAD PUSH4 0x23B872DD PUSH1 0xE0 SHL DUP2 MSTORE ADDRESS PUSH1 0x4 DUP3 ADD MSTORE CALLER PUSH1 0x24 DUP3 ADD MSTORE PUSH1 0x44 DUP2 ADD SWAP2 SWAP1 SWAP2 MSTORE PUSH1 0x1 PUSH1 0x1 PUSH1 0xA0 SHL SUB DUP3 AND SWAP1 PUSH4 0x23B872DD SWAP1 PUSH1 0x64 ADD PUSH1 0x20 PUSH1 0x40 MLOAD DUP1 DUP4 SUB DUP2 PUSH1 0x0 DUP8 DUP1 EXTCODESIZE ISZERO DUP1 ISZERO PUSH2 0x462 JUMPI PUSH1 0x0 DUP1 REVERT JUMPDEST POP GAS CALL ISZERO DUP1 ISZERO PUSH2 0x476 JUMPI RETURNDATASIZE PUSH1 0x0 DUP1 RETURNDATACOPY RETURNDATASIZE PUSH1 0x0 REVERT JUMPDEST POP POP POP POP PUSH1 0x40 MLOAD RETURNDATASIZE PUSH1 0x1F NOT PUSH1 0x1F DUP3 ADD AND DUP3 ADD DUP1 PUSH1 0x40 MSTORE POP DUP2 ADD SWAP1 PUSH2 0x49A SWAP2 SWAP1 PUSH2 0xCC4 JUMP JUMPDEST POP POP JUMPDEST POP POP POP POP JUMP JUMPDEST PUSH1 0x0 DUP2 DUP2 MSTORE PUSH1 0x20 DUP2 SWAP1 MSTORE PUSH1 0x40 SWAP1 KECCAK256 SLOAD PUSH1 0x1 PUSH1 0x1 PUSH1 0xA0 SHL SUB AND ISZERO PUSH2 0x4FC JUMPI PUSH1 0x40 MLOAD PUSH3 0x461BCD PUSH1 0xE5 SHL DUP2 MSTORE PUSH1 0x20 PUSH1 0x4 DUP3 ADD MSTORE PUSH1 0x11 PUSH1 0x24 DUP3 ADD MSTORE PUSH17 0x4F776E6572206973206E6F6E207A65726F PUSH1 0x78 SHL PUSH1 0x44 DUP3 ADD MSTORE PUSH1 0x64 ADD PUSH2 0x1EF JUMP JUMPDEST PUSH1 0x0 PUSH2 0x508 DUP4 TIMESTAMP PUSH2 0x943 JUMP JUMPDEST SWAP1 POP DUP1 CALLVALUE LT ISZERO PUSH2 0x566 JUMPI PUSH1 0x40 MLOAD PUSH3 0x461BCD PUSH1 0xE5 SHL DUP2 MSTORE PUSH1 0x20 PUSH1 0x4 DUP3 ADD MSTORE PUSH1 0x24 DUP1 DUP3 ADD MSTORE PUSH32 0x4572726F72203A204E6F6E2053756666656369656E742066756E647321212121 PUSH1 0x44 DUP3 ADD MSTORE PUSH4 0x21212121 PUSH1 0xE0 SHL PUSH1 0x64 DUP3 ADD MSTORE PUSH1 0x84 ADD PUSH2 0x1EF JUMP JUMPDEST PUSH1 0x0 SWAP2 DUP3 MSTORE PUSH1 0x1 PUSH1 0x20 MSTORE PUSH1 0x40 SWAP1 SWAP2 KECCAK256 SSTORE POP JUMP JUMPDEST PUSH1 0x0 DUP1 PUSH1 0x2 DUP7 PUSH1 0x0 ADD MLOAD DUP8 PUSH1 0x20 ADD MLOAD DUP9 PUSH1 0x40 ADD MLOAD DUP10 PUSH1 0x60 ADD MLOAD DUP11 PUSH1 0x80 ADD MLOAD DUP12 PUSH1 0xA0 ADD MLOAD PUSH1 0x40 MLOAD PUSH1 0x20 ADD PUSH2 0x5ED SWAP7 SWAP6 SWAP5 SWAP4 SWAP3 SWAP2 SWAP1 PUSH1 0x60 SWAP7 DUP8 SHL PUSH12 0xFFFFFFFFFFFFFFFFFFFFFFFF NOT SWAP1 DUP2 AND DUP3 MSTORE SWAP6 SWAP1 SWAP7 SHL SWAP1 SWAP5 AND PUSH1 0x14 DUP7 ADD MSTORE PUSH1 0x28 DUP6 ADD SWAP3 SWAP1 SWAP3 MSTORE PUSH1 0x48 DUP5 ADD MSTORE PUSH1 0x68 DUP4 ADD MSTORE PUSH1 0x88 DUP3 ADD MSTORE PUSH1 0xA8 ADD SWAP1 JUMP JUMPDEST PUSH1 0x40 DUP1 MLOAD PUSH1 0x1F NOT DUP2 DUP5 SUB ADD DUP2 MSTORE SWAP1 DUP3 SWAP1 MSTORE PUSH2 0x607 SWAP2 PUSH2 0xCE6 JUMP JUMPDEST PUSH1 0x20 PUSH1 0x40 MLOAD DUP1 DUP4 SUB DUP2 DUP6 GAS STATICCALL ISZERO DUP1 ISZERO PUSH2 0x624 JUMPI RETURNDATASIZE PUSH1 0x0 DUP1 RETURNDATACOPY RETURNDATASIZE PUSH1 0x0 REVERT JUMPDEST POP POP POP PUSH1 0x40 MLOAD RETURNDATASIZE PUSH1 0x1F NOT PUSH1 0x1F DUP3 ADD AND DUP3 ADD DUP1 PUSH1 0x40 MSTORE POP DUP2 ADD SWAP1 PUSH2 0x647 SWAP2 SWAP1 PUSH2 0xCAB JUMP JUMPDEST PUSH1 0x8 SLOAD PUSH1 0x40 MLOAD PUSH1 0x60 SWAP2 SWAP1 SWAP2 SHL PUSH12 0xFFFFFFFFFFFFFFFFFFFFFFFF NOT AND PUSH1 0x20 DUP3 ADD MSTORE SWAP1 SWAP2 POP PUSH1 0x0 SWAP1 PUSH1 0x2 SWAP1 PUSH1 0x34 ADD PUSH1 0x40 DUP1 MLOAD PUSH1 0x1F NOT DUP2 DUP5 SUB ADD DUP2 MSTORE SWAP1 DUP3 SWAP1 MSTORE PUSH2 0x68D SWAP2 PUSH2 0xCE6 JUMP JUMPDEST PUSH1 0x20 PUSH1 0x40 MLOAD DUP1 DUP4 SUB DUP2 DUP6 GAS STATICCALL ISZERO DUP1 ISZERO PUSH2 0x6AA JUMPI RETURNDATASIZE PUSH1 0x0 DUP1 RETURNDATACOPY RETURNDATASIZE PUSH1 0x0 REVERT JUMPDEST POP POP POP PUSH1 0x40 MLOAD RETURNDATASIZE PUSH1 0x1F NOT PUSH1 0x1F DUP3 ADD AND DUP3 ADD DUP1 PUSH1 0x40 MSTORE POP DUP2 ADD SWAP1 PUSH2 0x6CD SWAP2 SWAP1 PUSH2 0xCAB JUMP JUMPDEST SWAP1 POP PUSH1 0x0 PUSH1 0x2 DUP8 PUSH1 0x40 MLOAD PUSH1 0x20 ADD PUSH2 0x6E6 SWAP2 DUP2 MSTORE PUSH1 0x20 ADD SWAP1 JUMP JUMPDEST PUSH1 0x40 DUP1 MLOAD PUSH1 0x1F NOT DUP2 DUP5 SUB ADD DUP2 MSTORE SWAP1 DUP3 SWAP1 MSTORE PUSH2 0x700 SWAP2 PUSH2 0xCE6 JUMP JUMPDEST PUSH1 0x20 PUSH1 0x40 MLOAD DUP1 DUP4 SUB DUP2 DUP6 GAS STATICCALL ISZERO DUP1 ISZERO PUSH2 0x71D JUMPI RETURNDATASIZE PUSH1 0x0 DUP1 RETURNDATACOPY RETURNDATASIZE PUSH1 0x0 REVERT JUMPDEST POP POP POP PUSH1 0x40 MLOAD RETURNDATASIZE PUSH1 0x1F NOT PUSH1 0x1F DUP3 ADD AND DUP3 ADD DUP1 PUSH1 0x40 MSTORE POP DUP2 ADD SWAP1 PUSH2 0x740 SWAP2 SWAP1 PUSH2 0xCAB JUMP JUMPDEST PUSH1 0x40 DUP1 MLOAD PUSH1 0x20 DUP2 ADD DUP7 SWAP1 MSTORE SWAP1 DUP2 ADD DUP5 SWAP1 MSTORE PUSH1 0x60 DUP2 ADD DUP3 SWAP1 MSTORE SWAP1 SWAP2 POP PUSH1 0x0 SWAP1 PUSH1 0x2 SWAP1 PUSH1 0x80 ADD PUSH1 0x40 DUP1 MLOAD PUSH1 0x1F NOT DUP2 DUP5 SUB ADD DUP2 MSTORE SWAP1 DUP3 SWAP1 MSTORE PUSH2 0x77E SWAP2 PUSH2 0xCE6 JUMP JUMPDEST PUSH1 0x20 PUSH1 0x40 MLOAD DUP1 DUP4 SUB DUP2 DUP6 GAS STATICCALL ISZERO DUP1 ISZERO PUSH2 0x79B JUMPI RETURNDATASIZE PUSH1 0x0 DUP1 RETURNDATACOPY RETURNDATASIZE PUSH1 0x0 REVERT JUMPDEST POP POP POP PUSH1 0x40 MLOAD RETURNDATASIZE PUSH1 0x1F NOT PUSH1 0x1F DUP3 ADD AND DUP3 ADD DUP1 PUSH1 0x40 MSTORE POP DUP2 ADD SWAP1 PUSH2 0x7BE SWAP2 SWAP1 PUSH2 0xCAB JUMP JUMPDEST SWAP1 POP DUP1 PUSH1 0x0 JUMPDEST DUP9 MLOAD DUP2 LT ISZERO PUSH2 0x933 JUMPI PUSH1 0x2 PUSH2 0x7D9 DUP3 DUP3 PUSH2 0xE1B JUMP JUMPDEST PUSH2 0x7E3 SWAP1 DUP4 PUSH2 0xE3D JUMP JUMPDEST PUSH2 0x7ED SWAP2 SWAP1 PUSH2 0xE51 JUMP JUMPDEST PUSH1 0x1 EQ ISZERO PUSH2 0x88D JUMPI PUSH1 0x2 DUP10 DUP3 DUP2 MLOAD DUP2 LT PUSH2 0x809 JUMPI PUSH2 0x809 PUSH2 0xE65 JUMP JUMPDEST PUSH1 0x20 MUL PUSH1 0x20 ADD ADD MLOAD DUP4 PUSH1 0x40 MLOAD PUSH1 0x20 ADD PUSH2 0x82C SWAP3 SWAP2 SWAP1 SWAP2 DUP3 MSTORE PUSH1 0x20 DUP3 ADD MSTORE PUSH1 0x40 ADD SWAP1 JUMP JUMPDEST PUSH1 0x40 DUP1 MLOAD PUSH1 0x1F NOT DUP2 DUP5 SUB ADD DUP2 MSTORE SWAP1 DUP3 SWAP1 MSTORE PUSH2 0x846 SWAP2 PUSH2 0xCE6 JUMP JUMPDEST PUSH1 0x20 PUSH1 0x40 MLOAD DUP1 DUP4 SUB DUP2 DUP6 GAS STATICCALL ISZERO DUP1 ISZERO PUSH2 0x863 JUMPI RETURNDATASIZE PUSH1 0x0 DUP1 RETURNDATACOPY RETURNDATASIZE PUSH1 0x0 REVERT JUMPDEST POP POP POP PUSH1 0x40 MLOAD RETURNDATASIZE PUSH1 0x1F NOT PUSH1 0x1F DUP3 ADD AND DUP3 ADD DUP1 PUSH1 0x40 MSTORE POP DUP2 ADD SWAP1 PUSH2 0x886 SWAP2 SWAP1 PUSH2 0xCAB JUMP JUMPDEST SWAP2 POP PUSH2 0x921 JUMP JUMPDEST PUSH1 0x2 DUP3 DUP11 DUP4 DUP2 MLOAD DUP2 LT PUSH2 0x8A2 JUMPI PUSH2 0x8A2 PUSH2 0xE65 JUMP JUMPDEST PUSH1 0x20 MUL PUSH1 0x20 ADD ADD MLOAD PUSH1 0x40 MLOAD PUSH1 0x20 ADD PUSH2 0x8C4 SWAP3 SWAP2 SWAP1 SWAP2 DUP3 MSTORE PUSH1 0x20 DUP3 ADD MSTORE PUSH1 0x40 ADD SWAP1 JUMP JUMPDEST PUSH1 0x40 DUP1 MLOAD PUSH1 0x1F NOT DUP2 DUP5 SUB ADD DUP2 MSTORE SWAP1 DUP3 SWAP1 MSTORE PUSH2 0x8DE SWAP2 PUSH2 0xCE6 JUMP JUMPDEST PUSH1 0x20 PUSH1 0x40 MLOAD DUP1 DUP4 SUB DUP2 DUP6 GAS STATICCALL ISZERO DUP1 ISZERO PUSH2 0x8FB JUMPI RETURNDATASIZE PUSH1 0x0 DUP1 RETURNDATACOPY RETURNDATASIZE PUSH1 0x0 REVERT JUMPDEST POP POP POP PUSH1 0x40 MLOAD RETURNDATASIZE PUSH1 0x1F NOT PUSH1 0x1F DUP3 ADD AND DUP3 ADD DUP1 PUSH1 0x40 MSTORE POP DUP2 ADD SWAP1 PUSH2 0x91E SWAP2 SWAP1 PUSH2 0xCAB JUMP JUMPDEST SWAP2 POP JUMPDEST DUP1 PUSH2 0x92B DUP2 PUSH2 0xE7B JUMP JUMPDEST SWAP2 POP POP PUSH2 0x7C4 JUMP JUMPDEST POP SWAP1 SWAP6 EQ SWAP9 SWAP8 POP POP POP POP POP POP POP POP JUMP JUMPDEST PUSH1 0x0 DUP3 PUSH1 0x80 ADD MLOAD DUP3 LT ISZERO PUSH2 0x959 JUMPI POP PUSH1 0x0 PUSH2 0x99F JUMP JUMPDEST DUP3 PUSH1 0xA0 ADD MLOAD DUP4 PUSH1 0x80 ADD MLOAD PUSH2 0x96D SWAP2 SWAP1 PUSH2 0xE96 JUMP JUMPDEST DUP3 LT PUSH2 0x97E JUMPI POP PUSH1 0x60 DUP3 ADD MLOAD PUSH2 0x99F JUMP JUMPDEST PUSH1 0x80 DUP4 ADD MLOAD PUSH2 0x98D SWAP1 DUP4 PUSH2 0xEAE JUMP JUMPDEST DUP4 PUSH1 0x60 ADD MLOAD PUSH2 0x99C SWAP2 SWAP1 PUSH2 0xEC5 JUMP JUMPDEST SWAP1 POP JUMPDEST SWAP3 SWAP2 POP POP JUMP JUMPDEST PUSH1 0x0 PUSH1 0x20 DUP3 DUP5 SUB SLT ISZERO PUSH2 0x9B7 JUMPI PUSH1 0x0 DUP1 REVERT JUMPDEST POP CALLDATALOAD SWAP2 SWAP1 POP JUMP JUMPDEST PUSH4 0x4E487B71 PUSH1 0xE0 SHL PUSH1 0x0 MSTORE PUSH1 0x41 PUSH1 0x4 MSTORE PUSH1 0x24 PUSH1 0x0 REVERT JUMPDEST PUSH1 0x40 MLOAD PUSH1 0x1F DUP3 ADD PUSH1 0x1F NOT AND DUP2 ADD PUSH8 0xFFFFFFFFFFFFFFFF DUP2 GT DUP3 DUP3 LT OR ISZERO PUSH2 0x9FD JUMPI PUSH2 0x9FD PUSH2 0x9BE JUMP JUMPDEST PUSH1 0x40 MSTORE SWAP2 SWAP1 POP JUMP JUMPDEST PUSH1 0x1 PUSH1 0x1 PUSH1 0xA0 SHL SUB DUP2 AND DUP2 EQ PUSH2 0xA1A JUMPI PUSH1 0x0 DUP1 REVERT JUMPDEST POP JUMP JUMPDEST PUSH1 0x0 PUSH1 0xC0 DUP3 DUP5 SUB SLT ISZERO PUSH2 0xA2F JUMPI PUSH1 0x0 DUP1 REVERT JUMPDEST PUSH1 0x40 MLOAD PUSH1 0xC0 DUP2 ADD DUP2 DUP2 LT PUSH8 0xFFFFFFFFFFFFFFFF DUP3 GT OR ISZERO PUSH2 0xA52 JUMPI PUSH2 0xA52 PUSH2 0x9BE JUMP JUMPDEST PUSH1 0x40 MSTORE SWAP1 POP DUP1 DUP3 CALLDATALOAD PUSH2 0xA63 DUP2 PUSH2 0xA05 JUMP JUMPDEST DUP2 MSTORE PUSH1 0x20 DUP4 ADD CALLDATALOAD PUSH2 0xA73 DUP2 PUSH2 0xA05 JUMP JUMPDEST DUP1 PUSH1 0x20 DUP4 ADD MSTORE POP PUSH1 0x40 DUP4 ADD CALLDATALOAD PUSH1 0x40 DUP3 ADD MSTORE PUSH1 0x60 DUP4 ADD CALLDATALOAD PUSH1 0x60 DUP3 ADD MSTORE PUSH1 0x80 DUP4 ADD CALLDATALOAD PUSH1 0x80 DUP3 ADD MSTORE PUSH1 0xA0 DUP4 ADD CALLDATALOAD PUSH1 0xA0 DUP3 ADD MSTORE POP SWAP3 SWAP2 POP POP JUMP JUMPDEST PUSH1 0x0 DUP1 PUSH1 0x0 PUSH2 0x100 DUP5 DUP7 SUB SLT ISZERO PUSH2 0xABF JUMPI PUSH1 0x0 DUP1 REVERT JUMPDEST PUSH2 0xAC9 DUP6 DUP6 PUSH2 0xA1D JUMP JUMPDEST SWAP3 POP PUSH1 0xC0 DUP5 ADD CALLDATALOAD SWAP2 POP PUSH1 0xE0 DUP5 ADD CALLDATALOAD PUSH2 0xAE0 DUP2 PUSH2 0xA05 JUMP JUMPDEST DUP1 SWAP2 POP POP SWAP3 POP SWAP3 POP SWAP3 JUMP JUMPDEST PUSH1 0x0 DUP1 PUSH1 0x0 DUP1 PUSH2 0x120 DUP6 DUP8 SUB SLT ISZERO PUSH2 0xB02 JUMPI PUSH1 0x0 DUP1 REVERT JUMPDEST PUSH2 0xB0C DUP7 DUP7 PUSH2 0xA1D JUMP JUMPDEST SWAP4 POP PUSH1 0xC0 DUP6 ADD CALLDATALOAD SWAP3 POP PUSH1 0xE0 DUP6 ADD CALLDATALOAD PUSH8 0xFFFFFFFFFFFFFFFF DUP1 DUP3 GT ISZERO PUSH2 0xB30 JUMPI PUSH1 0x0 DUP1 REVERT JUMPDEST DUP2 DUP8 ADD SWAP2 POP DUP8 PUSH1 0x1F DUP4 ADD SLT PUSH2 0xB44 JUMPI PUSH1 0x0 DUP1 REVERT JUMPDEST DUP2 CALLDATALOAD PUSH1 0x20 DUP3 DUP3 GT ISZERO PUSH2 0xB58 JUMPI PUSH2 0xB58 PUSH2 0x9BE JUMP JUMPDEST DUP2 PUSH1 0x5 SHL SWAP3 POP PUSH2 0xB69 DUP2 DUP5 ADD PUSH2 0x9D4 JUMP JUMPDEST DUP3 DUP2 MSTORE SWAP3 DUP5 ADD DUP2 ADD SWAP3 DUP2 DUP2 ADD SWAP1 DUP12 DUP6 GT ISZERO PUSH2 0xB83 JUMPI PUSH1 0x0 DUP1 REVERT JUMPDEST SWAP5 DUP3 ADD SWAP5 JUMPDEST DUP5 DUP7 LT ISZERO PUSH2 0xBA1 JUMPI DUP6 CALLDATALOAD DUP3 MSTORE SWAP5 DUP3 ADD SWAP5 SWAP1 DUP3 ADD SWAP1 PUSH2 0xB88 JUMP JUMPDEST SWAP9 SWAP12 SWAP8 SWAP11 POP SWAP8 SWAP9 PUSH2 0x100 ADD CALLDATALOAD SWAP8 POP POP POP POP POP POP POP JUMP JUMPDEST PUSH1 0x0 DUP1 PUSH1 0xE0 DUP4 DUP6 SUB SLT ISZERO PUSH2 0xBCA JUMPI PUSH1 0x0 DUP1 REVERT JUMPDEST PUSH2 0xBD4 DUP5 DUP5 PUSH2 0xA1D JUMP JUMPDEST SWAP5 PUSH1 0xC0 SWAP4 SWAP1 SWAP4 ADD CALLDATALOAD SWAP4 POP POP POP JUMP JUMPDEST PUSH1 0x0 PUSH1 0x20 DUP3 DUP5 SUB SLT ISZERO PUSH2 0xBF4 JUMPI PUSH1 0x0 DUP1 REVERT JUMPDEST DUP2 MLOAD PUSH2 0xBFF DUP2 PUSH2 0xA05 JUMP JUMPDEST SWAP4 SWAP3 POP POP POP JUMP JUMPDEST PUSH1 0x20 DUP1 DUP3 MSTORE PUSH1 0x40 SWAP1 DUP3 ADD DUP2 SWAP1 MSTORE PUSH32 0x43616E206F6E6C792062652063616C6C6564206279206F776E6572206F722064 SWAP1 DUP3 ADD MSTORE PUSH32 0x657374696E6174696F6E206966207468657265206973206E6F206F776E65722E PUSH1 0x60 DUP3 ADD MSTORE PUSH1 0x80 ADD SWAP1 JUMP JUMPDEST PUSH1 0x20 DUP1 DUP3 MSTORE PUSH1 0x27 SWAP1 DUP3 ADD MSTORE PUSH32 0x436F6E747261637420646F65736E2774206861766520656E6F7567682066756E PUSH1 0x40 DUP3 ADD MSTORE PUSH7 0x3239903CB2BA17 PUSH1 0xC9 SHL PUSH1 0x60 DUP3 ADD MSTORE PUSH1 0x80 ADD SWAP1 JUMP JUMPDEST PUSH1 0x0 PUSH1 0x20 DUP3 DUP5 SUB SLT ISZERO PUSH2 0xCBD JUMPI PUSH1 0x0 DUP1 REVERT JUMPDEST POP MLOAD SWAP2 SWAP1 POP JUMP JUMPDEST PUSH1 0x0 PUSH1 0x20 DUP3 DUP5 SUB SLT ISZERO PUSH2 0xCD6 JUMPI PUSH1 0x0 DUP1 REVERT JUMPDEST DUP2 MLOAD DUP1 ISZERO ISZERO DUP2 EQ PUSH2 0xBFF JUMPI PUSH1 0x0 DUP1 REVERT JUMPDEST PUSH1 0x0 DUP3 MLOAD PUSH1 0x0 JUMPDEST DUP2 DUP2 LT ISZERO PUSH2 0xD07 JUMPI PUSH1 0x20 DUP2 DUP7 ADD DUP2 ADD MLOAD DUP6 DUP4 ADD MSTORE ADD PUSH2 0xCED JUMP JUMPDEST DUP2 DUP2 GT ISZERO PUSH2 0xD16 JUMPI PUSH1 0x0 DUP3 DUP6 ADD MSTORE JUMPDEST POP SWAP2 SWAP1 SWAP2 ADD SWAP3 SWAP2 POP POP JUMP JUMPDEST PUSH4 0x4E487B71 PUSH1 0xE0 SHL PUSH1 0x0 MSTORE PUSH1 0x11 PUSH1 0x4 MSTORE PUSH1 0x24 PUSH1 0x0 REVERT JUMPDEST PUSH1 0x1 DUP2 DUP2 JUMPDEST DUP1 DUP6 GT ISZERO PUSH2 0xD72 JUMPI DUP2 PUSH1 0x0 NOT DIV DUP3 GT ISZERO PUSH2 0xD58 JUMPI PUSH2 0xD58 PUSH2 0xD21 JUMP JUMPDEST DUP1 DUP6 AND ISZERO PUSH2 0xD65 JUMPI SWAP2 DUP2 MUL SWAP2 JUMPDEST SWAP4 DUP5 SHR SWAP4 SWAP1 DUP1 MUL SWAP1 PUSH2 0xD3C JUMP JUMPDEST POP SWAP3 POP SWAP3 SWAP1 POP JUMP JUMPDEST PUSH1 0x0 DUP3 PUSH2 0xD89 JUMPI POP PUSH1 0x1 PUSH2 0x99F JUMP JUMPDEST DUP2 PUSH2 0xD96 JUMPI POP PUSH1 0x0 PUSH2 0x99F JUMP JUMPDEST DUP2 PUSH1 0x1 DUP2 EQ PUSH2 0xDAC JUMPI PUSH1 0x2 DUP2 EQ PUSH2 0xDB6 JUMPI PUSH2 0xDD2 JUMP JUMPDEST PUSH1 0x1 SWAP2 POP POP PUSH2 0x99F JUMP JUMPDEST PUSH1 0xFF DUP5 GT ISZERO PUSH2 0xDC7 JUMPI PUSH2 0xDC7 PUSH2 0xD21 JUMP JUMPDEST POP POP PUSH1 0x1 DUP3 SHL PUSH2 0x99F JUMP JUMPDEST POP PUSH1 0x20 DUP4 LT PUSH2 0x133 DUP4 LT AND PUSH1 0x4E DUP5 LT PUSH1 0xB DUP5 LT AND OR ISZERO PUSH2 0xDF5 JUMPI POP DUP2 DUP2 EXP PUSH2 0x99F JUMP JUMPDEST PUSH2 0xDFF DUP4 DUP4 PUSH2 0xD37 JUMP JUMPDEST DUP1 PUSH1 0x0 NOT DIV DUP3 GT ISZERO PUSH2 0xE13 JUMPI PUSH2 0xE13 PUSH2 0xD21 JUMP JUMPDEST MUL SWAP4 SWAP3 POP POP POP JUMP JUMPDEST PUSH1 0x0 PUSH2 0xBFF DUP4 DUP4 PUSH2 0xD7A JUMP JUMPDEST PUSH4 0x4E487B71 PUSH1 0xE0 SHL PUSH1 0x0 MSTORE PUSH1 0x12 PUSH1 0x4 MSTORE PUSH1 0x24 PUSH1 0x0 REVERT JUMPDEST PUSH1 0x0 DUP3 PUSH2 0xE4C JUMPI PUSH2 0xE4C PUSH2 0xE27 JUMP JUMPDEST POP DIV SWAP1 JUMP JUMPDEST PUSH1 0x0 DUP3 PUSH2 0xE60 JUMPI PUSH2 0xE60 PUSH2 0xE27 JUMP JUMPDEST POP MOD SWAP1 JUMP JUMPDEST PUSH4 0x4E487B71 PUSH1 0xE0 SHL PUSH1 0x0 MSTORE PUSH1 0x32 PUSH1 0x4 MSTORE PUSH1 0x24 PUSH1 0x0 REVERT JUMPDEST PUSH1 0x0 PUSH1 0x0 NOT DUP3 EQ ISZERO PUSH2 0xE8F JUMPI PUSH2 0xE8F PUSH2 0xD21 JUMP JUMPDEST POP PUSH1 0x1 ADD SWAP1 JUMP JUMPDEST PUSH1 0x0 DUP3 NOT DUP3 GT ISZERO PUSH2 0xEA9 JUMPI PUSH2 0xEA9 PUSH2 0xD21 JUMP JUMPDEST POP ADD SWAP1 JUMP JUMPDEST PUSH1 0x0 DUP3 DUP3 LT ISZERO PUSH2 0xEC0 JUMPI PUSH2 0xEC0 PUSH2 0xD21 JUMP JUMPDEST POP SUB SWAP1 JUMP JUMPDEST PUSH1 0x0 DUP2 PUSH1 0x0 NOT DIV DUP4 GT DUP3 ISZERO ISZERO AND ISZERO PUSH2 0xEDF JUMPI PUSH2 0xEDF PUSH2 0xD21 JUMP JUMPDEST POP MUL SWAP1 JUMP INVALID LOG2 PUSH5 0x6970667358 0x22 SLT KECCAK256 DUP15 0xD5 LOG3 0x2E 0xEB BALANCE 0xD3 0xC7 SUB PUSH15 0xB174E0CC8463BE31DE4B4C539A49F8 0x4B 0xF8 LOG2 0x24 0xD1 0x25 0xBF PUSH5 0x736F6C6343 STOP ADDMOD MULMOD STOP CALLER ","sha1":"a6a4980a0ae0d3f693d36d554729b9c0a7317944","source":"//SPDX-License-Identifier: MIT\npragma solidity ^0.8.9;\n\nimport \"@openzeppelin/contracts/token/ERC20/ERC20.sol\";\nimport \"./deb/optimism/contracts/L1/messaging/L1CrossDomainMessenger.sol\";\nimport \"./deb/optimism/contracts/L1/messaging/L1StandardBridge.sol\";\nimport \"./deb/optimism/contracts/L2/messaging/L2CrossDomainMessenger.sol\";\n\n/// @title DestinationDomainSideBridge Contract\n/// @author Sherif Abdelmoatty\n/// @notice This contract is to be deployed in the destination rollup\ncontract DestinationDomainSideBridge {\n    mapping(uint256 => address payable) transferOwners;\n    mapping(uint256 => uint256) transferFee;\n    address constant ETHER_ADDRESS = 0x0000000000000000000000000000000000000000;\n\n    struct TransferData {\n        address  tokenAddress;\n        address  destination;\n        uint256  amount;\n        uint256  fee;\n        uint256  startTime;\n        uint256  feeRampup;\n    }\n    address l1messenger; \n    address l2TokenBridge;\n    address l1contract;\n\n    mapping(bytes32 => bool) approvedStateRoots;\n\n    address ovmL2CrossDomainMessenger;  //ovmL2CrossDomainMessenger contract address(Optimism)\n    address l1DomainSideContract;  //L1DomainSideBridge deployed contract address on mainnet\n    address sourceSideAddress; //Source Side Contract Address\n\n\n    /// @notice onlyL1Contract modifier\n    /// @notice only allows a message from l1DomainSideBridge contract through the L2CrossDomainMessenger bridge\n    /// @notice to call the approveStateRoot function\n    modifier onlyL1Contract() {\n        require(\n            msg.sender == address(ovmL2CrossDomainMessenger)\n            && L2CrossDomainMessenger(ovmL2CrossDomainMessenger).xDomainMessageSender() == l1DomainSideContract\n        );\n        _;\n    }\n\n    /// @notice Constructior function\n    /// @notice Intialize variables\n    constructor(address _ovmL2CrossDomainMessenger, address _l1DomainSideContract, address _sourceSideAddress){\n        ovmL2CrossDomainMessenger = _ovmL2CrossDomainMessenger;\n        l1DomainSideContract = _l1DomainSideContract;\n        sourceSideAddress = _sourceSideAddress;\n    }\n\n    /// @notice changeOwner function\n    /// @notice if the owner is zero, the destination address can transfer ownership to the newOwner\n    /// @notice Also the woner can transfer ownership to the newOwner\n    function changeOwner(TransferData memory transferData, uint256 transferID, \n        address payable newOwner)public {\n        require((transferOwners[transferID] == address(0) \n                && transferData.destination == msg.sender) ||\n                transferOwners[transferID] == msg.sender, \n                \"Can only be called by owner or destination if there is no owner.\");\n        transferOwners[transferID] = newOwner;\n    }\n\n    /// @notice buy function\n    /// @notice if the owner is zero, anyone can call this function paying the required tokens\n    /// @notice and claiming ownership\n    function buy(TransferData memory transferData, uint256 transferID) public payable{\n        require(transferOwners[transferID] == address(0),\"Owner is non zero\");\n        uint256 fee = getLPFee(transferData, block.timestamp);\n        require(msg.value >= fee, \"Error : Non Suffecient funds!!!!!!!!\");\n        transferFee[transferID] = fee;\n    }\n\n    /// @notice withdraw function\n    /// @notice if the contract has enough balance, the owner(or the destination if the owner is zero)\n    /// @notice can call this function, the function will confirm the transfer with the state root\n    /// @notice and if the transfer is confirmed, the transfer value will be transfered to the \n    /// @notice destination address\n    /// @param stateRootProof should be calculated offline\n    function withdraw(TransferData memory transferData, uint256 transferID, \n        bytes32[] memory stateRootProof, bytes32 stateRoot) public{\n\n        require((transferOwners[transferID] == address(0) \n                && transferData.destination == msg.sender) ||\n                transferOwners[transferID] == msg.sender, \n                \"Can only be called by owner or destination if there is no owner.\");\n        require(checkProof(transferData, transferID, stateRootProof, stateRoot),\n            \"Wrong state root or proof.\");\n        transferOwners[transferID].transfer(transferFee[transferID]);\n        if(transferData.tokenAddress == ETHER_ADDRESS){\n            require(transferData.amount <= address(this).balance,\n             \"Contract doesn't have enough funds yet.\");\n\n        }else{\n            ERC20 token = ERC20(transferData.tokenAddress);\n            require(transferData.amount <= token.balanceOf(address(this)),\n             \"Contract doesn't have enough funds yet.\");\n            token.transferFrom(address(this), msg.sender, transferData.amount);\n        }       \n    }\n\n    /// @notice getLPFee function\n    /// @notice calculates the liquidity provider fee.\n    function getLPFee(TransferData memory _transferData, uint256 _currentTime) private pure returns (uint256) {\n        if(_currentTime < _transferData.startTime)\n            return 0;\n        else if(_currentTime >= _transferData.startTime + _transferData.feeRampup)\n            return _transferData.fee;\n        else\n            return _transferData.fee * (_currentTime - _transferData.startTime); // feeRampup\n    }\n\n    /// @notice getLPFee function\n    /// @notice check the transferData proof with the stateRoot\n    function checkProof(TransferData memory _transferData, uint256 transferID, \n        bytes32[] memory stateRootProof, bytes32 stateRoot) private returns (bool) {\n\n         bytes32 transferDataHash = sha256(abi.encodePacked(_transferData.tokenAddress,_transferData.destination,\n                                                            _transferData.amount ,_transferData.fee,\n                                                            _transferData.startTime,_transferData.feeRampup));\n        bytes32 contractAddressHash = sha256(abi.encodePacked(sourceSideAddress));\n        bytes32 nexTransferIdHash = sha256(abi.encodePacked(transferID));\n        bytes32 node = sha256(abi.encodePacked(transferDataHash, contractAddressHash,nexTransferIdHash));\n\n        bytes32 value = node;\n        for(uint n = 0; n < stateRootProof.length; n++) {\n            if(((n / (2**n)) % 2) == 1)\n                value = sha256(abi.encodePacked(stateRootProof[n], value));\n            else\n                value = sha256(abi.encodePacked(value, stateRootProof[n]));\n        }\n       return (value == stateRoot);\n    }\n\n    /// @notice approveStateRoot function\n    /// @notice receives the approved state root message from l1DomainSideBridge contract through the L2CrossDomainMessenger bridge\n    function approveStateRoot(bytes32 stateRoot)external onlyL1Contract{\n        approvedStateRoots[stateRoot] = true;\n    }\n    \n}","sourcePath":"contracts/DestinationDomainSideBridge.sol","type":"contract","deployment":{"address":"0xf67b8dB221236ff53e67a5501ba3d7dfA63d1Df0","chainid":"69","blockHeight":1322671}}