{"abi":[{"inputs":[{"internalType":"address","name":"_l1DomainSideContractAddress","type":"address"}],"stateMutability":"nonpayable","type":"constructor","name":"constructor"},{"anonymous":false,"inputs":[{"indexed":false,"internalType":"bytes32","name":"transferDataHash","type":"bytes32"},{"indexed":false,"internalType":"bool","name":"success","type":"bool"}],"name":"ClaimPayed","type":"event"},{"anonymous":false,"inputs":[{"components":[{"internalType":"address","name":"tokenAddress","type":"address"},{"internalType":"address","name":"destination","type":"address"},{"internalType":"uint256","name":"amount","type":"uint256"},{"internalType":"uint256","name":"fee","type":"uint256"},{"internalType":"uint256","name":"startTime","type":"uint256"},{"internalType":"uint256","name":"feeRampup","type":"uint256"},{"internalType":"uint256","name":"nonce","type":"uint256"}],"indexed":false,"internalType":"struct SourceDomainSideBridge.TransferData","name":"transferData","type":"tuple"}],"name":"Transaction","type":"event"},{"inputs":[],"name":"CONTRACT_FEE_BASIS_POINTS","outputs":[{"internalType":"uint256","name":"","type":"uint256"}],"stateMutability":"view","type":"function"},{"inputs":[],"name":"TRADE_LIMIT","outputs":[{"internalType":"uint256","name":"","type":"uint256"}],"stateMutability":"view","type":"function"},{"inputs":[{"internalType":"bytes32","name":"_newKnownHashOnions","type":"bytes32"}],"name":"addNewKnownHashOnion","outputs":[],"stateMutability":"nonpayable","type":"function"},{"inputs":[{"internalType":"bytes32","name":"","type":"bytes32"}],"name":"knownHashOnions","outputs":[{"internalType":"bool","name":"","type":"bool"}],"stateMutability":"view","type":"function"},{"inputs":[{"components":[{"internalType":"bytes32","name":"transferDataHash","type":"bytes32"},{"internalType":"address","name":"tokenAddress","type":"address"},{"internalType":"address","name":"claimer","type":"address"},{"internalType":"uint256","name":"fee","type":"uint256"}],"internalType":"struct SourceDomainSideBridge.RewardData[]","name":"_rewardData","type":"tuple[]"},{"components":[{"internalType":"address","name":"tokenAddress","type":"address"},{"internalType":"address","name":"destination","type":"address"},{"internalType":"uint256","name":"amount","type":"uint256"},{"internalType":"uint256","name":"fee","type":"uint256"},{"internalType":"uint256","name":"startTime","type":"uint256"},{"internalType":"uint256","name":"feeRampup","type":"uint256"},{"internalType":"uint256","name":"nonce","type":"uint256"}],"internalType":"struct SourceDomainSideBridge.TransferData[]","name":"_transferData","type":"tuple[]"}],"name":"processClaims","outputs":[],"stateMutability":"payable","type":"function"},{"inputs":[{"internalType":"address","name":"_tokenAddress","type":"address"},{"internalType":"address","name":"_destination","type":"address"},{"internalType":"uint256","name":"_amount","type":"uint256"},{"internalType":"uint256","name":"_feeRampup","type":"uint256"}],"name":"transfer","outputs":[{"internalType":"bytes32","name":"","type":"bytes32"}],"stateMutability":"payable","type":"function"},{"inputs":[{"internalType":"bytes32","name":"","type":"bytes32"}],"name":"validTransferHashes","outputs":[{"internalType":"bool","name":"","type":"bool"}],"stateMutability":"view","type":"function"}],"bytecode":"608060405234801561001057600080fd5b50604051610e55380380610e5583398101604081905261002f91610076565b600380547342000000000000000000000000000000000000076001600160a01b031991821617909155600480549091166001600160a01b03929092169190911790556100a6565b60006020828403121561008857600080fd5b81516001600160a01b038116811461009f57600080fd5b9392505050565b610da0806100b56000396000f3fe6080604052600436106100705760003560e01c80635a1294b71161004e5780635a1294b7146100f0578063a9d72b0214610120578063eb66091f14610142578063edf5a2dc1461015e57600080fd5b8063040c05b6146100755780630411b252146100ba57806313457d88146100db575b600080fd5b34801561008157600080fd5b506100a56100903660046108f8565b60006020819052908152604090205460ff1681565b60405190151581526020015b60405180910390f35b6100cd6100c8366004610929565b610171565b6040519081526020016100b1565b3480156100e757600080fd5b506100cd600581565b3480156100fc57600080fd5b506100a561010b3660046108f8565b60016020526000908152604090205460ff1681565b34801561012c57600080fd5b5061014061013b3660046108f8565b61045c565b005b34801561014e57600080fd5b506100cd67016345785d8a000081565b61014061016c366004610af9565b610526565b600067016345785d8a0000610188846103e8610c13565b11156101db5760405162461bcd60e51b815260206004820152601e60248201527f416d6f756e7420686967686572207468616e207472616465206c696d6974000060448201526064015b60405180910390fd5b60006101e8600585610c13565b90506000816101f9866103e8610c13565b6102039190610c32565b90506001600160a01b038716610274578034101561026f5760405162461bcd60e51b8152602060048201526024808201527f4572726f72203a204e6f6e2053756666656369656e742066756e6473212121216044820152632121212160e01b60648201526084016101d2565b6102f0565b6040516323b872dd60e01b81523360048201523060248201526044810182905287906001600160a01b038216906323b872dd906064016020604051808303816000875af11580156102c9573d6000803e3d6000fd5b505050506040513d601f19601f820116820180604052508101906102ed9190610c4a565b50505b6103426040518060e0016040528060006001600160a01b0316815260200160006001600160a01b0316815260200160008152602001600081526020016000815260200160008152602001600081525090565b6001600160a01b03808916825287166020820152604081018690526060810183905243608082015260a081018590526005805460c0830181905290600061038883610c73565b919050555060006002826040516020016103a29190610c8c565b60408051601f19818403018152908290526103bc91610ce3565b602060405180830381855afa1580156103d9573d6000803e3d6000fd5b5050506040513d601f19601f820116820180604052508101906103fc9190610d1e565b60008181526020819052604090819020805460ff19166001179055519091507fd8a86d1088d904bb6bf6291af6c7530b6ff4a8f6514c77a44c143331be826f8990610448908490610c8c565b60405180910390a198975050505050505050565b6003546001600160a01b031633811480156104fe5750600460009054906101000a90046001600160a01b03166001600160a01b0316816001600160a01b0316636e296e456040518163ffffffff1660e01b8152600401602060405180830381865afa1580156104cf573d6000803e3d6000fd5b505050506040513d601f19601f820116820180604052508101906104f39190610d37565b6001600160a01b0316145b61050757600080fd5b506000908152600160208190526040909120805460ff19169091179055565b600061053183610814565b60008181526001602052604090205490915060ff166105925760405162461bcd60e51b815260206004820152601960248201527f496e76616c6964652052657761726444617461206c6973742e0000000000000060448201526064016101d2565b600281905560005b835181101561080e576000808583815181106105b8576105b8610d54565b6020908102919091018101515182528101919091526040016000205460ff16156107fc576000806001600160a01b03168583815181106105fa576105fa610d54565b6020026020010151602001516001600160a01b0316036106ac57600085838151811061062857610628610d54565b6020026020010151604001516001600160a01b031686848151811061064f5761064f610d54565b60200260200101516060015160405160006040518083038185875af1925050503d806000811461069b576040519150601f19603f3d011682016040523d82523d6000602084013e6106a0565b606091505b50909250610799915050565b60008583815181106106c0576106c0610d54565b6020026020010151602001519050806001600160a01b03166323b872dd308886815181106106f0576106f0610d54565b60200260200101516040015189878151811061070e5761070e610d54565b6020908102919091010151606001516040516001600160e01b031960e086901b1681526001600160a01b03938416600482015292909116602483015260448201526064016020604051808303816000875af1158015610771573d6000803e3d6000fd5b505050506040513d601f19601f820116820180604052508101906107959190610c4a565b9150505b7f6949409522b57ddd499e29e527ea6b74df8d2f4f2993b0030bee0fd0ead7ca4a8583815181106107cc576107cc610d54565b602002602001015160000151826040516107f29291909182521515602082015260400190565b60405180910390a1505b8061080681610c73565b91505061059a565b50505050565b600254600090815b83518110156108f15760028285838151811061083a5761083a610d54565b6020908102919091018101516040805180840194909452815184820152918101516001600160a01b0390811660608086019190915292820151166080840152015160a082015260c00160408051601f198184030181529082905261089d91610ce3565b602060405180830381855afa1580156108ba573d6000803e3d6000fd5b5050506040513d601f19601f820116820180604052508101906108dd9190610d1e565b9150806108e981610c73565b91505061081c565b5092915050565b60006020828403121561090a57600080fd5b5035919050565b6001600160a01b038116811461092657600080fd5b50565b6000806000806080858703121561093f57600080fd5b843561094a81610911565b9350602085013561095a81610911565b93969395505050506040820135916060013590565b634e487b7160e01b600052604160045260246000fd5b60405160e0810167ffffffffffffffff811182821017156109a8576109a861096f565b60405290565b6040516080810167ffffffffffffffff811182821017156109a8576109a861096f565b604051601f8201601f1916810167ffffffffffffffff811182821017156109fa576109fa61096f565b604052919050565b600067ffffffffffffffff821115610a1c57610a1c61096f565b5060051b60200190565b600082601f830112610a3757600080fd5b81356020610a4c610a4783610a02565b6109d1565b82815260e09283028501820192828201919087851115610a6b57600080fd5b8387015b85811015610aec5781818a031215610a875760008081fd5b610a8f610985565b8135610a9a81610911565b815281860135610aa981610911565b8187015260408281013590820152606080830135908201526080808301359082015260a0808301359082015260c080830135908201528452928401928101610a6f565b5090979650505050505050565b6000806040808486031215610b0d57600080fd5b833567ffffffffffffffff80821115610b2557600080fd5b818601915086601f830112610b3957600080fd5b81356020610b49610a4783610a02565b82815260079290921b8401810191818101908a841115610b6857600080fd5b948201945b83861015610bcf576080868c031215610b865760008081fd5b610b8e6109ae565b8635815283870135610b9f81610911565b8185015286880135610bb081610911565b8189015260608781013590820152825260809095019490820190610b6d565b97505087013593505080831115610be557600080fd5b5050610bf385828601610a26565b9150509250929050565b634e487b7160e01b600052601160045260246000fd5b6000816000190483118215151615610c2d57610c2d610bfd565b500290565b60008219821115610c4557610c45610bfd565b500190565b600060208284031215610c5c57600080fd5b81518015158114610c6c57600080fd5b9392505050565b600060018201610c8557610c85610bfd565b5060010190565b81516001600160a01b0390811682526020808401519091169082015260408083015190820152606080830151908201526080808301519082015260a0828101519082015260c0918201519181019190915260e00190565b6000825160005b81811015610d045760208186018101518583015201610cea565b81811115610d13576000828501525b509190910192915050565b600060208284031215610d3057600080fd5b5051919050565b600060208284031215610d4957600080fd5b8151610c6c81610911565b634e487b7160e01b600052603260045260246000fdfea26469706673582212208467e6503893aca6b9947ebaacc0f8052fa4fe60f158633552e7b20ed840885464736f6c634300080d0033","bytecodeSha1":"16ef615fa2a0a04b634da0f85b427dd7f2ed9f05","compiler":{"evm_version":"istanbul","optimizer":{"enabled":true,"runs":200},"version":"0.8.13+commit.abaa5c0e"},"contractName":"SourceDomainSideBridge","language":"Solidity","natspec":{"author":"Sherif Abdelmoatty","kind":"dev","methods":{"addNewKnownHashOnion(bytes32)":{"notice":"processClaims functioncalculates the liquidity provider fee."},"constructor":{"notice":"Constructior functionIntialize variables"},"processClaims((bytes32,address,address,uint256)[],(address,address,uint256,uint256,uint256,uint256,uint256)[])":{"notice":"processClaims functioncalculates the liquidity provider fee."},"transfer(address,address,uint256,uint256)":{"notice":"withdraw functionwithdraws the required funds plus fees to be sent to the domain side rollup function transfer(TransferData memory _transferData) external payable returns(bytes32){"}},"notice":"This contract is to be deployed in the source rollup","title":"SourceDomainSideBridge Contract","version":1},"opcodes":"PUSH1 0x80 PUSH1 0x40 MSTORE PUSH1 0x4 CALLDATASIZE LT PUSH2 0x70 JUMPI PUSH1 0x0 CALLDATALOAD PUSH1 0xE0 SHR DUP1 PUSH4 0x5A1294B7 GT PUSH2 0x4E JUMPI DUP1 PUSH4 0x5A1294B7 EQ PUSH2 0xF0 JUMPI DUP1 PUSH4 0xA9D72B02 EQ PUSH2 0x120 JUMPI DUP1 PUSH4 0xEB66091F EQ PUSH2 0x142 JUMPI DUP1 PUSH4 0xEDF5A2DC EQ PUSH2 0x15E JUMPI PUSH1 0x0 DUP1 REVERT JUMPDEST DUP1 PUSH4 0x40C05B6 EQ PUSH2 0x75 JUMPI DUP1 PUSH4 0x411B252 EQ PUSH2 0xBA JUMPI DUP1 PUSH4 0x13457D88 EQ PUSH2 0xDB JUMPI JUMPDEST PUSH1 0x0 DUP1 REVERT JUMPDEST CALLVALUE DUP1 ISZERO PUSH2 0x81 JUMPI PUSH1 0x0 DUP1 REVERT JUMPDEST POP PUSH2 0xA5 PUSH2 0x90 CALLDATASIZE PUSH1 0x4 PUSH2 0x8F8 JUMP JUMPDEST PUSH1 0x0 PUSH1 0x20 DUP2 SWAP1 MSTORE SWAP1 DUP2 MSTORE PUSH1 0x40 SWAP1 KECCAK256 SLOAD PUSH1 0xFF AND DUP2 JUMP JUMPDEST PUSH1 0x40 MLOAD SWAP1 ISZERO ISZERO DUP2 MSTORE PUSH1 0x20 ADD JUMPDEST PUSH1 0x40 MLOAD DUP1 SWAP2 SUB SWAP1 RETURN JUMPDEST PUSH2 0xCD PUSH2 0xC8 CALLDATASIZE PUSH1 0x4 PUSH2 0x929 JUMP JUMPDEST PUSH2 0x171 JUMP JUMPDEST PUSH1 0x40 MLOAD SWAP1 DUP2 MSTORE PUSH1 0x20 ADD PUSH2 0xB1 JUMP JUMPDEST CALLVALUE DUP1 ISZERO PUSH2 0xE7 JUMPI PUSH1 0x0 DUP1 REVERT JUMPDEST POP PUSH2 0xCD PUSH1 0x5 DUP2 JUMP JUMPDEST CALLVALUE DUP1 ISZERO PUSH2 0xFC JUMPI PUSH1 0x0 DUP1 REVERT JUMPDEST POP PUSH2 0xA5 PUSH2 0x10B CALLDATASIZE PUSH1 0x4 PUSH2 0x8F8 JUMP JUMPDEST PUSH1 0x1 PUSH1 0x20 MSTORE PUSH1 0x0 SWAP1 DUP2 MSTORE PUSH1 0x40 SWAP1 KECCAK256 SLOAD PUSH1 0xFF AND DUP2 JUMP JUMPDEST CALLVALUE DUP1 ISZERO PUSH2 0x12C JUMPI PUSH1 0x0 DUP1 REVERT JUMPDEST POP PUSH2 0x140 PUSH2 0x13B CALLDATASIZE PUSH1 0x4 PUSH2 0x8F8 JUMP JUMPDEST PUSH2 0x45C JUMP JUMPDEST STOP JUMPDEST CALLVALUE DUP1 ISZERO PUSH2 0x14E JUMPI PUSH1 0x0 DUP1 REVERT JUMPDEST POP PUSH2 0xCD PUSH8 0x16345785D8A0000 DUP2 JUMP JUMPDEST PUSH2 0x140 PUSH2 0x16C CALLDATASIZE PUSH1 0x4 PUSH2 0xAF9 JUMP JUMPDEST PUSH2 0x526 JUMP JUMPDEST PUSH1 0x0 PUSH8 0x16345785D8A0000 PUSH2 0x188 DUP5 PUSH2 0x3E8 PUSH2 0xC13 JUMP JUMPDEST GT ISZERO PUSH2 0x1DB JUMPI PUSH1 0x40 MLOAD PUSH3 0x461BCD PUSH1 0xE5 SHL DUP2 MSTORE PUSH1 0x20 PUSH1 0x4 DUP3 ADD MSTORE PUSH1 0x1E PUSH1 0x24 DUP3 ADD MSTORE PUSH32 0x416D6F756E7420686967686572207468616E207472616465206C696D69740000 PUSH1 0x44 DUP3 ADD MSTORE PUSH1 0x64 ADD JUMPDEST PUSH1 0x40 MLOAD DUP1 SWAP2 SUB SWAP1 REVERT JUMPDEST PUSH1 0x0 PUSH2 0x1E8 PUSH1 0x5 DUP6 PUSH2 0xC13 JUMP JUMPDEST SWAP1 POP PUSH1 0x0 DUP2 PUSH2 0x1F9 DUP7 PUSH2 0x3E8 PUSH2 0xC13 JUMP JUMPDEST PUSH2 0x203 SWAP2 SWAP1 PUSH2 0xC32 JUMP JUMPDEST SWAP1 POP PUSH1 0x1 PUSH1 0x1 PUSH1 0xA0 SHL SUB DUP8 AND PUSH2 0x274 JUMPI DUP1 CALLVALUE LT ISZERO PUSH2 0x26F JUMPI PUSH1 0x40 MLOAD PUSH3 0x461BCD PUSH1 0xE5 SHL DUP2 MSTORE PUSH1 0x20 PUSH1 0x4 DUP3 ADD MSTORE PUSH1 0x24 DUP1 DUP3 ADD MSTORE PUSH32 0x4572726F72203A204E6F6E2053756666656369656E742066756E647321212121 PUSH1 0x44 DUP3 ADD MSTORE PUSH4 0x21212121 PUSH1 0xE0 SHL PUSH1 0x64 DUP3 ADD MSTORE PUSH1 0x84 ADD PUSH2 0x1D2 JUMP JUMPDEST PUSH2 0x2F0 JUMP JUMPDEST PUSH1 0x40 MLOAD PUSH4 0x23B872DD PUSH1 0xE0 SHL DUP2 MSTORE CALLER PUSH1 0x4 DUP3 ADD MSTORE ADDRESS PUSH1 0x24 DUP3 ADD MSTORE PUSH1 0x44 DUP2 ADD DUP3 SWAP1 MSTORE DUP8 SWAP1 PUSH1 0x1 PUSH1 0x1 PUSH1 0xA0 SHL SUB DUP3 AND SWAP1 PUSH4 0x23B872DD SWAP1 PUSH1 0x64 ADD PUSH1 0x20 PUSH1 0x40 MLOAD DUP1 DUP4 SUB DUP2 PUSH1 0x0 DUP8 GAS CALL ISZERO DUP1 ISZERO PUSH2 0x2C9 JUMPI RETURNDATASIZE PUSH1 0x0 DUP1 RETURNDATACOPY RETURNDATASIZE PUSH1 0x0 REVERT JUMPDEST POP POP POP POP PUSH1 0x40 MLOAD RETURNDATASIZE PUSH1 0x1F NOT PUSH1 0x1F DUP3 ADD AND DUP3 ADD DUP1 PUSH1 0x40 MSTORE POP DUP2 ADD SWAP1 PUSH2 0x2ED SWAP2 SWAP1 PUSH2 0xC4A JUMP JUMPDEST POP POP JUMPDEST PUSH2 0x342 PUSH1 0x40 MLOAD DUP1 PUSH1 0xE0 ADD PUSH1 0x40 MSTORE DUP1 PUSH1 0x0 PUSH1 0x1 PUSH1 0x1 PUSH1 0xA0 SHL SUB AND DUP2 MSTORE PUSH1 0x20 ADD PUSH1 0x0 PUSH1 0x1 PUSH1 0x1 PUSH1 0xA0 SHL SUB AND DUP2 MSTORE PUSH1 0x20 ADD PUSH1 0x0 DUP2 MSTORE PUSH1 0x20 ADD PUSH1 0x0 DUP2 MSTORE PUSH1 0x20 ADD PUSH1 0x0 DUP2 MSTORE PUSH1 0x20 ADD PUSH1 0x0 DUP2 MSTORE PUSH1 0x20 ADD PUSH1 0x0 DUP2 MSTORE POP SWAP1 JUMP JUMPDEST PUSH1 0x1 PUSH1 0x1 PUSH1 0xA0 SHL SUB DUP1 DUP10 AND DUP3 MSTORE DUP8 AND PUSH1 0x20 DUP3 ADD MSTORE PUSH1 0x40 DUP2 ADD DUP7 SWAP1 MSTORE PUSH1 0x60 DUP2 ADD DUP4 SWAP1 MSTORE NUMBER PUSH1 0x80 DUP3 ADD MSTORE PUSH1 0xA0 DUP2 ADD DUP6 SWAP1 MSTORE PUSH1 0x5 DUP1 SLOAD PUSH1 0xC0 DUP4 ADD DUP2 SWAP1 MSTORE SWAP1 PUSH1 0x0 PUSH2 0x388 DUP4 PUSH2 0xC73 JUMP JUMPDEST SWAP2 SWAP1 POP SSTORE POP PUSH1 0x0 PUSH1 0x2 DUP3 PUSH1 0x40 MLOAD PUSH1 0x20 ADD PUSH2 0x3A2 SWAP2 SWAP1 PUSH2 0xC8C JUMP JUMPDEST PUSH1 0x40 DUP1 MLOAD PUSH1 0x1F NOT DUP2 DUP5 SUB ADD DUP2 MSTORE SWAP1 DUP3 SWAP1 MSTORE PUSH2 0x3BC SWAP2 PUSH2 0xCE3 JUMP JUMPDEST PUSH1 0x20 PUSH1 0x40 MLOAD DUP1 DUP4 SUB DUP2 DUP6 GAS STATICCALL ISZERO DUP1 ISZERO PUSH2 0x3D9 JUMPI RETURNDATASIZE PUSH1 0x0 DUP1 RETURNDATACOPY RETURNDATASIZE PUSH1 0x0 REVERT JUMPDEST POP POP POP PUSH1 0x40 MLOAD RETURNDATASIZE PUSH1 0x1F NOT PUSH1 0x1F DUP3 ADD AND DUP3 ADD DUP1 PUSH1 0x40 MSTORE POP DUP2 ADD SWAP1 PUSH2 0x3FC SWAP2 SWAP1 PUSH2 0xD1E JUMP JUMPDEST PUSH1 0x0 DUP2 DUP2 MSTORE PUSH1 0x20 DUP2 SWAP1 MSTORE PUSH1 0x40 SWAP1 DUP2 SWAP1 KECCAK256 DUP1 SLOAD PUSH1 0xFF NOT AND PUSH1 0x1 OR SWAP1 SSTORE MLOAD SWAP1 SWAP2 POP PUSH32 0xD8A86D1088D904BB6BF6291AF6C7530B6FF4A8F6514C77A44C143331BE826F89 SWAP1 PUSH2 0x448 SWAP1 DUP5 SWAP1 PUSH2 0xC8C JUMP JUMPDEST PUSH1 0x40 MLOAD DUP1 SWAP2 SUB SWAP1 LOG1 SWAP9 SWAP8 POP POP POP POP POP POP POP POP JUMP JUMPDEST PUSH1 0x3 SLOAD PUSH1 0x1 PUSH1 0x1 PUSH1 0xA0 SHL SUB AND CALLER DUP2 EQ DUP1 ISZERO PUSH2 0x4FE JUMPI POP PUSH1 0x4 PUSH1 0x0 SWAP1 SLOAD SWAP1 PUSH2 0x100 EXP SWAP1 DIV PUSH1 0x1 PUSH1 0x1 PUSH1 0xA0 SHL SUB AND PUSH1 0x1 PUSH1 0x1 PUSH1 0xA0 SHL SUB AND DUP2 PUSH1 0x1 PUSH1 0x1 PUSH1 0xA0 SHL SUB AND PUSH4 0x6E296E45 PUSH1 0x40 MLOAD DUP2 PUSH4 0xFFFFFFFF AND PUSH1 0xE0 SHL DUP2 MSTORE PUSH1 0x4 ADD PUSH1 0x20 PUSH1 0x40 MLOAD DUP1 DUP4 SUB DUP2 DUP7 GAS STATICCALL ISZERO DUP1 ISZERO PUSH2 0x4CF JUMPI RETURNDATASIZE PUSH1 0x0 DUP1 RETURNDATACOPY RETURNDATASIZE PUSH1 0x0 REVERT JUMPDEST POP POP POP POP PUSH1 0x40 MLOAD RETURNDATASIZE PUSH1 0x1F NOT PUSH1 0x1F DUP3 ADD AND DUP3 ADD DUP1 PUSH1 0x40 MSTORE POP DUP2 ADD SWAP1 PUSH2 0x4F3 SWAP2 SWAP1 PUSH2 0xD37 JUMP JUMPDEST PUSH1 0x1 PUSH1 0x1 PUSH1 0xA0 SHL SUB AND EQ JUMPDEST PUSH2 0x507 JUMPI PUSH1 0x0 DUP1 REVERT JUMPDEST POP PUSH1 0x0 SWAP1 DUP2 MSTORE PUSH1 0x1 PUSH1 0x20 DUP2 SWAP1 MSTORE PUSH1 0x40 SWAP1 SWAP2 KECCAK256 DUP1 SLOAD PUSH1 0xFF NOT AND SWAP1 SWAP2 OR SWAP1 SSTORE JUMP JUMPDEST PUSH1 0x0 PUSH2 0x531 DUP4 PUSH2 0x814 JUMP JUMPDEST PUSH1 0x0 DUP2 DUP2 MSTORE PUSH1 0x1 PUSH1 0x20 MSTORE PUSH1 0x40 SWAP1 KECCAK256 SLOAD SWAP1 SWAP2 POP PUSH1 0xFF AND PUSH2 0x592 JUMPI PUSH1 0x40 MLOAD PUSH3 0x461BCD PUSH1 0xE5 SHL DUP2 MSTORE PUSH1 0x20 PUSH1 0x4 DUP3 ADD MSTORE PUSH1 0x19 PUSH1 0x24 DUP3 ADD MSTORE PUSH32 0x496E76616C6964652052657761726444617461206C6973742E00000000000000 PUSH1 0x44 DUP3 ADD MSTORE PUSH1 0x64 ADD PUSH2 0x1D2 JUMP JUMPDEST PUSH1 0x2 DUP2 SWAP1 SSTORE PUSH1 0x0 JUMPDEST DUP4 MLOAD DUP2 LT ISZERO PUSH2 0x80E JUMPI PUSH1 0x0 DUP1 DUP6 DUP4 DUP2 MLOAD DUP2 LT PUSH2 0x5B8 JUMPI PUSH2 0x5B8 PUSH2 0xD54 JUMP JUMPDEST PUSH1 0x20 SWAP1 DUP2 MUL SWAP2 SWAP1 SWAP2 ADD DUP2 ADD MLOAD MLOAD DUP3 MSTORE DUP2 ADD SWAP2 SWAP1 SWAP2 MSTORE PUSH1 0x40 ADD PUSH1 0x0 KECCAK256 SLOAD PUSH1 0xFF AND ISZERO PUSH2 0x7FC JUMPI PUSH1 0x0 DUP1 PUSH1 0x1 PUSH1 0x1 PUSH1 0xA0 SHL SUB AND DUP6 DUP4 DUP2 MLOAD DUP2 LT PUSH2 0x5FA JUMPI PUSH2 0x5FA PUSH2 0xD54 JUMP JUMPDEST PUSH1 0x20 MUL PUSH1 0x20 ADD ADD MLOAD PUSH1 0x20 ADD MLOAD PUSH1 0x1 PUSH1 0x1 PUSH1 0xA0 SHL SUB AND SUB PUSH2 0x6AC JUMPI PUSH1 0x0 DUP6 DUP4 DUP2 MLOAD DUP2 LT PUSH2 0x628 JUMPI PUSH2 0x628 PUSH2 0xD54 JUMP JUMPDEST PUSH1 0x20 MUL PUSH1 0x20 ADD ADD MLOAD PUSH1 0x40 ADD MLOAD PUSH1 0x1 PUSH1 0x1 PUSH1 0xA0 SHL SUB AND DUP7 DUP5 DUP2 MLOAD DUP2 LT PUSH2 0x64F JUMPI PUSH2 0x64F PUSH2 0xD54 JUMP JUMPDEST PUSH1 0x20 MUL PUSH1 0x20 ADD ADD MLOAD PUSH1 0x60 ADD MLOAD PUSH1 0x40 MLOAD PUSH1 0x0 PUSH1 0x40 MLOAD DUP1 DUP4 SUB DUP2 DUP6 DUP8 GAS CALL SWAP3 POP POP POP RETURNDATASIZE DUP1 PUSH1 0x0 DUP2 EQ PUSH2 0x69B JUMPI PUSH1 0x40 MLOAD SWAP2 POP PUSH1 0x1F NOT PUSH1 0x3F RETURNDATASIZE ADD AND DUP3 ADD PUSH1 0x40 MSTORE RETURNDATASIZE DUP3 MSTORE RETURNDATASIZE PUSH1 0x0 PUSH1 0x20 DUP5 ADD RETURNDATACOPY PUSH2 0x6A0 JUMP JUMPDEST PUSH1 0x60 SWAP2 POP JUMPDEST POP SWAP1 SWAP3 POP PUSH2 0x799 SWAP2 POP POP JUMP JUMPDEST PUSH1 0x0 DUP6 DUP4 DUP2 MLOAD DUP2 LT PUSH2 0x6C0 JUMPI PUSH2 0x6C0 PUSH2 0xD54 JUMP JUMPDEST PUSH1 0x20 MUL PUSH1 0x20 ADD ADD MLOAD PUSH1 0x20 ADD MLOAD SWAP1 POP DUP1 PUSH1 0x1 PUSH1 0x1 PUSH1 0xA0 SHL SUB AND PUSH4 0x23B872DD ADDRESS DUP9 DUP7 DUP2 MLOAD DUP2 LT PUSH2 0x6F0 JUMPI PUSH2 0x6F0 PUSH2 0xD54 JUMP JUMPDEST PUSH1 0x20 MUL PUSH1 0x20 ADD ADD MLOAD PUSH1 0x40 ADD MLOAD DUP10 DUP8 DUP2 MLOAD DUP2 LT PUSH2 0x70E JUMPI PUSH2 0x70E PUSH2 0xD54 JUMP JUMPDEST PUSH1 0x20 SWAP1 DUP2 MUL SWAP2 SWAP1 SWAP2 ADD ADD MLOAD PUSH1 0x60 ADD MLOAD PUSH1 0x40 MLOAD PUSH1 0x1 PUSH1 0x1 PUSH1 0xE0 SHL SUB NOT PUSH1 0xE0 DUP7 SWAP1 SHL AND DUP2 MSTORE PUSH1 0x1 PUSH1 0x1 PUSH1 0xA0 SHL SUB SWAP4 DUP5 AND PUSH1 0x4 DUP3 ADD MSTORE SWAP3 SWAP1 SWAP2 AND PUSH1 0x24 DUP4 ADD MSTORE PUSH1 0x44 DUP3 ADD MSTORE PUSH1 0x64 ADD PUSH1 0x20 PUSH1 0x40 MLOAD DUP1 DUP4 SUB DUP2 PUSH1 0x0 DUP8 GAS CALL ISZERO DUP1 ISZERO PUSH2 0x771 JUMPI RETURNDATASIZE PUSH1 0x0 DUP1 RETURNDATACOPY RETURNDATASIZE PUSH1 0x0 REVERT JUMPDEST POP POP POP POP PUSH1 0x40 MLOAD RETURNDATASIZE PUSH1 0x1F NOT PUSH1 0x1F DUP3 ADD AND DUP3 ADD DUP1 PUSH1 0x40 MSTORE POP DUP2 ADD SWAP1 PUSH2 0x795 SWAP2 SWAP1 PUSH2 0xC4A JUMP JUMPDEST SWAP2 POP POP JUMPDEST PUSH32 0x6949409522B57DDD499E29E527EA6B74DF8D2F4F2993B0030BEE0FD0EAD7CA4A DUP6 DUP4 DUP2 MLOAD DUP2 LT PUSH2 0x7CC JUMPI PUSH2 0x7CC PUSH2 0xD54 JUMP JUMPDEST PUSH1 0x20 MUL PUSH1 0x20 ADD ADD MLOAD PUSH1 0x0 ADD MLOAD DUP3 PUSH1 0x40 MLOAD PUSH2 0x7F2 SWAP3 SWAP2 SWAP1 SWAP2 DUP3 MSTORE ISZERO ISZERO PUSH1 0x20 DUP3 ADD MSTORE PUSH1 0x40 ADD SWAP1 JUMP JUMPDEST PUSH1 0x40 MLOAD DUP1 SWAP2 SUB SWAP1 LOG1 POP JUMPDEST DUP1 PUSH2 0x806 DUP2 PUSH2 0xC73 JUMP JUMPDEST SWAP2 POP POP PUSH2 0x59A JUMP JUMPDEST POP POP POP POP JUMP JUMPDEST PUSH1 0x2 SLOAD PUSH1 0x0 SWAP1 DUP2 JUMPDEST DUP4 MLOAD DUP2 LT ISZERO PUSH2 0x8F1 JUMPI PUSH1 0x2 DUP3 DUP6 DUP4 DUP2 MLOAD DUP2 LT PUSH2 0x83A JUMPI PUSH2 0x83A PUSH2 0xD54 JUMP JUMPDEST PUSH1 0x20 SWAP1 DUP2 MUL SWAP2 SWAP1 SWAP2 ADD DUP2 ADD MLOAD PUSH1 0x40 DUP1 MLOAD DUP1 DUP5 ADD SWAP5 SWAP1 SWAP5 MSTORE DUP2 MLOAD DUP5 DUP3 ADD MSTORE SWAP2 DUP2 ADD MLOAD PUSH1 0x1 PUSH1 0x1 PUSH1 0xA0 SHL SUB SWAP1 DUP2 AND PUSH1 0x60 DUP1 DUP7 ADD SWAP2 SWAP1 SWAP2 MSTORE SWAP3 DUP3 ADD MLOAD AND PUSH1 0x80 DUP5 ADD MSTORE ADD MLOAD PUSH1 0xA0 DUP3 ADD MSTORE PUSH1 0xC0 ADD PUSH1 0x40 DUP1 MLOAD PUSH1 0x1F NOT DUP2 DUP5 SUB ADD DUP2 MSTORE SWAP1 DUP3 SWAP1 MSTORE PUSH2 0x89D SWAP2 PUSH2 0xCE3 JUMP JUMPDEST PUSH1 0x20 PUSH1 0x40 MLOAD DUP1 DUP4 SUB DUP2 DUP6 GAS STATICCALL ISZERO DUP1 ISZERO PUSH2 0x8BA JUMPI RETURNDATASIZE PUSH1 0x0 DUP1 RETURNDATACOPY RETURNDATASIZE PUSH1 0x0 REVERT JUMPDEST POP POP POP PUSH1 0x40 MLOAD RETURNDATASIZE PUSH1 0x1F NOT PUSH1 0x1F DUP3 ADD AND DUP3 ADD DUP1 PUSH1 0x40 MSTORE POP DUP2 ADD SWAP1 PUSH2 0x8DD SWAP2 SWAP1 PUSH2 0xD1E JUMP JUMPDEST SWAP2 POP DUP1 PUSH2 0x8E9 DUP2 PUSH2 0xC73 JUMP JUMPDEST SWAP2 POP POP PUSH2 0x81C JUMP JUMPDEST POP SWAP3 SWAP2 POP POP JUMP JUMPDEST PUSH1 0x0 PUSH1 0x20 DUP3 DUP5 SUB SLT ISZERO PUSH2 0x90A JUMPI PUSH1 0x0 DUP1 REVERT JUMPDEST POP CALLDATALOAD SWAP2 SWAP1 POP JUMP JUMPDEST PUSH1 0x1 PUSH1 0x1 PUSH1 0xA0 SHL SUB DUP2 AND DUP2 EQ PUSH2 0x926 JUMPI PUSH1 0x0 DUP1 REVERT JUMPDEST POP JUMP JUMPDEST PUSH1 0x0 DUP1 PUSH1 0x0 DUP1 PUSH1 0x80 DUP6 DUP8 SUB SLT ISZERO PUSH2 0x93F JUMPI PUSH1 0x0 DUP1 REVERT JUMPDEST DUP5 CALLDATALOAD PUSH2 0x94A DUP2 PUSH2 0x911 JUMP JUMPDEST SWAP4 POP PUSH1 0x20 DUP6 ADD CALLDATALOAD PUSH2 0x95A DUP2 PUSH2 0x911 JUMP JUMPDEST SWAP4 SWAP7 SWAP4 SWAP6 POP POP POP POP PUSH1 0x40 DUP3 ADD CALLDATALOAD SWAP2 PUSH1 0x60 ADD CALLDATALOAD SWAP1 JUMP JUMPDEST PUSH4 0x4E487B71 PUSH1 0xE0 SHL PUSH1 0x0 MSTORE PUSH1 0x41 PUSH1 0x4 MSTORE PUSH1 0x24 PUSH1 0x0 REVERT JUMPDEST PUSH1 0x40 MLOAD PUSH1 0xE0 DUP2 ADD PUSH8 0xFFFFFFFFFFFFFFFF DUP2 GT DUP3 DUP3 LT OR ISZERO PUSH2 0x9A8 JUMPI PUSH2 0x9A8 PUSH2 0x96F JUMP JUMPDEST PUSH1 0x40 MSTORE SWAP1 JUMP JUMPDEST PUSH1 0x40 MLOAD PUSH1 0x80 DUP2 ADD PUSH8 0xFFFFFFFFFFFFFFFF DUP2 GT DUP3 DUP3 LT OR ISZERO PUSH2 0x9A8 JUMPI PUSH2 0x9A8 PUSH2 0x96F JUMP JUMPDEST PUSH1 0x40 MLOAD PUSH1 0x1F DUP3 ADD PUSH1 0x1F NOT AND DUP2 ADD PUSH8 0xFFFFFFFFFFFFFFFF DUP2 GT DUP3 DUP3 LT OR ISZERO PUSH2 0x9FA JUMPI PUSH2 0x9FA PUSH2 0x96F JUMP JUMPDEST PUSH1 0x40 MSTORE SWAP2 SWAP1 POP JUMP JUMPDEST PUSH1 0x0 PUSH8 0xFFFFFFFFFFFFFFFF DUP3 GT ISZERO PUSH2 0xA1C JUMPI PUSH2 0xA1C PUSH2 0x96F JUMP JUMPDEST POP PUSH1 0x5 SHL PUSH1 0x20 ADD SWAP1 JUMP JUMPDEST PUSH1 0x0 DUP3 PUSH1 0x1F DUP4 ADD SLT PUSH2 0xA37 JUMPI PUSH1 0x0 DUP1 REVERT JUMPDEST DUP2 CALLDATALOAD PUSH1 0x20 PUSH2 0xA4C PUSH2 0xA47 DUP4 PUSH2 0xA02 JUMP JUMPDEST PUSH2 0x9D1 JUMP JUMPDEST DUP3 DUP2 MSTORE PUSH1 0xE0 SWAP3 DUP4 MUL DUP6 ADD DUP3 ADD SWAP3 DUP3 DUP3 ADD SWAP2 SWAP1 DUP8 DUP6 GT ISZERO PUSH2 0xA6B JUMPI PUSH1 0x0 DUP1 REVERT JUMPDEST DUP4 DUP8 ADD JUMPDEST DUP6 DUP2 LT ISZERO PUSH2 0xAEC JUMPI DUP2 DUP2 DUP11 SUB SLT ISZERO PUSH2 0xA87 JUMPI PUSH1 0x0 DUP1 DUP2 REVERT JUMPDEST PUSH2 0xA8F PUSH2 0x985 JUMP JUMPDEST DUP2 CALLDATALOAD PUSH2 0xA9A DUP2 PUSH2 0x911 JUMP JUMPDEST DUP2 MSTORE DUP2 DUP7 ADD CALLDATALOAD PUSH2 0xAA9 DUP2 PUSH2 0x911 JUMP JUMPDEST DUP2 DUP8 ADD MSTORE PUSH1 0x40 DUP3 DUP2 ADD CALLDATALOAD SWAP1 DUP3 ADD MSTORE PUSH1 0x60 DUP1 DUP4 ADD CALLDATALOAD SWAP1 DUP3 ADD MSTORE PUSH1 0x80 DUP1 DUP4 ADD CALLDATALOAD SWAP1 DUP3 ADD MSTORE PUSH1 0xA0 DUP1 DUP4 ADD CALLDATALOAD SWAP1 DUP3 ADD MSTORE PUSH1 0xC0 DUP1 DUP4 ADD CALLDATALOAD SWAP1 DUP3 ADD MSTORE DUP5 MSTORE SWAP3 DUP5 ADD SWAP3 DUP2 ADD PUSH2 0xA6F JUMP JUMPDEST POP SWAP1 SWAP8 SWAP7 POP POP POP POP POP POP POP JUMP JUMPDEST PUSH1 0x0 DUP1 PUSH1 0x40 DUP1 DUP5 DUP7 SUB SLT ISZERO PUSH2 0xB0D JUMPI PUSH1 0x0 DUP1 REVERT JUMPDEST DUP4 CALLDATALOAD PUSH8 0xFFFFFFFFFFFFFFFF DUP1 DUP3 GT ISZERO PUSH2 0xB25 JUMPI PUSH1 0x0 DUP1 REVERT JUMPDEST DUP2 DUP7 ADD SWAP2 POP DUP7 PUSH1 0x1F DUP4 ADD SLT PUSH2 0xB39 JUMPI PUSH1 0x0 DUP1 REVERT JUMPDEST DUP2 CALLDATALOAD PUSH1 0x20 PUSH2 0xB49 PUSH2 0xA47 DUP4 PUSH2 0xA02 JUMP JUMPDEST DUP3 DUP2 MSTORE PUSH1 0x7 SWAP3 SWAP1 SWAP3 SHL DUP5 ADD DUP2 ADD SWAP2 DUP2 DUP2 ADD SWAP1 DUP11 DUP5 GT ISZERO PUSH2 0xB68 JUMPI PUSH1 0x0 DUP1 REVERT JUMPDEST SWAP5 DUP3 ADD SWAP5 JUMPDEST DUP4 DUP7 LT ISZERO PUSH2 0xBCF JUMPI PUSH1 0x80 DUP7 DUP13 SUB SLT ISZERO PUSH2 0xB86 JUMPI PUSH1 0x0 DUP1 DUP2 REVERT JUMPDEST PUSH2 0xB8E PUSH2 0x9AE JUMP JUMPDEST DUP7 CALLDATALOAD DUP2 MSTORE DUP4 DUP8 ADD CALLDATALOAD PUSH2 0xB9F DUP2 PUSH2 0x911 JUMP JUMPDEST DUP2 DUP6 ADD MSTORE DUP7 DUP9 ADD CALLDATALOAD PUSH2 0xBB0 DUP2 PUSH2 0x911 JUMP JUMPDEST DUP2 DUP10 ADD MSTORE PUSH1 0x60 DUP8 DUP2 ADD CALLDATALOAD SWAP1 DUP3 ADD MSTORE DUP3 MSTORE PUSH1 0x80 SWAP1 SWAP6 ADD SWAP5 SWAP1 DUP3 ADD SWAP1 PUSH2 0xB6D JUMP JUMPDEST SWAP8 POP POP DUP8 ADD CALLDATALOAD SWAP4 POP POP DUP1 DUP4 GT ISZERO PUSH2 0xBE5 JUMPI PUSH1 0x0 DUP1 REVERT JUMPDEST POP POP PUSH2 0xBF3 DUP6 DUP3 DUP7 ADD PUSH2 0xA26 JUMP JUMPDEST SWAP2 POP POP SWAP3 POP SWAP3 SWAP1 POP JUMP JUMPDEST PUSH4 0x4E487B71 PUSH1 0xE0 SHL PUSH1 0x0 MSTORE PUSH1 0x11 PUSH1 0x4 MSTORE PUSH1 0x24 PUSH1 0x0 REVERT JUMPDEST PUSH1 0x0 DUP2 PUSH1 0x0 NOT DIV DUP4 GT DUP3 ISZERO ISZERO AND ISZERO PUSH2 0xC2D JUMPI PUSH2 0xC2D PUSH2 0xBFD JUMP JUMPDEST POP MUL SWAP1 JUMP JUMPDEST PUSH1 0x0 DUP3 NOT DUP3 GT ISZERO PUSH2 0xC45 JUMPI PUSH2 0xC45 PUSH2 0xBFD JUMP JUMPDEST POP ADD SWAP1 JUMP JUMPDEST PUSH1 0x0 PUSH1 0x20 DUP3 DUP5 SUB SLT ISZERO PUSH2 0xC5C JUMPI PUSH1 0x0 DUP1 REVERT JUMPDEST DUP2 MLOAD DUP1 ISZERO ISZERO DUP2 EQ PUSH2 0xC6C JUMPI PUSH1 0x0 DUP1 REVERT JUMPDEST SWAP4 SWAP3 POP POP POP JUMP JUMPDEST PUSH1 0x0 PUSH1 0x1 DUP3 ADD PUSH2 0xC85 JUMPI PUSH2 0xC85 PUSH2 0xBFD JUMP JUMPDEST POP PUSH1 0x1 ADD SWAP1 JUMP JUMPDEST DUP2 MLOAD PUSH1 0x1 PUSH1 0x1 PUSH1 0xA0 SHL SUB SWAP1 DUP2 AND DUP3 MSTORE PUSH1 0x20 DUP1 DUP5 ADD MLOAD SWAP1 SWAP2 AND SWAP1 DUP3 ADD MSTORE PUSH1 0x40 DUP1 DUP4 ADD MLOAD SWAP1 DUP3 ADD MSTORE PUSH1 0x60 DUP1 DUP4 ADD MLOAD SWAP1 DUP3 ADD MSTORE PUSH1 0x80 DUP1 DUP4 ADD MLOAD SWAP1 DUP3 ADD MSTORE PUSH1 0xA0 DUP3 DUP2 ADD MLOAD SWAP1 DUP3 ADD MSTORE PUSH1 0xC0 SWAP2 DUP3 ADD MLOAD SWAP2 DUP2 ADD SWAP2 SWAP1 SWAP2 MSTORE PUSH1 0xE0 ADD SWAP1 JUMP JUMPDEST PUSH1 0x0 DUP3 MLOAD PUSH1 0x0 JUMPDEST DUP2 DUP2 LT ISZERO PUSH2 0xD04 JUMPI PUSH1 0x20 DUP2 DUP7 ADD DUP2 ADD MLOAD DUP6 DUP4 ADD MSTORE ADD PUSH2 0xCEA JUMP JUMPDEST DUP2 DUP2 GT ISZERO PUSH2 0xD13 JUMPI PUSH1 0x0 DUP3 DUP6 ADD MSTORE JUMPDEST POP SWAP2 SWAP1 SWAP2 ADD SWAP3 SWAP2 POP POP JUMP JUMPDEST PUSH1 0x0 PUSH1 0x20 DUP3 DUP5 SUB SLT ISZERO PUSH2 0xD30 JUMPI PUSH1 0x0 DUP1 REVERT JUMPDEST POP MLOAD SWAP2 SWAP1 POP JUMP JUMPDEST PUSH1 0x0 PUSH1 0x20 DUP3 DUP5 SUB SLT ISZERO PUSH2 0xD49 JUMPI PUSH1 0x0 DUP1 REVERT JUMPDEST DUP2 MLOAD PUSH2 0xC6C DUP2 PUSH2 0x911 JUMP JUMPDEST PUSH4 0x4E487B71 PUSH1 0xE0 SHL PUSH1 0x0 MSTORE PUSH1 0x32 PUSH1 0x4 MSTORE PUSH1 0x24 PUSH1 0x0 REVERT INVALID LOG2 PUSH5 0x6970667358 0x22 SLT KECCAK256 DUP5 PUSH8 0xE6503893ACA6B994 PUSH31 0xBAACC0F8052FA4FE60F158633552E7B20ED840885464736F6C634300080D00 CALLER ","sha1":"231b03a0f4c32738847e236a0f7a1d496cca5be7","source":"//SPDX-License-Identifier: MIT\npragma solidity ^0.8.9;\n\nimport \"@openzeppelin/contracts/token/ERC20/ERC20.sol\";\nimport \"./deb/ICrossDomainMessenger.sol\";\n\n/// @title SourceDomainSideBridge Contract\n/// @author Sherif Abdelmoatty\n/// @notice This contract is to be deployed in the source rollup\ncontract SourceDomainSideBridge {\n    \n    uint constant public CONTRACT_FEE_BASIS_POINTS = 5;\n    uint constant public TRADE_LIMIT = 0.1 ether;\n    address constant ETHER_ADDRESS = 0x0000000000000000000000000000000000000000;\n\n    struct TransferData {\n        address  tokenAddress; \n        address  destination;\n        uint256  amount;\n        uint256  fee;\n        uint256  startTime;\n        uint256  feeRampup;\n        uint256  nonce;\n    }\n    struct RewardData {\n        bytes32  transferDataHash;\n        address  tokenAddress; \n        address  claimer;\n        uint256  fee;\n    }\n    mapping(bytes32 => bool) public validTransferHashes;\n    mapping(bytes32 => bool) public knownHashOnions;\n    bytes32 processedRewardHashOnion;\n    \n    address ovmL2CrossDomainMessenger;  //ovmL2CrossDomainMessenger contract address(Optimism)\n    address l1DomainSideContractAddress;  //l1DomainSideContract deployed contract address on mainnet\n\n    uint256  currentNonce;\n\n    event Transaction(TransferData transferData);\n    event ClaimPayed(bytes32 transferDataHash, bool success);\n    \n    /// @notice onlyL1Contract modifier\n    /// @notice only allows a message from l1DomainSideBridge contract through the L2CrossDomainMessenger bridge\n    /// @notice to call the approveStateRoot function\n    modifier onlyL1Contract() {\n        ICrossDomainMessenger l2cdm = ICrossDomainMessenger(ovmL2CrossDomainMessenger);\n        require(\n            msg.sender == address(ovmL2CrossDomainMessenger)\n            && l2cdm.xDomainMessageSender() == l1DomainSideContractAddress\n        );\n        _;\n    }\n\n    /// @notice Constructior function\n    /// @notice Intialize variables\n    constructor(address _l1DomainSideContractAddress){\n        ovmL2CrossDomainMessenger = 0x4200000000000000000000000000000000000007;\n        l1DomainSideContractAddress = _l1DomainSideContractAddress;\n    }\n\n    /// @notice withdraw function\n    /// @notice withdraws the required funds plus fees to be sent \n    /// @notice to the domain side rollup\n    ///function transfer(TransferData memory _transferData) external payable returns(bytes32){\n    function transfer(address _tokenAddress, address _destination, uint256 _amount,\n         uint256  _feeRampup) external payable returns(bytes32){\n        \n        require(_amount* 1000 <= TRADE_LIMIT, 'Amount higher than trade limit');\n        uint256 fee = _amount * CONTRACT_FEE_BASIS_POINTS;\n        uint256 amountPlusFee = _amount * 1000 + fee;\n        \n        if(_tokenAddress == ETHER_ADDRESS){\n            require(msg.value >= amountPlusFee, \"Error : Non Suffecient funds!!!!!!!!\");\n        }else{\n            ERC20 token = ERC20(_tokenAddress);\n            token.transferFrom(msg.sender, address(this), amountPlusFee);\n        }\n\n        TransferData memory transferData;\n        transferData.tokenAddress = _tokenAddress;\n        transferData.destination = _destination;\n        transferData.amount = _amount;\n        transferData.fee = fee;\n        transferData.startTime = block.number;\n        transferData.feeRampup = _feeRampup;\n        transferData.nonce = currentNonce;\n\n        currentNonce++;\n\n        bytes32 transferDataHash = sha256(abi.encode(transferData));\n        \n        validTransferHashes[transferDataHash] = true;\n\n        emit Transaction(transferData);\n        \n        return transferDataHash;\n    }\n\n    /// @notice processClaims function\n    /// @notice calculates the liquidity provider fee.\n    function processClaims(RewardData[] memory _rewardData, TransferData[] memory _transferData) external payable {\n        bytes32 newProcessedRewardHashOnion = calculateNewProcessedRewardHashOnion(_rewardData);\n        require(knownHashOnions[newProcessedRewardHashOnion], \"Invalide RewardData list.\");\n        processedRewardHashOnion = newProcessedRewardHashOnion;\n        for(uint n = 0; n < _rewardData.length; n++) {\n            if(validTransferHashes[_rewardData[n].transferDataHash]){\n                bool success;\n                if(_rewardData[n].tokenAddress == ETHER_ADDRESS){\n                    (bool suc, ) = payable(_rewardData[n].claimer).call{value: _rewardData[n].fee}(\"\");\n                    success = suc;\n                }else{\n                    ERC20 token = ERC20(_rewardData[n].tokenAddress);\n                    \n                    success = token.transferFrom(address(this), _rewardData[n].claimer,\n                        _rewardData[n].fee);\n                }\n                emit ClaimPayed(_rewardData[n].transferDataHash, success);\n            }\n        }\n        \n    }\n\n    /// @notice processClaims function\n    /// @notice calculates the liquidity provider fee.\n    function calculateNewProcessedRewardHashOnion(RewardData[] memory _rewardData) private returns (bytes32){\n        bytes32 newProcessedRewardHashOnion = processedRewardHashOnion;\n        for(uint n = 0; n < _rewardData.length; n++) {\n            newProcessedRewardHashOnion = \n                sha256(abi.encode(newProcessedRewardHashOnion,_rewardData[n]));\n        }\n        return newProcessedRewardHashOnion;\n    }\n\n    /// @notice processClaims function\n    /// @notice calculates the liquidity provider fee.\n    function addNewKnownHashOnion(bytes32 _newKnownHashOnions) external onlyL1Contract{\n        knownHashOnions[_newKnownHashOnions] = true;\n    }\n   \n}","sourcePath":"contracts/SourceDomainSideBridge.sol","type":"contract","deployment":{"address":"0xf630246d5066D9822D758C48995020f01F678753","chainid":"69","blockHeight":2581768}}