{"abi":[{"inputs":[{"internalType":"address","name":"_l1DomainSideContractAddress","type":"address"}],"stateMutability":"nonpayable","type":"constructor","name":"constructor"},{"anonymous":false,"inputs":[{"components":[{"internalType":"bytes32","name":"transferDataHash","type":"bytes32"},{"internalType":"address","name":"tokenAddress","type":"address"},{"internalType":"address","name":"claimer","type":"address"},{"internalType":"uint256","name":"fee","type":"uint256"}],"indexed":false,"internalType":"struct DestinationDomainSideBridge.RewardData","name":"rewardData","type":"tuple"}],"name":"Reward","type":"event"},{"inputs":[{"components":[{"internalType":"address","name":"tokenAddress","type":"address"},{"internalType":"address","name":"destination","type":"address"},{"internalType":"uint256","name":"amount","type":"uint256"},{"internalType":"uint256","name":"fee","type":"uint256"},{"internalType":"uint256","name":"startTime","type":"uint256"},{"internalType":"uint256","name":"feeRampup","type":"uint256"},{"internalType":"uint256","name":"nonce","type":"uint256"}],"internalType":"struct DestinationDomainSideBridge.TransferData","name":"_transferData","type":"tuple"}],"name":"claim","outputs":[],"stateMutability":"payable","type":"function"},{"inputs":[],"name":"declareNewHashChainHead","outputs":[],"stateMutability":"nonpayable","type":"function"},{"inputs":[],"name":"transferCount","outputs":[{"internalType":"uint256","name":"","type":"uint256"}],"stateMutability":"view","type":"function"}],"bytecode":"608060405234801561001057600080fd5b506040516108db3803806108db83398101604081905261002f91610076565b600580547342000000000000000000000000000000000000076001600160a01b031991821617909155600680549091166001600160a01b03929092169190911790556100a6565b60006020828403121561008857600080fd5b81516001600160a01b038116811461009f57600080fd5b9392505050565b610826806100b56000396000f3fe6080604052600436106100345760003560e01c80637afb3a9f14610039578063e3d33fc91461004e578063ee62719814610076575b600080fd5b61004c6100473660046105c3565b61008b565b005b34801561005a57600080fd5b5061006460025481565b60405190815260200160405180910390f35b34801561008257600080fd5b5061004c61045b565b60006002826000015183602001518460400151856060015186608001518760a001518860c0015160405160200161010c9796959493929190606097881b6bffffffffffffffffffffffff1990811682529690971b9095166014870152602886019390935260488501919091526068840152608883015260a882015260c80190565b60408051601f19818403018152908290526101269161068d565b602060405180830381855afa158015610143573d6000803e3d6000fd5b5050506040513d601f19601f8201168201806040525081019061016691906106a9565b60008181526003602052604090205490915060ff16156101cd5760405162461bcd60e51b815260206004820152601b60248201527f5472616e7366657220616c726561647920636c61696d6564212121000000000060448201526064015b60405180910390fd5b6000818152600360205260408120805460ff191660011790556101f08342610545565b604080516080810182526000602080830182815283850183815260608086018581528a87528b516001600160a01b03811690945233928390528890529354865193840152948201889052821b6bffffffffffffffffffffffff19908116828401529390911b90921660748301526088820183905291925060029060a80160408051601f19818403018152908290526102879161068d565b602060405180830381855afa1580156102a4573d6000803e3d6000fd5b5050506040513d601f19601f820116820180604052508101906102c791906106a9565b6000556002546102d9906064906106c2565b600003610315576000805460018054808201825592527fb10e2d527612073b26eecdfd717e6a320cf44b4afac2b0732d9fcbe2b7fa0cf6909101555b83516001600160a01b03166103cb5783604001513410156103845760405162461bcd60e51b8152602060048201526024808201527f4572726f72203a204e6f6e2053756666656369656e742066756e6473212121216044820152632121212160e01b60648201526084016101c4565b83602001516001600160a01b03166108fc85604001519081150290604051600060405180830381858888f193505050501580156103c5573d6000803e3d6000fd5b50610455565b8351602085015160408087015190516323b872dd60e01b81523360048201526001600160a01b0392831660248201526044810191909152908216906323b872dd906064016020604051808303816000875af115801561042e573d6000803e3d6000fd5b505050506040513d601f19601f8201168201806040525081019061045291906106e4565b50505b50505050565b600554600654600454600180546001600160a01b03948516948594633dbb202b9491169291811061048e5761048e61070d565b90600052602060002001546040516024016104ab91815260200190565b60408051601f198184030181529181526020820180516001600160e01b0316631647998f60e31b1790525160e084901b6001600160e01b03191681526104fa929190620f424090600401610723565b600060405180830381600087803b15801561051457600080fd5b505af1158015610528573d6000803e3d6000fd5b50506004805492509050600061053d83610789565b919050555050565b6000826080015182101561055b575060006105a1565b8260a00151836080015161056f91906107a2565b8210610580575060608201516105a1565b608083015161058f90836107ba565b836060015161059e91906107d1565b90505b92915050565b80356001600160a01b03811681146105be57600080fd5b919050565b600060e082840312156105d557600080fd5b60405160e0810181811067ffffffffffffffff8211171561060657634e487b7160e01b600052604160045260246000fd5b604052610612836105a7565b8152610620602084016105a7565b602082015260408301356040820152606083013560608201526080830135608082015260a083013560a082015260c083013560c08201528091505092915050565b60005b8381101561067c578181015183820152602001610664565b838111156104555750506000910152565b6000825161069f818460208701610661565b9190910192915050565b6000602082840312156106bb57600080fd5b5051919050565b6000826106df57634e487b7160e01b600052601260045260246000fd5b500690565b6000602082840312156106f657600080fd5b8151801515811461070657600080fd5b9392505050565b634e487b7160e01b600052603260045260246000fd5b60018060a01b03841681526060602082015260008351806060840152610750816080850160208801610661565b63ffffffff93909316604083015250601f91909101601f19160160800192915050565b634e487b7160e01b600052601160045260246000fd5b60006001820161079b5761079b610773565b5060010190565b600082198211156107b5576107b5610773565b500190565b6000828210156107cc576107cc610773565b500390565b60008160001904831182151516156107eb576107eb610773565b50029056fea2646970667358221220bf521d8195513e4d37acedbc5d1e2f19aa7502960dc1fb32c1f65540ae52443964736f6c634300080d0033","bytecodeSha1":"e50b3e26ef9e58d09b0202e7376bd4e126e1f8fb","compiler":{"evm_version":"istanbul","optimizer":{"enabled":true,"runs":200},"version":"0.8.13+commit.abaa5c0e"},"contractName":"DestinationDomainSideBridge","language":"Solidity","natspec":{"author":"Sherif Abdelmoatty","kind":"dev","methods":{"claim((address,address,uint256,uint256,uint256,uint256,uint256))":{"notice":"withdraw functionwithdraws the required funds plus fees to be sent to the domain side rollup"},"constructor":{"notice":"Constructior functionIntialize variables"},"declareNewHashChainHead()":{"notice":"getLPFee functioncalculates the liquidity provider fee."}},"notice":"This contract is to be deployed in the destination rollup","title":"DestinationDomainSideBridge Contract","version":1},"opcodes":"PUSH1 0x80 PUSH1 0x40 MSTORE PUSH1 0x4 CALLDATASIZE LT PUSH2 0x34 JUMPI PUSH1 0x0 CALLDATALOAD PUSH1 0xE0 SHR DUP1 PUSH4 0x7AFB3A9F EQ PUSH2 0x39 JUMPI DUP1 PUSH4 0xE3D33FC9 EQ PUSH2 0x4E JUMPI DUP1 PUSH4 0xEE627198 EQ PUSH2 0x76 JUMPI JUMPDEST PUSH1 0x0 DUP1 REVERT JUMPDEST PUSH2 0x4C PUSH2 0x47 CALLDATASIZE PUSH1 0x4 PUSH2 0x5C3 JUMP JUMPDEST PUSH2 0x8B JUMP JUMPDEST STOP JUMPDEST CALLVALUE DUP1 ISZERO PUSH2 0x5A JUMPI PUSH1 0x0 DUP1 REVERT JUMPDEST POP PUSH2 0x64 PUSH1 0x2 SLOAD DUP2 JUMP JUMPDEST PUSH1 0x40 MLOAD SWAP1 DUP2 MSTORE PUSH1 0x20 ADD PUSH1 0x40 MLOAD DUP1 SWAP2 SUB SWAP1 RETURN JUMPDEST CALLVALUE DUP1 ISZERO PUSH2 0x82 JUMPI PUSH1 0x0 DUP1 REVERT JUMPDEST POP PUSH2 0x4C PUSH2 0x45B JUMP JUMPDEST PUSH1 0x0 PUSH1 0x2 DUP3 PUSH1 0x0 ADD MLOAD DUP4 PUSH1 0x20 ADD MLOAD DUP5 PUSH1 0x40 ADD MLOAD DUP6 PUSH1 0x60 ADD MLOAD DUP7 PUSH1 0x80 ADD MLOAD DUP8 PUSH1 0xA0 ADD MLOAD DUP9 PUSH1 0xC0 ADD MLOAD PUSH1 0x40 MLOAD PUSH1 0x20 ADD PUSH2 0x10C SWAP8 SWAP7 SWAP6 SWAP5 SWAP4 SWAP3 SWAP2 SWAP1 PUSH1 0x60 SWAP8 DUP9 SHL PUSH12 0xFFFFFFFFFFFFFFFFFFFFFFFF NOT SWAP1 DUP2 AND DUP3 MSTORE SWAP7 SWAP1 SWAP8 SHL SWAP1 SWAP6 AND PUSH1 0x14 DUP8 ADD MSTORE PUSH1 0x28 DUP7 ADD SWAP4 SWAP1 SWAP4 MSTORE PUSH1 0x48 DUP6 ADD SWAP2 SWAP1 SWAP2 MSTORE PUSH1 0x68 DUP5 ADD MSTORE PUSH1 0x88 DUP4 ADD MSTORE PUSH1 0xA8 DUP3 ADD MSTORE PUSH1 0xC8 ADD SWAP1 JUMP JUMPDEST PUSH1 0x40 DUP1 MLOAD PUSH1 0x1F NOT DUP2 DUP5 SUB ADD DUP2 MSTORE SWAP1 DUP3 SWAP1 MSTORE PUSH2 0x126 SWAP2 PUSH2 0x68D JUMP JUMPDEST PUSH1 0x20 PUSH1 0x40 MLOAD DUP1 DUP4 SUB DUP2 DUP6 GAS STATICCALL ISZERO DUP1 ISZERO PUSH2 0x143 JUMPI RETURNDATASIZE PUSH1 0x0 DUP1 RETURNDATACOPY RETURNDATASIZE PUSH1 0x0 REVERT JUMPDEST POP POP POP PUSH1 0x40 MLOAD RETURNDATASIZE PUSH1 0x1F NOT PUSH1 0x1F DUP3 ADD AND DUP3 ADD DUP1 PUSH1 0x40 MSTORE POP DUP2 ADD SWAP1 PUSH2 0x166 SWAP2 SWAP1 PUSH2 0x6A9 JUMP JUMPDEST PUSH1 0x0 DUP2 DUP2 MSTORE PUSH1 0x3 PUSH1 0x20 MSTORE PUSH1 0x40 SWAP1 KECCAK256 SLOAD SWAP1 SWAP2 POP PUSH1 0xFF AND ISZERO PUSH2 0x1CD JUMPI PUSH1 0x40 MLOAD PUSH3 0x461BCD PUSH1 0xE5 SHL DUP2 MSTORE PUSH1 0x20 PUSH1 0x4 DUP3 ADD MSTORE PUSH1 0x1B PUSH1 0x24 DUP3 ADD MSTORE PUSH32 0x5472616E7366657220616C726561647920636C61696D65642121210000000000 PUSH1 0x44 DUP3 ADD MSTORE PUSH1 0x64 ADD JUMPDEST PUSH1 0x40 MLOAD DUP1 SWAP2 SUB SWAP1 REVERT JUMPDEST PUSH1 0x0 DUP2 DUP2 MSTORE PUSH1 0x3 PUSH1 0x20 MSTORE PUSH1 0x40 DUP2 KECCAK256 DUP1 SLOAD PUSH1 0xFF NOT AND PUSH1 0x1 OR SWAP1 SSTORE PUSH2 0x1F0 DUP4 TIMESTAMP PUSH2 0x545 JUMP JUMPDEST PUSH1 0x40 DUP1 MLOAD PUSH1 0x80 DUP2 ADD DUP3 MSTORE PUSH1 0x0 PUSH1 0x20 DUP1 DUP4 ADD DUP3 DUP2 MSTORE DUP4 DUP6 ADD DUP4 DUP2 MSTORE PUSH1 0x60 DUP1 DUP7 ADD DUP6 DUP2 MSTORE DUP11 DUP8 MSTORE DUP12 MLOAD PUSH1 0x1 PUSH1 0x1 PUSH1 0xA0 SHL SUB DUP2 AND SWAP1 SWAP5 MSTORE CALLER SWAP3 DUP4 SWAP1 MSTORE DUP9 SWAP1 MSTORE SWAP4 SLOAD DUP7 MLOAD SWAP4 DUP5 ADD MSTORE SWAP5 DUP3 ADD DUP9 SWAP1 MSTORE DUP3 SHL PUSH12 0xFFFFFFFFFFFFFFFFFFFFFFFF NOT SWAP1 DUP2 AND DUP3 DUP5 ADD MSTORE SWAP4 SWAP1 SWAP2 SHL SWAP1 SWAP3 AND PUSH1 0x74 DUP4 ADD MSTORE PUSH1 0x88 DUP3 ADD DUP4 SWAP1 MSTORE SWAP2 SWAP3 POP PUSH1 0x2 SWAP1 PUSH1 0xA8 ADD PUSH1 0x40 DUP1 MLOAD PUSH1 0x1F NOT DUP2 DUP5 SUB ADD DUP2 MSTORE SWAP1 DUP3 SWAP1 MSTORE PUSH2 0x287 SWAP2 PUSH2 0x68D JUMP JUMPDEST PUSH1 0x20 PUSH1 0x40 MLOAD DUP1 DUP4 SUB DUP2 DUP6 GAS STATICCALL ISZERO DUP1 ISZERO PUSH2 0x2A4 JUMPI RETURNDATASIZE PUSH1 0x0 DUP1 RETURNDATACOPY RETURNDATASIZE PUSH1 0x0 REVERT JUMPDEST POP POP POP PUSH1 0x40 MLOAD RETURNDATASIZE PUSH1 0x1F NOT PUSH1 0x1F DUP3 ADD AND DUP3 ADD DUP1 PUSH1 0x40 MSTORE POP DUP2 ADD SWAP1 PUSH2 0x2C7 SWAP2 SWAP1 PUSH2 0x6A9 JUMP JUMPDEST PUSH1 0x0 SSTORE PUSH1 0x2 SLOAD PUSH2 0x2D9 SWAP1 PUSH1 0x64 SWAP1 PUSH2 0x6C2 JUMP JUMPDEST PUSH1 0x0 SUB PUSH2 0x315 JUMPI PUSH1 0x0 DUP1 SLOAD PUSH1 0x1 DUP1 SLOAD DUP1 DUP3 ADD DUP3 SSTORE SWAP3 MSTORE PUSH32 0xB10E2D527612073B26EECDFD717E6A320CF44B4AFAC2B0732D9FCBE2B7FA0CF6 SWAP1 SWAP2 ADD SSTORE JUMPDEST DUP4 MLOAD PUSH1 0x1 PUSH1 0x1 PUSH1 0xA0 SHL SUB AND PUSH2 0x3CB JUMPI DUP4 PUSH1 0x40 ADD MLOAD CALLVALUE LT ISZERO PUSH2 0x384 JUMPI PUSH1 0x40 MLOAD PUSH3 0x461BCD PUSH1 0xE5 SHL DUP2 MSTORE PUSH1 0x20 PUSH1 0x4 DUP3 ADD MSTORE PUSH1 0x24 DUP1 DUP3 ADD MSTORE PUSH32 0x4572726F72203A204E6F6E2053756666656369656E742066756E647321212121 PUSH1 0x44 DUP3 ADD MSTORE PUSH4 0x21212121 PUSH1 0xE0 SHL PUSH1 0x64 DUP3 ADD MSTORE PUSH1 0x84 ADD PUSH2 0x1C4 JUMP JUMPDEST DUP4 PUSH1 0x20 ADD MLOAD PUSH1 0x1 PUSH1 0x1 PUSH1 0xA0 SHL SUB AND PUSH2 0x8FC DUP6 PUSH1 0x40 ADD MLOAD SWAP1 DUP2 ISZERO MUL SWAP1 PUSH1 0x40 MLOAD PUSH1 0x0 PUSH1 0x40 MLOAD DUP1 DUP4 SUB DUP2 DUP6 DUP9 DUP9 CALL SWAP4 POP POP POP POP ISZERO DUP1 ISZERO PUSH2 0x3C5 JUMPI RETURNDATASIZE PUSH1 0x0 DUP1 RETURNDATACOPY RETURNDATASIZE PUSH1 0x0 REVERT JUMPDEST POP PUSH2 0x455 JUMP JUMPDEST DUP4 MLOAD PUSH1 0x20 DUP6 ADD MLOAD PUSH1 0x40 DUP1 DUP8 ADD MLOAD SWAP1 MLOAD PUSH4 0x23B872DD PUSH1 0xE0 SHL DUP2 MSTORE CALLER PUSH1 0x4 DUP3 ADD MSTORE PUSH1 0x1 PUSH1 0x1 PUSH1 0xA0 SHL SUB SWAP3 DUP4 AND PUSH1 0x24 DUP3 ADD MSTORE PUSH1 0x44 DUP2 ADD SWAP2 SWAP1 SWAP2 MSTORE SWAP1 DUP3 AND SWAP1 PUSH4 0x23B872DD SWAP1 PUSH1 0x64 ADD PUSH1 0x20 PUSH1 0x40 MLOAD DUP1 DUP4 SUB DUP2 PUSH1 0x0 DUP8 GAS CALL ISZERO DUP1 ISZERO PUSH2 0x42E JUMPI RETURNDATASIZE PUSH1 0x0 DUP1 RETURNDATACOPY RETURNDATASIZE PUSH1 0x0 REVERT JUMPDEST POP POP POP POP PUSH1 0x40 MLOAD RETURNDATASIZE PUSH1 0x1F NOT PUSH1 0x1F DUP3 ADD AND DUP3 ADD DUP1 PUSH1 0x40 MSTORE POP DUP2 ADD SWAP1 PUSH2 0x452 SWAP2 SWAP1 PUSH2 0x6E4 JUMP JUMPDEST POP POP JUMPDEST POP POP POP POP JUMP JUMPDEST PUSH1 0x5 SLOAD PUSH1 0x6 SLOAD PUSH1 0x4 SLOAD PUSH1 0x1 DUP1 SLOAD PUSH1 0x1 PUSH1 0x1 PUSH1 0xA0 SHL SUB SWAP5 DUP6 AND SWAP5 DUP6 SWAP5 PUSH4 0x3DBB202B SWAP5 SWAP2 AND SWAP3 SWAP2 DUP2 LT PUSH2 0x48E JUMPI PUSH2 0x48E PUSH2 0x70D JUMP JUMPDEST SWAP1 PUSH1 0x0 MSTORE PUSH1 0x20 PUSH1 0x0 KECCAK256 ADD SLOAD PUSH1 0x40 MLOAD PUSH1 0x24 ADD PUSH2 0x4AB SWAP2 DUP2 MSTORE PUSH1 0x20 ADD SWAP1 JUMP JUMPDEST PUSH1 0x40 DUP1 MLOAD PUSH1 0x1F NOT DUP2 DUP5 SUB ADD DUP2 MSTORE SWAP2 DUP2 MSTORE PUSH1 0x20 DUP3 ADD DUP1 MLOAD PUSH1 0x1 PUSH1 0x1 PUSH1 0xE0 SHL SUB AND PUSH4 0x1647998F PUSH1 0xE3 SHL OR SWAP1 MSTORE MLOAD PUSH1 0xE0 DUP5 SWAP1 SHL PUSH1 0x1 PUSH1 0x1 PUSH1 0xE0 SHL SUB NOT AND DUP2 MSTORE PUSH2 0x4FA SWAP3 SWAP2 SWAP1 PUSH3 0xF4240 SWAP1 PUSH1 0x4 ADD PUSH2 0x723 JUMP JUMPDEST PUSH1 0x0 PUSH1 0x40 MLOAD DUP1 DUP4 SUB DUP2 PUSH1 0x0 DUP8 DUP1 EXTCODESIZE ISZERO DUP1 ISZERO PUSH2 0x514 JUMPI PUSH1 0x0 DUP1 REVERT JUMPDEST POP GAS CALL ISZERO DUP1 ISZERO PUSH2 0x528 JUMPI RETURNDATASIZE PUSH1 0x0 DUP1 RETURNDATACOPY RETURNDATASIZE PUSH1 0x0 REVERT JUMPDEST POP POP PUSH1 0x4 DUP1 SLOAD SWAP3 POP SWAP1 POP PUSH1 0x0 PUSH2 0x53D DUP4 PUSH2 0x789 JUMP JUMPDEST SWAP2 SWAP1 POP SSTORE POP POP JUMP JUMPDEST PUSH1 0x0 DUP3 PUSH1 0x80 ADD MLOAD DUP3 LT ISZERO PUSH2 0x55B JUMPI POP PUSH1 0x0 PUSH2 0x5A1 JUMP JUMPDEST DUP3 PUSH1 0xA0 ADD MLOAD DUP4 PUSH1 0x80 ADD MLOAD PUSH2 0x56F SWAP2 SWAP1 PUSH2 0x7A2 JUMP JUMPDEST DUP3 LT PUSH2 0x580 JUMPI POP PUSH1 0x60 DUP3 ADD MLOAD PUSH2 0x5A1 JUMP JUMPDEST PUSH1 0x80 DUP4 ADD MLOAD PUSH2 0x58F SWAP1 DUP4 PUSH2 0x7BA JUMP JUMPDEST DUP4 PUSH1 0x60 ADD MLOAD PUSH2 0x59E SWAP2 SWAP1 PUSH2 0x7D1 JUMP JUMPDEST SWAP1 POP JUMPDEST SWAP3 SWAP2 POP POP JUMP JUMPDEST DUP1 CALLDATALOAD PUSH1 0x1 PUSH1 0x1 PUSH1 0xA0 SHL SUB DUP2 AND DUP2 EQ PUSH2 0x5BE JUMPI PUSH1 0x0 DUP1 REVERT JUMPDEST SWAP2 SWAP1 POP JUMP JUMPDEST PUSH1 0x0 PUSH1 0xE0 DUP3 DUP5 SUB SLT ISZERO PUSH2 0x5D5 JUMPI PUSH1 0x0 DUP1 REVERT JUMPDEST PUSH1 0x40 MLOAD PUSH1 0xE0 DUP2 ADD DUP2 DUP2 LT PUSH8 0xFFFFFFFFFFFFFFFF DUP3 GT OR ISZERO PUSH2 0x606 JUMPI PUSH4 0x4E487B71 PUSH1 0xE0 SHL PUSH1 0x0 MSTORE PUSH1 0x41 PUSH1 0x4 MSTORE PUSH1 0x24 PUSH1 0x0 REVERT JUMPDEST PUSH1 0x40 MSTORE PUSH2 0x612 DUP4 PUSH2 0x5A7 JUMP JUMPDEST DUP2 MSTORE PUSH2 0x620 PUSH1 0x20 DUP5 ADD PUSH2 0x5A7 JUMP JUMPDEST PUSH1 0x20 DUP3 ADD MSTORE PUSH1 0x40 DUP4 ADD CALLDATALOAD PUSH1 0x40 DUP3 ADD MSTORE PUSH1 0x60 DUP4 ADD CALLDATALOAD PUSH1 0x60 DUP3 ADD MSTORE PUSH1 0x80 DUP4 ADD CALLDATALOAD PUSH1 0x80 DUP3 ADD MSTORE PUSH1 0xA0 DUP4 ADD CALLDATALOAD PUSH1 0xA0 DUP3 ADD MSTORE PUSH1 0xC0 DUP4 ADD CALLDATALOAD PUSH1 0xC0 DUP3 ADD MSTORE DUP1 SWAP2 POP POP SWAP3 SWAP2 POP POP JUMP JUMPDEST PUSH1 0x0 JUMPDEST DUP4 DUP2 LT ISZERO PUSH2 0x67C JUMPI DUP2 DUP2 ADD MLOAD DUP4 DUP3 ADD MSTORE PUSH1 0x20 ADD PUSH2 0x664 JUMP JUMPDEST DUP4 DUP2 GT ISZERO PUSH2 0x455 JUMPI POP POP PUSH1 0x0 SWAP2 ADD MSTORE JUMP JUMPDEST PUSH1 0x0 DUP3 MLOAD PUSH2 0x69F DUP2 DUP5 PUSH1 0x20 DUP8 ADD PUSH2 0x661 JUMP JUMPDEST SWAP2 SWAP1 SWAP2 ADD SWAP3 SWAP2 POP POP JUMP JUMPDEST PUSH1 0x0 PUSH1 0x20 DUP3 DUP5 SUB SLT ISZERO PUSH2 0x6BB JUMPI PUSH1 0x0 DUP1 REVERT JUMPDEST POP MLOAD SWAP2 SWAP1 POP JUMP JUMPDEST PUSH1 0x0 DUP3 PUSH2 0x6DF JUMPI PUSH4 0x4E487B71 PUSH1 0xE0 SHL PUSH1 0x0 MSTORE PUSH1 0x12 PUSH1 0x4 MSTORE PUSH1 0x24 PUSH1 0x0 REVERT JUMPDEST POP MOD SWAP1 JUMP JUMPDEST PUSH1 0x0 PUSH1 0x20 DUP3 DUP5 SUB SLT ISZERO PUSH2 0x6F6 JUMPI PUSH1 0x0 DUP1 REVERT JUMPDEST DUP2 MLOAD DUP1 ISZERO ISZERO DUP2 EQ PUSH2 0x706 JUMPI PUSH1 0x0 DUP1 REVERT JUMPDEST SWAP4 SWAP3 POP POP POP JUMP JUMPDEST PUSH4 0x4E487B71 PUSH1 0xE0 SHL PUSH1 0x0 MSTORE PUSH1 0x32 PUSH1 0x4 MSTORE PUSH1 0x24 PUSH1 0x0 REVERT JUMPDEST PUSH1 0x1 DUP1 PUSH1 0xA0 SHL SUB DUP5 AND DUP2 MSTORE PUSH1 0x60 PUSH1 0x20 DUP3 ADD MSTORE PUSH1 0x0 DUP4 MLOAD DUP1 PUSH1 0x60 DUP5 ADD MSTORE PUSH2 0x750 DUP2 PUSH1 0x80 DUP6 ADD PUSH1 0x20 DUP9 ADD PUSH2 0x661 JUMP JUMPDEST PUSH4 0xFFFFFFFF SWAP4 SWAP1 SWAP4 AND PUSH1 0x40 DUP4 ADD MSTORE POP PUSH1 0x1F SWAP2 SWAP1 SWAP2 ADD PUSH1 0x1F NOT AND ADD PUSH1 0x80 ADD SWAP3 SWAP2 POP POP JUMP JUMPDEST PUSH4 0x4E487B71 PUSH1 0xE0 SHL PUSH1 0x0 MSTORE PUSH1 0x11 PUSH1 0x4 MSTORE PUSH1 0x24 PUSH1 0x0 REVERT JUMPDEST PUSH1 0x0 PUSH1 0x1 DUP3 ADD PUSH2 0x79B JUMPI PUSH2 0x79B PUSH2 0x773 JUMP JUMPDEST POP PUSH1 0x1 ADD SWAP1 JUMP JUMPDEST PUSH1 0x0 DUP3 NOT DUP3 GT ISZERO PUSH2 0x7B5 JUMPI PUSH2 0x7B5 PUSH2 0x773 JUMP JUMPDEST POP ADD SWAP1 JUMP JUMPDEST PUSH1 0x0 DUP3 DUP3 LT ISZERO PUSH2 0x7CC JUMPI PUSH2 0x7CC PUSH2 0x773 JUMP JUMPDEST POP SUB SWAP1 JUMP JUMPDEST PUSH1 0x0 DUP2 PUSH1 0x0 NOT DIV DUP4 GT DUP3 ISZERO ISZERO AND ISZERO PUSH2 0x7EB JUMPI PUSH2 0x7EB PUSH2 0x773 JUMP JUMPDEST POP MUL SWAP1 JUMP INVALID LOG2 PUSH5 0x6970667358 0x22 SLT KECCAK256 0xBF MSTORE SAR DUP2 SWAP6 MLOAD RETURNDATACOPY 0x4D CALLDATACOPY 0xAC 0xED 0xBC 0x5D 0x1E 0x2F NOT 0xAA PUSH22 0x2960DC1FB32C1F65540AE52443964736F6C63430008 0xD STOP CALLER ","sha1":"ddca97ad2f824ffaa96c73f15a1af4d9e91696b5","source":"//SPDX-License-Identifier: MIT\npragma solidity ^0.8.9;\n\nimport \"@openzeppelin/contracts/token/ERC20/ERC20.sol\";\nimport \"./deb/optimism/contracts/libraries/bridge/ICrossDomainMessenger.sol\";\n\n/// @title DestinationDomainSideBridge Contract\n/// @author Sherif Abdelmoatty\n/// @notice This contract is to be deployed in the destination rollup\ncontract DestinationDomainSideBridge {\n    address constant ETHER_ADDRESS = 0x0000000000000000000000000000000000000000;\n    uint constant CONTRACT_FEE_BASIS_POINTS = 5;\n    bytes32 rewardHashOnion;\n    bytes32[] rewardHashOnionHistoryList;\n    uint256 public transferCount;\n\n\n    struct TransferData {\n        address  tokenAddress; \n        address  destination;\n        uint256  amount;\n        uint256  fee;\n        uint256  startTime;\n        uint256  feeRampup;\n        uint256  nonce;\n    }\n\n    struct RewardData {\n        bytes32  transferDataHash;\n        address  tokenAddress; \n        address  claimer;\n        uint256  fee;\n    }\n\n    mapping(bytes32 => bool) claimedTransferHashes;\n    uint256 indexReportedHashOnion;\n    event Reward(RewardData rewardData);\n\n    address ovmL2CrossDomainMessenger;  //ovmL2CrossDomainMessenger contract address(Optimism)\n    address l1DomainSideContractAddress;  //L1DomainSideBridge deployed contract address on mainnet\n\n    /// @notice Constructior function\n    /// @notice Intialize variables\n    constructor(address _l1DomainSideContractAddress){\n        ovmL2CrossDomainMessenger = 0x4200000000000000000000000000000000000007;\n        l1DomainSideContractAddress = _l1DomainSideContractAddress;\n    }\n\n    /// @notice withdraw function\n    /// @notice withdraws the required funds plus fees to be sent \n    /// @notice to the domain side rollup\n    function claim(TransferData memory _transferData) external payable{\n \n        bytes32 transferDataHash = sha256(abi.encodePacked(\n            _transferData.tokenAddress,\n            _transferData.destination,\n            _transferData.amount,\n            _transferData.fee,\n            _transferData.startTime,\n            _transferData.feeRampup,\n            _transferData.nonce));\n        require(!claimedTransferHashes[transferDataHash], \"Transfer already claimed!!!\");\n        claimedTransferHashes[transferDataHash] = true;\n\n        uint256 fee = getLPFee(_transferData, block.timestamp);\n        RewardData memory rewardData;\n        rewardData.transferDataHash = transferDataHash;\n        rewardData.tokenAddress = _transferData.tokenAddress;\n        rewardData.claimer = msg.sender;\n        rewardData.fee = fee;\n        rewardHashOnion = sha256(abi.encodePacked(rewardHashOnion,  \n                rewardData.transferDataHash,\n                rewardData.tokenAddress,\n                rewardData.claimer,\n                rewardData.fee));\n        //emit Reward(RewardData);\n\n        if(transferCount % 100 == 0){\n            rewardHashOnionHistoryList.push(rewardHashOnion);\n        }\n\n        if(_transferData.tokenAddress == ETHER_ADDRESS){\n            require(msg.value >= _transferData.amount, \"Error : Non Suffecient funds!!!!!!!!\");\n            payable(_transferData.destination).transfer(_transferData.amount);\n        }else{\n            ERC20 token = ERC20(_transferData.tokenAddress);\n            token.transferFrom(msg.sender, _transferData.destination,\n                 _transferData.amount);\n        }\n    }\n    \n    /// @notice getLPFee function\n    /// @notice calculates the liquidity provider fee.\n    function getLPFee(TransferData memory _transferData, uint256 _currentTime) private pure returns (uint256) {\n        if(_currentTime < _transferData.startTime)\n            return 0;\n        else if(_currentTime >= _transferData.startTime + _transferData.feeRampup)\n            return _transferData.fee;\n        else\n            return _transferData.fee * (_currentTime - _transferData.startTime); // feeRampup\n    }\n    \n    /// @notice getLPFee function\n    /// @notice calculates the liquidity provider fee.\n    function declareNewHashChainHead() external{\n        ICrossDomainMessenger l2cdm = ICrossDomainMessenger(ovmL2CrossDomainMessenger);\n        l2cdm.sendMessage(\n            l1DomainSideContractAddress,\n            abi.encodeWithSignature(\n                \"declareNewHashChainHead(byte32)\",\n                rewardHashOnionHistoryList[indexReportedHashOnion]\n            ),\n            1000000 // use whatever gas limit you want\n        );\n        indexReportedHashOnion++;\n    }\n}","sourcePath":"contracts/DestinationDomainSideBridge.sol","type":"contract","deployment":{"address":"0xf9948C36d1a93619264975e08aE60F175f6026e4","chainid":"69","blockHeight":2431898}}